{
	"data": {
		"bytecode": {
			"linkReferences": {},
			"object": "6080604052348015600e575f80fd5b506117488061001c5f395ff3fe608060405234801561000f575f80fd5b506004361061003f575f3560e01c80631f252a8e14610043578063241084751461007357806381a60c0d1461008f575b5f80fd5b61005d60048036038101906100589190610ad0565b6100c0565b60405161006a9190610b70565b60405180910390f35b61008d60048036038101906100889190610bb3565b6101f3565b005b6100a960048036038101906100a49190610c0d565b610561565b6040516100b7929190610e0a565b60405180910390f35b5f80835111610104576040517f08c379a00000000000000000000000000000000000000000000000000000000081526004016100fb90610e99565b60405180910390fd5b5f60018160018154018082558091505003905f5260205f209050505f60015f805490506101319190610ee4565b90505f80828154811061014757610146610f17565b5b905f5260205f209060050201905085815f019081610165919061113e565b508481600101908051906020019061017e929190610796565b50834261018b919061120d565b816002015f6101000a81548163ffffffff021916908363ffffffff1602179055507f1ededd90e900e0bd1754831e81e2f375c8a8fbc71eeeb8d6610ae6ec1afc880e8686866040516101df939291906112ac565b60405180910390a181925050509392505050565b815f818154811061020757610206610f17565b5b905f5260205f2090600502016002015f9054906101000a900463ffffffff1663ffffffff16421061026d576040517f08c379a000000000000000000000000000000000000000000000000000000000815260040161026490611339565b60405180910390fd5b5f805490508311156102b4576040517f08c379a00000000000000000000000000000000000000000000000000000000081526004016102ab906113a1565b60405180910390fd5b5f8084815481106102c8576102c7610f17565b5b905f5260205f2090600502019050806004015f3373ffffffffffffffffffffffffffffffffffffffff1673ffffffffffffffffffffffffffffffffffffffff1681526020019081526020015f205f9054906101000a900460ff1615610362576040517f08c379a000000000000000000000000000000000000000000000000000000000815260040161035990611409565b60405180910390fd5b61043a81600101805480602002602001604051908101604052809291908181526020015f905b82821015610430578382905f5260205f200180546103a590610f71565b80601f01602080910402602001604051908101604052809291908181526020018280546103d190610f71565b801561041c5780601f106103f35761010080835404028352916020019161041c565b820191905f5260205f20905b8154815290600101906020018083116103ff57829003601f168201915b505050505081526020019060010190610388565b5050505084610733565b610479576040517f08c379a000000000000000000000000000000000000000000000000000000000815260040161047090611471565b60405180910390fd5b806003018360405161048b91906114c9565b90815260200160405180910390205f8154809291906104a9906114df565b91905055506001816004015f3373ffffffffffffffffffffffffffffffffffffffff1673ffffffffffffffffffffffffffffffffffffffff1681526020019081526020015f205f6101000a81548160ff0219169083151502179055507f038712374569e245b0d09fa173eb0b0392e784f9cc7895e53b879dc1f6ef9c2a3360405160200161053791906115e5565b604051602081830303815290604052604051610553919061165c565b60405180910390a150505050565b6060805f80848154811061057857610577610f17565b5b905f5260205f20906005020190505f816001018054905067ffffffffffffffff8111156105a8576105a7610891565b5b6040519080825280602002602001820160405280156105d65781602001602082028036833780820191505090505b5090505f5b8260010180549050811015610654578260030183600101828154811061060457610603610f17565b5b905f5260205f200160405161061991906116fc565b90815260200160405180910390205482828151811061063b5761063a610f17565b5b60200260200101818152505080806001019150506105db565b50816001018181805480602002602001604051908101604052809291908181526020015f905b82821015610722578382905f5260205f2001805461069790610f71565b80601f01602080910402602001604051908101604052809291908181526020018280546106c390610f71565b801561070e5780601f106106e55761010080835404028352916020019161070e565b820191905f5260205f20905b8154815290600101906020018083116106f157829003601f168201915b50505050508152602001906001019061067a565b505050509150935093505050915091565b5f80828051906020012090505f5b845181101561078a578185828151811061075e5761075d610f17565b5b6020026020010151805190602001200361077d57600192505050610790565b8080600101915050610741565b505f9150505b92915050565b828054828255905f5260205f209081019282156107dc579160200282015b828111156107db5782518290816107cb919061113e565b50916020019190600101906107b4565b5b5090506107e991906107ed565b5090565b5b8082111561080c575f81816108039190610810565b506001016107ee565b5090565b50805461081c90610f71565b5f825580601f1061082d575061084a565b601f0160209004905f5260205f2090810190610849919061084d565b5b50565b5b80821115610864575f815f90555060010161084e565b5090565b5f604051905090565b5f80fd5b5f80fd5b5f80fd5b5f80fd5b5f601f19601f8301169050919050565b7f4e487b71000000000000000000000000000000000000000000000000000000005f52604160045260245ffd5b6108c782610881565b810181811067ffffffffffffffff821117156108e6576108e5610891565b5b80604052505050565b5f6108f8610868565b905061090482826108be565b919050565b5f67ffffffffffffffff82111561092357610922610891565b5b61092c82610881565b9050602081019050919050565b828183375f83830152505050565b5f61095961095484610909565b6108ef565b9050828152602081018484840111156109755761097461087d565b5b610980848285610939565b509392505050565b5f82601f83011261099c5761099b610879565b5b81356109ac848260208601610947565b91505092915050565b5f67ffffffffffffffff8211156109cf576109ce610891565b5b602082029050602081019050919050565b5f80fd5b5f6109f66109f1846109b5565b6108ef565b90508083825260208201905060208402830185811115610a1957610a186109e0565b5b835b81811015610a6057803567ffffffffffffffff811115610a3e57610a3d610879565b5b808601610a4b8982610988565b85526020850194505050602081019050610a1b565b5050509392505050565b5f82601f830112610a7e57610a7d610879565b5b8135610a8e8482602086016109e4565b91505092915050565b5f63ffffffff82169050919050565b610aaf81610a97565b8114610ab9575f80fd5b50565b5f81359050610aca81610aa6565b92915050565b5f805f60608486031215610ae757610ae6610871565b5b5f84013567ffffffffffffffff811115610b0457610b03610875565b5b610b1086828701610988565b935050602084013567ffffffffffffffff811115610b3157610b30610875565b5b610b3d86828701610a6a565b9250506040610b4e86828701610abc565b9150509250925092565b5f819050919050565b610b6a81610b58565b82525050565b5f602082019050610b835f830184610b61565b92915050565b610b9281610b58565b8114610b9c575f80fd5b50565b5f81359050610bad81610b89565b92915050565b5f8060408385031215610bc957610bc8610871565b5b5f610bd685828601610b9f565b925050602083013567ffffffffffffffff811115610bf757610bf6610875565b5b610c0385828601610988565b9150509250929050565b5f60208284031215610c2257610c21610871565b5b5f610c2f84828501610b9f565b91505092915050565b5f81519050919050565b5f82825260208201905092915050565b5f819050602082019050919050565b5f81519050919050565b5f82825260208201905092915050565b8281835e5f83830152505050565b5f610c9382610c61565b610c9d8185610c6b565b9350610cad818560208601610c7b565b610cb681610881565b840191505092915050565b5f610ccc8383610c89565b905092915050565b5f602082019050919050565b5f610cea82610c38565b610cf48185610c42565b935083602082028501610d0685610c52565b805f5b85811015610d415784840389528151610d228582610cc1565b9450610d2d83610cd4565b925060208a01995050600181019050610d09565b50829750879550505050505092915050565b5f81519050919050565b5f82825260208201905092915050565b5f819050602082019050919050565b610d8581610b58565b82525050565b5f610d968383610d7c565b60208301905092915050565b5f602082019050919050565b5f610db882610d53565b610dc28185610d5d565b9350610dcd83610d6d565b805f5b83811015610dfd578151610de48882610d8b565b9750610def83610da2565b925050600181019050610dd0565b5085935050505092915050565b5f6040820190508181035f830152610e228185610ce0565b90508181036020830152610e368184610dae565b90509392505050565b5f82825260208201905092915050565b7f4e6f206f7074696f6e732070726f7669646564000000000000000000000000005f82015250565b5f610e83601383610e3f565b9150610e8e82610e4f565b602082019050919050565b5f6020820190508181035f830152610eb081610e77565b9050919050565b7f4e487b71000000000000000000000000000000000000000000000000000000005f52601160045260245ffd5b5f610eee82610b58565b9150610ef983610b58565b9250828203905081811115610f1157610f10610eb7565b5b92915050565b7f4e487b71000000000000000000000000000000000000000000000000000000005f52603260045260245ffd5b7f4e487b71000000000000000000000000000000000000000000000000000000005f52602260045260245ffd5b5f6002820490506001821680610f8857607f821691505b602082108103610f9b57610f9a610f44565b5b50919050565b5f819050815f5260205f209050919050565b5f6020601f8301049050919050565b5f82821b905092915050565b5f60088302610ffd7fffffffffffffffffffffffffffffffffffffffffffffffffffffffffffffffff82610fc2565b6110078683610fc2565b95508019841693508086168417925050509392505050565b5f819050919050565b5f61104261103d61103884610b58565b61101f565b610b58565b9050919050565b5f819050919050565b61105b83611028565b61106f61106782611049565b848454610fce565b825550505050565b5f90565b611083611077565b61108e818484611052565b505050565b5b818110156110b1576110a65f8261107b565b600181019050611094565b5050565b601f8211156110f6576110c781610fa1565b6110d084610fb3565b810160208510156110df578190505b6110f36110eb85610fb3565b830182611093565b50505b505050565b5f82821c905092915050565b5f6111165f19846008026110fb565b1980831691505092915050565b5f61112e8383611107565b9150826002028217905092915050565b61114782610c61565b67ffffffffffffffff8111156111605761115f610891565b5b61116a8254610f71565b6111758282856110b5565b5f60209050601f8311600181146111a6575f8415611194578287015190505b61119e8582611123565b865550611205565b601f1984166111b486610fa1565b5f5b828110156111db578489015182556001820191506020850194506020810190506111b6565b868310156111f857848901516111f4601f891682611107565b8355505b6001600288020188555050505b505050505050565b5f61121782610a97565b915061122283610a97565b9250828201905063ffffffff81111561123e5761123d610eb7565b5b92915050565b5f61124e82610c61565b6112588185610e3f565b9350611268818560208601610c7b565b61127181610881565b840191505092915050565b5f61129661129161128c84610a97565b61101f565b610b58565b9050919050565b6112a68161127c565b82525050565b5f6060820190508181035f8301526112c48186611244565b905081810360208301526112d88185610ce0565b90506112e7604083018461129d565b949350505050565b7f506f6c6c20636c6f7365640000000000000000000000000000000000000000005f82015250565b5f611323600b83610e3f565b915061132e826112ef565b602082019050919050565b5f6020820190508181035f83015261135081611317565b9050919050565b7f496e76616c696420506f6c6c20494400000000000000000000000000000000005f82015250565b5f61138b600f83610e3f565b915061139682611357565b602082019050919050565b5f6020820190508181035f8301526113b88161137f565b9050919050565b7f416c726561647920766f746564000000000000000000000000000000000000005f82015250565b5f6113f3600d83610e3f565b91506113fe826113bf565b602082019050919050565b5f6020820190508181035f830152611420816113e7565b9050919050565b7f496e76616c6964206f7074696f6e0000000000000000000000000000000000005f82015250565b5f61145b600e83610e3f565b915061146682611427565b602082019050919050565b5f6020820190508181035f8301526114888161144f565b9050919050565b5f81905092915050565b5f6114a382610c61565b6114ad818561148f565b93506114bd818560208601610c7b565b80840191505092915050565b5f6114d48284611499565b915081905092915050565b5f6114e982610b58565b91507fffffffffffffffffffffffffffffffffffffffffffffffffffffffffffffffff820361151b5761151a610eb7565b5b600182019050919050565b5f73ffffffffffffffffffffffffffffffffffffffff82169050919050565b5f61154f82611526565b9050919050565b5f8160601b9050919050565b5f61156c82611556565b9050919050565b5f61157d82611562565b9050919050565b61159561159082611545565b611573565b82525050565b7f2068617320766f7465642e0000000000000000000000000000000000000000005f82015250565b5f6115cf600b8361148f565b91506115da8261159b565b600b82019050919050565b5f6115f08284611584565b6014820191506115ff826115c3565b915081905092915050565b5f81519050919050565b5f82825260208201905092915050565b5f61162e8261160a565b6116388185611614565b9350611648818560208601610c7b565b61165181610881565b840191505092915050565b5f6020820190508181035f8301526116748184611624565b905092915050565b5f815461168881610f71565b611692818661148f565b9450600182165f81146116ac57600181146116c1576116f3565b60ff19831686528115158202860193506116f3565b6116ca85610fa1565b5f5b838110156116eb578154818901526001820191506020810190506116cc565b838801955050505b50505092915050565b5f611707828461167c565b91508190509291505056fea2646970667358221220a4339999712b5ff1e9fdbf6e94ba89e7a04c300e92d6577135928b2278f0b0f164736f6c634300081a0033",
			"opcodes": "PUSH1 0x80 PUSH1 0x40 MSTORE CALLVALUE DUP1 ISZERO PUSH1 0xE JUMPI PUSH0 DUP1 REVERT JUMPDEST POP PUSH2 0x1748 DUP1 PUSH2 0x1C PUSH0 CODECOPY PUSH0 RETURN INVALID PUSH1 0x80 PUSH1 0x40 MSTORE CALLVALUE DUP1 ISZERO PUSH2 0xF JUMPI PUSH0 DUP1 REVERT JUMPDEST POP PUSH1 0x4 CALLDATASIZE LT PUSH2 0x3F JUMPI PUSH0 CALLDATALOAD PUSH1 0xE0 SHR DUP1 PUSH4 0x1F252A8E EQ PUSH2 0x43 JUMPI DUP1 PUSH4 0x24108475 EQ PUSH2 0x73 JUMPI DUP1 PUSH4 0x81A60C0D EQ PUSH2 0x8F JUMPI JUMPDEST PUSH0 DUP1 REVERT JUMPDEST PUSH2 0x5D PUSH1 0x4 DUP1 CALLDATASIZE SUB DUP2 ADD SWAP1 PUSH2 0x58 SWAP2 SWAP1 PUSH2 0xAD0 JUMP JUMPDEST PUSH2 0xC0 JUMP JUMPDEST PUSH1 0x40 MLOAD PUSH2 0x6A SWAP2 SWAP1 PUSH2 0xB70 JUMP JUMPDEST PUSH1 0x40 MLOAD DUP1 SWAP2 SUB SWAP1 RETURN JUMPDEST PUSH2 0x8D PUSH1 0x4 DUP1 CALLDATASIZE SUB DUP2 ADD SWAP1 PUSH2 0x88 SWAP2 SWAP1 PUSH2 0xBB3 JUMP JUMPDEST PUSH2 0x1F3 JUMP JUMPDEST STOP JUMPDEST PUSH2 0xA9 PUSH1 0x4 DUP1 CALLDATASIZE SUB DUP2 ADD SWAP1 PUSH2 0xA4 SWAP2 SWAP1 PUSH2 0xC0D JUMP JUMPDEST PUSH2 0x561 JUMP JUMPDEST PUSH1 0x40 MLOAD PUSH2 0xB7 SWAP3 SWAP2 SWAP1 PUSH2 0xE0A JUMP JUMPDEST PUSH1 0x40 MLOAD DUP1 SWAP2 SUB SWAP1 RETURN JUMPDEST PUSH0 DUP1 DUP4 MLOAD GT PUSH2 0x104 JUMPI PUSH1 0x40 MLOAD PUSH32 0x8C379A000000000000000000000000000000000000000000000000000000000 DUP2 MSTORE PUSH1 0x4 ADD PUSH2 0xFB SWAP1 PUSH2 0xE99 JUMP JUMPDEST PUSH1 0x40 MLOAD DUP1 SWAP2 SUB SWAP1 REVERT JUMPDEST PUSH0 PUSH1 0x1 DUP2 PUSH1 0x1 DUP2 SLOAD ADD DUP1 DUP3 SSTORE DUP1 SWAP2 POP POP SUB SWAP1 PUSH0 MSTORE PUSH1 0x20 PUSH0 KECCAK256 SWAP1 POP POP PUSH0 PUSH1 0x1 PUSH0 DUP1 SLOAD SWAP1 POP PUSH2 0x131 SWAP2 SWAP1 PUSH2 0xEE4 JUMP JUMPDEST SWAP1 POP PUSH0 DUP1 DUP3 DUP2 SLOAD DUP2 LT PUSH2 0x147 JUMPI PUSH2 0x146 PUSH2 0xF17 JUMP JUMPDEST JUMPDEST SWAP1 PUSH0 MSTORE PUSH1 0x20 PUSH0 KECCAK256 SWAP1 PUSH1 0x5 MUL ADD SWAP1 POP DUP6 DUP2 PUSH0 ADD SWAP1 DUP2 PUSH2 0x165 SWAP2 SWAP1 PUSH2 0x113E JUMP JUMPDEST POP DUP5 DUP2 PUSH1 0x1 ADD SWAP1 DUP1 MLOAD SWAP1 PUSH1 0x20 ADD SWAP1 PUSH2 0x17E SWAP3 SWAP2 SWAP1 PUSH2 0x796 JUMP JUMPDEST POP DUP4 TIMESTAMP PUSH2 0x18B SWAP2 SWAP1 PUSH2 0x120D JUMP JUMPDEST DUP2 PUSH1 0x2 ADD PUSH0 PUSH2 0x100 EXP DUP2 SLOAD DUP2 PUSH4 0xFFFFFFFF MUL NOT AND SWAP1 DUP4 PUSH4 0xFFFFFFFF AND MUL OR SWAP1 SSTORE POP PUSH32 0x1EDEDD90E900E0BD1754831E81E2F375C8A8FBC71EEEB8D6610AE6EC1AFC880E DUP7 DUP7 DUP7 PUSH1 0x40 MLOAD PUSH2 0x1DF SWAP4 SWAP3 SWAP2 SWAP1 PUSH2 0x12AC JUMP JUMPDEST PUSH1 0x40 MLOAD DUP1 SWAP2 SUB SWAP1 LOG1 DUP2 SWAP3 POP POP POP SWAP4 SWAP3 POP POP POP JUMP JUMPDEST DUP2 PUSH0 DUP2 DUP2 SLOAD DUP2 LT PUSH2 0x207 JUMPI PUSH2 0x206 PUSH2 0xF17 JUMP JUMPDEST JUMPDEST SWAP1 PUSH0 MSTORE PUSH1 0x20 PUSH0 KECCAK256 SWAP1 PUSH1 0x5 MUL ADD PUSH1 0x2 ADD PUSH0 SWAP1 SLOAD SWAP1 PUSH2 0x100 EXP SWAP1 DIV PUSH4 0xFFFFFFFF AND PUSH4 0xFFFFFFFF AND TIMESTAMP LT PUSH2 0x26D JUMPI PUSH1 0x40 MLOAD PUSH32 0x8C379A000000000000000000000000000000000000000000000000000000000 DUP2 MSTORE PUSH1 0x4 ADD PUSH2 0x264 SWAP1 PUSH2 0x1339 JUMP JUMPDEST PUSH1 0x40 MLOAD DUP1 SWAP2 SUB SWAP1 REVERT JUMPDEST PUSH0 DUP1 SLOAD SWAP1 POP DUP4 GT ISZERO PUSH2 0x2B4 JUMPI PUSH1 0x40 MLOAD PUSH32 0x8C379A000000000000000000000000000000000000000000000000000000000 DUP2 MSTORE PUSH1 0x4 ADD PUSH2 0x2AB SWAP1 PUSH2 0x13A1 JUMP JUMPDEST PUSH1 0x40 MLOAD DUP1 SWAP2 SUB SWAP1 REVERT JUMPDEST PUSH0 DUP1 DUP5 DUP2 SLOAD DUP2 LT PUSH2 0x2C8 JUMPI PUSH2 0x2C7 PUSH2 0xF17 JUMP JUMPDEST JUMPDEST SWAP1 PUSH0 MSTORE PUSH1 0x20 PUSH0 KECCAK256 SWAP1 PUSH1 0x5 MUL ADD SWAP1 POP DUP1 PUSH1 0x4 ADD PUSH0 CALLER PUSH20 0xFFFFFFFFFFFFFFFFFFFFFFFFFFFFFFFFFFFFFFFF AND PUSH20 0xFFFFFFFFFFFFFFFFFFFFFFFFFFFFFFFFFFFFFFFF AND DUP2 MSTORE PUSH1 0x20 ADD SWAP1 DUP2 MSTORE PUSH1 0x20 ADD PUSH0 KECCAK256 PUSH0 SWAP1 SLOAD SWAP1 PUSH2 0x100 EXP SWAP1 DIV PUSH1 0xFF AND ISZERO PUSH2 0x362 JUMPI PUSH1 0x40 MLOAD PUSH32 0x8C379A000000000000000000000000000000000000000000000000000000000 DUP2 MSTORE PUSH1 0x4 ADD PUSH2 0x359 SWAP1 PUSH2 0x1409 JUMP JUMPDEST PUSH1 0x40 MLOAD DUP1 SWAP2 SUB SWAP1 REVERT JUMPDEST PUSH2 0x43A DUP2 PUSH1 0x1 ADD DUP1 SLOAD DUP1 PUSH1 0x20 MUL PUSH1 0x20 ADD PUSH1 0x40 MLOAD SWAP1 DUP2 ADD PUSH1 0x40 MSTORE DUP1 SWAP3 SWAP2 SWAP1 DUP2 DUP2 MSTORE PUSH1 0x20 ADD PUSH0 SWAP1 JUMPDEST DUP3 DUP3 LT ISZERO PUSH2 0x430 JUMPI DUP4 DUP3 SWAP1 PUSH0 MSTORE PUSH1 0x20 PUSH0 KECCAK256 ADD DUP1 SLOAD PUSH2 0x3A5 SWAP1 PUSH2 0xF71 JUMP JUMPDEST DUP1 PUSH1 0x1F ADD PUSH1 0x20 DUP1 SWAP2 DIV MUL PUSH1 0x20 ADD PUSH1 0x40 MLOAD SWAP1 DUP2 ADD PUSH1 0x40 MSTORE DUP1 SWAP3 SWAP2 SWAP1 DUP2 DUP2 MSTORE PUSH1 0x20 ADD DUP3 DUP1 SLOAD PUSH2 0x3D1 SWAP1 PUSH2 0xF71 JUMP JUMPDEST DUP1 ISZERO PUSH2 0x41C JUMPI DUP1 PUSH1 0x1F LT PUSH2 0x3F3 JUMPI PUSH2 0x100 DUP1 DUP4 SLOAD DIV MUL DUP4 MSTORE SWAP2 PUSH1 0x20 ADD SWAP2 PUSH2 0x41C JUMP JUMPDEST DUP3 ADD SWAP2 SWAP1 PUSH0 MSTORE PUSH1 0x20 PUSH0 KECCAK256 SWAP1 JUMPDEST DUP2 SLOAD DUP2 MSTORE SWAP1 PUSH1 0x1 ADD SWAP1 PUSH1 0x20 ADD DUP1 DUP4 GT PUSH2 0x3FF JUMPI DUP3 SWAP1 SUB PUSH1 0x1F AND DUP3 ADD SWAP2 JUMPDEST POP POP POP POP POP DUP2 MSTORE PUSH1 0x20 ADD SWAP1 PUSH1 0x1 ADD SWAP1 PUSH2 0x388 JUMP JUMPDEST POP POP POP POP DUP5 PUSH2 0x733 JUMP JUMPDEST PUSH2 0x479 JUMPI PUSH1 0x40 MLOAD PUSH32 0x8C379A000000000000000000000000000000000000000000000000000000000 DUP2 MSTORE PUSH1 0x4 ADD PUSH2 0x470 SWAP1 PUSH2 0x1471 JUMP JUMPDEST PUSH1 0x40 MLOAD DUP1 SWAP2 SUB SWAP1 REVERT JUMPDEST DUP1 PUSH1 0x3 ADD DUP4 PUSH1 0x40 MLOAD PUSH2 0x48B SWAP2 SWAP1 PUSH2 0x14C9 JUMP JUMPDEST SWAP1 DUP2 MSTORE PUSH1 0x20 ADD PUSH1 0x40 MLOAD DUP1 SWAP2 SUB SWAP1 KECCAK256 PUSH0 DUP2 SLOAD DUP1 SWAP3 SWAP2 SWAP1 PUSH2 0x4A9 SWAP1 PUSH2 0x14DF JUMP JUMPDEST SWAP2 SWAP1 POP SSTORE POP PUSH1 0x1 DUP2 PUSH1 0x4 ADD PUSH0 CALLER PUSH20 0xFFFFFFFFFFFFFFFFFFFFFFFFFFFFFFFFFFFFFFFF AND PUSH20 0xFFFFFFFFFFFFFFFFFFFFFFFFFFFFFFFFFFFFFFFF AND DUP2 MSTORE PUSH1 0x20 ADD SWAP1 DUP2 MSTORE PUSH1 0x20 ADD PUSH0 KECCAK256 PUSH0 PUSH2 0x100 EXP DUP2 SLOAD DUP2 PUSH1 0xFF MUL NOT AND SWAP1 DUP4 ISZERO ISZERO MUL OR SWAP1 SSTORE POP PUSH32 0x38712374569E245B0D09FA173EB0B0392E784F9CC7895E53B879DC1F6EF9C2A CALLER PUSH1 0x40 MLOAD PUSH1 0x20 ADD PUSH2 0x537 SWAP2 SWAP1 PUSH2 0x15E5 JUMP JUMPDEST PUSH1 0x40 MLOAD PUSH1 0x20 DUP2 DUP4 SUB SUB DUP2 MSTORE SWAP1 PUSH1 0x40 MSTORE PUSH1 0x40 MLOAD PUSH2 0x553 SWAP2 SWAP1 PUSH2 0x165C JUMP JUMPDEST PUSH1 0x40 MLOAD DUP1 SWAP2 SUB SWAP1 LOG1 POP POP POP POP JUMP JUMPDEST PUSH1 0x60 DUP1 PUSH0 DUP1 DUP5 DUP2 SLOAD DUP2 LT PUSH2 0x578 JUMPI PUSH2 0x577 PUSH2 0xF17 JUMP JUMPDEST JUMPDEST SWAP1 PUSH0 MSTORE PUSH1 0x20 PUSH0 KECCAK256 SWAP1 PUSH1 0x5 MUL ADD SWAP1 POP PUSH0 DUP2 PUSH1 0x1 ADD DUP1 SLOAD SWAP1 POP PUSH8 0xFFFFFFFFFFFFFFFF DUP2 GT ISZERO PUSH2 0x5A8 JUMPI PUSH2 0x5A7 PUSH2 0x891 JUMP JUMPDEST JUMPDEST PUSH1 0x40 MLOAD SWAP1 DUP1 DUP3 MSTORE DUP1 PUSH1 0x20 MUL PUSH1 0x20 ADD DUP3 ADD PUSH1 0x40 MSTORE DUP1 ISZERO PUSH2 0x5D6 JUMPI DUP2 PUSH1 0x20 ADD PUSH1 0x20 DUP3 MUL DUP1 CALLDATASIZE DUP4 CALLDATACOPY DUP1 DUP3 ADD SWAP2 POP POP SWAP1 POP JUMPDEST POP SWAP1 POP PUSH0 JUMPDEST DUP3 PUSH1 0x1 ADD DUP1 SLOAD SWAP1 POP DUP2 LT ISZERO PUSH2 0x654 JUMPI DUP3 PUSH1 0x3 ADD DUP4 PUSH1 0x1 ADD DUP3 DUP2 SLOAD DUP2 LT PUSH2 0x604 JUMPI PUSH2 0x603 PUSH2 0xF17 JUMP JUMPDEST JUMPDEST SWAP1 PUSH0 MSTORE PUSH1 0x20 PUSH0 KECCAK256 ADD PUSH1 0x40 MLOAD PUSH2 0x619 SWAP2 SWAP1 PUSH2 0x16FC JUMP JUMPDEST SWAP1 DUP2 MSTORE PUSH1 0x20 ADD PUSH1 0x40 MLOAD DUP1 SWAP2 SUB SWAP1 KECCAK256 SLOAD DUP3 DUP3 DUP2 MLOAD DUP2 LT PUSH2 0x63B JUMPI PUSH2 0x63A PUSH2 0xF17 JUMP JUMPDEST JUMPDEST PUSH1 0x20 MUL PUSH1 0x20 ADD ADD DUP2 DUP2 MSTORE POP POP DUP1 DUP1 PUSH1 0x1 ADD SWAP2 POP POP PUSH2 0x5DB JUMP JUMPDEST POP DUP2 PUSH1 0x1 ADD DUP2 DUP2 DUP1 SLOAD DUP1 PUSH1 0x20 MUL PUSH1 0x20 ADD PUSH1 0x40 MLOAD SWAP1 DUP2 ADD PUSH1 0x40 MSTORE DUP1 SWAP3 SWAP2 SWAP1 DUP2 DUP2 MSTORE PUSH1 0x20 ADD PUSH0 SWAP1 JUMPDEST DUP3 DUP3 LT ISZERO PUSH2 0x722 JUMPI DUP4 DUP3 SWAP1 PUSH0 MSTORE PUSH1 0x20 PUSH0 KECCAK256 ADD DUP1 SLOAD PUSH2 0x697 SWAP1 PUSH2 0xF71 JUMP JUMPDEST DUP1 PUSH1 0x1F ADD PUSH1 0x20 DUP1 SWAP2 DIV MUL PUSH1 0x20 ADD PUSH1 0x40 MLOAD SWAP1 DUP2 ADD PUSH1 0x40 MSTORE DUP1 SWAP3 SWAP2 SWAP1 DUP2 DUP2 MSTORE PUSH1 0x20 ADD DUP3 DUP1 SLOAD PUSH2 0x6C3 SWAP1 PUSH2 0xF71 JUMP JUMPDEST DUP1 ISZERO PUSH2 0x70E JUMPI DUP1 PUSH1 0x1F LT PUSH2 0x6E5 JUMPI PUSH2 0x100 DUP1 DUP4 SLOAD DIV MUL DUP4 MSTORE SWAP2 PUSH1 0x20 ADD SWAP2 PUSH2 0x70E JUMP JUMPDEST DUP3 ADD SWAP2 SWAP1 PUSH0 MSTORE PUSH1 0x20 PUSH0 KECCAK256 SWAP1 JUMPDEST DUP2 SLOAD DUP2 MSTORE SWAP1 PUSH1 0x1 ADD SWAP1 PUSH1 0x20 ADD DUP1 DUP4 GT PUSH2 0x6F1 JUMPI DUP3 SWAP1 SUB PUSH1 0x1F AND DUP3 ADD SWAP2 JUMPDEST POP POP POP POP POP DUP2 MSTORE PUSH1 0x20 ADD SWAP1 PUSH1 0x1 ADD SWAP1 PUSH2 0x67A JUMP JUMPDEST POP POP POP POP SWAP2 POP SWAP4 POP SWAP4 POP POP POP SWAP2 POP SWAP2 JUMP JUMPDEST PUSH0 DUP1 DUP3 DUP1 MLOAD SWAP1 PUSH1 0x20 ADD KECCAK256 SWAP1 POP PUSH0 JUMPDEST DUP5 MLOAD DUP2 LT ISZERO PUSH2 0x78A JUMPI DUP2 DUP6 DUP3 DUP2 MLOAD DUP2 LT PUSH2 0x75E JUMPI PUSH2 0x75D PUSH2 0xF17 JUMP JUMPDEST JUMPDEST PUSH1 0x20 MUL PUSH1 0x20 ADD ADD MLOAD DUP1 MLOAD SWAP1 PUSH1 0x20 ADD KECCAK256 SUB PUSH2 0x77D JUMPI PUSH1 0x1 SWAP3 POP POP POP PUSH2 0x790 JUMP JUMPDEST DUP1 DUP1 PUSH1 0x1 ADD SWAP2 POP POP PUSH2 0x741 JUMP JUMPDEST POP PUSH0 SWAP2 POP POP JUMPDEST SWAP3 SWAP2 POP POP JUMP JUMPDEST DUP3 DUP1 SLOAD DUP3 DUP3 SSTORE SWAP1 PUSH0 MSTORE PUSH1 0x20 PUSH0 KECCAK256 SWAP1 DUP2 ADD SWAP3 DUP3 ISZERO PUSH2 0x7DC JUMPI SWAP2 PUSH1 0x20 MUL DUP3 ADD JUMPDEST DUP3 DUP2 GT ISZERO PUSH2 0x7DB JUMPI DUP3 MLOAD DUP3 SWAP1 DUP2 PUSH2 0x7CB SWAP2 SWAP1 PUSH2 0x113E JUMP JUMPDEST POP SWAP2 PUSH1 0x20 ADD SWAP2 SWAP1 PUSH1 0x1 ADD SWAP1 PUSH2 0x7B4 JUMP JUMPDEST JUMPDEST POP SWAP1 POP PUSH2 0x7E9 SWAP2 SWAP1 PUSH2 0x7ED JUMP JUMPDEST POP SWAP1 JUMP JUMPDEST JUMPDEST DUP1 DUP3 GT ISZERO PUSH2 0x80C JUMPI PUSH0 DUP2 DUP2 PUSH2 0x803 SWAP2 SWAP1 PUSH2 0x810 JUMP JUMPDEST POP PUSH1 0x1 ADD PUSH2 0x7EE JUMP JUMPDEST POP SWAP1 JUMP JUMPDEST POP DUP1 SLOAD PUSH2 0x81C SWAP1 PUSH2 0xF71 JUMP JUMPDEST PUSH0 DUP3 SSTORE DUP1 PUSH1 0x1F LT PUSH2 0x82D JUMPI POP PUSH2 0x84A JUMP JUMPDEST PUSH1 0x1F ADD PUSH1 0x20 SWAP1 DIV SWAP1 PUSH0 MSTORE PUSH1 0x20 PUSH0 KECCAK256 SWAP1 DUP2 ADD SWAP1 PUSH2 0x849 SWAP2 SWAP1 PUSH2 0x84D JUMP JUMPDEST JUMPDEST POP JUMP JUMPDEST JUMPDEST DUP1 DUP3 GT ISZERO PUSH2 0x864 JUMPI PUSH0 DUP2 PUSH0 SWAP1 SSTORE POP PUSH1 0x1 ADD PUSH2 0x84E JUMP JUMPDEST POP SWAP1 JUMP JUMPDEST PUSH0 PUSH1 0x40 MLOAD SWAP1 POP SWAP1 JUMP JUMPDEST PUSH0 DUP1 REVERT JUMPDEST PUSH0 DUP1 REVERT JUMPDEST PUSH0 DUP1 REVERT JUMPDEST PUSH0 DUP1 REVERT JUMPDEST PUSH0 PUSH1 0x1F NOT PUSH1 0x1F DUP4 ADD AND SWAP1 POP SWAP2 SWAP1 POP JUMP JUMPDEST PUSH32 0x4E487B7100000000000000000000000000000000000000000000000000000000 PUSH0 MSTORE PUSH1 0x41 PUSH1 0x4 MSTORE PUSH1 0x24 PUSH0 REVERT JUMPDEST PUSH2 0x8C7 DUP3 PUSH2 0x881 JUMP JUMPDEST DUP2 ADD DUP2 DUP2 LT PUSH8 0xFFFFFFFFFFFFFFFF DUP3 GT OR ISZERO PUSH2 0x8E6 JUMPI PUSH2 0x8E5 PUSH2 0x891 JUMP JUMPDEST JUMPDEST DUP1 PUSH1 0x40 MSTORE POP POP POP JUMP JUMPDEST PUSH0 PUSH2 0x8F8 PUSH2 0x868 JUMP JUMPDEST SWAP1 POP PUSH2 0x904 DUP3 DUP3 PUSH2 0x8BE JUMP JUMPDEST SWAP2 SWAP1 POP JUMP JUMPDEST PUSH0 PUSH8 0xFFFFFFFFFFFFFFFF DUP3 GT ISZERO PUSH2 0x923 JUMPI PUSH2 0x922 PUSH2 0x891 JUMP JUMPDEST JUMPDEST PUSH2 0x92C DUP3 PUSH2 0x881 JUMP JUMPDEST SWAP1 POP PUSH1 0x20 DUP2 ADD SWAP1 POP SWAP2 SWAP1 POP JUMP JUMPDEST DUP3 DUP2 DUP4 CALLDATACOPY PUSH0 DUP4 DUP4 ADD MSTORE POP POP POP JUMP JUMPDEST PUSH0 PUSH2 0x959 PUSH2 0x954 DUP5 PUSH2 0x909 JUMP JUMPDEST PUSH2 0x8EF JUMP JUMPDEST SWAP1 POP DUP3 DUP2 MSTORE PUSH1 0x20 DUP2 ADD DUP5 DUP5 DUP5 ADD GT ISZERO PUSH2 0x975 JUMPI PUSH2 0x974 PUSH2 0x87D JUMP JUMPDEST JUMPDEST PUSH2 0x980 DUP5 DUP3 DUP6 PUSH2 0x939 JUMP JUMPDEST POP SWAP4 SWAP3 POP POP POP JUMP JUMPDEST PUSH0 DUP3 PUSH1 0x1F DUP4 ADD SLT PUSH2 0x99C JUMPI PUSH2 0x99B PUSH2 0x879 JUMP JUMPDEST JUMPDEST DUP2 CALLDATALOAD PUSH2 0x9AC DUP5 DUP3 PUSH1 0x20 DUP7 ADD PUSH2 0x947 JUMP JUMPDEST SWAP2 POP POP SWAP3 SWAP2 POP POP JUMP JUMPDEST PUSH0 PUSH8 0xFFFFFFFFFFFFFFFF DUP3 GT ISZERO PUSH2 0x9CF JUMPI PUSH2 0x9CE PUSH2 0x891 JUMP JUMPDEST JUMPDEST PUSH1 0x20 DUP3 MUL SWAP1 POP PUSH1 0x20 DUP2 ADD SWAP1 POP SWAP2 SWAP1 POP JUMP JUMPDEST PUSH0 DUP1 REVERT JUMPDEST PUSH0 PUSH2 0x9F6 PUSH2 0x9F1 DUP5 PUSH2 0x9B5 JUMP JUMPDEST PUSH2 0x8EF JUMP JUMPDEST SWAP1 POP DUP1 DUP4 DUP3 MSTORE PUSH1 0x20 DUP3 ADD SWAP1 POP PUSH1 0x20 DUP5 MUL DUP4 ADD DUP6 DUP2 GT ISZERO PUSH2 0xA19 JUMPI PUSH2 0xA18 PUSH2 0x9E0 JUMP JUMPDEST JUMPDEST DUP4 JUMPDEST DUP2 DUP2 LT ISZERO PUSH2 0xA60 JUMPI DUP1 CALLDATALOAD PUSH8 0xFFFFFFFFFFFFFFFF DUP2 GT ISZERO PUSH2 0xA3E JUMPI PUSH2 0xA3D PUSH2 0x879 JUMP JUMPDEST JUMPDEST DUP1 DUP7 ADD PUSH2 0xA4B DUP10 DUP3 PUSH2 0x988 JUMP JUMPDEST DUP6 MSTORE PUSH1 0x20 DUP6 ADD SWAP5 POP POP POP PUSH1 0x20 DUP2 ADD SWAP1 POP PUSH2 0xA1B JUMP JUMPDEST POP POP POP SWAP4 SWAP3 POP POP POP JUMP JUMPDEST PUSH0 DUP3 PUSH1 0x1F DUP4 ADD SLT PUSH2 0xA7E JUMPI PUSH2 0xA7D PUSH2 0x879 JUMP JUMPDEST JUMPDEST DUP2 CALLDATALOAD PUSH2 0xA8E DUP5 DUP3 PUSH1 0x20 DUP7 ADD PUSH2 0x9E4 JUMP JUMPDEST SWAP2 POP POP SWAP3 SWAP2 POP POP JUMP JUMPDEST PUSH0 PUSH4 0xFFFFFFFF DUP3 AND SWAP1 POP SWAP2 SWAP1 POP JUMP JUMPDEST PUSH2 0xAAF DUP2 PUSH2 0xA97 JUMP JUMPDEST DUP2 EQ PUSH2 0xAB9 JUMPI PUSH0 DUP1 REVERT JUMPDEST POP JUMP JUMPDEST PUSH0 DUP2 CALLDATALOAD SWAP1 POP PUSH2 0xACA DUP2 PUSH2 0xAA6 JUMP JUMPDEST SWAP3 SWAP2 POP POP JUMP JUMPDEST PUSH0 DUP1 PUSH0 PUSH1 0x60 DUP5 DUP7 SUB SLT ISZERO PUSH2 0xAE7 JUMPI PUSH2 0xAE6 PUSH2 0x871 JUMP JUMPDEST JUMPDEST PUSH0 DUP5 ADD CALLDATALOAD PUSH8 0xFFFFFFFFFFFFFFFF DUP2 GT ISZERO PUSH2 0xB04 JUMPI PUSH2 0xB03 PUSH2 0x875 JUMP JUMPDEST JUMPDEST PUSH2 0xB10 DUP7 DUP3 DUP8 ADD PUSH2 0x988 JUMP JUMPDEST SWAP4 POP POP PUSH1 0x20 DUP5 ADD CALLDATALOAD PUSH8 0xFFFFFFFFFFFFFFFF DUP2 GT ISZERO PUSH2 0xB31 JUMPI PUSH2 0xB30 PUSH2 0x875 JUMP JUMPDEST JUMPDEST PUSH2 0xB3D DUP7 DUP3 DUP8 ADD PUSH2 0xA6A JUMP JUMPDEST SWAP3 POP POP PUSH1 0x40 PUSH2 0xB4E DUP7 DUP3 DUP8 ADD PUSH2 0xABC JUMP JUMPDEST SWAP2 POP POP SWAP3 POP SWAP3 POP SWAP3 JUMP JUMPDEST PUSH0 DUP2 SWAP1 POP SWAP2 SWAP1 POP JUMP JUMPDEST PUSH2 0xB6A DUP2 PUSH2 0xB58 JUMP JUMPDEST DUP3 MSTORE POP POP JUMP JUMPDEST PUSH0 PUSH1 0x20 DUP3 ADD SWAP1 POP PUSH2 0xB83 PUSH0 DUP4 ADD DUP5 PUSH2 0xB61 JUMP JUMPDEST SWAP3 SWAP2 POP POP JUMP JUMPDEST PUSH2 0xB92 DUP2 PUSH2 0xB58 JUMP JUMPDEST DUP2 EQ PUSH2 0xB9C JUMPI PUSH0 DUP1 REVERT JUMPDEST POP JUMP JUMPDEST PUSH0 DUP2 CALLDATALOAD SWAP1 POP PUSH2 0xBAD DUP2 PUSH2 0xB89 JUMP JUMPDEST SWAP3 SWAP2 POP POP JUMP JUMPDEST PUSH0 DUP1 PUSH1 0x40 DUP4 DUP6 SUB SLT ISZERO PUSH2 0xBC9 JUMPI PUSH2 0xBC8 PUSH2 0x871 JUMP JUMPDEST JUMPDEST PUSH0 PUSH2 0xBD6 DUP6 DUP3 DUP7 ADD PUSH2 0xB9F JUMP JUMPDEST SWAP3 POP POP PUSH1 0x20 DUP4 ADD CALLDATALOAD PUSH8 0xFFFFFFFFFFFFFFFF DUP2 GT ISZERO PUSH2 0xBF7 JUMPI PUSH2 0xBF6 PUSH2 0x875 JUMP JUMPDEST JUMPDEST PUSH2 0xC03 DUP6 DUP3 DUP7 ADD PUSH2 0x988 JUMP JUMPDEST SWAP2 POP POP SWAP3 POP SWAP3 SWAP1 POP JUMP JUMPDEST PUSH0 PUSH1 0x20 DUP3 DUP5 SUB SLT ISZERO PUSH2 0xC22 JUMPI PUSH2 0xC21 PUSH2 0x871 JUMP JUMPDEST JUMPDEST PUSH0 PUSH2 0xC2F DUP5 DUP3 DUP6 ADD PUSH2 0xB9F JUMP JUMPDEST SWAP2 POP POP SWAP3 SWAP2 POP POP JUMP JUMPDEST PUSH0 DUP2 MLOAD SWAP1 POP SWAP2 SWAP1 POP JUMP JUMPDEST PUSH0 DUP3 DUP3 MSTORE PUSH1 0x20 DUP3 ADD SWAP1 POP SWAP3 SWAP2 POP POP JUMP JUMPDEST PUSH0 DUP2 SWAP1 POP PUSH1 0x20 DUP3 ADD SWAP1 POP SWAP2 SWAP1 POP JUMP JUMPDEST PUSH0 DUP2 MLOAD SWAP1 POP SWAP2 SWAP1 POP JUMP JUMPDEST PUSH0 DUP3 DUP3 MSTORE PUSH1 0x20 DUP3 ADD SWAP1 POP SWAP3 SWAP2 POP POP JUMP JUMPDEST DUP3 DUP2 DUP4 MCOPY PUSH0 DUP4 DUP4 ADD MSTORE POP POP POP JUMP JUMPDEST PUSH0 PUSH2 0xC93 DUP3 PUSH2 0xC61 JUMP JUMPDEST PUSH2 0xC9D DUP2 DUP6 PUSH2 0xC6B JUMP JUMPDEST SWAP4 POP PUSH2 0xCAD DUP2 DUP6 PUSH1 0x20 DUP7 ADD PUSH2 0xC7B JUMP JUMPDEST PUSH2 0xCB6 DUP2 PUSH2 0x881 JUMP JUMPDEST DUP5 ADD SWAP2 POP POP SWAP3 SWAP2 POP POP JUMP JUMPDEST PUSH0 PUSH2 0xCCC DUP4 DUP4 PUSH2 0xC89 JUMP JUMPDEST SWAP1 POP SWAP3 SWAP2 POP POP JUMP JUMPDEST PUSH0 PUSH1 0x20 DUP3 ADD SWAP1 POP SWAP2 SWAP1 POP JUMP JUMPDEST PUSH0 PUSH2 0xCEA DUP3 PUSH2 0xC38 JUMP JUMPDEST PUSH2 0xCF4 DUP2 DUP6 PUSH2 0xC42 JUMP JUMPDEST SWAP4 POP DUP4 PUSH1 0x20 DUP3 MUL DUP6 ADD PUSH2 0xD06 DUP6 PUSH2 0xC52 JUMP JUMPDEST DUP1 PUSH0 JUMPDEST DUP6 DUP2 LT ISZERO PUSH2 0xD41 JUMPI DUP5 DUP5 SUB DUP10 MSTORE DUP2 MLOAD PUSH2 0xD22 DUP6 DUP3 PUSH2 0xCC1 JUMP JUMPDEST SWAP5 POP PUSH2 0xD2D DUP4 PUSH2 0xCD4 JUMP JUMPDEST SWAP3 POP PUSH1 0x20 DUP11 ADD SWAP10 POP POP PUSH1 0x1 DUP2 ADD SWAP1 POP PUSH2 0xD09 JUMP JUMPDEST POP DUP3 SWAP8 POP DUP8 SWAP6 POP POP POP POP POP POP SWAP3 SWAP2 POP POP JUMP JUMPDEST PUSH0 DUP2 MLOAD SWAP1 POP SWAP2 SWAP1 POP JUMP JUMPDEST PUSH0 DUP3 DUP3 MSTORE PUSH1 0x20 DUP3 ADD SWAP1 POP SWAP3 SWAP2 POP POP JUMP JUMPDEST PUSH0 DUP2 SWAP1 POP PUSH1 0x20 DUP3 ADD SWAP1 POP SWAP2 SWAP1 POP JUMP JUMPDEST PUSH2 0xD85 DUP2 PUSH2 0xB58 JUMP JUMPDEST DUP3 MSTORE POP POP JUMP JUMPDEST PUSH0 PUSH2 0xD96 DUP4 DUP4 PUSH2 0xD7C JUMP JUMPDEST PUSH1 0x20 DUP4 ADD SWAP1 POP SWAP3 SWAP2 POP POP JUMP JUMPDEST PUSH0 PUSH1 0x20 DUP3 ADD SWAP1 POP SWAP2 SWAP1 POP JUMP JUMPDEST PUSH0 PUSH2 0xDB8 DUP3 PUSH2 0xD53 JUMP JUMPDEST PUSH2 0xDC2 DUP2 DUP6 PUSH2 0xD5D JUMP JUMPDEST SWAP4 POP PUSH2 0xDCD DUP4 PUSH2 0xD6D JUMP JUMPDEST DUP1 PUSH0 JUMPDEST DUP4 DUP2 LT ISZERO PUSH2 0xDFD JUMPI DUP2 MLOAD PUSH2 0xDE4 DUP9 DUP3 PUSH2 0xD8B JUMP JUMPDEST SWAP8 POP PUSH2 0xDEF DUP4 PUSH2 0xDA2 JUMP JUMPDEST SWAP3 POP POP PUSH1 0x1 DUP2 ADD SWAP1 POP PUSH2 0xDD0 JUMP JUMPDEST POP DUP6 SWAP4 POP POP POP POP SWAP3 SWAP2 POP POP JUMP JUMPDEST PUSH0 PUSH1 0x40 DUP3 ADD SWAP1 POP DUP2 DUP2 SUB PUSH0 DUP4 ADD MSTORE PUSH2 0xE22 DUP2 DUP6 PUSH2 0xCE0 JUMP JUMPDEST SWAP1 POP DUP2 DUP2 SUB PUSH1 0x20 DUP4 ADD MSTORE PUSH2 0xE36 DUP2 DUP5 PUSH2 0xDAE JUMP JUMPDEST SWAP1 POP SWAP4 SWAP3 POP POP POP JUMP JUMPDEST PUSH0 DUP3 DUP3 MSTORE PUSH1 0x20 DUP3 ADD SWAP1 POP SWAP3 SWAP2 POP POP JUMP JUMPDEST PUSH32 0x4E6F206F7074696F6E732070726F766964656400000000000000000000000000 PUSH0 DUP3 ADD MSTORE POP JUMP JUMPDEST PUSH0 PUSH2 0xE83 PUSH1 0x13 DUP4 PUSH2 0xE3F JUMP JUMPDEST SWAP2 POP PUSH2 0xE8E DUP3 PUSH2 0xE4F JUMP JUMPDEST PUSH1 0x20 DUP3 ADD SWAP1 POP SWAP2 SWAP1 POP JUMP JUMPDEST PUSH0 PUSH1 0x20 DUP3 ADD SWAP1 POP DUP2 DUP2 SUB PUSH0 DUP4 ADD MSTORE PUSH2 0xEB0 DUP2 PUSH2 0xE77 JUMP JUMPDEST SWAP1 POP SWAP2 SWAP1 POP JUMP JUMPDEST PUSH32 0x4E487B7100000000000000000000000000000000000000000000000000000000 PUSH0 MSTORE PUSH1 0x11 PUSH1 0x4 MSTORE PUSH1 0x24 PUSH0 REVERT JUMPDEST PUSH0 PUSH2 0xEEE DUP3 PUSH2 0xB58 JUMP JUMPDEST SWAP2 POP PUSH2 0xEF9 DUP4 PUSH2 0xB58 JUMP JUMPDEST SWAP3 POP DUP3 DUP3 SUB SWAP1 POP DUP2 DUP2 GT ISZERO PUSH2 0xF11 JUMPI PUSH2 0xF10 PUSH2 0xEB7 JUMP JUMPDEST JUMPDEST SWAP3 SWAP2 POP POP JUMP JUMPDEST PUSH32 0x4E487B7100000000000000000000000000000000000000000000000000000000 PUSH0 MSTORE PUSH1 0x32 PUSH1 0x4 MSTORE PUSH1 0x24 PUSH0 REVERT JUMPDEST PUSH32 0x4E487B7100000000000000000000000000000000000000000000000000000000 PUSH0 MSTORE PUSH1 0x22 PUSH1 0x4 MSTORE PUSH1 0x24 PUSH0 REVERT JUMPDEST PUSH0 PUSH1 0x2 DUP3 DIV SWAP1 POP PUSH1 0x1 DUP3 AND DUP1 PUSH2 0xF88 JUMPI PUSH1 0x7F DUP3 AND SWAP2 POP JUMPDEST PUSH1 0x20 DUP3 LT DUP2 SUB PUSH2 0xF9B JUMPI PUSH2 0xF9A PUSH2 0xF44 JUMP JUMPDEST JUMPDEST POP SWAP2 SWAP1 POP JUMP JUMPDEST PUSH0 DUP2 SWAP1 POP DUP2 PUSH0 MSTORE PUSH1 0x20 PUSH0 KECCAK256 SWAP1 POP SWAP2 SWAP1 POP JUMP JUMPDEST PUSH0 PUSH1 0x20 PUSH1 0x1F DUP4 ADD DIV SWAP1 POP SWAP2 SWAP1 POP JUMP JUMPDEST PUSH0 DUP3 DUP3 SHL SWAP1 POP SWAP3 SWAP2 POP POP JUMP JUMPDEST PUSH0 PUSH1 0x8 DUP4 MUL PUSH2 0xFFD PUSH32 0xFFFFFFFFFFFFFFFFFFFFFFFFFFFFFFFFFFFFFFFFFFFFFFFFFFFFFFFFFFFFFFFF DUP3 PUSH2 0xFC2 JUMP JUMPDEST PUSH2 0x1007 DUP7 DUP4 PUSH2 0xFC2 JUMP JUMPDEST SWAP6 POP DUP1 NOT DUP5 AND SWAP4 POP DUP1 DUP7 AND DUP5 OR SWAP3 POP POP POP SWAP4 SWAP3 POP POP POP JUMP JUMPDEST PUSH0 DUP2 SWAP1 POP SWAP2 SWAP1 POP JUMP JUMPDEST PUSH0 PUSH2 0x1042 PUSH2 0x103D PUSH2 0x1038 DUP5 PUSH2 0xB58 JUMP JUMPDEST PUSH2 0x101F JUMP JUMPDEST PUSH2 0xB58 JUMP JUMPDEST SWAP1 POP SWAP2 SWAP1 POP JUMP JUMPDEST PUSH0 DUP2 SWAP1 POP SWAP2 SWAP1 POP JUMP JUMPDEST PUSH2 0x105B DUP4 PUSH2 0x1028 JUMP JUMPDEST PUSH2 0x106F PUSH2 0x1067 DUP3 PUSH2 0x1049 JUMP JUMPDEST DUP5 DUP5 SLOAD PUSH2 0xFCE JUMP JUMPDEST DUP3 SSTORE POP POP POP POP JUMP JUMPDEST PUSH0 SWAP1 JUMP JUMPDEST PUSH2 0x1083 PUSH2 0x1077 JUMP JUMPDEST PUSH2 0x108E DUP2 DUP5 DUP5 PUSH2 0x1052 JUMP JUMPDEST POP POP POP JUMP JUMPDEST JUMPDEST DUP2 DUP2 LT ISZERO PUSH2 0x10B1 JUMPI PUSH2 0x10A6 PUSH0 DUP3 PUSH2 0x107B JUMP JUMPDEST PUSH1 0x1 DUP2 ADD SWAP1 POP PUSH2 0x1094 JUMP JUMPDEST POP POP JUMP JUMPDEST PUSH1 0x1F DUP3 GT ISZERO PUSH2 0x10F6 JUMPI PUSH2 0x10C7 DUP2 PUSH2 0xFA1 JUMP JUMPDEST PUSH2 0x10D0 DUP5 PUSH2 0xFB3 JUMP JUMPDEST DUP2 ADD PUSH1 0x20 DUP6 LT ISZERO PUSH2 0x10DF JUMPI DUP2 SWAP1 POP JUMPDEST PUSH2 0x10F3 PUSH2 0x10EB DUP6 PUSH2 0xFB3 JUMP JUMPDEST DUP4 ADD DUP3 PUSH2 0x1093 JUMP JUMPDEST POP POP JUMPDEST POP POP POP JUMP JUMPDEST PUSH0 DUP3 DUP3 SHR SWAP1 POP SWAP3 SWAP2 POP POP JUMP JUMPDEST PUSH0 PUSH2 0x1116 PUSH0 NOT DUP5 PUSH1 0x8 MUL PUSH2 0x10FB JUMP JUMPDEST NOT DUP1 DUP4 AND SWAP2 POP POP SWAP3 SWAP2 POP POP JUMP JUMPDEST PUSH0 PUSH2 0x112E DUP4 DUP4 PUSH2 0x1107 JUMP JUMPDEST SWAP2 POP DUP3 PUSH1 0x2 MUL DUP3 OR SWAP1 POP SWAP3 SWAP2 POP POP JUMP JUMPDEST PUSH2 0x1147 DUP3 PUSH2 0xC61 JUMP JUMPDEST PUSH8 0xFFFFFFFFFFFFFFFF DUP2 GT ISZERO PUSH2 0x1160 JUMPI PUSH2 0x115F PUSH2 0x891 JUMP JUMPDEST JUMPDEST PUSH2 0x116A DUP3 SLOAD PUSH2 0xF71 JUMP JUMPDEST PUSH2 0x1175 DUP3 DUP3 DUP6 PUSH2 0x10B5 JUMP JUMPDEST PUSH0 PUSH1 0x20 SWAP1 POP PUSH1 0x1F DUP4 GT PUSH1 0x1 DUP2 EQ PUSH2 0x11A6 JUMPI PUSH0 DUP5 ISZERO PUSH2 0x1194 JUMPI DUP3 DUP8 ADD MLOAD SWAP1 POP JUMPDEST PUSH2 0x119E DUP6 DUP3 PUSH2 0x1123 JUMP JUMPDEST DUP7 SSTORE POP PUSH2 0x1205 JUMP JUMPDEST PUSH1 0x1F NOT DUP5 AND PUSH2 0x11B4 DUP7 PUSH2 0xFA1 JUMP JUMPDEST PUSH0 JUMPDEST DUP3 DUP2 LT ISZERO PUSH2 0x11DB JUMPI DUP5 DUP10 ADD MLOAD DUP3 SSTORE PUSH1 0x1 DUP3 ADD SWAP2 POP PUSH1 0x20 DUP6 ADD SWAP5 POP PUSH1 0x20 DUP2 ADD SWAP1 POP PUSH2 0x11B6 JUMP JUMPDEST DUP7 DUP4 LT ISZERO PUSH2 0x11F8 JUMPI DUP5 DUP10 ADD MLOAD PUSH2 0x11F4 PUSH1 0x1F DUP10 AND DUP3 PUSH2 0x1107 JUMP JUMPDEST DUP4 SSTORE POP JUMPDEST PUSH1 0x1 PUSH1 0x2 DUP9 MUL ADD DUP9 SSTORE POP POP POP JUMPDEST POP POP POP POP POP POP JUMP JUMPDEST PUSH0 PUSH2 0x1217 DUP3 PUSH2 0xA97 JUMP JUMPDEST SWAP2 POP PUSH2 0x1222 DUP4 PUSH2 0xA97 JUMP JUMPDEST SWAP3 POP DUP3 DUP3 ADD SWAP1 POP PUSH4 0xFFFFFFFF DUP2 GT ISZERO PUSH2 0x123E JUMPI PUSH2 0x123D PUSH2 0xEB7 JUMP JUMPDEST JUMPDEST SWAP3 SWAP2 POP POP JUMP JUMPDEST PUSH0 PUSH2 0x124E DUP3 PUSH2 0xC61 JUMP JUMPDEST PUSH2 0x1258 DUP2 DUP6 PUSH2 0xE3F JUMP JUMPDEST SWAP4 POP PUSH2 0x1268 DUP2 DUP6 PUSH1 0x20 DUP7 ADD PUSH2 0xC7B JUMP JUMPDEST PUSH2 0x1271 DUP2 PUSH2 0x881 JUMP JUMPDEST DUP5 ADD SWAP2 POP POP SWAP3 SWAP2 POP POP JUMP JUMPDEST PUSH0 PUSH2 0x1296 PUSH2 0x1291 PUSH2 0x128C DUP5 PUSH2 0xA97 JUMP JUMPDEST PUSH2 0x101F JUMP JUMPDEST PUSH2 0xB58 JUMP JUMPDEST SWAP1 POP SWAP2 SWAP1 POP JUMP JUMPDEST PUSH2 0x12A6 DUP2 PUSH2 0x127C JUMP JUMPDEST DUP3 MSTORE POP POP JUMP JUMPDEST PUSH0 PUSH1 0x60 DUP3 ADD SWAP1 POP DUP2 DUP2 SUB PUSH0 DUP4 ADD MSTORE PUSH2 0x12C4 DUP2 DUP7 PUSH2 0x1244 JUMP JUMPDEST SWAP1 POP DUP2 DUP2 SUB PUSH1 0x20 DUP4 ADD MSTORE PUSH2 0x12D8 DUP2 DUP6 PUSH2 0xCE0 JUMP JUMPDEST SWAP1 POP PUSH2 0x12E7 PUSH1 0x40 DUP4 ADD DUP5 PUSH2 0x129D JUMP JUMPDEST SWAP5 SWAP4 POP POP POP POP JUMP JUMPDEST PUSH32 0x506F6C6C20636C6F736564000000000000000000000000000000000000000000 PUSH0 DUP3 ADD MSTORE POP JUMP JUMPDEST PUSH0 PUSH2 0x1323 PUSH1 0xB DUP4 PUSH2 0xE3F JUMP JUMPDEST SWAP2 POP PUSH2 0x132E DUP3 PUSH2 0x12EF JUMP JUMPDEST PUSH1 0x20 DUP3 ADD SWAP1 POP SWAP2 SWAP1 POP JUMP JUMPDEST PUSH0 PUSH1 0x20 DUP3 ADD SWAP1 POP DUP2 DUP2 SUB PUSH0 DUP4 ADD MSTORE PUSH2 0x1350 DUP2 PUSH2 0x1317 JUMP JUMPDEST SWAP1 POP SWAP2 SWAP1 POP JUMP JUMPDEST PUSH32 0x496E76616C696420506F6C6C2049440000000000000000000000000000000000 PUSH0 DUP3 ADD MSTORE POP JUMP JUMPDEST PUSH0 PUSH2 0x138B PUSH1 0xF DUP4 PUSH2 0xE3F JUMP JUMPDEST SWAP2 POP PUSH2 0x1396 DUP3 PUSH2 0x1357 JUMP JUMPDEST PUSH1 0x20 DUP3 ADD SWAP1 POP SWAP2 SWAP1 POP JUMP JUMPDEST PUSH0 PUSH1 0x20 DUP3 ADD SWAP1 POP DUP2 DUP2 SUB PUSH0 DUP4 ADD MSTORE PUSH2 0x13B8 DUP2 PUSH2 0x137F JUMP JUMPDEST SWAP1 POP SWAP2 SWAP1 POP JUMP JUMPDEST PUSH32 0x416C726561647920766F74656400000000000000000000000000000000000000 PUSH0 DUP3 ADD MSTORE POP JUMP JUMPDEST PUSH0 PUSH2 0x13F3 PUSH1 0xD DUP4 PUSH2 0xE3F JUMP JUMPDEST SWAP2 POP PUSH2 0x13FE DUP3 PUSH2 0x13BF JUMP JUMPDEST PUSH1 0x20 DUP3 ADD SWAP1 POP SWAP2 SWAP1 POP JUMP JUMPDEST PUSH0 PUSH1 0x20 DUP3 ADD SWAP1 POP DUP2 DUP2 SUB PUSH0 DUP4 ADD MSTORE PUSH2 0x1420 DUP2 PUSH2 0x13E7 JUMP JUMPDEST SWAP1 POP SWAP2 SWAP1 POP JUMP JUMPDEST PUSH32 0x496E76616C6964206F7074696F6E000000000000000000000000000000000000 PUSH0 DUP3 ADD MSTORE POP JUMP JUMPDEST PUSH0 PUSH2 0x145B PUSH1 0xE DUP4 PUSH2 0xE3F JUMP JUMPDEST SWAP2 POP PUSH2 0x1466 DUP3 PUSH2 0x1427 JUMP JUMPDEST PUSH1 0x20 DUP3 ADD SWAP1 POP SWAP2 SWAP1 POP JUMP JUMPDEST PUSH0 PUSH1 0x20 DUP3 ADD SWAP1 POP DUP2 DUP2 SUB PUSH0 DUP4 ADD MSTORE PUSH2 0x1488 DUP2 PUSH2 0x144F JUMP JUMPDEST SWAP1 POP SWAP2 SWAP1 POP JUMP JUMPDEST PUSH0 DUP2 SWAP1 POP SWAP3 SWAP2 POP POP JUMP JUMPDEST PUSH0 PUSH2 0x14A3 DUP3 PUSH2 0xC61 JUMP JUMPDEST PUSH2 0x14AD DUP2 DUP6 PUSH2 0x148F JUMP JUMPDEST SWAP4 POP PUSH2 0x14BD DUP2 DUP6 PUSH1 0x20 DUP7 ADD PUSH2 0xC7B JUMP JUMPDEST DUP1 DUP5 ADD SWAP2 POP POP SWAP3 SWAP2 POP POP JUMP JUMPDEST PUSH0 PUSH2 0x14D4 DUP3 DUP5 PUSH2 0x1499 JUMP JUMPDEST SWAP2 POP DUP2 SWAP1 POP SWAP3 SWAP2 POP POP JUMP JUMPDEST PUSH0 PUSH2 0x14E9 DUP3 PUSH2 0xB58 JUMP JUMPDEST SWAP2 POP PUSH32 0xFFFFFFFFFFFFFFFFFFFFFFFFFFFFFFFFFFFFFFFFFFFFFFFFFFFFFFFFFFFFFFFF DUP3 SUB PUSH2 0x151B JUMPI PUSH2 0x151A PUSH2 0xEB7 JUMP JUMPDEST JUMPDEST PUSH1 0x1 DUP3 ADD SWAP1 POP SWAP2 SWAP1 POP JUMP JUMPDEST PUSH0 PUSH20 0xFFFFFFFFFFFFFFFFFFFFFFFFFFFFFFFFFFFFFFFF DUP3 AND SWAP1 POP SWAP2 SWAP1 POP JUMP JUMPDEST PUSH0 PUSH2 0x154F DUP3 PUSH2 0x1526 JUMP JUMPDEST SWAP1 POP SWAP2 SWAP1 POP JUMP JUMPDEST PUSH0 DUP2 PUSH1 0x60 SHL SWAP1 POP SWAP2 SWAP1 POP JUMP JUMPDEST PUSH0 PUSH2 0x156C DUP3 PUSH2 0x1556 JUMP JUMPDEST SWAP1 POP SWAP2 SWAP1 POP JUMP JUMPDEST PUSH0 PUSH2 0x157D DUP3 PUSH2 0x1562 JUMP JUMPDEST SWAP1 POP SWAP2 SWAP1 POP JUMP JUMPDEST PUSH2 0x1595 PUSH2 0x1590 DUP3 PUSH2 0x1545 JUMP JUMPDEST PUSH2 0x1573 JUMP JUMPDEST DUP3 MSTORE POP POP JUMP JUMPDEST PUSH32 0x2068617320766F7465642E000000000000000000000000000000000000000000 PUSH0 DUP3 ADD MSTORE POP JUMP JUMPDEST PUSH0 PUSH2 0x15CF PUSH1 0xB DUP4 PUSH2 0x148F JUMP JUMPDEST SWAP2 POP PUSH2 0x15DA DUP3 PUSH2 0x159B JUMP JUMPDEST PUSH1 0xB DUP3 ADD SWAP1 POP SWAP2 SWAP1 POP JUMP JUMPDEST PUSH0 PUSH2 0x15F0 DUP3 DUP5 PUSH2 0x1584 JUMP JUMPDEST PUSH1 0x14 DUP3 ADD SWAP2 POP PUSH2 0x15FF DUP3 PUSH2 0x15C3 JUMP JUMPDEST SWAP2 POP DUP2 SWAP1 POP SWAP3 SWAP2 POP POP JUMP JUMPDEST PUSH0 DUP2 MLOAD SWAP1 POP SWAP2 SWAP1 POP JUMP JUMPDEST PUSH0 DUP3 DUP3 MSTORE PUSH1 0x20 DUP3 ADD SWAP1 POP SWAP3 SWAP2 POP POP JUMP JUMPDEST PUSH0 PUSH2 0x162E DUP3 PUSH2 0x160A JUMP JUMPDEST PUSH2 0x1638 DUP2 DUP6 PUSH2 0x1614 JUMP JUMPDEST SWAP4 POP PUSH2 0x1648 DUP2 DUP6 PUSH1 0x20 DUP7 ADD PUSH2 0xC7B JUMP JUMPDEST PUSH2 0x1651 DUP2 PUSH2 0x881 JUMP JUMPDEST DUP5 ADD SWAP2 POP POP SWAP3 SWAP2 POP POP JUMP JUMPDEST PUSH0 PUSH1 0x20 DUP3 ADD SWAP1 POP DUP2 DUP2 SUB PUSH0 DUP4 ADD MSTORE PUSH2 0x1674 DUP2 DUP5 PUSH2 0x1624 JUMP JUMPDEST SWAP1 POP SWAP3 SWAP2 POP POP JUMP JUMPDEST PUSH0 DUP2 SLOAD PUSH2 0x1688 DUP2 PUSH2 0xF71 JUMP JUMPDEST PUSH2 0x1692 DUP2 DUP7 PUSH2 0x148F JUMP JUMPDEST SWAP5 POP PUSH1 0x1 DUP3 AND PUSH0 DUP2 EQ PUSH2 0x16AC JUMPI PUSH1 0x1 DUP2 EQ PUSH2 0x16C1 JUMPI PUSH2 0x16F3 JUMP JUMPDEST PUSH1 0xFF NOT DUP4 AND DUP7 MSTORE DUP2 ISZERO ISZERO DUP3 MUL DUP7 ADD SWAP4 POP PUSH2 0x16F3 JUMP JUMPDEST PUSH2 0x16CA DUP6 PUSH2 0xFA1 JUMP JUMPDEST PUSH0 JUMPDEST DUP4 DUP2 LT ISZERO PUSH2 0x16EB JUMPI DUP2 SLOAD DUP2 DUP10 ADD MSTORE PUSH1 0x1 DUP3 ADD SWAP2 POP PUSH1 0x20 DUP2 ADD SWAP1 POP PUSH2 0x16CC JUMP JUMPDEST DUP4 DUP9 ADD SWAP6 POP POP POP JUMPDEST POP POP POP SWAP3 SWAP2 POP POP JUMP JUMPDEST PUSH0 PUSH2 0x1707 DUP3 DUP5 PUSH2 0x167C JUMP JUMPDEST SWAP2 POP DUP2 SWAP1 POP SWAP3 SWAP2 POP POP JUMP INVALID LOG2 PUSH5 0x6970667358 0x22 SLT KECCAK256 LOG4 CALLER SWAP10 SWAP10 PUSH18 0x2B5FF1E9FDBF6E94BA89E7A04C300E92D657 PUSH18 0x35928B2278F0B0F164736F6C634300081A00 CALLER "
		},
		"gasEstimates": {
			"creation": {
				"codeDepositCost": "1192000",
				"executionCost": "1239",
				"totalCost": "1193239"
			},
			"external": {
				"createPoll(string,string[],uint32)": "infinite",
				"getResults(uint256)": "infinite",
				"vote(uint256,string)": "infinite"
			},
			"internal": {
				"isValidOption(string memory[] memory,string memory)": "infinite"
			}
		},
		"methodIdentifiers": {
			"createPoll(string,string[],uint32)": "1f252a8e",
			"getResults(uint256)": "81a60c0d",
			"vote(uint256,string)": "24108475"
		}
	},
	"abi": [
		{
			"anonymous": false,
			"inputs": [
				{
					"indexed": false,
					"internalType": "string",
					"name": "title",
					"type": "string"
				},
				{
					"indexed": false,
					"internalType": "string[]",
					"name": "options",
					"type": "string[]"
				},
				{
					"indexed": false,
					"internalType": "uint256",
					"name": "duration",
					"type": "uint256"
				}
			],
			"name": "PollCreated",
			"type": "event"
		},
		{
			"anonymous": false,
			"inputs": [
				{
					"indexed": false,
					"internalType": "bytes",
					"name": "",
					"type": "bytes"
				}
			],
			"name": "Voted",
			"type": "event"
		},
		{
			"inputs": [
				{
					"internalType": "string",
					"name": "_title",
					"type": "string"
				},
				{
					"internalType": "string[]",
					"name": "_options",
					"type": "string[]"
				},
				{
					"internalType": "uint32",
					"name": "_duration",
					"type": "uint32"
				}
			],
			"name": "createPoll",
			"outputs": [
				{
					"internalType": "uint256",
					"name": "",
					"type": "uint256"
				}
			],
			"stateMutability": "nonpayable",
			"type": "function"
		},
		{
			"inputs": [
				{
					"internalType": "uint256",
					"name": "_pollId",
					"type": "uint256"
				}
			],
			"name": "getResults",
			"outputs": [
				{
					"internalType": "string[]",
					"name": "",
					"type": "string[]"
				},
				{
					"internalType": "uint256[]",
					"name": "",
					"type": "uint256[]"
				}
			],
			"stateMutability": "view",
			"type": "function"
		},
		{
			"inputs": [
				{
					"internalType": "uint256",
					"name": "_pollId",
					"type": "uint256"
				},
				{
					"internalType": "string",
					"name": "_option",
					"type": "string"
				}
			],
			"name": "vote",
			"outputs": [],
			"stateMutability": "nonpayable",
			"type": "function"
		}
	]
}