{
	"VotingTheory/polls.sol": {
		"Polls": {
			"abi": [
				{
					"anonymous": false,
					"inputs": [
						{
							"indexed": false,
							"internalType": "string",
							"name": "title",
							"type": "string"
						},
						{
							"indexed": false,
							"internalType": "bytes32[]",
							"name": "options",
							"type": "bytes32[]"
						},
						{
							"indexed": false,
							"internalType": "uint256",
							"name": "duration",
							"type": "uint256"
						}
					],
					"name": "PollCreated",
					"type": "event"
				},
				{
					"anonymous": false,
					"inputs": [
						{
							"indexed": false,
							"internalType": "address",
							"name": "voter",
							"type": "address"
						},
						{
							"indexed": false,
							"internalType": "uint256",
							"name": "pollId",
							"type": "uint256"
						}
					],
					"name": "Voted",
					"type": "event"
				},
				{
					"inputs": [
						{
							"internalType": "string",
							"name": "_title",
							"type": "string"
						},
						{
							"internalType": "bytes32[]",
							"name": "_options",
							"type": "bytes32[]"
						},
						{
							"internalType": "uint32",
							"name": "_duration",
							"type": "uint32"
						}
					],
					"name": "createPoll",
					"outputs": [
						{
							"internalType": "uint256",
							"name": "",
							"type": "uint256"
						}
					],
					"stateMutability": "nonpayable",
					"type": "function"
				},
				{
					"inputs": [
						{
							"internalType": "uint256",
							"name": "_pollId",
							"type": "uint256"
						}
					],
					"name": "getPoll",
					"outputs": [
						{
							"internalType": "string",
							"name": "",
							"type": "string"
						},
						{
							"internalType": "bytes32[]",
							"name": "",
							"type": "bytes32[]"
						},
						{
							"internalType": "uint32",
							"name": "",
							"type": "uint32"
						}
					],
					"stateMutability": "view",
					"type": "function"
				},
				{
					"inputs": [
						{
							"internalType": "uint256",
							"name": "_pollId",
							"type": "uint256"
						}
					],
					"name": "getResults",
					"outputs": [
						{
							"internalType": "bytes32[]",
							"name": "",
							"type": "bytes32[]"
						},
						{
							"internalType": "uint256[]",
							"name": "",
							"type": "uint256[]"
						},
						{
							"internalType": "bool",
							"name": "",
							"type": "bool"
						}
					],
					"stateMutability": "view",
					"type": "function"
				},
				{
					"inputs": [],
					"name": "getTotalPolls",
					"outputs": [
						{
							"internalType": "uint256",
							"name": "",
							"type": "uint256"
						}
					],
					"stateMutability": "view",
					"type": "function"
				},
				{
					"inputs": [
						{
							"internalType": "uint256",
							"name": "",
							"type": "uint256"
						}
					],
					"name": "polls",
					"outputs": [
						{
							"internalType": "string",
							"name": "title",
							"type": "string"
						},
						{
							"internalType": "uint32",
							"name": "endTime",
							"type": "uint32"
						}
					],
					"stateMutability": "view",
					"type": "function"
				},
				{
					"inputs": [
						{
							"internalType": "uint256",
							"name": "_pollId",
							"type": "uint256"
						},
						{
							"internalType": "bytes32",
							"name": "_option",
							"type": "bytes32"
						}
					],
					"name": "vote",
					"outputs": [],
					"stateMutability": "nonpayable",
					"type": "function"
				}
			],
			"devdoc": {
				"author": "Navin Rajmohan",
				"custom:experimental": "This is an experimental contract.",
				"details": "All function calls are currently implemented without side effects",
				"kind": "dev",
				"methods": {
					"createPoll(string,bytes32[],uint32)": {
						"details": "A function to create the poll in DApp"
					},
					"getPoll(uint256)": {
						"details": "Afunction to get poll details"
					},
					"getResults(uint256)": {
						"details": "A function to retrieve the votes"
					},
					"getTotalPolls()": {
						"details": "A function to get total polls"
					},
					"vote(uint256,bytes32)": {
						"details": "A fucntion to make the vote"
					}
				},
				"title": "A contract for managing polls",
				"version": 1
			},
			"evm": {
				"assembly": "    /* \"VotingTheory/polls.sol\":337:4525  contract Polls {... */\n  mstore(0x40, 0x80)\n  callvalue\n  dup1\n  iszero\n  tag_1\n  jumpi\n  0x00\n  dup1\n  revert\ntag_1:\n  pop\n  dataSize(sub_0)\n  dup1\n  dataOffset(sub_0)\n  0x00\n  codecopy\n  0x00\n  return\nstop\n\nsub_0: assembly {\n        /* \"VotingTheory/polls.sol\":337:4525  contract Polls {... */\n      mstore(0x40, 0x80)\n      callvalue\n      dup1\n      iszero\n      tag_1\n      jumpi\n      0x00\n      dup1\n      revert\n    tag_1:\n      pop\n      jumpi(tag_2, lt(calldatasize, 0x04))\n      shr(0xe0, calldataload(0x00))\n      dup1\n      0x1a8cbcaa\n      eq\n      tag_3\n      jumpi\n      dup1\n      0x3ef87d54\n      eq\n      tag_4\n      jumpi\n      dup1\n      0x68bb8bb6\n      eq\n      tag_5\n      jumpi\n      dup1\n      0x81a60c0d\n      eq\n      tag_6\n      jumpi\n      dup1\n      0xac2f0074\n      eq\n      tag_7\n      jumpi\n      dup1\n      0xb4e94908\n      eq\n      tag_8\n      jumpi\n    tag_2:\n      0x00\n      dup1\n      revert\n        /* \"VotingTheory/polls.sol\":2804:3009  function getPoll(uint256 _pollId) external view returns(string memory, bytes32[] memory, uint32) {... */\n    tag_3:\n      tag_9\n      0x04\n      dup1\n      calldatasize\n      sub\n      dup2\n      add\n      swap1\n      tag_10\n      swap2\n      swap1\n      tag_11\n      jump\t// in\n    tag_10:\n      tag_12\n      jump\t// in\n    tag_9:\n      mload(0x40)\n      tag_13\n      swap4\n      swap3\n      swap2\n      swap1\n      tag_14\n      jump\t// in\n    tag_13:\n      mload(0x40)\n      dup1\n      swap2\n      sub\n      swap1\n      return\n        /* \"VotingTheory/polls.sol\":3523:3616  function getTotalPolls() external view returns (uint256) {... */\n    tag_4:\n      tag_15\n      tag_16\n      jump\t// in\n    tag_15:\n      mload(0x40)\n      tag_17\n      swap2\n      swap1\n      tag_18\n      jump\t// in\n    tag_17:\n      mload(0x40)\n      dup1\n      swap2\n      sub\n      swap1\n      return\n        /* \"VotingTheory/polls.sol\":1826:2416  function vote(uint256 _pollId, bytes32 _option) external onlyActive(_pollId) {... */\n    tag_5:\n      tag_19\n      0x04\n      dup1\n      calldatasize\n      sub\n      dup2\n      add\n      swap1\n      tag_20\n      swap2\n      swap1\n      tag_21\n      jump\t// in\n    tag_20:\n      tag_22\n      jump\t// in\n    tag_19:\n      stop\n        /* \"VotingTheory/polls.sol\":3061:3474  function getResults(uint256 _pollId) external view returns (bytes32[] memory, uint256[] memory, bool) {... */\n    tag_6:\n      tag_23\n      0x04\n      dup1\n      calldatasize\n      sub\n      dup2\n      add\n      swap1\n      tag_24\n      swap2\n      swap1\n      tag_11\n      jump\t// in\n    tag_24:\n      tag_25\n      jump\t// in\n    tag_23:\n      mload(0x40)\n      tag_26\n      swap4\n      swap3\n      swap2\n      swap1\n      tag_27\n      jump\t// in\n    tag_26:\n      mload(0x40)\n      dup1\n      swap2\n      sub\n      swap1\n      return\n        /* \"VotingTheory/polls.sol\":824:843  Poll[] public polls */\n    tag_7:\n      tag_28\n      0x04\n      dup1\n      calldatasize\n      sub\n      dup2\n      add\n      swap1\n      tag_29\n      swap2\n      swap1\n      tag_11\n      jump\t// in\n    tag_29:\n      tag_30\n      jump\t// in\n    tag_28:\n      mload(0x40)\n      tag_31\n      swap3\n      swap2\n      swap1\n      tag_32\n      jump\t// in\n    tag_31:\n      mload(0x40)\n      dup1\n      swap2\n      sub\n      swap1\n      return\n        /* \"VotingTheory/polls.sol\":1261:1779  function createPoll(string memory _title, bytes32[] memory _options, uint32 _duration) external returns (uint256) {... */\n    tag_8:\n      tag_33\n      0x04\n      dup1\n      calldatasize\n      sub\n      dup2\n      add\n      swap1\n      tag_34\n      swap2\n      swap1\n      tag_35\n      jump\t// in\n    tag_34:\n      tag_36\n      jump\t// in\n    tag_33:\n      mload(0x40)\n      tag_37\n      swap2\n      swap1\n      tag_18\n      jump\t// in\n    tag_37:\n      mload(0x40)\n      dup1\n      swap2\n      sub\n      swap1\n      return\n        /* \"VotingTheory/polls.sol\":2804:3009  function getPoll(uint256 _pollId) external view returns(string memory, bytes32[] memory, uint32) {... */\n    tag_12:\n        /* \"VotingTheory/polls.sol\":2860:2873  string memory */\n      0x60\n        /* \"VotingTheory/polls.sol\":2875:2891  bytes32[] memory */\n      dup1\n        /* \"VotingTheory/polls.sol\":2893:2899  uint32 */\n      0x00\n        /* \"VotingTheory/polls.sol\":2911:2928  Poll storage poll */\n      dup1\n        /* \"VotingTheory/polls.sol\":2931:2936  polls */\n      0x00\n        /* \"VotingTheory/polls.sol\":2937:2944  _pollId */\n      dup6\n        /* \"VotingTheory/polls.sol\":2931:2945  polls[_pollId] */\n      dup2\n      sload\n      dup2\n      lt\n      tag_39\n      jumpi\n      tag_40\n      tag_41\n      jump\t// in\n    tag_40:\n    tag_39:\n      swap1\n      0x00\n      mstore\n      keccak256(0x00, 0x20)\n      swap1\n      0x05\n      mul\n      add\n        /* \"VotingTheory/polls.sol\":2911:2945  Poll storage poll = polls[_pollId] */\n      swap1\n      pop\n        /* \"VotingTheory/polls.sol\":2963:2967  poll */\n      dup1\n        /* \"VotingTheory/polls.sol\":2963:2973  poll.title */\n      0x00\n      add\n        /* \"VotingTheory/polls.sol\":2975:2979  poll */\n      dup2\n        /* \"VotingTheory/polls.sol\":2975:2987  poll.options */\n      0x01\n      add\n        /* \"VotingTheory/polls.sol\":2989:2993  poll */\n      dup3\n        /* \"VotingTheory/polls.sol\":2989:3001  poll.endTime */\n      0x02\n      add\n      0x00\n      swap1\n      sload\n      swap1\n      0x0100\n      exp\n      swap1\n      div\n      0xffffffff\n      and\n        /* \"VotingTheory/polls.sol\":2955:3002  return (poll.title, poll.options, poll.endTime) */\n      dup3\n      dup1\n      sload\n      tag_43\n      swap1\n      tag_44\n      jump\t// in\n    tag_43:\n      dup1\n      0x1f\n      add\n      0x20\n      dup1\n      swap2\n      div\n      mul\n      0x20\n      add\n      mload(0x40)\n      swap1\n      dup2\n      add\n      0x40\n      mstore\n      dup1\n      swap3\n      swap2\n      swap1\n      dup2\n      dup2\n      mstore\n      0x20\n      add\n      dup3\n      dup1\n      sload\n      tag_45\n      swap1\n      tag_44\n      jump\t// in\n    tag_45:\n      dup1\n      iszero\n      tag_46\n      jumpi\n      dup1\n      0x1f\n      lt\n      tag_47\n      jumpi\n      0x0100\n      dup1\n      dup4\n      sload\n      div\n      mul\n      dup4\n      mstore\n      swap2\n      0x20\n      add\n      swap2\n      jump(tag_46)\n    tag_47:\n      dup3\n      add\n      swap2\n      swap1\n      0x00\n      mstore\n      keccak256(0x00, 0x20)\n      swap1\n    tag_48:\n      dup2\n      sload\n      dup2\n      mstore\n      swap1\n      0x01\n      add\n      swap1\n      0x20\n      add\n      dup1\n      dup4\n      gt\n      tag_48\n      jumpi\n      dup3\n      swap1\n      sub\n      0x1f\n      and\n      dup3\n      add\n      swap2\n    tag_46:\n      pop\n      pop\n      pop\n      pop\n      pop\n      swap3\n      pop\n      dup2\n      dup1\n      sload\n      dup1\n      0x20\n      mul\n      0x20\n      add\n      mload(0x40)\n      swap1\n      dup2\n      add\n      0x40\n      mstore\n      dup1\n      swap3\n      swap2\n      swap1\n      dup2\n      dup2\n      mstore\n      0x20\n      add\n      dup3\n      dup1\n      sload\n      dup1\n      iszero\n      tag_49\n      jumpi\n      0x20\n      mul\n      dup3\n      add\n      swap2\n      swap1\n      0x00\n      mstore\n      keccak256(0x00, 0x20)\n      swap1\n    tag_50:\n      dup2\n      sload\n      dup2\n      mstore\n      0x20\n      add\n      swap1\n      0x01\n      add\n      swap1\n      dup1\n      dup4\n      gt\n      tag_50\n      jumpi\n    tag_49:\n      pop\n      pop\n      pop\n      pop\n      pop\n      swap2\n      pop\n      swap4\n      pop\n      swap4\n      pop\n      swap4\n      pop\n      pop\n        /* \"VotingTheory/polls.sol\":2804:3009  function getPoll(uint256 _pollId) external view returns(string memory, bytes32[] memory, uint32) {... */\n      swap2\n      swap4\n      swap1\n      swap3\n      pop\n      jump\t// out\n        /* \"VotingTheory/polls.sol\":3523:3616  function getTotalPolls() external view returns (uint256) {... */\n    tag_16:\n        /* \"VotingTheory/polls.sol\":3571:3578  uint256 */\n      0x00\n        /* \"VotingTheory/polls.sol\":3597:3602  polls */\n      dup1\n        /* \"VotingTheory/polls.sol\":3597:3609  polls.length */\n      dup1\n      sload\n      swap1\n      pop\n        /* \"VotingTheory/polls.sol\":3590:3609  return polls.length */\n      swap1\n      pop\n        /* \"VotingTheory/polls.sol\":3523:3616  function getTotalPolls() external view returns (uint256) {... */\n      swap1\n      jump\t// out\n        /* \"VotingTheory/polls.sol\":1826:2416  function vote(uint256 _pollId, bytes32 _option) external onlyActive(_pollId) {... */\n    tag_22:\n        /* \"VotingTheory/polls.sol\":1894:1901  _pollId */\n      dup2\n        /* \"VotingTheory/polls.sol\":1148:1153  polls */\n      0x00\n        /* \"VotingTheory/polls.sol\":1154:1161  _pollId */\n      dup2\n        /* \"VotingTheory/polls.sol\":1148:1162  polls[_pollId] */\n      dup2\n      sload\n      dup2\n      lt\n      tag_53\n      jumpi\n      tag_54\n      tag_41\n      jump\t// in\n    tag_54:\n    tag_53:\n      swap1\n      0x00\n      mstore\n      keccak256(0x00, 0x20)\n      swap1\n      0x05\n      mul\n      add\n        /* \"VotingTheory/polls.sol\":1148:1170  polls[_pollId].endTime */\n      0x02\n      add\n      0x00\n      swap1\n      sload\n      swap1\n      0x0100\n      exp\n      swap1\n      div\n      0xffffffff\n      and\n        /* \"VotingTheory/polls.sol\":1130:1170  block.timestamp < polls[_pollId].endTime */\n      0xffffffff\n      and\n        /* \"VotingTheory/polls.sol\":1130:1145  block.timestamp */\n      timestamp\n        /* \"VotingTheory/polls.sol\":1130:1170  block.timestamp < polls[_pollId].endTime */\n      lt\n        /* \"VotingTheory/polls.sol\":1122:1186  require(block.timestamp < polls[_pollId].endTime, \"Poll closed\") */\n      tag_56\n      jumpi\n      mload(0x40)\n      0x08c379a000000000000000000000000000000000000000000000000000000000\n      dup2\n      mstore\n      0x04\n      add\n      tag_57\n      swap1\n      tag_58\n      jump\t// in\n    tag_57:\n      mload(0x40)\n      dup1\n      swap2\n      sub\n      swap1\n      revert\n    tag_56:\n        /* \"VotingTheory/polls.sol\":1932:1937  polls */\n      0x00\n        /* \"VotingTheory/polls.sol\":1932:1944  polls.length */\n      dup1\n      sload\n      swap1\n      pop\n        /* \"VotingTheory/polls.sol\":1922:1929  _pollId */\n      dup4\n        /* \"VotingTheory/polls.sol\":1922:1944  _pollId < polls.length */\n      lt\n        /* \"VotingTheory/polls.sol\":1913:1964  require (_pollId < polls.length, \"Invalid Poll ID\") */\n      tag_60\n      jumpi\n      mload(0x40)\n      0x08c379a000000000000000000000000000000000000000000000000000000000\n      dup2\n      mstore\n      0x04\n      add\n      tag_61\n      swap1\n      tag_62\n      jump\t// in\n    tag_61:\n      mload(0x40)\n      dup1\n      swap2\n      sub\n      swap1\n      revert\n    tag_60:\n        /* \"VotingTheory/polls.sol\":2061:2078  Poll storage poll */\n      0x00\n        /* \"VotingTheory/polls.sol\":2081:2086  polls */\n      dup1\n        /* \"VotingTheory/polls.sol\":2087:2094  _pollId */\n      dup5\n        /* \"VotingTheory/polls.sol\":2081:2095  polls[_pollId] */\n      dup2\n      sload\n      dup2\n      lt\n      tag_63\n      jumpi\n      tag_64\n      tag_41\n      jump\t// in\n    tag_64:\n    tag_63:\n      swap1\n      0x00\n      mstore\n      keccak256(0x00, 0x20)\n      swap1\n      0x05\n      mul\n      add\n        /* \"VotingTheory/polls.sol\":2061:2095  Poll storage poll = polls[_pollId] */\n      swap1\n      pop\n        /* \"VotingTheory/polls.sol\":2115:2119  poll */\n      dup1\n        /* \"VotingTheory/polls.sol\":2115:2125  poll.voted */\n      0x04\n      add\n        /* \"VotingTheory/polls.sol\":2115:2137  poll.voted[msg.sender] */\n      0x00\n        /* \"VotingTheory/polls.sol\":2126:2136  msg.sender */\n      caller\n        /* \"VotingTheory/polls.sol\":2115:2137  poll.voted[msg.sender] */\n      0xffffffffffffffffffffffffffffffffffffffff\n      and\n      0xffffffffffffffffffffffffffffffffffffffff\n      and\n      dup2\n      mstore\n      0x20\n      add\n      swap1\n      dup2\n      mstore\n      0x20\n      add\n      0x00\n      keccak256\n      0x00\n      swap1\n      sload\n      swap1\n      0x0100\n      exp\n      swap1\n      div\n      0xff\n      and\n        /* \"VotingTheory/polls.sol\":2114:2137  !poll.voted[msg.sender] */\n      iszero\n        /* \"VotingTheory/polls.sol\":2105:2155  require (!poll.voted[msg.sender], \"Already voted\") */\n      tag_66\n      jumpi\n      mload(0x40)\n      0x08c379a000000000000000000000000000000000000000000000000000000000\n      dup2\n      mstore\n      0x04\n      add\n      tag_67\n      swap1\n      tag_68\n      jump\t// in\n    tag_67:\n      mload(0x40)\n      dup1\n      swap2\n      sub\n      swap1\n      revert\n    tag_66:\n        /* \"VotingTheory/polls.sol\":2174:2210  isValidOption(poll.options, _option) */\n      tag_69\n        /* \"VotingTheory/polls.sol\":2188:2192  poll */\n      dup2\n        /* \"VotingTheory/polls.sol\":2188:2200  poll.options */\n      0x01\n      add\n        /* \"VotingTheory/polls.sol\":2174:2210  isValidOption(poll.options, _option) */\n      dup1\n      sload\n      dup1\n      0x20\n      mul\n      0x20\n      add\n      mload(0x40)\n      swap1\n      dup2\n      add\n      0x40\n      mstore\n      dup1\n      swap3\n      swap2\n      swap1\n      dup2\n      dup2\n      mstore\n      0x20\n      add\n      dup3\n      dup1\n      sload\n      dup1\n      iszero\n      tag_70\n      jumpi\n      0x20\n      mul\n      dup3\n      add\n      swap2\n      swap1\n      0x00\n      mstore\n      keccak256(0x00, 0x20)\n      swap1\n    tag_71:\n      dup2\n      sload\n      dup2\n      mstore\n      0x20\n      add\n      swap1\n      0x01\n      add\n      swap1\n      dup1\n      dup4\n      gt\n      tag_71\n      jumpi\n    tag_70:\n      pop\n      pop\n      pop\n      pop\n      pop\n        /* \"VotingTheory/polls.sol\":2202:2209  _option */\n      dup5\n        /* \"VotingTheory/polls.sol\":2174:2187  isValidOption */\n      tag_72\n        /* \"VotingTheory/polls.sol\":2174:2210  isValidOption(poll.options, _option) */\n      jump\t// in\n    tag_69:\n        /* \"VotingTheory/polls.sol\":2165:2229  require (isValidOption(poll.options, _option), \"Invalid option\") */\n      tag_73\n      jumpi\n      mload(0x40)\n      0x08c379a000000000000000000000000000000000000000000000000000000000\n      dup2\n      mstore\n      0x04\n      add\n      tag_74\n      swap1\n      tag_75\n      jump\t// in\n    tag_74:\n      mload(0x40)\n      dup1\n      swap2\n      sub\n      swap1\n      revert\n    tag_73:\n        /* \"VotingTheory/polls.sol\":2239:2243  poll */\n      dup1\n        /* \"VotingTheory/polls.sol\":2239:2249  poll.votes */\n      0x03\n      add\n        /* \"VotingTheory/polls.sol\":2239:2258  poll.votes[_option] */\n      0x00\n        /* \"VotingTheory/polls.sol\":2250:2257  _option */\n      dup5\n        /* \"VotingTheory/polls.sol\":2239:2258  poll.votes[_option] */\n      dup2\n      mstore\n      0x20\n      add\n      swap1\n      dup2\n      mstore\n      0x20\n      add\n      0x00\n      keccak256\n      0x00\n        /* \"VotingTheory/polls.sol\":2239:2260  poll.votes[_option]++ */\n      dup2\n      sload\n      dup1\n      swap3\n      swap2\n      swap1\n      tag_76\n      swap1\n      tag_77\n      jump\t// in\n    tag_76:\n      swap2\n      swap1\n      pop\n      sstore\n      pop\n        /* \"VotingTheory/polls.sol\":2295:2299  true */\n      0x01\n        /* \"VotingTheory/polls.sol\":2270:2274  poll */\n      dup2\n        /* \"VotingTheory/polls.sol\":2270:2280  poll.voted */\n      0x04\n      add\n        /* \"VotingTheory/polls.sol\":2270:2292  poll.voted[msg.sender] */\n      0x00\n        /* \"VotingTheory/polls.sol\":2281:2291  msg.sender */\n      caller\n        /* \"VotingTheory/polls.sol\":2270:2292  poll.voted[msg.sender] */\n      0xffffffffffffffffffffffffffffffffffffffff\n      and\n      0xffffffffffffffffffffffffffffffffffffffff\n      and\n      dup2\n      mstore\n      0x20\n      add\n      swap1\n      dup2\n      mstore\n      0x20\n      add\n      0x00\n      keccak256\n      0x00\n        /* \"VotingTheory/polls.sol\":2270:2299  poll.voted[msg.sender] = true */\n      0x0100\n      exp\n      dup2\n      sload\n      dup2\n      0xff\n      mul\n      not\n      and\n      swap1\n      dup4\n      iszero\n      iszero\n      mul\n      or\n      swap1\n      sstore\n      pop\n        /* \"VotingTheory/polls.sol\":2383:2409  Voted(msg.sender, _pollId) */\n      0x4d99b957a2bc29a30ebd96a7be8e68fe50a3c701db28a91436490b7d53870ca4\n        /* \"VotingTheory/polls.sol\":2389:2399  msg.sender */\n      caller\n        /* \"VotingTheory/polls.sol\":2401:2408  _pollId */\n      dup6\n        /* \"VotingTheory/polls.sol\":2383:2409  Voted(msg.sender, _pollId) */\n      mload(0x40)\n      tag_78\n      swap3\n      swap2\n      swap1\n      tag_79\n      jump\t// in\n    tag_78:\n      mload(0x40)\n      dup1\n      swap2\n      sub\n      swap1\n      log1\n        /* \"VotingTheory/polls.sol\":1903:2416  {... */\n      pop\n        /* \"VotingTheory/polls.sol\":1826:2416  function vote(uint256 _pollId, bytes32 _option) external onlyActive(_pollId) {... */\n      pop\n      pop\n      pop\n      jump\t// out\n        /* \"VotingTheory/polls.sol\":3061:3474  function getResults(uint256 _pollId) external view returns (bytes32[] memory, uint256[] memory, bool) {... */\n    tag_25:\n        /* \"VotingTheory/polls.sol\":3121:3137  bytes32[] memory */\n      0x60\n        /* \"VotingTheory/polls.sol\":3139:3155  uint256[] memory */\n      dup1\n        /* \"VotingTheory/polls.sol\":3157:3161  bool */\n      0x00\n        /* \"VotingTheory/polls.sol\":3173:3190  Poll storage poll */\n      dup1\n        /* \"VotingTheory/polls.sol\":3193:3198  polls */\n      0x00\n        /* \"VotingTheory/polls.sol\":3199:3206  _pollId */\n      dup6\n        /* \"VotingTheory/polls.sol\":3193:3207  polls[_pollId] */\n      dup2\n      sload\n      dup2\n      lt\n      tag_81\n      jumpi\n      tag_82\n      tag_41\n      jump\t// in\n    tag_82:\n    tag_81:\n      swap1\n      0x00\n      mstore\n      keccak256(0x00, 0x20)\n      swap1\n      0x05\n      mul\n      add\n        /* \"VotingTheory/polls.sol\":3173:3207  Poll storage poll = polls[_pollId] */\n      swap1\n      pop\n        /* \"VotingTheory/polls.sol\":3217:3240  uint256[] memory counts */\n      0x00\n        /* \"VotingTheory/polls.sol\":3257:3261  poll */\n      dup2\n        /* \"VotingTheory/polls.sol\":3257:3269  poll.options */\n      0x01\n      add\n        /* \"VotingTheory/polls.sol\":3257:3276  poll.options.length */\n      dup1\n      sload\n      swap1\n      pop\n        /* \"VotingTheory/polls.sol\":3243:3277  new uint256[](poll.options.length) */\n      0xffffffffffffffff\n      dup2\n      gt\n      iszero\n      tag_84\n      jumpi\n      tag_85\n      tag_86\n      jump\t// in\n    tag_85:\n    tag_84:\n      mload(0x40)\n      swap1\n      dup1\n      dup3\n      mstore\n      dup1\n      0x20\n      mul\n      0x20\n      add\n      dup3\n      add\n      0x40\n      mstore\n      dup1\n      iszero\n      tag_87\n      jumpi\n      dup2\n      0x20\n      add\n      0x20\n      dup3\n      mul\n      dup1\n      calldatasize\n      dup4\n      calldatacopy\n      dup1\n      dup3\n      add\n      swap2\n      pop\n      pop\n      swap1\n      pop\n    tag_87:\n      pop\n        /* \"VotingTheory/polls.sol\":3217:3277  uint256[] memory counts = new uint256[](poll.options.length) */\n      swap1\n      pop\n        /* \"VotingTheory/polls.sol\":3291:3297  uint i */\n      0x00\n        /* \"VotingTheory/polls.sol\":3287:3397  for(uint i = 0; i < poll.options.length; i++) {... */\n    tag_88:\n        /* \"VotingTheory/polls.sol\":3307:3311  poll */\n      dup3\n        /* \"VotingTheory/polls.sol\":3307:3319  poll.options */\n      0x01\n      add\n        /* \"VotingTheory/polls.sol\":3307:3326  poll.options.length */\n      dup1\n      sload\n      swap1\n      pop\n        /* \"VotingTheory/polls.sol\":3303:3304  i */\n      dup2\n        /* \"VotingTheory/polls.sol\":3303:3326  i < poll.options.length */\n      lt\n        /* \"VotingTheory/polls.sol\":3287:3397  for(uint i = 0; i < poll.options.length; i++) {... */\n      iszero\n      tag_89\n      jumpi\n        /* \"VotingTheory/polls.sol\":3359:3363  poll */\n      dup3\n        /* \"VotingTheory/polls.sol\":3359:3369  poll.votes */\n      0x03\n      add\n        /* \"VotingTheory/polls.sol\":3359:3386  poll.votes[poll.options[i]] */\n      0x00\n        /* \"VotingTheory/polls.sol\":3370:3374  poll */\n      dup5\n        /* \"VotingTheory/polls.sol\":3370:3382  poll.options */\n      0x01\n      add\n        /* \"VotingTheory/polls.sol\":3383:3384  i */\n      dup4\n        /* \"VotingTheory/polls.sol\":3370:3385  poll.options[i] */\n      dup2\n      sload\n      dup2\n      lt\n      tag_91\n      jumpi\n      tag_92\n      tag_41\n      jump\t// in\n    tag_92:\n    tag_91:\n      swap1\n      0x00\n      mstore\n      keccak256(0x00, 0x20)\n      add\n      sload\n        /* \"VotingTheory/polls.sol\":3359:3386  poll.votes[poll.options[i]] */\n      dup2\n      mstore\n      0x20\n      add\n      swap1\n      dup2\n      mstore\n      0x20\n      add\n      0x00\n      keccak256\n      sload\n        /* \"VotingTheory/polls.sol\":3347:3353  counts */\n      dup3\n        /* \"VotingTheory/polls.sol\":3354:3355  i */\n      dup3\n        /* \"VotingTheory/polls.sol\":3347:3356  counts[i] */\n      dup2\n      mload\n      dup2\n      lt\n      tag_94\n      jumpi\n      tag_95\n      tag_41\n      jump\t// in\n    tag_95:\n    tag_94:\n      0x20\n      mul\n      0x20\n      add\n      add\n        /* \"VotingTheory/polls.sol\":3347:3386  counts[i] = poll.votes[poll.options[i]] */\n      dup2\n      dup2\n      mstore\n      pop\n      pop\n        /* \"VotingTheory/polls.sol\":3328:3331  i++ */\n      dup1\n      dup1\n      0x01\n      add\n      swap2\n      pop\n      pop\n        /* \"VotingTheory/polls.sol\":3287:3397  for(uint i = 0; i < poll.options.length; i++) {... */\n      jump(tag_88)\n    tag_89:\n      pop\n        /* \"VotingTheory/polls.sol\":3414:3418  poll */\n      dup2\n        /* \"VotingTheory/polls.sol\":3414:3426  poll.options */\n      0x01\n      add\n        /* \"VotingTheory/polls.sol\":3428:3434  counts */\n      dup2\n        /* \"VotingTheory/polls.sol\":3451:3466  block.timestamp */\n      timestamp\n        /* \"VotingTheory/polls.sol\":3436:3440  poll */\n      dup5\n        /* \"VotingTheory/polls.sol\":3436:3448  poll.endTime */\n      0x02\n      add\n      0x00\n      swap1\n      sload\n      swap1\n      0x0100\n      exp\n      swap1\n      div\n      0xffffffff\n      and\n        /* \"VotingTheory/polls.sol\":3436:3466  poll.endTime > block.timestamp */\n      0xffffffff\n      and\n      gt\n        /* \"VotingTheory/polls.sol\":3406:3467  return (poll.options, counts, poll.endTime > block.timestamp) */\n      dup3\n      dup1\n      sload\n      dup1\n      0x20\n      mul\n      0x20\n      add\n      mload(0x40)\n      swap1\n      dup2\n      add\n      0x40\n      mstore\n      dup1\n      swap3\n      swap2\n      swap1\n      dup2\n      dup2\n      mstore\n      0x20\n      add\n      dup3\n      dup1\n      sload\n      dup1\n      iszero\n      tag_96\n      jumpi\n      0x20\n      mul\n      dup3\n      add\n      swap2\n      swap1\n      0x00\n      mstore\n      keccak256(0x00, 0x20)\n      swap1\n    tag_97:\n      dup2\n      sload\n      dup2\n      mstore\n      0x20\n      add\n      swap1\n      0x01\n      add\n      swap1\n      dup1\n      dup4\n      gt\n      tag_97\n      jumpi\n    tag_96:\n      pop\n      pop\n      pop\n      pop\n      pop\n      swap3\n      pop\n      swap5\n      pop\n      swap5\n      pop\n      swap5\n      pop\n      pop\n      pop\n        /* \"VotingTheory/polls.sol\":3061:3474  function getResults(uint256 _pollId) external view returns (bytes32[] memory, uint256[] memory, bool) {... */\n      swap2\n      swap4\n      swap1\n      swap3\n      pop\n      jump\t// out\n        /* \"VotingTheory/polls.sol\":824:843  Poll[] public polls */\n    tag_30:\n      0x00\n      dup2\n      dup2\n      sload\n      dup2\n      lt\n      tag_98\n      jumpi\n      0x00\n      dup1\n      revert\n    tag_98:\n      swap1\n      0x00\n      mstore\n      keccak256(0x00, 0x20)\n      swap1\n      0x05\n      mul\n      add\n      0x00\n      swap2\n      pop\n      swap1\n      pop\n      dup1\n      0x00\n      add\n      dup1\n      sload\n      tag_100\n      swap1\n      tag_44\n      jump\t// in\n    tag_100:\n      dup1\n      0x1f\n      add\n      0x20\n      dup1\n      swap2\n      div\n      mul\n      0x20\n      add\n      mload(0x40)\n      swap1\n      dup2\n      add\n      0x40\n      mstore\n      dup1\n      swap3\n      swap2\n      swap1\n      dup2\n      dup2\n      mstore\n      0x20\n      add\n      dup3\n      dup1\n      sload\n      tag_101\n      swap1\n      tag_44\n      jump\t// in\n    tag_101:\n      dup1\n      iszero\n      tag_102\n      jumpi\n      dup1\n      0x1f\n      lt\n      tag_103\n      jumpi\n      0x0100\n      dup1\n      dup4\n      sload\n      div\n      mul\n      dup4\n      mstore\n      swap2\n      0x20\n      add\n      swap2\n      jump(tag_102)\n    tag_103:\n      dup3\n      add\n      swap2\n      swap1\n      0x00\n      mstore\n      keccak256(0x00, 0x20)\n      swap1\n    tag_104:\n      dup2\n      sload\n      dup2\n      mstore\n      swap1\n      0x01\n      add\n      swap1\n      0x20\n      add\n      dup1\n      dup4\n      gt\n      tag_104\n      jumpi\n      dup3\n      swap1\n      sub\n      0x1f\n      and\n      dup3\n      add\n      swap2\n    tag_102:\n      pop\n      pop\n      pop\n      pop\n      pop\n      swap1\n      dup1\n      0x02\n      add\n      0x00\n      swap1\n      sload\n      swap1\n      0x0100\n      exp\n      swap1\n      div\n      0xffffffff\n      and\n      swap1\n      pop\n      dup3\n      jump\t// out\n        /* \"VotingTheory/polls.sol\":1261:1779  function createPoll(string memory _title, bytes32[] memory _options, uint32 _duration) external returns (uint256) {... */\n    tag_36:\n        /* \"VotingTheory/polls.sol\":1366:1373  uint256 */\n      0x00\n        /* \"VotingTheory/polls.sol\":1412:1413  0 */\n      dup1\n        /* \"VotingTheory/polls.sol\":1394:1402  _options */\n      dup4\n        /* \"VotingTheory/polls.sol\":1394:1409  _options.length */\n      mload\n        /* \"VotingTheory/polls.sol\":1394:1413  _options.length > 0 */\n      gt\n        /* \"VotingTheory/polls.sol\":1385:1437  require (_options.length > 0, \"No options provided\") */\n      tag_106\n      jumpi\n      mload(0x40)\n      0x08c379a000000000000000000000000000000000000000000000000000000000\n      dup2\n      mstore\n      0x04\n      add\n      tag_107\n      swap1\n      tag_108\n      jump\t// in\n    tag_107:\n      mload(0x40)\n      dup1\n      swap2\n      sub\n      swap1\n      revert\n    tag_106:\n        /* \"VotingTheory/polls.sol\":1447:1452  polls */\n      0x00\n        /* \"VotingTheory/polls.sol\":1447:1459  polls.push() */\n      0x01\n      dup2\n      0x01\n      dup2\n      sload\n      add\n      dup1\n      dup3\n      sstore\n      dup1\n      swap2\n      pop\n      pop\n      sub\n      swap1\n      0x00\n      mstore\n      keccak256(0x00, 0x20)\n      swap1\n      pop\n      pop\n        /* \"VotingTheory/polls.sol\":1469:1483  uint256 pollId */\n      0x00\n        /* \"VotingTheory/polls.sol\":1501:1502  1 */\n      0x01\n        /* \"VotingTheory/polls.sol\":1486:1491  polls */\n      0x00\n        /* \"VotingTheory/polls.sol\":1486:1498  polls.length */\n      dup1\n      sload\n      swap1\n      pop\n        /* \"VotingTheory/polls.sol\":1486:1502  polls.length - 1 */\n      tag_110\n      swap2\n      swap1\n      tag_111\n      jump\t// in\n    tag_110:\n        /* \"VotingTheory/polls.sol\":1469:1502  uint256 pollId = polls.length - 1 */\n      swap1\n      pop\n        /* \"VotingTheory/polls.sol\":1512:1529  Poll storage poll */\n      0x00\n        /* \"VotingTheory/polls.sol\":1532:1537  polls */\n      dup1\n        /* \"VotingTheory/polls.sol\":1538:1544  pollId */\n      dup3\n        /* \"VotingTheory/polls.sol\":1532:1545  polls[pollId] */\n      dup2\n      sload\n      dup2\n      lt\n      tag_112\n      jumpi\n      tag_113\n      tag_41\n      jump\t// in\n    tag_113:\n    tag_112:\n      swap1\n      0x00\n      mstore\n      keccak256(0x00, 0x20)\n      swap1\n      0x05\n      mul\n      add\n        /* \"VotingTheory/polls.sol\":1512:1545  Poll storage poll = polls[pollId] */\n      swap1\n      pop\n        /* \"VotingTheory/polls.sol\":1568:1574  _title */\n      dup6\n        /* \"VotingTheory/polls.sol\":1555:1559  poll */\n      dup2\n        /* \"VotingTheory/polls.sol\":1555:1565  poll.title */\n      0x00\n      add\n        /* \"VotingTheory/polls.sol\":1555:1574  poll.title = _title */\n      swap1\n      dup2\n      tag_115\n      swap2\n      swap1\n      tag_116\n      jump\t// in\n    tag_115:\n      pop\n        /* \"VotingTheory/polls.sol\":1600:1608  _options */\n      dup5\n        /* \"VotingTheory/polls.sol\":1584:1588  poll */\n      dup2\n        /* \"VotingTheory/polls.sol\":1584:1596  poll.options */\n      0x01\n      add\n        /* \"VotingTheory/polls.sol\":1584:1608  poll.options =  _options */\n      swap1\n      dup1\n      mload\n      swap1\n      0x20\n      add\n      swap1\n      tag_117\n      swap3\n      swap2\n      swap1\n      tag_118\n      jump\t// in\n    tag_117:\n      pop\n        /* \"VotingTheory/polls.sol\":1659:1668  _duration */\n      dup4\n        /* \"VotingTheory/polls.sol\":1640:1655  block.timestamp */\n      timestamp\n        /* \"VotingTheory/polls.sol\":1633:1668  uint32(block.timestamp) + _duration */\n      tag_119\n      swap2\n      swap1\n      tag_120\n      jump\t// in\n    tag_119:\n        /* \"VotingTheory/polls.sol\":1618:1622  poll */\n      dup2\n        /* \"VotingTheory/polls.sol\":1618:1630  poll.endTime */\n      0x02\n      add\n      0x00\n        /* \"VotingTheory/polls.sol\":1618:1668  poll.endTime = uint32(block.timestamp) + _duration */\n      0x0100\n      exp\n      dup2\n      sload\n      dup2\n      0xffffffff\n      mul\n      not\n      and\n      swap1\n      dup4\n      0xffffffff\n      and\n      mul\n      or\n      swap1\n      sstore\n      pop\n        /* \"VotingTheory/polls.sol\":1709:1749  PollCreated(_title, _options, _duration) */\n      0x8743ce889ded037c23e138b6bc3759dfad1bf6ffe9aa1ed2e6652964ef0c014c\n        /* \"VotingTheory/polls.sol\":1721:1727  _title */\n      dup7\n        /* \"VotingTheory/polls.sol\":1729:1737  _options */\n      dup7\n        /* \"VotingTheory/polls.sol\":1739:1748  _duration */\n      dup7\n        /* \"VotingTheory/polls.sol\":1709:1749  PollCreated(_title, _options, _duration) */\n      mload(0x40)\n      tag_121\n      swap4\n      swap3\n      swap2\n      swap1\n      tag_122\n      jump\t// in\n    tag_121:\n      mload(0x40)\n      dup1\n      swap2\n      sub\n      swap1\n      log1\n        /* \"VotingTheory/polls.sol\":1766:1772  pollId */\n      dup2\n        /* \"VotingTheory/polls.sol\":1759:1772  return pollId */\n      swap3\n      pop\n      pop\n      pop\n        /* \"VotingTheory/polls.sol\":1261:1779  function createPoll(string memory _title, bytes32[] memory _options, uint32 _duration) external returns (uint256) {... */\n      swap4\n      swap3\n      pop\n      pop\n      pop\n      jump\t// out\n        /* \"VotingTheory/polls.sol\":2484:2755  function isValidOption(bytes32[] memory _options, bytes32 _option) internal pure returns (bool) {... */\n    tag_72:\n        /* \"VotingTheory/polls.sol\":2574:2578  bool */\n      0x00\n        /* \"VotingTheory/polls.sol\":2594:2600  uint i */\n      dup1\n        /* \"VotingTheory/polls.sol\":2603:2604  0 */\n      0x00\n        /* \"VotingTheory/polls.sol\":2594:2604  uint i = 0 */\n      swap1\n      pop\n        /* \"VotingTheory/polls.sol\":2590:2727  for(uint i = 0; i < _options.length; i++) {... */\n    tag_124:\n        /* \"VotingTheory/polls.sol\":2610:2618  _options */\n      dup4\n        /* \"VotingTheory/polls.sol\":2610:2625  _options.length */\n      mload\n        /* \"VotingTheory/polls.sol\":2606:2607  i */\n      dup2\n        /* \"VotingTheory/polls.sol\":2606:2625  i < _options.length */\n      lt\n        /* \"VotingTheory/polls.sol\":2590:2727  for(uint i = 0; i < _options.length; i++) {... */\n      iszero\n      tag_125\n      jumpi\n        /* \"VotingTheory/polls.sol\":2664:2671  _option */\n      dup3\n        /* \"VotingTheory/polls.sol\":2649:2657  _options */\n      dup5\n        /* \"VotingTheory/polls.sol\":2658:2659  i */\n      dup3\n        /* \"VotingTheory/polls.sol\":2649:2660  _options[i] */\n      dup2\n      mload\n      dup2\n      lt\n      tag_127\n      jumpi\n      tag_128\n      tag_41\n      jump\t// in\n    tag_128:\n    tag_127:\n      0x20\n      mul\n      0x20\n      add\n      add\n      mload\n        /* \"VotingTheory/polls.sol\":2649:2671  _options[i] == _option */\n      sub\n        /* \"VotingTheory/polls.sol\":2646:2717  if(_options[i] == _option) {... */\n      tag_129\n      jumpi\n        /* \"VotingTheory/polls.sol\":2698:2702  true */\n      0x01\n        /* \"VotingTheory/polls.sol\":2691:2702  return true */\n      swap2\n      pop\n      pop\n      jump(tag_123)\n        /* \"VotingTheory/polls.sol\":2646:2717  if(_options[i] == _option) {... */\n    tag_129:\n        /* \"VotingTheory/polls.sol\":2627:2630  i++ */\n      dup1\n      dup1\n      0x01\n      add\n      swap2\n      pop\n      pop\n        /* \"VotingTheory/polls.sol\":2590:2727  for(uint i = 0; i < _options.length; i++) {... */\n      jump(tag_124)\n    tag_125:\n      pop\n        /* \"VotingTheory/polls.sol\":2743:2748  false */\n      0x00\n        /* \"VotingTheory/polls.sol\":2736:2748  return false */\n      swap1\n      pop\n        /* \"VotingTheory/polls.sol\":2484:2755  function isValidOption(bytes32[] memory _options, bytes32 _option) internal pure returns (bool) {... */\n    tag_123:\n      swap3\n      swap2\n      pop\n      pop\n      jump\t// out\n    tag_118:\n      dup3\n      dup1\n      sload\n      dup3\n      dup3\n      sstore\n      swap1\n      0x00\n      mstore\n      keccak256(0x00, 0x20)\n      swap1\n      dup2\n      add\n      swap3\n      dup3\n      iszero\n      tag_130\n      jumpi\n      swap2\n      0x20\n      mul\n      dup3\n      add\n    tag_131:\n      dup3\n      dup2\n      gt\n      iszero\n      tag_132\n      jumpi\n      dup3\n      mload\n      dup3\n      sstore\n      swap2\n      0x20\n      add\n      swap2\n      swap1\n      0x01\n      add\n      swap1\n      jump(tag_131)\n    tag_132:\n    tag_130:\n      pop\n      swap1\n      pop\n      tag_133\n      swap2\n      swap1\n      tag_134\n      jump\t// in\n    tag_133:\n      pop\n      swap1\n      jump\t// out\n    tag_134:\n    tag_135:\n      dup1\n      dup3\n      gt\n      iszero\n      tag_136\n      jumpi\n      0x00\n      dup2\n      0x00\n      swap1\n      sstore\n      pop\n      0x01\n      add\n      jump(tag_135)\n    tag_136:\n      pop\n      swap1\n      jump\t// out\n        /* \"#utility.yul\":7:82   */\n    tag_137:\n        /* \"#utility.yul\":40:46   */\n      0x00\n        /* \"#utility.yul\":73:75   */\n      0x40\n        /* \"#utility.yul\":67:76   */\n      mload\n        /* \"#utility.yul\":57:76   */\n      swap1\n      pop\n        /* \"#utility.yul\":7:82   */\n      swap1\n      jump\t// out\n        /* \"#utility.yul\":88:205   */\n    tag_138:\n        /* \"#utility.yul\":197:198   */\n      0x00\n        /* \"#utility.yul\":194:195   */\n      dup1\n        /* \"#utility.yul\":187:199   */\n      revert\n        /* \"#utility.yul\":211:328   */\n    tag_139:\n        /* \"#utility.yul\":320:321   */\n      0x00\n        /* \"#utility.yul\":317:318   */\n      dup1\n        /* \"#utility.yul\":310:322   */\n      revert\n        /* \"#utility.yul\":334:411   */\n    tag_140:\n        /* \"#utility.yul\":371:378   */\n      0x00\n        /* \"#utility.yul\":400:405   */\n      dup2\n        /* \"#utility.yul\":389:405   */\n      swap1\n      pop\n        /* \"#utility.yul\":334:411   */\n      swap2\n      swap1\n      pop\n      jump\t// out\n        /* \"#utility.yul\":417:539   */\n    tag_141:\n        /* \"#utility.yul\":490:514   */\n      tag_222\n        /* \"#utility.yul\":508:513   */\n      dup2\n        /* \"#utility.yul\":490:514   */\n      tag_140\n      jump\t// in\n    tag_222:\n        /* \"#utility.yul\":483:488   */\n      dup2\n        /* \"#utility.yul\":480:515   */\n      eq\n        /* \"#utility.yul\":470:533   */\n      tag_223\n      jumpi\n        /* \"#utility.yul\":529:530   */\n      0x00\n        /* \"#utility.yul\":526:527   */\n      dup1\n        /* \"#utility.yul\":519:531   */\n      revert\n        /* \"#utility.yul\":470:533   */\n    tag_223:\n        /* \"#utility.yul\":417:539   */\n      pop\n      jump\t// out\n        /* \"#utility.yul\":545:684   */\n    tag_142:\n        /* \"#utility.yul\":591:596   */\n      0x00\n        /* \"#utility.yul\":629:635   */\n      dup2\n        /* \"#utility.yul\":616:636   */\n      calldataload\n        /* \"#utility.yul\":607:636   */\n      swap1\n      pop\n        /* \"#utility.yul\":645:678   */\n      tag_225\n        /* \"#utility.yul\":672:677   */\n      dup2\n        /* \"#utility.yul\":645:678   */\n      tag_141\n      jump\t// in\n    tag_225:\n        /* \"#utility.yul\":545:684   */\n      swap3\n      swap2\n      pop\n      pop\n      jump\t// out\n        /* \"#utility.yul\":690:1019   */\n    tag_11:\n        /* \"#utility.yul\":749:755   */\n      0x00\n        /* \"#utility.yul\":798:800   */\n      0x20\n        /* \"#utility.yul\":786:795   */\n      dup3\n        /* \"#utility.yul\":777:784   */\n      dup5\n        /* \"#utility.yul\":773:796   */\n      sub\n        /* \"#utility.yul\":769:801   */\n      slt\n        /* \"#utility.yul\":766:885   */\n      iszero\n      tag_227\n      jumpi\n        /* \"#utility.yul\":804:883   */\n      tag_228\n      tag_138\n      jump\t// in\n    tag_228:\n        /* \"#utility.yul\":766:885   */\n    tag_227:\n        /* \"#utility.yul\":924:925   */\n      0x00\n        /* \"#utility.yul\":949:1002   */\n      tag_229\n        /* \"#utility.yul\":994:1001   */\n      dup5\n        /* \"#utility.yul\":985:991   */\n      dup3\n        /* \"#utility.yul\":974:983   */\n      dup6\n        /* \"#utility.yul\":970:992   */\n      add\n        /* \"#utility.yul\":949:1002   */\n      tag_142\n      jump\t// in\n    tag_229:\n        /* \"#utility.yul\":939:1002   */\n      swap2\n      pop\n        /* \"#utility.yul\":895:1012   */\n      pop\n        /* \"#utility.yul\":690:1019   */\n      swap3\n      swap2\n      pop\n      pop\n      jump\t// out\n        /* \"#utility.yul\":1025:1124   */\n    tag_143:\n        /* \"#utility.yul\":1077:1083   */\n      0x00\n        /* \"#utility.yul\":1111:1116   */\n      dup2\n        /* \"#utility.yul\":1105:1117   */\n      mload\n        /* \"#utility.yul\":1095:1117   */\n      swap1\n      pop\n        /* \"#utility.yul\":1025:1124   */\n      swap2\n      swap1\n      pop\n      jump\t// out\n        /* \"#utility.yul\":1130:1299   */\n    tag_144:\n        /* \"#utility.yul\":1214:1225   */\n      0x00\n        /* \"#utility.yul\":1248:1254   */\n      dup3\n        /* \"#utility.yul\":1243:1246   */\n      dup3\n        /* \"#utility.yul\":1236:1255   */\n      mstore\n        /* \"#utility.yul\":1288:1292   */\n      0x20\n        /* \"#utility.yul\":1283:1286   */\n      dup3\n        /* \"#utility.yul\":1279:1293   */\n      add\n        /* \"#utility.yul\":1264:1293   */\n      swap1\n      pop\n        /* \"#utility.yul\":1130:1299   */\n      swap3\n      swap2\n      pop\n      pop\n      jump\t// out\n        /* \"#utility.yul\":1305:1444   */\n    tag_145:\n        /* \"#utility.yul\":1394:1400   */\n      dup3\n        /* \"#utility.yul\":1389:1392   */\n      dup2\n        /* \"#utility.yul\":1384:1387   */\n      dup4\n        /* \"#utility.yul\":1378:1401   */\n      mcopy\n        /* \"#utility.yul\":1435:1436   */\n      0x00\n        /* \"#utility.yul\":1426:1432   */\n      dup4\n        /* \"#utility.yul\":1421:1424   */\n      dup4\n        /* \"#utility.yul\":1417:1433   */\n      add\n        /* \"#utility.yul\":1410:1437   */\n      mstore\n        /* \"#utility.yul\":1305:1444   */\n      pop\n      pop\n      pop\n      jump\t// out\n        /* \"#utility.yul\":1450:1552   */\n    tag_146:\n        /* \"#utility.yul\":1491:1497   */\n      0x00\n        /* \"#utility.yul\":1542:1544   */\n      0x1f\n        /* \"#utility.yul\":1538:1545   */\n      not\n        /* \"#utility.yul\":1533:1535   */\n      0x1f\n        /* \"#utility.yul\":1526:1531   */\n      dup4\n        /* \"#utility.yul\":1522:1536   */\n      add\n        /* \"#utility.yul\":1518:1546   */\n      and\n        /* \"#utility.yul\":1508:1546   */\n      swap1\n      pop\n        /* \"#utility.yul\":1450:1552   */\n      swap2\n      swap1\n      pop\n      jump\t// out\n        /* \"#utility.yul\":1558:1935   */\n    tag_147:\n        /* \"#utility.yul\":1646:1649   */\n      0x00\n        /* \"#utility.yul\":1674:1713   */\n      tag_235\n        /* \"#utility.yul\":1707:1712   */\n      dup3\n        /* \"#utility.yul\":1674:1713   */\n      tag_143\n      jump\t// in\n    tag_235:\n        /* \"#utility.yul\":1729:1800   */\n      tag_236\n        /* \"#utility.yul\":1793:1799   */\n      dup2\n        /* \"#utility.yul\":1788:1791   */\n      dup6\n        /* \"#utility.yul\":1729:1800   */\n      tag_144\n      jump\t// in\n    tag_236:\n        /* \"#utility.yul\":1722:1800   */\n      swap4\n      pop\n        /* \"#utility.yul\":1809:1874   */\n      tag_237\n        /* \"#utility.yul\":1867:1873   */\n      dup2\n        /* \"#utility.yul\":1862:1865   */\n      dup6\n        /* \"#utility.yul\":1855:1859   */\n      0x20\n        /* \"#utility.yul\":1848:1853   */\n      dup7\n        /* \"#utility.yul\":1844:1860   */\n      add\n        /* \"#utility.yul\":1809:1874   */\n      tag_145\n      jump\t// in\n    tag_237:\n        /* \"#utility.yul\":1899:1928   */\n      tag_238\n        /* \"#utility.yul\":1921:1927   */\n      dup2\n        /* \"#utility.yul\":1899:1928   */\n      tag_146\n      jump\t// in\n    tag_238:\n        /* \"#utility.yul\":1894:1897   */\n      dup5\n        /* \"#utility.yul\":1890:1929   */\n      add\n        /* \"#utility.yul\":1883:1929   */\n      swap2\n      pop\n        /* \"#utility.yul\":1650:1935   */\n      pop\n        /* \"#utility.yul\":1558:1935   */\n      swap3\n      swap2\n      pop\n      pop\n      jump\t// out\n        /* \"#utility.yul\":1941:2055   */\n    tag_148:\n        /* \"#utility.yul\":2008:2014   */\n      0x00\n        /* \"#utility.yul\":2042:2047   */\n      dup2\n        /* \"#utility.yul\":2036:2048   */\n      mload\n        /* \"#utility.yul\":2026:2048   */\n      swap1\n      pop\n        /* \"#utility.yul\":1941:2055   */\n      swap2\n      swap1\n      pop\n      jump\t// out\n        /* \"#utility.yul\":2061:2245   */\n    tag_149:\n        /* \"#utility.yul\":2160:2171   */\n      0x00\n        /* \"#utility.yul\":2194:2200   */\n      dup3\n        /* \"#utility.yul\":2189:2192   */\n      dup3\n        /* \"#utility.yul\":2182:2201   */\n      mstore\n        /* \"#utility.yul\":2234:2238   */\n      0x20\n        /* \"#utility.yul\":2229:2232   */\n      dup3\n        /* \"#utility.yul\":2225:2239   */\n      add\n        /* \"#utility.yul\":2210:2239   */\n      swap1\n      pop\n        /* \"#utility.yul\":2061:2245   */\n      swap3\n      swap2\n      pop\n      pop\n      jump\t// out\n        /* \"#utility.yul\":2251:2383   */\n    tag_150:\n        /* \"#utility.yul\":2318:2322   */\n      0x00\n        /* \"#utility.yul\":2341:2344   */\n      dup2\n        /* \"#utility.yul\":2333:2344   */\n      swap1\n      pop\n        /* \"#utility.yul\":2371:2375   */\n      0x20\n        /* \"#utility.yul\":2366:2369   */\n      dup3\n        /* \"#utility.yul\":2362:2376   */\n      add\n        /* \"#utility.yul\":2354:2376   */\n      swap1\n      pop\n        /* \"#utility.yul\":2251:2383   */\n      swap2\n      swap1\n      pop\n      jump\t// out\n        /* \"#utility.yul\":2389:2466   */\n    tag_151:\n        /* \"#utility.yul\":2426:2433   */\n      0x00\n        /* \"#utility.yul\":2455:2460   */\n      dup2\n        /* \"#utility.yul\":2444:2460   */\n      swap1\n      pop\n        /* \"#utility.yul\":2389:2466   */\n      swap2\n      swap1\n      pop\n      jump\t// out\n        /* \"#utility.yul\":2472:2580   */\n    tag_152:\n        /* \"#utility.yul\":2549:2573   */\n      tag_244\n        /* \"#utility.yul\":2567:2572   */\n      dup2\n        /* \"#utility.yul\":2549:2573   */\n      tag_151\n      jump\t// in\n    tag_244:\n        /* \"#utility.yul\":2544:2547   */\n      dup3\n        /* \"#utility.yul\":2537:2574   */\n      mstore\n        /* \"#utility.yul\":2472:2580   */\n      pop\n      pop\n      jump\t// out\n        /* \"#utility.yul\":2586:2765   */\n    tag_153:\n        /* \"#utility.yul\":2655:2665   */\n      0x00\n        /* \"#utility.yul\":2676:2722   */\n      tag_246\n        /* \"#utility.yul\":2718:2721   */\n      dup4\n        /* \"#utility.yul\":2710:2716   */\n      dup4\n        /* \"#utility.yul\":2676:2722   */\n      tag_152\n      jump\t// in\n    tag_246:\n        /* \"#utility.yul\":2754:2758   */\n      0x20\n        /* \"#utility.yul\":2749:2752   */\n      dup4\n        /* \"#utility.yul\":2745:2759   */\n      add\n        /* \"#utility.yul\":2731:2759   */\n      swap1\n      pop\n        /* \"#utility.yul\":2586:2765   */\n      swap3\n      swap2\n      pop\n      pop\n      jump\t// out\n        /* \"#utility.yul\":2771:2884   */\n    tag_154:\n        /* \"#utility.yul\":2841:2845   */\n      0x00\n        /* \"#utility.yul\":2873:2877   */\n      0x20\n        /* \"#utility.yul\":2868:2871   */\n      dup3\n        /* \"#utility.yul\":2864:2878   */\n      add\n        /* \"#utility.yul\":2856:2878   */\n      swap1\n      pop\n        /* \"#utility.yul\":2771:2884   */\n      swap2\n      swap1\n      pop\n      jump\t// out\n        /* \"#utility.yul\":2920:3652   */\n    tag_155:\n        /* \"#utility.yul\":3039:3042   */\n      0x00\n        /* \"#utility.yul\":3068:3122   */\n      tag_249\n        /* \"#utility.yul\":3116:3121   */\n      dup3\n        /* \"#utility.yul\":3068:3122   */\n      tag_148\n      jump\t// in\n    tag_249:\n        /* \"#utility.yul\":3138:3224   */\n      tag_250\n        /* \"#utility.yul\":3217:3223   */\n      dup2\n        /* \"#utility.yul\":3212:3215   */\n      dup6\n        /* \"#utility.yul\":3138:3224   */\n      tag_149\n      jump\t// in\n    tag_250:\n        /* \"#utility.yul\":3131:3224   */\n      swap4\n      pop\n        /* \"#utility.yul\":3248:3304   */\n      tag_251\n        /* \"#utility.yul\":3298:3303   */\n      dup4\n        /* \"#utility.yul\":3248:3304   */\n      tag_150\n      jump\t// in\n    tag_251:\n        /* \"#utility.yul\":3327:3334   */\n      dup1\n        /* \"#utility.yul\":3358:3359   */\n      0x00\n        /* \"#utility.yul\":3343:3627   */\n    tag_252:\n        /* \"#utility.yul\":3368:3374   */\n      dup4\n        /* \"#utility.yul\":3365:3366   */\n      dup2\n        /* \"#utility.yul\":3362:3375   */\n      lt\n        /* \"#utility.yul\":3343:3627   */\n      iszero\n      tag_254\n      jumpi\n        /* \"#utility.yul\":3444:3450   */\n      dup2\n        /* \"#utility.yul\":3438:3451   */\n      mload\n        /* \"#utility.yul\":3471:3534   */\n      tag_255\n        /* \"#utility.yul\":3530:3533   */\n      dup9\n        /* \"#utility.yul\":3515:3528   */\n      dup3\n        /* \"#utility.yul\":3471:3534   */\n      tag_153\n      jump\t// in\n    tag_255:\n        /* \"#utility.yul\":3464:3534   */\n      swap8\n      pop\n        /* \"#utility.yul\":3557:3617   */\n      tag_256\n        /* \"#utility.yul\":3610:3616   */\n      dup4\n        /* \"#utility.yul\":3557:3617   */\n      tag_154\n      jump\t// in\n    tag_256:\n        /* \"#utility.yul\":3547:3617   */\n      swap3\n      pop\n        /* \"#utility.yul\":3403:3627   */\n      pop\n        /* \"#utility.yul\":3390:3391   */\n      0x01\n        /* \"#utility.yul\":3387:3388   */\n      dup2\n        /* \"#utility.yul\":3383:3392   */\n      add\n        /* \"#utility.yul\":3378:3392   */\n      swap1\n      pop\n        /* \"#utility.yul\":3343:3627   */\n      jump(tag_252)\n    tag_254:\n        /* \"#utility.yul\":3347:3361   */\n      pop\n        /* \"#utility.yul\":3643:3646   */\n      dup6\n        /* \"#utility.yul\":3636:3646   */\n      swap4\n      pop\n        /* \"#utility.yul\":3044:3652   */\n      pop\n      pop\n      pop\n        /* \"#utility.yul\":2920:3652   */\n      swap3\n      swap2\n      pop\n      pop\n      jump\t// out\n        /* \"#utility.yul\":3658:3751   */\n    tag_156:\n        /* \"#utility.yul\":3694:3701   */\n      0x00\n        /* \"#utility.yul\":3734:3744   */\n      0xffffffff\n        /* \"#utility.yul\":3727:3732   */\n      dup3\n        /* \"#utility.yul\":3723:3745   */\n      and\n        /* \"#utility.yul\":3712:3745   */\n      swap1\n      pop\n        /* \"#utility.yul\":3658:3751   */\n      swap2\n      swap1\n      pop\n      jump\t// out\n        /* \"#utility.yul\":3757:3872   */\n    tag_157:\n        /* \"#utility.yul\":3842:3865   */\n      tag_259\n        /* \"#utility.yul\":3859:3864   */\n      dup2\n        /* \"#utility.yul\":3842:3865   */\n      tag_156\n      jump\t// in\n    tag_259:\n        /* \"#utility.yul\":3837:3840   */\n      dup3\n        /* \"#utility.yul\":3830:3866   */\n      mstore\n        /* \"#utility.yul\":3757:3872   */\n      pop\n      pop\n      jump\t// out\n        /* \"#utility.yul\":3878:4558   */\n    tag_14:\n        /* \"#utility.yul\":4095:4099   */\n      0x00\n        /* \"#utility.yul\":4133:4135   */\n      0x60\n        /* \"#utility.yul\":4122:4131   */\n      dup3\n        /* \"#utility.yul\":4118:4136   */\n      add\n        /* \"#utility.yul\":4110:4136   */\n      swap1\n      pop\n        /* \"#utility.yul\":4182:4191   */\n      dup2\n        /* \"#utility.yul\":4176:4180   */\n      dup2\n        /* \"#utility.yul\":4172:4192   */\n      sub\n        /* \"#utility.yul\":4168:4169   */\n      0x00\n        /* \"#utility.yul\":4157:4166   */\n      dup4\n        /* \"#utility.yul\":4153:4170   */\n      add\n        /* \"#utility.yul\":4146:4193   */\n      mstore\n        /* \"#utility.yul\":4210:4288   */\n      tag_261\n        /* \"#utility.yul\":4283:4287   */\n      dup2\n        /* \"#utility.yul\":4274:4280   */\n      dup7\n        /* \"#utility.yul\":4210:4288   */\n      tag_147\n      jump\t// in\n    tag_261:\n        /* \"#utility.yul\":4202:4288   */\n      swap1\n      pop\n        /* \"#utility.yul\":4335:4344   */\n      dup2\n        /* \"#utility.yul\":4329:4333   */\n      dup2\n        /* \"#utility.yul\":4325:4345   */\n      sub\n        /* \"#utility.yul\":4320:4322   */\n      0x20\n        /* \"#utility.yul\":4309:4318   */\n      dup4\n        /* \"#utility.yul\":4305:4323   */\n      add\n        /* \"#utility.yul\":4298:4346   */\n      mstore\n        /* \"#utility.yul\":4363:4471   */\n      tag_262\n        /* \"#utility.yul\":4466:4470   */\n      dup2\n        /* \"#utility.yul\":4457:4463   */\n      dup6\n        /* \"#utility.yul\":4363:4471   */\n      tag_155\n      jump\t// in\n    tag_262:\n        /* \"#utility.yul\":4355:4471   */\n      swap1\n      pop\n        /* \"#utility.yul\":4481:4551   */\n      tag_263\n        /* \"#utility.yul\":4547:4549   */\n      0x40\n        /* \"#utility.yul\":4536:4545   */\n      dup4\n        /* \"#utility.yul\":4532:4550   */\n      add\n        /* \"#utility.yul\":4523:4529   */\n      dup5\n        /* \"#utility.yul\":4481:4551   */\n      tag_157\n      jump\t// in\n    tag_263:\n        /* \"#utility.yul\":3878:4558   */\n      swap5\n      swap4\n      pop\n      pop\n      pop\n      pop\n      jump\t// out\n        /* \"#utility.yul\":4564:4682   */\n    tag_158:\n        /* \"#utility.yul\":4651:4675   */\n      tag_265\n        /* \"#utility.yul\":4669:4674   */\n      dup2\n        /* \"#utility.yul\":4651:4675   */\n      tag_140\n      jump\t// in\n    tag_265:\n        /* \"#utility.yul\":4646:4649   */\n      dup3\n        /* \"#utility.yul\":4639:4676   */\n      mstore\n        /* \"#utility.yul\":4564:4682   */\n      pop\n      pop\n      jump\t// out\n        /* \"#utility.yul\":4688:4910   */\n    tag_18:\n        /* \"#utility.yul\":4781:4785   */\n      0x00\n        /* \"#utility.yul\":4819:4821   */\n      0x20\n        /* \"#utility.yul\":4808:4817   */\n      dup3\n        /* \"#utility.yul\":4804:4822   */\n      add\n        /* \"#utility.yul\":4796:4822   */\n      swap1\n      pop\n        /* \"#utility.yul\":4832:4903   */\n      tag_267\n        /* \"#utility.yul\":4900:4901   */\n      0x00\n        /* \"#utility.yul\":4889:4898   */\n      dup4\n        /* \"#utility.yul\":4885:4902   */\n      add\n        /* \"#utility.yul\":4876:4882   */\n      dup5\n        /* \"#utility.yul\":4832:4903   */\n      tag_158\n      jump\t// in\n    tag_267:\n        /* \"#utility.yul\":4688:4910   */\n      swap3\n      swap2\n      pop\n      pop\n      jump\t// out\n        /* \"#utility.yul\":4916:5038   */\n    tag_159:\n        /* \"#utility.yul\":4989:5013   */\n      tag_269\n        /* \"#utility.yul\":5007:5012   */\n      dup2\n        /* \"#utility.yul\":4989:5013   */\n      tag_151\n      jump\t// in\n    tag_269:\n        /* \"#utility.yul\":4982:4987   */\n      dup2\n        /* \"#utility.yul\":4979:5014   */\n      eq\n        /* \"#utility.yul\":4969:5032   */\n      tag_270\n      jumpi\n        /* \"#utility.yul\":5028:5029   */\n      0x00\n        /* \"#utility.yul\":5025:5026   */\n      dup1\n        /* \"#utility.yul\":5018:5030   */\n      revert\n        /* \"#utility.yul\":4969:5032   */\n    tag_270:\n        /* \"#utility.yul\":4916:5038   */\n      pop\n      jump\t// out\n        /* \"#utility.yul\":5044:5183   */\n    tag_160:\n        /* \"#utility.yul\":5090:5095   */\n      0x00\n        /* \"#utility.yul\":5128:5134   */\n      dup2\n        /* \"#utility.yul\":5115:5135   */\n      calldataload\n        /* \"#utility.yul\":5106:5135   */\n      swap1\n      pop\n        /* \"#utility.yul\":5144:5177   */\n      tag_272\n        /* \"#utility.yul\":5171:5176   */\n      dup2\n        /* \"#utility.yul\":5144:5177   */\n      tag_159\n      jump\t// in\n    tag_272:\n        /* \"#utility.yul\":5044:5183   */\n      swap3\n      swap2\n      pop\n      pop\n      jump\t// out\n        /* \"#utility.yul\":5189:5663   */\n    tag_21:\n        /* \"#utility.yul\":5257:5263   */\n      0x00\n        /* \"#utility.yul\":5265:5271   */\n      dup1\n        /* \"#utility.yul\":5314:5316   */\n      0x40\n        /* \"#utility.yul\":5302:5311   */\n      dup4\n        /* \"#utility.yul\":5293:5300   */\n      dup6\n        /* \"#utility.yul\":5289:5312   */\n      sub\n        /* \"#utility.yul\":5285:5317   */\n      slt\n        /* \"#utility.yul\":5282:5401   */\n      iszero\n      tag_274\n      jumpi\n        /* \"#utility.yul\":5320:5399   */\n      tag_275\n      tag_138\n      jump\t// in\n    tag_275:\n        /* \"#utility.yul\":5282:5401   */\n    tag_274:\n        /* \"#utility.yul\":5440:5441   */\n      0x00\n        /* \"#utility.yul\":5465:5518   */\n      tag_276\n        /* \"#utility.yul\":5510:5517   */\n      dup6\n        /* \"#utility.yul\":5501:5507   */\n      dup3\n        /* \"#utility.yul\":5490:5499   */\n      dup7\n        /* \"#utility.yul\":5486:5508   */\n      add\n        /* \"#utility.yul\":5465:5518   */\n      tag_142\n      jump\t// in\n    tag_276:\n        /* \"#utility.yul\":5455:5518   */\n      swap3\n      pop\n        /* \"#utility.yul\":5411:5528   */\n      pop\n        /* \"#utility.yul\":5567:5569   */\n      0x20\n        /* \"#utility.yul\":5593:5646   */\n      tag_277\n        /* \"#utility.yul\":5638:5645   */\n      dup6\n        /* \"#utility.yul\":5629:5635   */\n      dup3\n        /* \"#utility.yul\":5618:5627   */\n      dup7\n        /* \"#utility.yul\":5614:5636   */\n      add\n        /* \"#utility.yul\":5593:5646   */\n      tag_160\n      jump\t// in\n    tag_277:\n        /* \"#utility.yul\":5583:5646   */\n      swap2\n      pop\n        /* \"#utility.yul\":5538:5656   */\n      pop\n        /* \"#utility.yul\":5189:5663   */\n      swap3\n      pop\n      swap3\n      swap1\n      pop\n      jump\t// out\n        /* \"#utility.yul\":5669:5783   */\n    tag_161:\n        /* \"#utility.yul\":5736:5742   */\n      0x00\n        /* \"#utility.yul\":5770:5775   */\n      dup2\n        /* \"#utility.yul\":5764:5776   */\n      mload\n        /* \"#utility.yul\":5754:5776   */\n      swap1\n      pop\n        /* \"#utility.yul\":5669:5783   */\n      swap2\n      swap1\n      pop\n      jump\t// out\n        /* \"#utility.yul\":5789:5973   */\n    tag_162:\n        /* \"#utility.yul\":5888:5899   */\n      0x00\n        /* \"#utility.yul\":5922:5928   */\n      dup3\n        /* \"#utility.yul\":5917:5920   */\n      dup3\n        /* \"#utility.yul\":5910:5929   */\n      mstore\n        /* \"#utility.yul\":5962:5966   */\n      0x20\n        /* \"#utility.yul\":5957:5960   */\n      dup3\n        /* \"#utility.yul\":5953:5967   */\n      add\n        /* \"#utility.yul\":5938:5967   */\n      swap1\n      pop\n        /* \"#utility.yul\":5789:5973   */\n      swap3\n      swap2\n      pop\n      pop\n      jump\t// out\n        /* \"#utility.yul\":5979:6111   */\n    tag_163:\n        /* \"#utility.yul\":6046:6050   */\n      0x00\n        /* \"#utility.yul\":6069:6072   */\n      dup2\n        /* \"#utility.yul\":6061:6072   */\n      swap1\n      pop\n        /* \"#utility.yul\":6099:6103   */\n      0x20\n        /* \"#utility.yul\":6094:6097   */\n      dup3\n        /* \"#utility.yul\":6090:6104   */\n      add\n        /* \"#utility.yul\":6082:6104   */\n      swap1\n      pop\n        /* \"#utility.yul\":5979:6111   */\n      swap2\n      swap1\n      pop\n      jump\t// out\n        /* \"#utility.yul\":6117:6225   */\n    tag_164:\n        /* \"#utility.yul\":6194:6218   */\n      tag_282\n        /* \"#utility.yul\":6212:6217   */\n      dup2\n        /* \"#utility.yul\":6194:6218   */\n      tag_140\n      jump\t// in\n    tag_282:\n        /* \"#utility.yul\":6189:6192   */\n      dup3\n        /* \"#utility.yul\":6182:6219   */\n      mstore\n        /* \"#utility.yul\":6117:6225   */\n      pop\n      pop\n      jump\t// out\n        /* \"#utility.yul\":6231:6410   */\n    tag_165:\n        /* \"#utility.yul\":6300:6310   */\n      0x00\n        /* \"#utility.yul\":6321:6367   */\n      tag_284\n        /* \"#utility.yul\":6363:6366   */\n      dup4\n        /* \"#utility.yul\":6355:6361   */\n      dup4\n        /* \"#utility.yul\":6321:6367   */\n      tag_164\n      jump\t// in\n    tag_284:\n        /* \"#utility.yul\":6399:6403   */\n      0x20\n        /* \"#utility.yul\":6394:6397   */\n      dup4\n        /* \"#utility.yul\":6390:6404   */\n      add\n        /* \"#utility.yul\":6376:6404   */\n      swap1\n      pop\n        /* \"#utility.yul\":6231:6410   */\n      swap3\n      swap2\n      pop\n      pop\n      jump\t// out\n        /* \"#utility.yul\":6416:6529   */\n    tag_166:\n        /* \"#utility.yul\":6486:6490   */\n      0x00\n        /* \"#utility.yul\":6518:6522   */\n      0x20\n        /* \"#utility.yul\":6513:6516   */\n      dup3\n        /* \"#utility.yul\":6509:6523   */\n      add\n        /* \"#utility.yul\":6501:6523   */\n      swap1\n      pop\n        /* \"#utility.yul\":6416:6529   */\n      swap2\n      swap1\n      pop\n      jump\t// out\n        /* \"#utility.yul\":6565:7297   */\n    tag_167:\n        /* \"#utility.yul\":6684:6687   */\n      0x00\n        /* \"#utility.yul\":6713:6767   */\n      tag_287\n        /* \"#utility.yul\":6761:6766   */\n      dup3\n        /* \"#utility.yul\":6713:6767   */\n      tag_161\n      jump\t// in\n    tag_287:\n        /* \"#utility.yul\":6783:6869   */\n      tag_288\n        /* \"#utility.yul\":6862:6868   */\n      dup2\n        /* \"#utility.yul\":6857:6860   */\n      dup6\n        /* \"#utility.yul\":6783:6869   */\n      tag_162\n      jump\t// in\n    tag_288:\n        /* \"#utility.yul\":6776:6869   */\n      swap4\n      pop\n        /* \"#utility.yul\":6893:6949   */\n      tag_289\n        /* \"#utility.yul\":6943:6948   */\n      dup4\n        /* \"#utility.yul\":6893:6949   */\n      tag_163\n      jump\t// in\n    tag_289:\n        /* \"#utility.yul\":6972:6979   */\n      dup1\n        /* \"#utility.yul\":7003:7004   */\n      0x00\n        /* \"#utility.yul\":6988:7272   */\n    tag_290:\n        /* \"#utility.yul\":7013:7019   */\n      dup4\n        /* \"#utility.yul\":7010:7011   */\n      dup2\n        /* \"#utility.yul\":7007:7020   */\n      lt\n        /* \"#utility.yul\":6988:7272   */\n      iszero\n      tag_292\n      jumpi\n        /* \"#utility.yul\":7089:7095   */\n      dup2\n        /* \"#utility.yul\":7083:7096   */\n      mload\n        /* \"#utility.yul\":7116:7179   */\n      tag_293\n        /* \"#utility.yul\":7175:7178   */\n      dup9\n        /* \"#utility.yul\":7160:7173   */\n      dup3\n        /* \"#utility.yul\":7116:7179   */\n      tag_165\n      jump\t// in\n    tag_293:\n        /* \"#utility.yul\":7109:7179   */\n      swap8\n      pop\n        /* \"#utility.yul\":7202:7262   */\n      tag_294\n        /* \"#utility.yul\":7255:7261   */\n      dup4\n        /* \"#utility.yul\":7202:7262   */\n      tag_166\n      jump\t// in\n    tag_294:\n        /* \"#utility.yul\":7192:7262   */\n      swap3\n      pop\n        /* \"#utility.yul\":7048:7272   */\n      pop\n        /* \"#utility.yul\":7035:7036   */\n      0x01\n        /* \"#utility.yul\":7032:7033   */\n      dup2\n        /* \"#utility.yul\":7028:7037   */\n      add\n        /* \"#utility.yul\":7023:7037   */\n      swap1\n      pop\n        /* \"#utility.yul\":6988:7272   */\n      jump(tag_290)\n    tag_292:\n        /* \"#utility.yul\":6992:7006   */\n      pop\n        /* \"#utility.yul\":7288:7291   */\n      dup6\n        /* \"#utility.yul\":7281:7291   */\n      swap4\n      pop\n        /* \"#utility.yul\":6689:7297   */\n      pop\n      pop\n      pop\n        /* \"#utility.yul\":6565:7297   */\n      swap3\n      swap2\n      pop\n      pop\n      jump\t// out\n        /* \"#utility.yul\":7303:7393   */\n    tag_168:\n        /* \"#utility.yul\":7337:7344   */\n      0x00\n        /* \"#utility.yul\":7380:7385   */\n      dup2\n        /* \"#utility.yul\":7373:7386   */\n      iszero\n        /* \"#utility.yul\":7366:7387   */\n      iszero\n        /* \"#utility.yul\":7355:7387   */\n      swap1\n      pop\n        /* \"#utility.yul\":7303:7393   */\n      swap2\n      swap1\n      pop\n      jump\t// out\n        /* \"#utility.yul\":7399:7508   */\n    tag_169:\n        /* \"#utility.yul\":7480:7501   */\n      tag_297\n        /* \"#utility.yul\":7495:7500   */\n      dup2\n        /* \"#utility.yul\":7480:7501   */\n      tag_168\n      jump\t// in\n    tag_297:\n        /* \"#utility.yul\":7475:7478   */\n      dup3\n        /* \"#utility.yul\":7468:7502   */\n      mstore\n        /* \"#utility.yul\":7399:7508   */\n      pop\n      pop\n      jump\t// out\n        /* \"#utility.yul\":7514:8246   */\n    tag_27:\n        /* \"#utility.yul\":7757:7761   */\n      0x00\n        /* \"#utility.yul\":7795:7797   */\n      0x60\n        /* \"#utility.yul\":7784:7793   */\n      dup3\n        /* \"#utility.yul\":7780:7798   */\n      add\n        /* \"#utility.yul\":7772:7798   */\n      swap1\n      pop\n        /* \"#utility.yul\":7844:7853   */\n      dup2\n        /* \"#utility.yul\":7838:7842   */\n      dup2\n        /* \"#utility.yul\":7834:7854   */\n      sub\n        /* \"#utility.yul\":7830:7831   */\n      0x00\n        /* \"#utility.yul\":7819:7828   */\n      dup4\n        /* \"#utility.yul\":7815:7832   */\n      add\n        /* \"#utility.yul\":7808:7855   */\n      mstore\n        /* \"#utility.yul\":7872:7980   */\n      tag_299\n        /* \"#utility.yul\":7975:7979   */\n      dup2\n        /* \"#utility.yul\":7966:7972   */\n      dup7\n        /* \"#utility.yul\":7872:7980   */\n      tag_155\n      jump\t// in\n    tag_299:\n        /* \"#utility.yul\":7864:7980   */\n      swap1\n      pop\n        /* \"#utility.yul\":8027:8036   */\n      dup2\n        /* \"#utility.yul\":8021:8025   */\n      dup2\n        /* \"#utility.yul\":8017:8037   */\n      sub\n        /* \"#utility.yul\":8012:8014   */\n      0x20\n        /* \"#utility.yul\":8001:8010   */\n      dup4\n        /* \"#utility.yul\":7997:8015   */\n      add\n        /* \"#utility.yul\":7990:8038   */\n      mstore\n        /* \"#utility.yul\":8055:8163   */\n      tag_300\n        /* \"#utility.yul\":8158:8162   */\n      dup2\n        /* \"#utility.yul\":8149:8155   */\n      dup6\n        /* \"#utility.yul\":8055:8163   */\n      tag_167\n      jump\t// in\n    tag_300:\n        /* \"#utility.yul\":8047:8163   */\n      swap1\n      pop\n        /* \"#utility.yul\":8173:8239   */\n      tag_301\n        /* \"#utility.yul\":8235:8237   */\n      0x40\n        /* \"#utility.yul\":8224:8233   */\n      dup4\n        /* \"#utility.yul\":8220:8238   */\n      add\n        /* \"#utility.yul\":8211:8217   */\n      dup5\n        /* \"#utility.yul\":8173:8239   */\n      tag_169\n      jump\t// in\n    tag_301:\n        /* \"#utility.yul\":7514:8246   */\n      swap5\n      swap4\n      pop\n      pop\n      pop\n      pop\n      jump\t// out\n        /* \"#utility.yul\":8252:8671   */\n    tag_32:\n        /* \"#utility.yul\":8391:8395   */\n      0x00\n        /* \"#utility.yul\":8429:8431   */\n      0x40\n        /* \"#utility.yul\":8418:8427   */\n      dup3\n        /* \"#utility.yul\":8414:8432   */\n      add\n        /* \"#utility.yul\":8406:8432   */\n      swap1\n      pop\n        /* \"#utility.yul\":8478:8487   */\n      dup2\n        /* \"#utility.yul\":8472:8476   */\n      dup2\n        /* \"#utility.yul\":8468:8488   */\n      sub\n        /* \"#utility.yul\":8464:8465   */\n      0x00\n        /* \"#utility.yul\":8453:8462   */\n      dup4\n        /* \"#utility.yul\":8449:8466   */\n      add\n        /* \"#utility.yul\":8442:8489   */\n      mstore\n        /* \"#utility.yul\":8506:8584   */\n      tag_303\n        /* \"#utility.yul\":8579:8583   */\n      dup2\n        /* \"#utility.yul\":8570:8576   */\n      dup6\n        /* \"#utility.yul\":8506:8584   */\n      tag_147\n      jump\t// in\n    tag_303:\n        /* \"#utility.yul\":8498:8584   */\n      swap1\n      pop\n        /* \"#utility.yul\":8594:8664   */\n      tag_304\n        /* \"#utility.yul\":8660:8662   */\n      0x20\n        /* \"#utility.yul\":8649:8658   */\n      dup4\n        /* \"#utility.yul\":8645:8663   */\n      add\n        /* \"#utility.yul\":8636:8642   */\n      dup5\n        /* \"#utility.yul\":8594:8664   */\n      tag_157\n      jump\t// in\n    tag_304:\n        /* \"#utility.yul\":8252:8671   */\n      swap4\n      swap3\n      pop\n      pop\n      pop\n      jump\t// out\n        /* \"#utility.yul\":8677:8794   */\n    tag_170:\n        /* \"#utility.yul\":8786:8787   */\n      0x00\n        /* \"#utility.yul\":8783:8784   */\n      dup1\n        /* \"#utility.yul\":8776:8788   */\n      revert\n        /* \"#utility.yul\":8800:8917   */\n    tag_171:\n        /* \"#utility.yul\":8909:8910   */\n      0x00\n        /* \"#utility.yul\":8906:8907   */\n      dup1\n        /* \"#utility.yul\":8899:8911   */\n      revert\n        /* \"#utility.yul\":8923:9103   */\n    tag_86:\n        /* \"#utility.yul\":8971:9048   */\n      0x4e487b7100000000000000000000000000000000000000000000000000000000\n        /* \"#utility.yul\":8968:8969   */\n      0x00\n        /* \"#utility.yul\":8961:9049   */\n      mstore\n        /* \"#utility.yul\":9068:9072   */\n      0x41\n        /* \"#utility.yul\":9065:9066   */\n      0x04\n        /* \"#utility.yul\":9058:9073   */\n      mstore\n        /* \"#utility.yul\":9092:9096   */\n      0x24\n        /* \"#utility.yul\":9089:9090   */\n      0x00\n        /* \"#utility.yul\":9082:9097   */\n      revert\n        /* \"#utility.yul\":9109:9390   */\n    tag_172:\n        /* \"#utility.yul\":9192:9219   */\n      tag_309\n        /* \"#utility.yul\":9214:9218   */\n      dup3\n        /* \"#utility.yul\":9192:9219   */\n      tag_146\n      jump\t// in\n    tag_309:\n        /* \"#utility.yul\":9184:9190   */\n      dup2\n        /* \"#utility.yul\":9180:9220   */\n      add\n        /* \"#utility.yul\":9322:9328   */\n      dup2\n        /* \"#utility.yul\":9310:9320   */\n      dup2\n        /* \"#utility.yul\":9307:9329   */\n      lt\n        /* \"#utility.yul\":9286:9304   */\n      0xffffffffffffffff\n        /* \"#utility.yul\":9274:9284   */\n      dup3\n        /* \"#utility.yul\":9271:9305   */\n      gt\n        /* \"#utility.yul\":9268:9330   */\n      or\n        /* \"#utility.yul\":9265:9353   */\n      iszero\n      tag_310\n      jumpi\n        /* \"#utility.yul\":9333:9351   */\n      tag_311\n      tag_86\n      jump\t// in\n    tag_311:\n        /* \"#utility.yul\":9265:9353   */\n    tag_310:\n        /* \"#utility.yul\":9373:9383   */\n      dup1\n        /* \"#utility.yul\":9369:9371   */\n      0x40\n        /* \"#utility.yul\":9362:9384   */\n      mstore\n        /* \"#utility.yul\":9152:9390   */\n      pop\n        /* \"#utility.yul\":9109:9390   */\n      pop\n      pop\n      jump\t// out\n        /* \"#utility.yul\":9396:9525   */\n    tag_173:\n        /* \"#utility.yul\":9430:9436   */\n      0x00\n        /* \"#utility.yul\":9457:9477   */\n      tag_313\n      tag_137\n      jump\t// in\n    tag_313:\n        /* \"#utility.yul\":9447:9477   */\n      swap1\n      pop\n        /* \"#utility.yul\":9486:9519   */\n      tag_314\n        /* \"#utility.yul\":9514:9518   */\n      dup3\n        /* \"#utility.yul\":9506:9512   */\n      dup3\n        /* \"#utility.yul\":9486:9519   */\n      tag_172\n      jump\t// in\n    tag_314:\n        /* \"#utility.yul\":9396:9525   */\n      swap2\n      swap1\n      pop\n      jump\t// out\n        /* \"#utility.yul\":9531:9839   */\n    tag_174:\n        /* \"#utility.yul\":9593:9597   */\n      0x00\n        /* \"#utility.yul\":9683:9701   */\n      0xffffffffffffffff\n        /* \"#utility.yul\":9675:9681   */\n      dup3\n        /* \"#utility.yul\":9672:9702   */\n      gt\n        /* \"#utility.yul\":9669:9725   */\n      iszero\n      tag_316\n      jumpi\n        /* \"#utility.yul\":9705:9723   */\n      tag_317\n      tag_86\n      jump\t// in\n    tag_317:\n        /* \"#utility.yul\":9669:9725   */\n    tag_316:\n        /* \"#utility.yul\":9743:9772   */\n      tag_318\n        /* \"#utility.yul\":9765:9771   */\n      dup3\n        /* \"#utility.yul\":9743:9772   */\n      tag_146\n      jump\t// in\n    tag_318:\n        /* \"#utility.yul\":9735:9772   */\n      swap1\n      pop\n        /* \"#utility.yul\":9827:9831   */\n      0x20\n        /* \"#utility.yul\":9821:9825   */\n      dup2\n        /* \"#utility.yul\":9817:9832   */\n      add\n        /* \"#utility.yul\":9809:9832   */\n      swap1\n      pop\n        /* \"#utility.yul\":9531:9839   */\n      swap2\n      swap1\n      pop\n      jump\t// out\n        /* \"#utility.yul\":9845:9993   */\n    tag_175:\n        /* \"#utility.yul\":9943:9949   */\n      dup3\n        /* \"#utility.yul\":9938:9941   */\n      dup2\n        /* \"#utility.yul\":9933:9936   */\n      dup4\n        /* \"#utility.yul\":9920:9950   */\n      calldatacopy\n        /* \"#utility.yul\":9984:9985   */\n      0x00\n        /* \"#utility.yul\":9975:9981   */\n      dup4\n        /* \"#utility.yul\":9970:9973   */\n      dup4\n        /* \"#utility.yul\":9966:9982   */\n      add\n        /* \"#utility.yul\":9959:9986   */\n      mstore\n        /* \"#utility.yul\":9845:9993   */\n      pop\n      pop\n      pop\n      jump\t// out\n        /* \"#utility.yul\":9999:10424   */\n    tag_176:\n        /* \"#utility.yul\":10077:10082   */\n      0x00\n        /* \"#utility.yul\":10102:10168   */\n      tag_321\n        /* \"#utility.yul\":10118:10167   */\n      tag_322\n        /* \"#utility.yul\":10160:10166   */\n      dup5\n        /* \"#utility.yul\":10118:10167   */\n      tag_174\n      jump\t// in\n    tag_322:\n        /* \"#utility.yul\":10102:10168   */\n      tag_173\n      jump\t// in\n    tag_321:\n        /* \"#utility.yul\":10093:10168   */\n      swap1\n      pop\n        /* \"#utility.yul\":10191:10197   */\n      dup3\n        /* \"#utility.yul\":10184:10189   */\n      dup2\n        /* \"#utility.yul\":10177:10198   */\n      mstore\n        /* \"#utility.yul\":10229:10233   */\n      0x20\n        /* \"#utility.yul\":10222:10227   */\n      dup2\n        /* \"#utility.yul\":10218:10234   */\n      add\n        /* \"#utility.yul\":10267:10270   */\n      dup5\n        /* \"#utility.yul\":10258:10264   */\n      dup5\n        /* \"#utility.yul\":10253:10256   */\n      dup5\n        /* \"#utility.yul\":10249:10265   */\n      add\n        /* \"#utility.yul\":10246:10271   */\n      gt\n        /* \"#utility.yul\":10243:10355   */\n      iszero\n      tag_323\n      jumpi\n        /* \"#utility.yul\":10274:10353   */\n      tag_324\n      tag_171\n      jump\t// in\n    tag_324:\n        /* \"#utility.yul\":10243:10355   */\n    tag_323:\n        /* \"#utility.yul\":10364:10418   */\n      tag_325\n        /* \"#utility.yul\":10411:10417   */\n      dup5\n        /* \"#utility.yul\":10406:10409   */\n      dup3\n        /* \"#utility.yul\":10401:10404   */\n      dup6\n        /* \"#utility.yul\":10364:10418   */\n      tag_175\n      jump\t// in\n    tag_325:\n        /* \"#utility.yul\":10083:10424   */\n      pop\n        /* \"#utility.yul\":9999:10424   */\n      swap4\n      swap3\n      pop\n      pop\n      pop\n      jump\t// out\n        /* \"#utility.yul\":10444:10784   */\n    tag_177:\n        /* \"#utility.yul\":10500:10505   */\n      0x00\n        /* \"#utility.yul\":10549:10552   */\n      dup3\n        /* \"#utility.yul\":10542:10546   */\n      0x1f\n        /* \"#utility.yul\":10534:10540   */\n      dup4\n        /* \"#utility.yul\":10530:10547   */\n      add\n        /* \"#utility.yul\":10526:10553   */\n      slt\n        /* \"#utility.yul\":10516:10638   */\n      tag_327\n      jumpi\n        /* \"#utility.yul\":10557:10636   */\n      tag_328\n      tag_170\n      jump\t// in\n    tag_328:\n        /* \"#utility.yul\":10516:10638   */\n    tag_327:\n        /* \"#utility.yul\":10674:10680   */\n      dup2\n        /* \"#utility.yul\":10661:10681   */\n      calldataload\n        /* \"#utility.yul\":10699:10778   */\n      tag_329\n        /* \"#utility.yul\":10774:10777   */\n      dup5\n        /* \"#utility.yul\":10766:10772   */\n      dup3\n        /* \"#utility.yul\":10759:10763   */\n      0x20\n        /* \"#utility.yul\":10751:10757   */\n      dup7\n        /* \"#utility.yul\":10747:10764   */\n      add\n        /* \"#utility.yul\":10699:10778   */\n      tag_176\n      jump\t// in\n    tag_329:\n        /* \"#utility.yul\":10690:10778   */\n      swap2\n      pop\n        /* \"#utility.yul\":10506:10784   */\n      pop\n        /* \"#utility.yul\":10444:10784   */\n      swap3\n      swap2\n      pop\n      pop\n      jump\t// out\n        /* \"#utility.yul\":10790:11101   */\n    tag_178:\n        /* \"#utility.yul\":10867:10871   */\n      0x00\n        /* \"#utility.yul\":10957:10975   */\n      0xffffffffffffffff\n        /* \"#utility.yul\":10949:10955   */\n      dup3\n        /* \"#utility.yul\":10946:10976   */\n      gt\n        /* \"#utility.yul\":10943:10999   */\n      iszero\n      tag_331\n      jumpi\n        /* \"#utility.yul\":10979:10997   */\n      tag_332\n      tag_86\n      jump\t// in\n    tag_332:\n        /* \"#utility.yul\":10943:10999   */\n    tag_331:\n        /* \"#utility.yul\":11029:11033   */\n      0x20\n        /* \"#utility.yul\":11021:11027   */\n      dup3\n        /* \"#utility.yul\":11017:11034   */\n      mul\n        /* \"#utility.yul\":11009:11034   */\n      swap1\n      pop\n        /* \"#utility.yul\":11089:11093   */\n      0x20\n        /* \"#utility.yul\":11083:11087   */\n      dup2\n        /* \"#utility.yul\":11079:11094   */\n      add\n        /* \"#utility.yul\":11071:11094   */\n      swap1\n      pop\n        /* \"#utility.yul\":10790:11101   */\n      swap2\n      swap1\n      pop\n      jump\t// out\n        /* \"#utility.yul\":11107:11224   */\n    tag_179:\n        /* \"#utility.yul\":11216:11217   */\n      0x00\n        /* \"#utility.yul\":11213:11214   */\n      dup1\n        /* \"#utility.yul\":11206:11218   */\n      revert\n        /* \"#utility.yul\":11247:11957   */\n    tag_180:\n        /* \"#utility.yul\":11343:11348   */\n      0x00\n        /* \"#utility.yul\":11368:11449   */\n      tag_335\n        /* \"#utility.yul\":11384:11448   */\n      tag_336\n        /* \"#utility.yul\":11441:11447   */\n      dup5\n        /* \"#utility.yul\":11384:11448   */\n      tag_178\n      jump\t// in\n    tag_336:\n        /* \"#utility.yul\":11368:11449   */\n      tag_173\n      jump\t// in\n    tag_335:\n        /* \"#utility.yul\":11359:11449   */\n      swap1\n      pop\n        /* \"#utility.yul\":11469:11474   */\n      dup1\n        /* \"#utility.yul\":11498:11504   */\n      dup4\n        /* \"#utility.yul\":11491:11496   */\n      dup3\n        /* \"#utility.yul\":11484:11505   */\n      mstore\n        /* \"#utility.yul\":11532:11536   */\n      0x20\n        /* \"#utility.yul\":11525:11530   */\n      dup3\n        /* \"#utility.yul\":11521:11537   */\n      add\n        /* \"#utility.yul\":11514:11537   */\n      swap1\n      pop\n        /* \"#utility.yul\":11585:11589   */\n      0x20\n        /* \"#utility.yul\":11577:11583   */\n      dup5\n        /* \"#utility.yul\":11573:11590   */\n      mul\n        /* \"#utility.yul\":11565:11571   */\n      dup4\n        /* \"#utility.yul\":11561:11591   */\n      add\n        /* \"#utility.yul\":11614:11617   */\n      dup6\n        /* \"#utility.yul\":11606:11612   */\n      dup2\n        /* \"#utility.yul\":11603:11618   */\n      gt\n        /* \"#utility.yul\":11600:11722   */\n      iszero\n      tag_337\n      jumpi\n        /* \"#utility.yul\":11633:11712   */\n      tag_338\n      tag_179\n      jump\t// in\n    tag_338:\n        /* \"#utility.yul\":11600:11722   */\n    tag_337:\n        /* \"#utility.yul\":11748:11754   */\n      dup4\n        /* \"#utility.yul\":11731:11951   */\n    tag_339:\n        /* \"#utility.yul\":11765:11771   */\n      dup2\n        /* \"#utility.yul\":11760:11763   */\n      dup2\n        /* \"#utility.yul\":11757:11772   */\n      lt\n        /* \"#utility.yul\":11731:11951   */\n      iszero\n      tag_341\n      jumpi\n        /* \"#utility.yul\":11840:11843   */\n      dup1\n        /* \"#utility.yul\":11869:11906   */\n      tag_342\n        /* \"#utility.yul\":11902:11905   */\n      dup9\n        /* \"#utility.yul\":11890:11900   */\n      dup3\n        /* \"#utility.yul\":11869:11906   */\n      tag_160\n      jump\t// in\n    tag_342:\n        /* \"#utility.yul\":11864:11867   */\n      dup5\n        /* \"#utility.yul\":11857:11907   */\n      mstore\n        /* \"#utility.yul\":11936:11940   */\n      0x20\n        /* \"#utility.yul\":11931:11934   */\n      dup5\n        /* \"#utility.yul\":11927:11941   */\n      add\n        /* \"#utility.yul\":11920:11941   */\n      swap4\n      pop\n        /* \"#utility.yul\":11807:11951   */\n      pop\n        /* \"#utility.yul\":11791:11795   */\n      0x20\n        /* \"#utility.yul\":11786:11789   */\n      dup2\n        /* \"#utility.yul\":11782:11796   */\n      add\n        /* \"#utility.yul\":11775:11796   */\n      swap1\n      pop\n        /* \"#utility.yul\":11731:11951   */\n      jump(tag_339)\n    tag_341:\n        /* \"#utility.yul\":11735:11756   */\n      pop\n        /* \"#utility.yul\":11349:11957   */\n      pop\n      pop\n        /* \"#utility.yul\":11247:11957   */\n      swap4\n      swap3\n      pop\n      pop\n      pop\n      jump\t// out\n        /* \"#utility.yul\":11980:12350   */\n    tag_181:\n        /* \"#utility.yul\":12051:12056   */\n      0x00\n        /* \"#utility.yul\":12100:12103   */\n      dup3\n        /* \"#utility.yul\":12093:12097   */\n      0x1f\n        /* \"#utility.yul\":12085:12091   */\n      dup4\n        /* \"#utility.yul\":12081:12098   */\n      add\n        /* \"#utility.yul\":12077:12104   */\n      slt\n        /* \"#utility.yul\":12067:12189   */\n      tag_344\n      jumpi\n        /* \"#utility.yul\":12108:12187   */\n      tag_345\n      tag_170\n      jump\t// in\n    tag_345:\n        /* \"#utility.yul\":12067:12189   */\n    tag_344:\n        /* \"#utility.yul\":12225:12231   */\n      dup2\n        /* \"#utility.yul\":12212:12232   */\n      calldataload\n        /* \"#utility.yul\":12250:12344   */\n      tag_346\n        /* \"#utility.yul\":12340:12343   */\n      dup5\n        /* \"#utility.yul\":12332:12338   */\n      dup3\n        /* \"#utility.yul\":12325:12329   */\n      0x20\n        /* \"#utility.yul\":12317:12323   */\n      dup7\n        /* \"#utility.yul\":12313:12330   */\n      add\n        /* \"#utility.yul\":12250:12344   */\n      tag_180\n      jump\t// in\n    tag_346:\n        /* \"#utility.yul\":12241:12344   */\n      swap2\n      pop\n        /* \"#utility.yul\":12057:12350   */\n      pop\n        /* \"#utility.yul\":11980:12350   */\n      swap3\n      swap2\n      pop\n      pop\n      jump\t// out\n        /* \"#utility.yul\":12356:12476   */\n    tag_182:\n        /* \"#utility.yul\":12428:12451   */\n      tag_348\n        /* \"#utility.yul\":12445:12450   */\n      dup2\n        /* \"#utility.yul\":12428:12451   */\n      tag_156\n      jump\t// in\n    tag_348:\n        /* \"#utility.yul\":12421:12426   */\n      dup2\n        /* \"#utility.yul\":12418:12452   */\n      eq\n        /* \"#utility.yul\":12408:12470   */\n      tag_349\n      jumpi\n        /* \"#utility.yul\":12466:12467   */\n      0x00\n        /* \"#utility.yul\":12463:12464   */\n      dup1\n        /* \"#utility.yul\":12456:12468   */\n      revert\n        /* \"#utility.yul\":12408:12470   */\n    tag_349:\n        /* \"#utility.yul\":12356:12476   */\n      pop\n      jump\t// out\n        /* \"#utility.yul\":12482:12619   */\n    tag_183:\n        /* \"#utility.yul\":12527:12532   */\n      0x00\n        /* \"#utility.yul\":12565:12571   */\n      dup2\n        /* \"#utility.yul\":12552:12572   */\n      calldataload\n        /* \"#utility.yul\":12543:12572   */\n      swap1\n      pop\n        /* \"#utility.yul\":12581:12613   */\n      tag_351\n        /* \"#utility.yul\":12607:12612   */\n      dup2\n        /* \"#utility.yul\":12581:12613   */\n      tag_182\n      jump\t// in\n    tag_351:\n        /* \"#utility.yul\":12482:12619   */\n      swap3\n      swap2\n      pop\n      pop\n      jump\t// out\n        /* \"#utility.yul\":12625:13632   */\n    tag_35:\n        /* \"#utility.yul\":12736:12742   */\n      0x00\n        /* \"#utility.yul\":12744:12750   */\n      dup1\n        /* \"#utility.yul\":12752:12758   */\n      0x00\n        /* \"#utility.yul\":12801:12803   */\n      0x60\n        /* \"#utility.yul\":12789:12798   */\n      dup5\n        /* \"#utility.yul\":12780:12787   */\n      dup7\n        /* \"#utility.yul\":12776:12799   */\n      sub\n        /* \"#utility.yul\":12772:12804   */\n      slt\n        /* \"#utility.yul\":12769:12888   */\n      iszero\n      tag_353\n      jumpi\n        /* \"#utility.yul\":12807:12886   */\n      tag_354\n      tag_138\n      jump\t// in\n    tag_354:\n        /* \"#utility.yul\":12769:12888   */\n    tag_353:\n        /* \"#utility.yul\":12955:12956   */\n      0x00\n        /* \"#utility.yul\":12944:12953   */\n      dup5\n        /* \"#utility.yul\":12940:12957   */\n      add\n        /* \"#utility.yul\":12927:12958   */\n      calldataload\n        /* \"#utility.yul\":12985:13003   */\n      0xffffffffffffffff\n        /* \"#utility.yul\":12977:12983   */\n      dup2\n        /* \"#utility.yul\":12974:13004   */\n      gt\n        /* \"#utility.yul\":12971:13088   */\n      iszero\n      tag_355\n      jumpi\n        /* \"#utility.yul\":13007:13086   */\n      tag_356\n      tag_139\n      jump\t// in\n    tag_356:\n        /* \"#utility.yul\":12971:13088   */\n    tag_355:\n        /* \"#utility.yul\":13112:13175   */\n      tag_357\n        /* \"#utility.yul\":13167:13174   */\n      dup7\n        /* \"#utility.yul\":13158:13164   */\n      dup3\n        /* \"#utility.yul\":13147:13156   */\n      dup8\n        /* \"#utility.yul\":13143:13165   */\n      add\n        /* \"#utility.yul\":13112:13175   */\n      tag_177\n      jump\t// in\n    tag_357:\n        /* \"#utility.yul\":13102:13175   */\n      swap4\n      pop\n        /* \"#utility.yul\":12898:13185   */\n      pop\n        /* \"#utility.yul\":13252:13254   */\n      0x20\n        /* \"#utility.yul\":13241:13250   */\n      dup5\n        /* \"#utility.yul\":13237:13255   */\n      add\n        /* \"#utility.yul\":13224:13256   */\n      calldataload\n        /* \"#utility.yul\":13283:13301   */\n      0xffffffffffffffff\n        /* \"#utility.yul\":13275:13281   */\n      dup2\n        /* \"#utility.yul\":13272:13302   */\n      gt\n        /* \"#utility.yul\":13269:13386   */\n      iszero\n      tag_358\n      jumpi\n        /* \"#utility.yul\":13305:13384   */\n      tag_359\n      tag_139\n      jump\t// in\n    tag_359:\n        /* \"#utility.yul\":13269:13386   */\n    tag_358:\n        /* \"#utility.yul\":13410:13488   */\n      tag_360\n        /* \"#utility.yul\":13480:13487   */\n      dup7\n        /* \"#utility.yul\":13471:13477   */\n      dup3\n        /* \"#utility.yul\":13460:13469   */\n      dup8\n        /* \"#utility.yul\":13456:13478   */\n      add\n        /* \"#utility.yul\":13410:13488   */\n      tag_181\n      jump\t// in\n    tag_360:\n        /* \"#utility.yul\":13400:13488   */\n      swap3\n      pop\n        /* \"#utility.yul\":13195:13498   */\n      pop\n        /* \"#utility.yul\":13537:13539   */\n      0x40\n        /* \"#utility.yul\":13563:13615   */\n      tag_361\n        /* \"#utility.yul\":13607:13614   */\n      dup7\n        /* \"#utility.yul\":13598:13604   */\n      dup3\n        /* \"#utility.yul\":13587:13596   */\n      dup8\n        /* \"#utility.yul\":13583:13605   */\n      add\n        /* \"#utility.yul\":13563:13615   */\n      tag_183\n      jump\t// in\n    tag_361:\n        /* \"#utility.yul\":13553:13615   */\n      swap2\n      pop\n        /* \"#utility.yul\":13508:13625   */\n      pop\n        /* \"#utility.yul\":12625:13632   */\n      swap3\n      pop\n      swap3\n      pop\n      swap3\n      jump\t// out\n        /* \"#utility.yul\":13638:13818   */\n    tag_41:\n        /* \"#utility.yul\":13686:13763   */\n      0x4e487b7100000000000000000000000000000000000000000000000000000000\n        /* \"#utility.yul\":13683:13684   */\n      0x00\n        /* \"#utility.yul\":13676:13764   */\n      mstore\n        /* \"#utility.yul\":13783:13787   */\n      0x32\n        /* \"#utility.yul\":13780:13781   */\n      0x04\n        /* \"#utility.yul\":13773:13788   */\n      mstore\n        /* \"#utility.yul\":13807:13811   */\n      0x24\n        /* \"#utility.yul\":13804:13805   */\n      0x00\n        /* \"#utility.yul\":13797:13812   */\n      revert\n        /* \"#utility.yul\":13824:14004   */\n    tag_184:\n        /* \"#utility.yul\":13872:13949   */\n      0x4e487b7100000000000000000000000000000000000000000000000000000000\n        /* \"#utility.yul\":13869:13870   */\n      0x00\n        /* \"#utility.yul\":13862:13950   */\n      mstore\n        /* \"#utility.yul\":13969:13973   */\n      0x22\n        /* \"#utility.yul\":13966:13967   */\n      0x04\n        /* \"#utility.yul\":13959:13974   */\n      mstore\n        /* \"#utility.yul\":13993:13997   */\n      0x24\n        /* \"#utility.yul\":13990:13991   */\n      0x00\n        /* \"#utility.yul\":13983:13998   */\n      revert\n        /* \"#utility.yul\":14010:14330   */\n    tag_44:\n        /* \"#utility.yul\":14054:14060   */\n      0x00\n        /* \"#utility.yul\":14091:14092   */\n      0x02\n        /* \"#utility.yul\":14085:14089   */\n      dup3\n        /* \"#utility.yul\":14081:14093   */\n      div\n        /* \"#utility.yul\":14071:14093   */\n      swap1\n      pop\n        /* \"#utility.yul\":14138:14139   */\n      0x01\n        /* \"#utility.yul\":14132:14136   */\n      dup3\n        /* \"#utility.yul\":14128:14140   */\n      and\n        /* \"#utility.yul\":14159:14177   */\n      dup1\n        /* \"#utility.yul\":14149:14230   */\n      tag_365\n      jumpi\n        /* \"#utility.yul\":14215:14219   */\n      0x7f\n        /* \"#utility.yul\":14207:14213   */\n      dup3\n        /* \"#utility.yul\":14203:14220   */\n      and\n        /* \"#utility.yul\":14193:14220   */\n      swap2\n      pop\n        /* \"#utility.yul\":14149:14230   */\n    tag_365:\n        /* \"#utility.yul\":14277:14279   */\n      0x20\n        /* \"#utility.yul\":14269:14275   */\n      dup3\n        /* \"#utility.yul\":14266:14280   */\n      lt\n        /* \"#utility.yul\":14246:14264   */\n      dup2\n        /* \"#utility.yul\":14243:14281   */\n      sub\n        /* \"#utility.yul\":14240:14324   */\n      tag_366\n      jumpi\n        /* \"#utility.yul\":14296:14314   */\n      tag_367\n      tag_184\n      jump\t// in\n    tag_367:\n        /* \"#utility.yul\":14240:14324   */\n    tag_366:\n        /* \"#utility.yul\":14061:14330   */\n      pop\n        /* \"#utility.yul\":14010:14330   */\n      swap2\n      swap1\n      pop\n      jump\t// out\n        /* \"#utility.yul\":14336:14497   */\n    tag_185:\n        /* \"#utility.yul\":14476:14489   */\n      0x506f6c6c20636c6f736564000000000000000000000000000000000000000000\n        /* \"#utility.yul\":14472:14473   */\n      0x00\n        /* \"#utility.yul\":14464:14470   */\n      dup3\n        /* \"#utility.yul\":14460:14474   */\n      add\n        /* \"#utility.yul\":14453:14490   */\n      mstore\n        /* \"#utility.yul\":14336:14497   */\n      pop\n      jump\t// out\n        /* \"#utility.yul\":14503:14869   */\n    tag_186:\n        /* \"#utility.yul\":14645:14648   */\n      0x00\n        /* \"#utility.yul\":14666:14733   */\n      tag_370\n        /* \"#utility.yul\":14730:14732   */\n      0x0b\n        /* \"#utility.yul\":14725:14728   */\n      dup4\n        /* \"#utility.yul\":14666:14733   */\n      tag_144\n      jump\t// in\n    tag_370:\n        /* \"#utility.yul\":14659:14733   */\n      swap2\n      pop\n        /* \"#utility.yul\":14742:14835   */\n      tag_371\n        /* \"#utility.yul\":14831:14834   */\n      dup3\n        /* \"#utility.yul\":14742:14835   */\n      tag_185\n      jump\t// in\n    tag_371:\n        /* \"#utility.yul\":14860:14862   */\n      0x20\n        /* \"#utility.yul\":14855:14858   */\n      dup3\n        /* \"#utility.yul\":14851:14863   */\n      add\n        /* \"#utility.yul\":14844:14863   */\n      swap1\n      pop\n        /* \"#utility.yul\":14503:14869   */\n      swap2\n      swap1\n      pop\n      jump\t// out\n        /* \"#utility.yul\":14875:15294   */\n    tag_58:\n        /* \"#utility.yul\":15041:15045   */\n      0x00\n        /* \"#utility.yul\":15079:15081   */\n      0x20\n        /* \"#utility.yul\":15068:15077   */\n      dup3\n        /* \"#utility.yul\":15064:15082   */\n      add\n        /* \"#utility.yul\":15056:15082   */\n      swap1\n      pop\n        /* \"#utility.yul\":15128:15137   */\n      dup2\n        /* \"#utility.yul\":15122:15126   */\n      dup2\n        /* \"#utility.yul\":15118:15138   */\n      sub\n        /* \"#utility.yul\":15114:15115   */\n      0x00\n        /* \"#utility.yul\":15103:15112   */\n      dup4\n        /* \"#utility.yul\":15099:15116   */\n      add\n        /* \"#utility.yul\":15092:15139   */\n      mstore\n        /* \"#utility.yul\":15156:15287   */\n      tag_373\n        /* \"#utility.yul\":15282:15286   */\n      dup2\n        /* \"#utility.yul\":15156:15287   */\n      tag_186\n      jump\t// in\n    tag_373:\n        /* \"#utility.yul\":15148:15287   */\n      swap1\n      pop\n        /* \"#utility.yul\":14875:15294   */\n      swap2\n      swap1\n      pop\n      jump\t// out\n        /* \"#utility.yul\":15300:15465   */\n    tag_187:\n        /* \"#utility.yul\":15440:15457   */\n      0x496e76616c696420506f6c6c2049440000000000000000000000000000000000\n        /* \"#utility.yul\":15436:15437   */\n      0x00\n        /* \"#utility.yul\":15428:15434   */\n      dup3\n        /* \"#utility.yul\":15424:15438   */\n      add\n        /* \"#utility.yul\":15417:15458   */\n      mstore\n        /* \"#utility.yul\":15300:15465   */\n      pop\n      jump\t// out\n        /* \"#utility.yul\":15471:15837   */\n    tag_188:\n        /* \"#utility.yul\":15613:15616   */\n      0x00\n        /* \"#utility.yul\":15634:15701   */\n      tag_376\n        /* \"#utility.yul\":15698:15700   */\n      0x0f\n        /* \"#utility.yul\":15693:15696   */\n      dup4\n        /* \"#utility.yul\":15634:15701   */\n      tag_144\n      jump\t// in\n    tag_376:\n        /* \"#utility.yul\":15627:15701   */\n      swap2\n      pop\n        /* \"#utility.yul\":15710:15803   */\n      tag_377\n        /* \"#utility.yul\":15799:15802   */\n      dup3\n        /* \"#utility.yul\":15710:15803   */\n      tag_187\n      jump\t// in\n    tag_377:\n        /* \"#utility.yul\":15828:15830   */\n      0x20\n        /* \"#utility.yul\":15823:15826   */\n      dup3\n        /* \"#utility.yul\":15819:15831   */\n      add\n        /* \"#utility.yul\":15812:15831   */\n      swap1\n      pop\n        /* \"#utility.yul\":15471:15837   */\n      swap2\n      swap1\n      pop\n      jump\t// out\n        /* \"#utility.yul\":15843:16262   */\n    tag_62:\n        /* \"#utility.yul\":16009:16013   */\n      0x00\n        /* \"#utility.yul\":16047:16049   */\n      0x20\n        /* \"#utility.yul\":16036:16045   */\n      dup3\n        /* \"#utility.yul\":16032:16050   */\n      add\n        /* \"#utility.yul\":16024:16050   */\n      swap1\n      pop\n        /* \"#utility.yul\":16096:16105   */\n      dup2\n        /* \"#utility.yul\":16090:16094   */\n      dup2\n        /* \"#utility.yul\":16086:16106   */\n      sub\n        /* \"#utility.yul\":16082:16083   */\n      0x00\n        /* \"#utility.yul\":16071:16080   */\n      dup4\n        /* \"#utility.yul\":16067:16084   */\n      add\n        /* \"#utility.yul\":16060:16107   */\n      mstore\n        /* \"#utility.yul\":16124:16255   */\n      tag_379\n        /* \"#utility.yul\":16250:16254   */\n      dup2\n        /* \"#utility.yul\":16124:16255   */\n      tag_188\n      jump\t// in\n    tag_379:\n        /* \"#utility.yul\":16116:16255   */\n      swap1\n      pop\n        /* \"#utility.yul\":15843:16262   */\n      swap2\n      swap1\n      pop\n      jump\t// out\n        /* \"#utility.yul\":16268:16431   */\n    tag_189:\n        /* \"#utility.yul\":16408:16423   */\n      0x416c726561647920766f74656400000000000000000000000000000000000000\n        /* \"#utility.yul\":16404:16405   */\n      0x00\n        /* \"#utility.yul\":16396:16402   */\n      dup3\n        /* \"#utility.yul\":16392:16406   */\n      add\n        /* \"#utility.yul\":16385:16424   */\n      mstore\n        /* \"#utility.yul\":16268:16431   */\n      pop\n      jump\t// out\n        /* \"#utility.yul\":16437:16803   */\n    tag_190:\n        /* \"#utility.yul\":16579:16582   */\n      0x00\n        /* \"#utility.yul\":16600:16667   */\n      tag_382\n        /* \"#utility.yul\":16664:16666   */\n      0x0d\n        /* \"#utility.yul\":16659:16662   */\n      dup4\n        /* \"#utility.yul\":16600:16667   */\n      tag_144\n      jump\t// in\n    tag_382:\n        /* \"#utility.yul\":16593:16667   */\n      swap2\n      pop\n        /* \"#utility.yul\":16676:16769   */\n      tag_383\n        /* \"#utility.yul\":16765:16768   */\n      dup3\n        /* \"#utility.yul\":16676:16769   */\n      tag_189\n      jump\t// in\n    tag_383:\n        /* \"#utility.yul\":16794:16796   */\n      0x20\n        /* \"#utility.yul\":16789:16792   */\n      dup3\n        /* \"#utility.yul\":16785:16797   */\n      add\n        /* \"#utility.yul\":16778:16797   */\n      swap1\n      pop\n        /* \"#utility.yul\":16437:16803   */\n      swap2\n      swap1\n      pop\n      jump\t// out\n        /* \"#utility.yul\":16809:17228   */\n    tag_68:\n        /* \"#utility.yul\":16975:16979   */\n      0x00\n        /* \"#utility.yul\":17013:17015   */\n      0x20\n        /* \"#utility.yul\":17002:17011   */\n      dup3\n        /* \"#utility.yul\":16998:17016   */\n      add\n        /* \"#utility.yul\":16990:17016   */\n      swap1\n      pop\n        /* \"#utility.yul\":17062:17071   */\n      dup2\n        /* \"#utility.yul\":17056:17060   */\n      dup2\n        /* \"#utility.yul\":17052:17072   */\n      sub\n        /* \"#utility.yul\":17048:17049   */\n      0x00\n        /* \"#utility.yul\":17037:17046   */\n      dup4\n        /* \"#utility.yul\":17033:17050   */\n      add\n        /* \"#utility.yul\":17026:17073   */\n      mstore\n        /* \"#utility.yul\":17090:17221   */\n      tag_385\n        /* \"#utility.yul\":17216:17220   */\n      dup2\n        /* \"#utility.yul\":17090:17221   */\n      tag_190\n      jump\t// in\n    tag_385:\n        /* \"#utility.yul\":17082:17221   */\n      swap1\n      pop\n        /* \"#utility.yul\":16809:17228   */\n      swap2\n      swap1\n      pop\n      jump\t// out\n        /* \"#utility.yul\":17234:17398   */\n    tag_191:\n        /* \"#utility.yul\":17374:17390   */\n      0x496e76616c6964206f7074696f6e000000000000000000000000000000000000\n        /* \"#utility.yul\":17370:17371   */\n      0x00\n        /* \"#utility.yul\":17362:17368   */\n      dup3\n        /* \"#utility.yul\":17358:17372   */\n      add\n        /* \"#utility.yul\":17351:17391   */\n      mstore\n        /* \"#utility.yul\":17234:17398   */\n      pop\n      jump\t// out\n        /* \"#utility.yul\":17404:17770   */\n    tag_192:\n        /* \"#utility.yul\":17546:17549   */\n      0x00\n        /* \"#utility.yul\":17567:17634   */\n      tag_388\n        /* \"#utility.yul\":17631:17633   */\n      0x0e\n        /* \"#utility.yul\":17626:17629   */\n      dup4\n        /* \"#utility.yul\":17567:17634   */\n      tag_144\n      jump\t// in\n    tag_388:\n        /* \"#utility.yul\":17560:17634   */\n      swap2\n      pop\n        /* \"#utility.yul\":17643:17736   */\n      tag_389\n        /* \"#utility.yul\":17732:17735   */\n      dup3\n        /* \"#utility.yul\":17643:17736   */\n      tag_191\n      jump\t// in\n    tag_389:\n        /* \"#utility.yul\":17761:17763   */\n      0x20\n        /* \"#utility.yul\":17756:17759   */\n      dup3\n        /* \"#utility.yul\":17752:17764   */\n      add\n        /* \"#utility.yul\":17745:17764   */\n      swap1\n      pop\n        /* \"#utility.yul\":17404:17770   */\n      swap2\n      swap1\n      pop\n      jump\t// out\n        /* \"#utility.yul\":17776:18195   */\n    tag_75:\n        /* \"#utility.yul\":17942:17946   */\n      0x00\n        /* \"#utility.yul\":17980:17982   */\n      0x20\n        /* \"#utility.yul\":17969:17978   */\n      dup3\n        /* \"#utility.yul\":17965:17983   */\n      add\n        /* \"#utility.yul\":17957:17983   */\n      swap1\n      pop\n        /* \"#utility.yul\":18029:18038   */\n      dup2\n        /* \"#utility.yul\":18023:18027   */\n      dup2\n        /* \"#utility.yul\":18019:18039   */\n      sub\n        /* \"#utility.yul\":18015:18016   */\n      0x00\n        /* \"#utility.yul\":18004:18013   */\n      dup4\n        /* \"#utility.yul\":18000:18017   */\n      add\n        /* \"#utility.yul\":17993:18040   */\n      mstore\n        /* \"#utility.yul\":18057:18188   */\n      tag_391\n        /* \"#utility.yul\":18183:18187   */\n      dup2\n        /* \"#utility.yul\":18057:18188   */\n      tag_192\n      jump\t// in\n    tag_391:\n        /* \"#utility.yul\":18049:18188   */\n      swap1\n      pop\n        /* \"#utility.yul\":17776:18195   */\n      swap2\n      swap1\n      pop\n      jump\t// out\n        /* \"#utility.yul\":18201:18381   */\n    tag_193:\n        /* \"#utility.yul\":18249:18326   */\n      0x4e487b7100000000000000000000000000000000000000000000000000000000\n        /* \"#utility.yul\":18246:18247   */\n      0x00\n        /* \"#utility.yul\":18239:18327   */\n      mstore\n        /* \"#utility.yul\":18346:18350   */\n      0x11\n        /* \"#utility.yul\":18343:18344   */\n      0x04\n        /* \"#utility.yul\":18336:18351   */\n      mstore\n        /* \"#utility.yul\":18370:18374   */\n      0x24\n        /* \"#utility.yul\":18367:18368   */\n      0x00\n        /* \"#utility.yul\":18360:18375   */\n      revert\n        /* \"#utility.yul\":18387:18620   */\n    tag_77:\n        /* \"#utility.yul\":18426:18429   */\n      0x00\n        /* \"#utility.yul\":18449:18473   */\n      tag_394\n        /* \"#utility.yul\":18467:18472   */\n      dup3\n        /* \"#utility.yul\":18449:18473   */\n      tag_140\n      jump\t// in\n    tag_394:\n        /* \"#utility.yul\":18440:18473   */\n      swap2\n      pop\n        /* \"#utility.yul\":18495:18561   */\n      0xffffffffffffffffffffffffffffffffffffffffffffffffffffffffffffffff\n        /* \"#utility.yul\":18488:18493   */\n      dup3\n        /* \"#utility.yul\":18485:18562   */\n      sub\n        /* \"#utility.yul\":18482:18585   */\n      tag_395\n      jumpi\n        /* \"#utility.yul\":18565:18583   */\n      tag_396\n      tag_193\n      jump\t// in\n    tag_396:\n        /* \"#utility.yul\":18482:18585   */\n    tag_395:\n        /* \"#utility.yul\":18612:18613   */\n      0x01\n        /* \"#utility.yul\":18605:18610   */\n      dup3\n        /* \"#utility.yul\":18601:18614   */\n      add\n        /* \"#utility.yul\":18594:18614   */\n      swap1\n      pop\n        /* \"#utility.yul\":18387:18620   */\n      swap2\n      swap1\n      pop\n      jump\t// out\n        /* \"#utility.yul\":18626:18752   */\n    tag_194:\n        /* \"#utility.yul\":18663:18670   */\n      0x00\n        /* \"#utility.yul\":18703:18745   */\n      0xffffffffffffffffffffffffffffffffffffffff\n        /* \"#utility.yul\":18696:18701   */\n      dup3\n        /* \"#utility.yul\":18692:18746   */\n      and\n        /* \"#utility.yul\":18681:18746   */\n      swap1\n      pop\n        /* \"#utility.yul\":18626:18752   */\n      swap2\n      swap1\n      pop\n      jump\t// out\n        /* \"#utility.yul\":18758:18854   */\n    tag_195:\n        /* \"#utility.yul\":18795:18802   */\n      0x00\n        /* \"#utility.yul\":18824:18848   */\n      tag_399\n        /* \"#utility.yul\":18842:18847   */\n      dup3\n        /* \"#utility.yul\":18824:18848   */\n      tag_194\n      jump\t// in\n    tag_399:\n        /* \"#utility.yul\":18813:18848   */\n      swap1\n      pop\n        /* \"#utility.yul\":18758:18854   */\n      swap2\n      swap1\n      pop\n      jump\t// out\n        /* \"#utility.yul\":18860:18978   */\n    tag_196:\n        /* \"#utility.yul\":18947:18971   */\n      tag_401\n        /* \"#utility.yul\":18965:18970   */\n      dup2\n        /* \"#utility.yul\":18947:18971   */\n      tag_195\n      jump\t// in\n    tag_401:\n        /* \"#utility.yul\":18942:18945   */\n      dup3\n        /* \"#utility.yul\":18935:18972   */\n      mstore\n        /* \"#utility.yul\":18860:18978   */\n      pop\n      pop\n      jump\t// out\n        /* \"#utility.yul\":18984:19316   */\n    tag_79:\n        /* \"#utility.yul\":19105:19109   */\n      0x00\n        /* \"#utility.yul\":19143:19145   */\n      0x40\n        /* \"#utility.yul\":19132:19141   */\n      dup3\n        /* \"#utility.yul\":19128:19146   */\n      add\n        /* \"#utility.yul\":19120:19146   */\n      swap1\n      pop\n        /* \"#utility.yul\":19156:19227   */\n      tag_403\n        /* \"#utility.yul\":19224:19225   */\n      0x00\n        /* \"#utility.yul\":19213:19222   */\n      dup4\n        /* \"#utility.yul\":19209:19226   */\n      add\n        /* \"#utility.yul\":19200:19206   */\n      dup6\n        /* \"#utility.yul\":19156:19227   */\n      tag_196\n      jump\t// in\n    tag_403:\n        /* \"#utility.yul\":19237:19309   */\n      tag_404\n        /* \"#utility.yul\":19305:19307   */\n      0x20\n        /* \"#utility.yul\":19294:19303   */\n      dup4\n        /* \"#utility.yul\":19290:19308   */\n      add\n        /* \"#utility.yul\":19281:19287   */\n      dup5\n        /* \"#utility.yul\":19237:19309   */\n      tag_158\n      jump\t// in\n    tag_404:\n        /* \"#utility.yul\":18984:19316   */\n      swap4\n      swap3\n      pop\n      pop\n      pop\n      jump\t// out\n        /* \"#utility.yul\":19322:19491   */\n    tag_197:\n        /* \"#utility.yul\":19462:19483   */\n      0x4e6f206f7074696f6e732070726f766964656400000000000000000000000000\n        /* \"#utility.yul\":19458:19459   */\n      0x00\n        /* \"#utility.yul\":19450:19456   */\n      dup3\n        /* \"#utility.yul\":19446:19460   */\n      add\n        /* \"#utility.yul\":19439:19484   */\n      mstore\n        /* \"#utility.yul\":19322:19491   */\n      pop\n      jump\t// out\n        /* \"#utility.yul\":19497:19863   */\n    tag_198:\n        /* \"#utility.yul\":19639:19642   */\n      0x00\n        /* \"#utility.yul\":19660:19727   */\n      tag_407\n        /* \"#utility.yul\":19724:19726   */\n      0x13\n        /* \"#utility.yul\":19719:19722   */\n      dup4\n        /* \"#utility.yul\":19660:19727   */\n      tag_144\n      jump\t// in\n    tag_407:\n        /* \"#utility.yul\":19653:19727   */\n      swap2\n      pop\n        /* \"#utility.yul\":19736:19829   */\n      tag_408\n        /* \"#utility.yul\":19825:19828   */\n      dup3\n        /* \"#utility.yul\":19736:19829   */\n      tag_197\n      jump\t// in\n    tag_408:\n        /* \"#utility.yul\":19854:19856   */\n      0x20\n        /* \"#utility.yul\":19849:19852   */\n      dup3\n        /* \"#utility.yul\":19845:19857   */\n      add\n        /* \"#utility.yul\":19838:19857   */\n      swap1\n      pop\n        /* \"#utility.yul\":19497:19863   */\n      swap2\n      swap1\n      pop\n      jump\t// out\n        /* \"#utility.yul\":19869:20288   */\n    tag_108:\n        /* \"#utility.yul\":20035:20039   */\n      0x00\n        /* \"#utility.yul\":20073:20075   */\n      0x20\n        /* \"#utility.yul\":20062:20071   */\n      dup3\n        /* \"#utility.yul\":20058:20076   */\n      add\n        /* \"#utility.yul\":20050:20076   */\n      swap1\n      pop\n        /* \"#utility.yul\":20122:20131   */\n      dup2\n        /* \"#utility.yul\":20116:20120   */\n      dup2\n        /* \"#utility.yul\":20112:20132   */\n      sub\n        /* \"#utility.yul\":20108:20109   */\n      0x00\n        /* \"#utility.yul\":20097:20106   */\n      dup4\n        /* \"#utility.yul\":20093:20110   */\n      add\n        /* \"#utility.yul\":20086:20133   */\n      mstore\n        /* \"#utility.yul\":20150:20281   */\n      tag_410\n        /* \"#utility.yul\":20276:20280   */\n      dup2\n        /* \"#utility.yul\":20150:20281   */\n      tag_198\n      jump\t// in\n    tag_410:\n        /* \"#utility.yul\":20142:20281   */\n      swap1\n      pop\n        /* \"#utility.yul\":19869:20288   */\n      swap2\n      swap1\n      pop\n      jump\t// out\n        /* \"#utility.yul\":20294:20488   */\n    tag_111:\n        /* \"#utility.yul\":20334:20338   */\n      0x00\n        /* \"#utility.yul\":20354:20374   */\n      tag_412\n        /* \"#utility.yul\":20372:20373   */\n      dup3\n        /* \"#utility.yul\":20354:20374   */\n      tag_140\n      jump\t// in\n    tag_412:\n        /* \"#utility.yul\":20349:20374   */\n      swap2\n      pop\n        /* \"#utility.yul\":20388:20408   */\n      tag_413\n        /* \"#utility.yul\":20406:20407   */\n      dup4\n        /* \"#utility.yul\":20388:20408   */\n      tag_140\n      jump\t// in\n    tag_413:\n        /* \"#utility.yul\":20383:20408   */\n      swap3\n      pop\n        /* \"#utility.yul\":20432:20433   */\n      dup3\n        /* \"#utility.yul\":20429:20430   */\n      dup3\n        /* \"#utility.yul\":20425:20434   */\n      sub\n        /* \"#utility.yul\":20417:20434   */\n      swap1\n      pop\n        /* \"#utility.yul\":20456:20457   */\n      dup2\n        /* \"#utility.yul\":20450:20454   */\n      dup2\n        /* \"#utility.yul\":20447:20458   */\n      gt\n        /* \"#utility.yul\":20444:20481   */\n      iszero\n      tag_414\n      jumpi\n        /* \"#utility.yul\":20461:20479   */\n      tag_415\n      tag_193\n      jump\t// in\n    tag_415:\n        /* \"#utility.yul\":20444:20481   */\n    tag_414:\n        /* \"#utility.yul\":20294:20488   */\n      swap3\n      swap2\n      pop\n      pop\n      jump\t// out\n        /* \"#utility.yul\":20494:20635   */\n    tag_199:\n        /* \"#utility.yul\":20543:20547   */\n      0x00\n        /* \"#utility.yul\":20566:20569   */\n      dup2\n        /* \"#utility.yul\":20558:20569   */\n      swap1\n      pop\n        /* \"#utility.yul\":20589:20592   */\n      dup2\n        /* \"#utility.yul\":20586:20587   */\n      0x00\n        /* \"#utility.yul\":20579:20593   */\n      mstore\n        /* \"#utility.yul\":20623:20627   */\n      0x20\n        /* \"#utility.yul\":20620:20621   */\n      0x00\n        /* \"#utility.yul\":20610:20628   */\n      keccak256\n        /* \"#utility.yul\":20602:20628   */\n      swap1\n      pop\n        /* \"#utility.yul\":20494:20635   */\n      swap2\n      swap1\n      pop\n      jump\t// out\n        /* \"#utility.yul\":20641:20734   */\n    tag_200:\n        /* \"#utility.yul\":20678:20684   */\n      0x00\n        /* \"#utility.yul\":20725:20727   */\n      0x20\n        /* \"#utility.yul\":20720:20722   */\n      0x1f\n        /* \"#utility.yul\":20713:20718   */\n      dup4\n        /* \"#utility.yul\":20709:20723   */\n      add\n        /* \"#utility.yul\":20705:20728   */\n      div\n        /* \"#utility.yul\":20695:20728   */\n      swap1\n      pop\n        /* \"#utility.yul\":20641:20734   */\n      swap2\n      swap1\n      pop\n      jump\t// out\n        /* \"#utility.yul\":20740:20847   */\n    tag_201:\n        /* \"#utility.yul\":20784:20792   */\n      0x00\n        /* \"#utility.yul\":20834:20839   */\n      dup3\n        /* \"#utility.yul\":20828:20832   */\n      dup3\n        /* \"#utility.yul\":20824:20840   */\n      shl\n        /* \"#utility.yul\":20803:20840   */\n      swap1\n      pop\n        /* \"#utility.yul\":20740:20847   */\n      swap3\n      swap2\n      pop\n      pop\n      jump\t// out\n        /* \"#utility.yul\":20853:21246   */\n    tag_202:\n        /* \"#utility.yul\":20922:20928   */\n      0x00\n        /* \"#utility.yul\":20972:20973   */\n      0x08\n        /* \"#utility.yul\":20960:20970   */\n      dup4\n        /* \"#utility.yul\":20956:20974   */\n      mul\n        /* \"#utility.yul\":20995:21092   */\n      tag_420\n        /* \"#utility.yul\":21025:21091   */\n      0xffffffffffffffffffffffffffffffffffffffffffffffffffffffffffffffff\n        /* \"#utility.yul\":21014:21023   */\n      dup3\n        /* \"#utility.yul\":20995:21092   */\n      tag_201\n      jump\t// in\n    tag_420:\n        /* \"#utility.yul\":21113:21152   */\n      tag_421\n        /* \"#utility.yul\":21143:21151   */\n      dup7\n        /* \"#utility.yul\":21132:21141   */\n      dup4\n        /* \"#utility.yul\":21113:21152   */\n      tag_201\n      jump\t// in\n    tag_421:\n        /* \"#utility.yul\":21101:21152   */\n      swap6\n      pop\n        /* \"#utility.yul\":21185:21189   */\n      dup1\n        /* \"#utility.yul\":21181:21190   */\n      not\n        /* \"#utility.yul\":21174:21179   */\n      dup5\n        /* \"#utility.yul\":21170:21191   */\n      and\n        /* \"#utility.yul\":21161:21191   */\n      swap4\n      pop\n        /* \"#utility.yul\":21234:21238   */\n      dup1\n        /* \"#utility.yul\":21224:21232   */\n      dup7\n        /* \"#utility.yul\":21220:21239   */\n      and\n        /* \"#utility.yul\":21213:21218   */\n      dup5\n        /* \"#utility.yul\":21210:21240   */\n      or\n        /* \"#utility.yul\":21200:21240   */\n      swap3\n      pop\n        /* \"#utility.yul\":20929:21246   */\n      pop\n      pop\n        /* \"#utility.yul\":20853:21246   */\n      swap4\n      swap3\n      pop\n      pop\n      pop\n      jump\t// out\n        /* \"#utility.yul\":21252:21312   */\n    tag_203:\n        /* \"#utility.yul\":21280:21283   */\n      0x00\n        /* \"#utility.yul\":21301:21306   */\n      dup2\n        /* \"#utility.yul\":21294:21306   */\n      swap1\n      pop\n        /* \"#utility.yul\":21252:21312   */\n      swap2\n      swap1\n      pop\n      jump\t// out\n        /* \"#utility.yul\":21318:21460   */\n    tag_204:\n        /* \"#utility.yul\":21368:21377   */\n      0x00\n        /* \"#utility.yul\":21401:21454   */\n      tag_424\n        /* \"#utility.yul\":21419:21453   */\n      tag_425\n        /* \"#utility.yul\":21428:21452   */\n      tag_426\n        /* \"#utility.yul\":21446:21451   */\n      dup5\n        /* \"#utility.yul\":21428:21452   */\n      tag_140\n      jump\t// in\n    tag_426:\n        /* \"#utility.yul\":21419:21453   */\n      tag_203\n      jump\t// in\n    tag_425:\n        /* \"#utility.yul\":21401:21454   */\n      tag_140\n      jump\t// in\n    tag_424:\n        /* \"#utility.yul\":21388:21454   */\n      swap1\n      pop\n        /* \"#utility.yul\":21318:21460   */\n      swap2\n      swap1\n      pop\n      jump\t// out\n        /* \"#utility.yul\":21466:21541   */\n    tag_205:\n        /* \"#utility.yul\":21509:21512   */\n      0x00\n        /* \"#utility.yul\":21530:21535   */\n      dup2\n        /* \"#utility.yul\":21523:21535   */\n      swap1\n      pop\n        /* \"#utility.yul\":21466:21541   */\n      swap2\n      swap1\n      pop\n      jump\t// out\n        /* \"#utility.yul\":21547:21816   */\n    tag_206:\n        /* \"#utility.yul\":21657:21696   */\n      tag_429\n        /* \"#utility.yul\":21688:21695   */\n      dup4\n        /* \"#utility.yul\":21657:21696   */\n      tag_204\n      jump\t// in\n    tag_429:\n        /* \"#utility.yul\":21718:21809   */\n      tag_430\n        /* \"#utility.yul\":21767:21808   */\n      tag_431\n        /* \"#utility.yul\":21791:21807   */\n      dup3\n        /* \"#utility.yul\":21767:21808   */\n      tag_205\n      jump\t// in\n    tag_431:\n        /* \"#utility.yul\":21759:21765   */\n      dup5\n        /* \"#utility.yul\":21752:21756   */\n      dup5\n        /* \"#utility.yul\":21746:21757   */\n      sload\n        /* \"#utility.yul\":21718:21809   */\n      tag_202\n      jump\t// in\n    tag_430:\n        /* \"#utility.yul\":21712:21716   */\n      dup3\n        /* \"#utility.yul\":21705:21810   */\n      sstore\n        /* \"#utility.yul\":21623:21816   */\n      pop\n        /* \"#utility.yul\":21547:21816   */\n      pop\n      pop\n      pop\n      jump\t// out\n        /* \"#utility.yul\":21822:21895   */\n    tag_207:\n        /* \"#utility.yul\":21867:21870   */\n      0x00\n        /* \"#utility.yul\":21822:21895   */\n      swap1\n      jump\t// out\n        /* \"#utility.yul\":21901:22090   */\n    tag_208:\n        /* \"#utility.yul\":21978:22010   */\n      tag_434\n      tag_207\n      jump\t// in\n    tag_434:\n        /* \"#utility.yul\":22019:22084   */\n      tag_435\n        /* \"#utility.yul\":22077:22083   */\n      dup2\n        /* \"#utility.yul\":22069:22075   */\n      dup5\n        /* \"#utility.yul\":22063:22067   */\n      dup5\n        /* \"#utility.yul\":22019:22084   */\n      tag_206\n      jump\t// in\n    tag_435:\n        /* \"#utility.yul\":21954:22090   */\n      pop\n        /* \"#utility.yul\":21901:22090   */\n      pop\n      pop\n      jump\t// out\n        /* \"#utility.yul\":22096:22282   */\n    tag_209:\n        /* \"#utility.yul\":22156:22276   */\n    tag_437:\n        /* \"#utility.yul\":22173:22176   */\n      dup2\n        /* \"#utility.yul\":22166:22171   */\n      dup2\n        /* \"#utility.yul\":22163:22177   */\n      lt\n        /* \"#utility.yul\":22156:22276   */\n      iszero\n      tag_439\n      jumpi\n        /* \"#utility.yul\":22227:22266   */\n      tag_440\n        /* \"#utility.yul\":22264:22265   */\n      0x00\n        /* \"#utility.yul\":22257:22262   */\n      dup3\n        /* \"#utility.yul\":22227:22266   */\n      tag_208\n      jump\t// in\n    tag_440:\n        /* \"#utility.yul\":22200:22201   */\n      0x01\n        /* \"#utility.yul\":22193:22198   */\n      dup2\n        /* \"#utility.yul\":22189:22202   */\n      add\n        /* \"#utility.yul\":22180:22202   */\n      swap1\n      pop\n        /* \"#utility.yul\":22156:22276   */\n      jump(tag_437)\n    tag_439:\n        /* \"#utility.yul\":22096:22282   */\n      pop\n      pop\n      jump\t// out\n        /* \"#utility.yul\":22288:22831   */\n    tag_210:\n        /* \"#utility.yul\":22389:22391   */\n      0x1f\n        /* \"#utility.yul\":22384:22387   */\n      dup3\n        /* \"#utility.yul\":22381:22392   */\n      gt\n        /* \"#utility.yul\":22378:22824   */\n      iszero\n      tag_442\n      jumpi\n        /* \"#utility.yul\":22423:22461   */\n      tag_443\n        /* \"#utility.yul\":22455:22460   */\n      dup2\n        /* \"#utility.yul\":22423:22461   */\n      tag_199\n      jump\t// in\n    tag_443:\n        /* \"#utility.yul\":22507:22536   */\n      tag_444\n        /* \"#utility.yul\":22525:22535   */\n      dup5\n        /* \"#utility.yul\":22507:22536   */\n      tag_200\n      jump\t// in\n    tag_444:\n        /* \"#utility.yul\":22497:22505   */\n      dup2\n        /* \"#utility.yul\":22493:22537   */\n      add\n        /* \"#utility.yul\":22690:22692   */\n      0x20\n        /* \"#utility.yul\":22678:22688   */\n      dup6\n        /* \"#utility.yul\":22675:22693   */\n      lt\n        /* \"#utility.yul\":22672:22721   */\n      iszero\n      tag_445\n      jumpi\n        /* \"#utility.yul\":22711:22719   */\n      dup2\n        /* \"#utility.yul\":22696:22719   */\n      swap1\n      pop\n        /* \"#utility.yul\":22672:22721   */\n    tag_445:\n        /* \"#utility.yul\":22734:22814   */\n      tag_446\n        /* \"#utility.yul\":22790:22812   */\n      tag_447\n        /* \"#utility.yul\":22808:22811   */\n      dup6\n        /* \"#utility.yul\":22790:22812   */\n      tag_200\n      jump\t// in\n    tag_447:\n        /* \"#utility.yul\":22780:22788   */\n      dup4\n        /* \"#utility.yul\":22776:22813   */\n      add\n        /* \"#utility.yul\":22763:22774   */\n      dup3\n        /* \"#utility.yul\":22734:22814   */\n      tag_209\n      jump\t// in\n    tag_446:\n        /* \"#utility.yul\":22393:22824   */\n      pop\n      pop\n        /* \"#utility.yul\":22378:22824   */\n    tag_442:\n        /* \"#utility.yul\":22288:22831   */\n      pop\n      pop\n      pop\n      jump\t// out\n        /* \"#utility.yul\":22837:22954   */\n    tag_211:\n        /* \"#utility.yul\":22891:22899   */\n      0x00\n        /* \"#utility.yul\":22941:22946   */\n      dup3\n        /* \"#utility.yul\":22935:22939   */\n      dup3\n        /* \"#utility.yul\":22931:22947   */\n      shr\n        /* \"#utility.yul\":22910:22947   */\n      swap1\n      pop\n        /* \"#utility.yul\":22837:22954   */\n      swap3\n      swap2\n      pop\n      pop\n      jump\t// out\n        /* \"#utility.yul\":22960:23129   */\n    tag_212:\n        /* \"#utility.yul\":23004:23010   */\n      0x00\n        /* \"#utility.yul\":23037:23088   */\n      tag_450\n        /* \"#utility.yul\":23085:23086   */\n      0x00\n        /* \"#utility.yul\":23081:23087   */\n      not\n        /* \"#utility.yul\":23073:23078   */\n      dup5\n        /* \"#utility.yul\":23070:23071   */\n      0x08\n        /* \"#utility.yul\":23066:23079   */\n      mul\n        /* \"#utility.yul\":23037:23088   */\n      tag_211\n      jump\t// in\n    tag_450:\n        /* \"#utility.yul\":23033:23089   */\n      not\n        /* \"#utility.yul\":23118:23122   */\n      dup1\n        /* \"#utility.yul\":23112:23116   */\n      dup4\n        /* \"#utility.yul\":23108:23123   */\n      and\n        /* \"#utility.yul\":23098:23123   */\n      swap2\n      pop\n        /* \"#utility.yul\":23011:23129   */\n      pop\n        /* \"#utility.yul\":22960:23129   */\n      swap3\n      swap2\n      pop\n      pop\n      jump\t// out\n        /* \"#utility.yul\":23134:23429   */\n    tag_213:\n        /* \"#utility.yul\":23210:23214   */\n      0x00\n        /* \"#utility.yul\":23356:23385   */\n      tag_452\n        /* \"#utility.yul\":23381:23384   */\n      dup4\n        /* \"#utility.yul\":23375:23379   */\n      dup4\n        /* \"#utility.yul\":23356:23385   */\n      tag_212\n      jump\t// in\n    tag_452:\n        /* \"#utility.yul\":23348:23385   */\n      swap2\n      pop\n        /* \"#utility.yul\":23418:23421   */\n      dup3\n        /* \"#utility.yul\":23415:23416   */\n      0x02\n        /* \"#utility.yul\":23411:23422   */\n      mul\n        /* \"#utility.yul\":23405:23409   */\n      dup3\n        /* \"#utility.yul\":23402:23423   */\n      or\n        /* \"#utility.yul\":23394:23423   */\n      swap1\n      pop\n        /* \"#utility.yul\":23134:23429   */\n      swap3\n      swap2\n      pop\n      pop\n      jump\t// out\n        /* \"#utility.yul\":23434:24829   */\n    tag_116:\n        /* \"#utility.yul\":23551:23588   */\n      tag_454\n        /* \"#utility.yul\":23584:23587   */\n      dup3\n        /* \"#utility.yul\":23551:23588   */\n      tag_143\n      jump\t// in\n    tag_454:\n        /* \"#utility.yul\":23653:23671   */\n      0xffffffffffffffff\n        /* \"#utility.yul\":23645:23651   */\n      dup2\n        /* \"#utility.yul\":23642:23672   */\n      gt\n        /* \"#utility.yul\":23639:23695   */\n      iszero\n      tag_455\n      jumpi\n        /* \"#utility.yul\":23675:23693   */\n      tag_456\n      tag_86\n      jump\t// in\n    tag_456:\n        /* \"#utility.yul\":23639:23695   */\n    tag_455:\n        /* \"#utility.yul\":23719:23757   */\n      tag_457\n        /* \"#utility.yul\":23751:23755   */\n      dup3\n        /* \"#utility.yul\":23745:23756   */\n      sload\n        /* \"#utility.yul\":23719:23757   */\n      tag_44\n      jump\t// in\n    tag_457:\n        /* \"#utility.yul\":23804:23871   */\n      tag_458\n        /* \"#utility.yul\":23864:23870   */\n      dup3\n        /* \"#utility.yul\":23856:23862   */\n      dup3\n        /* \"#utility.yul\":23850:23854   */\n      dup6\n        /* \"#utility.yul\":23804:23871   */\n      tag_210\n      jump\t// in\n    tag_458:\n        /* \"#utility.yul\":23898:23899   */\n      0x00\n        /* \"#utility.yul\":23922:23926   */\n      0x20\n        /* \"#utility.yul\":23909:23926   */\n      swap1\n      pop\n        /* \"#utility.yul\":23954:23956   */\n      0x1f\n        /* \"#utility.yul\":23946:23952   */\n      dup4\n        /* \"#utility.yul\":23943:23957   */\n      gt\n        /* \"#utility.yul\":23971:23972   */\n      0x01\n        /* \"#utility.yul\":23966:24584   */\n      dup2\n      eq\n      tag_460\n      jumpi\n        /* \"#utility.yul\":24628:24629   */\n      0x00\n        /* \"#utility.yul\":24645:24651   */\n      dup5\n        /* \"#utility.yul\":24642:24719   */\n      iszero\n      tag_461\n      jumpi\n        /* \"#utility.yul\":24694:24703   */\n      dup3\n        /* \"#utility.yul\":24689:24692   */\n      dup8\n        /* \"#utility.yul\":24685:24704   */\n      add\n        /* \"#utility.yul\":24679:24705   */\n      mload\n        /* \"#utility.yul\":24670:24705   */\n      swap1\n      pop\n        /* \"#utility.yul\":24642:24719   */\n    tag_461:\n        /* \"#utility.yul\":24745:24812   */\n      tag_462\n        /* \"#utility.yul\":24805:24811   */\n      dup6\n        /* \"#utility.yul\":24798:24803   */\n      dup3\n        /* \"#utility.yul\":24745:24812   */\n      tag_213\n      jump\t// in\n    tag_462:\n        /* \"#utility.yul\":24739:24743   */\n      dup7\n        /* \"#utility.yul\":24732:24813   */\n      sstore\n        /* \"#utility.yul\":24601:24823   */\n      pop\n        /* \"#utility.yul\":23936:24823   */\n      jump(tag_459)\n        /* \"#utility.yul\":23966:24584   */\n    tag_460:\n        /* \"#utility.yul\":24018:24022   */\n      0x1f\n        /* \"#utility.yul\":24014:24023   */\n      not\n        /* \"#utility.yul\":24006:24012   */\n      dup5\n        /* \"#utility.yul\":24002:24024   */\n      and\n        /* \"#utility.yul\":24052:24089   */\n      tag_463\n        /* \"#utility.yul\":24084:24088   */\n      dup7\n        /* \"#utility.yul\":24052:24089   */\n      tag_199\n      jump\t// in\n    tag_463:\n        /* \"#utility.yul\":24111:24112   */\n      0x00\n        /* \"#utility.yul\":24125:24333   */\n    tag_464:\n        /* \"#utility.yul\":24139:24146   */\n      dup3\n        /* \"#utility.yul\":24136:24137   */\n      dup2\n        /* \"#utility.yul\":24133:24147   */\n      lt\n        /* \"#utility.yul\":24125:24333   */\n      iszero\n      tag_466\n      jumpi\n        /* \"#utility.yul\":24218:24227   */\n      dup5\n        /* \"#utility.yul\":24213:24216   */\n      dup10\n        /* \"#utility.yul\":24209:24228   */\n      add\n        /* \"#utility.yul\":24203:24229   */\n      mload\n        /* \"#utility.yul\":24195:24201   */\n      dup3\n        /* \"#utility.yul\":24188:24230   */\n      sstore\n        /* \"#utility.yul\":24269:24270   */\n      0x01\n        /* \"#utility.yul\":24261:24267   */\n      dup3\n        /* \"#utility.yul\":24257:24271   */\n      add\n        /* \"#utility.yul\":24247:24271   */\n      swap2\n      pop\n        /* \"#utility.yul\":24316:24318   */\n      0x20\n        /* \"#utility.yul\":24305:24314   */\n      dup6\n        /* \"#utility.yul\":24301:24319   */\n      add\n        /* \"#utility.yul\":24288:24319   */\n      swap5\n      pop\n        /* \"#utility.yul\":24162:24166   */\n      0x20\n        /* \"#utility.yul\":24159:24160   */\n      dup2\n        /* \"#utility.yul\":24155:24167   */\n      add\n        /* \"#utility.yul\":24150:24167   */\n      swap1\n      pop\n        /* \"#utility.yul\":24125:24333   */\n      jump(tag_464)\n    tag_466:\n        /* \"#utility.yul\":24361:24367   */\n      dup7\n        /* \"#utility.yul\":24352:24359   */\n      dup4\n        /* \"#utility.yul\":24349:24368   */\n      lt\n        /* \"#utility.yul\":24346:24525   */\n      iszero\n      tag_467\n      jumpi\n        /* \"#utility.yul\":24419:24428   */\n      dup5\n        /* \"#utility.yul\":24414:24417   */\n      dup10\n        /* \"#utility.yul\":24410:24429   */\n      add\n        /* \"#utility.yul\":24404:24430   */\n      mload\n        /* \"#utility.yul\":24462:24510   */\n      tag_468\n        /* \"#utility.yul\":24504:24508   */\n      0x1f\n        /* \"#utility.yul\":24496:24502   */\n      dup10\n        /* \"#utility.yul\":24492:24509   */\n      and\n        /* \"#utility.yul\":24481:24490   */\n      dup3\n        /* \"#utility.yul\":24462:24510   */\n      tag_212\n      jump\t// in\n    tag_468:\n        /* \"#utility.yul\":24454:24460   */\n      dup4\n        /* \"#utility.yul\":24447:24511   */\n      sstore\n        /* \"#utility.yul\":24369:24525   */\n      pop\n        /* \"#utility.yul\":24346:24525   */\n    tag_467:\n        /* \"#utility.yul\":24571:24572   */\n      0x01\n        /* \"#utility.yul\":24567:24568   */\n      0x02\n        /* \"#utility.yul\":24559:24565   */\n      dup9\n        /* \"#utility.yul\":24555:24569   */\n      mul\n        /* \"#utility.yul\":24551:24573   */\n      add\n        /* \"#utility.yul\":24545:24549   */\n      dup9\n        /* \"#utility.yul\":24538:24574   */\n      sstore\n        /* \"#utility.yul\":23973:24584   */\n      pop\n      pop\n      pop\n        /* \"#utility.yul\":23936:24823   */\n    tag_459:\n      pop\n        /* \"#utility.yul\":23526:24829   */\n      pop\n      pop\n      pop\n        /* \"#utility.yul\":23434:24829   */\n      pop\n      pop\n      jump\t// out\n        /* \"#utility.yul\":24835:25032   */\n    tag_120:\n        /* \"#utility.yul\":24874:24877   */\n      0x00\n        /* \"#utility.yul\":24893:24912   */\n      tag_470\n        /* \"#utility.yul\":24910:24911   */\n      dup3\n        /* \"#utility.yul\":24893:24912   */\n      tag_156\n      jump\t// in\n    tag_470:\n        /* \"#utility.yul\":24888:24912   */\n      swap2\n      pop\n        /* \"#utility.yul\":24926:24945   */\n      tag_471\n        /* \"#utility.yul\":24943:24944   */\n      dup4\n        /* \"#utility.yul\":24926:24945   */\n      tag_156\n      jump\t// in\n    tag_471:\n        /* \"#utility.yul\":24921:24945   */\n      swap3\n      pop\n        /* \"#utility.yul\":24968:24969   */\n      dup3\n        /* \"#utility.yul\":24965:24966   */\n      dup3\n        /* \"#utility.yul\":24961:24970   */\n      add\n        /* \"#utility.yul\":24954:24970   */\n      swap1\n      pop\n        /* \"#utility.yul\":24991:25001   */\n      0xffffffff\n        /* \"#utility.yul\":24986:24989   */\n      dup2\n        /* \"#utility.yul\":24983:25002   */\n      gt\n        /* \"#utility.yul\":24980:25025   */\n      iszero\n      tag_472\n      jumpi\n        /* \"#utility.yul\":25005:25023   */\n      tag_473\n      tag_193\n      jump\t// in\n    tag_473:\n        /* \"#utility.yul\":24980:25025   */\n    tag_472:\n        /* \"#utility.yul\":24835:25032   */\n      swap3\n      swap2\n      pop\n      pop\n      jump\t// out\n        /* \"#utility.yul\":25038:25178   */\n    tag_214:\n        /* \"#utility.yul\":25087:25096   */\n      0x00\n        /* \"#utility.yul\":25120:25172   */\n      tag_475\n        /* \"#utility.yul\":25138:25171   */\n      tag_476\n        /* \"#utility.yul\":25147:25170   */\n      tag_477\n        /* \"#utility.yul\":25164:25169   */\n      dup5\n        /* \"#utility.yul\":25147:25170   */\n      tag_156\n      jump\t// in\n    tag_477:\n        /* \"#utility.yul\":25138:25171   */\n      tag_203\n      jump\t// in\n    tag_476:\n        /* \"#utility.yul\":25120:25172   */\n      tag_140\n      jump\t// in\n    tag_475:\n        /* \"#utility.yul\":25107:25172   */\n      swap1\n      pop\n        /* \"#utility.yul\":25038:25178   */\n      swap2\n      swap1\n      pop\n      jump\t// out\n        /* \"#utility.yul\":25184:25313   */\n    tag_215:\n        /* \"#utility.yul\":25270:25306   */\n      tag_479\n        /* \"#utility.yul\":25300:25305   */\n      dup2\n        /* \"#utility.yul\":25270:25306   */\n      tag_214\n      jump\t// in\n    tag_479:\n        /* \"#utility.yul\":25265:25268   */\n      dup3\n        /* \"#utility.yul\":25258:25307   */\n      mstore\n        /* \"#utility.yul\":25184:25313   */\n      pop\n      pop\n      jump\t// out\n        /* \"#utility.yul\":25319:26001   */\n    tag_122:\n        /* \"#utility.yul\":25537:25541   */\n      0x00\n        /* \"#utility.yul\":25575:25577   */\n      0x60\n        /* \"#utility.yul\":25564:25573   */\n      dup3\n        /* \"#utility.yul\":25560:25578   */\n      add\n        /* \"#utility.yul\":25552:25578   */\n      swap1\n      pop\n        /* \"#utility.yul\":25624:25633   */\n      dup2\n        /* \"#utility.yul\":25618:25622   */\n      dup2\n        /* \"#utility.yul\":25614:25634   */\n      sub\n        /* \"#utility.yul\":25610:25611   */\n      0x00\n        /* \"#utility.yul\":25599:25608   */\n      dup4\n        /* \"#utility.yul\":25595:25612   */\n      add\n        /* \"#utility.yul\":25588:25635   */\n      mstore\n        /* \"#utility.yul\":25652:25730   */\n      tag_481\n        /* \"#utility.yul\":25725:25729   */\n      dup2\n        /* \"#utility.yul\":25716:25722   */\n      dup7\n        /* \"#utility.yul\":25652:25730   */\n      tag_147\n      jump\t// in\n    tag_481:\n        /* \"#utility.yul\":25644:25730   */\n      swap1\n      pop\n        /* \"#utility.yul\":25777:25786   */\n      dup2\n        /* \"#utility.yul\":25771:25775   */\n      dup2\n        /* \"#utility.yul\":25767:25787   */\n      sub\n        /* \"#utility.yul\":25762:25764   */\n      0x20\n        /* \"#utility.yul\":25751:25760   */\n      dup4\n        /* \"#utility.yul\":25747:25765   */\n      add\n        /* \"#utility.yul\":25740:25788   */\n      mstore\n        /* \"#utility.yul\":25805:25913   */\n      tag_482\n        /* \"#utility.yul\":25908:25912   */\n      dup2\n        /* \"#utility.yul\":25899:25905   */\n      dup6\n        /* \"#utility.yul\":25805:25913   */\n      tag_155\n      jump\t// in\n    tag_482:\n        /* \"#utility.yul\":25797:25913   */\n      swap1\n      pop\n        /* \"#utility.yul\":25923:25994   */\n      tag_483\n        /* \"#utility.yul\":25990:25992   */\n      0x40\n        /* \"#utility.yul\":25979:25988   */\n      dup4\n        /* \"#utility.yul\":25975:25993   */\n      add\n        /* \"#utility.yul\":25966:25972   */\n      dup5\n        /* \"#utility.yul\":25923:25994   */\n      tag_215\n      jump\t// in\n    tag_483:\n        /* \"#utility.yul\":25319:26001   */\n      swap5\n      swap4\n      pop\n      pop\n      pop\n      pop\n      jump\t// out\n\n    auxdata: 0xa2646970667358221220a45c4e406a1c2a9ef84e94a2640f7fa10fe3a7d536d23fd15c6d0feee5f60ad564736f6c634300081a0033\n}\n",
				"bytecode": {
					"linkReferences": {},
					"object": "6080604052348015600e575f80fd5b506116d28061001c5f395ff3fe608060405234801561000f575f80fd5b5060043610610060575f3560e01c80631a8cbcaa146100645780633ef87d541461009657806368bb8bb6146100b457806381a60c0d146100d0578063ac2f007414610102578063b4e9490814610133575b5f80fd5b61007e600480360381019061007991906109b7565b610163565b60405161008d93929190610b30565b60405180910390f35b61009e61028c565b6040516100ab9190610b82565b60405180910390f35b6100ce60048036038101906100c99190610bc5565b610297565b005b6100ea60048036038101906100e591906109b7565b61055c565b6040516100f993929190610cd4565b60405180910390f35b61011c600480360381019061011791906109b7565b6106c5565b60405161012a929190610d17565b60405180910390f35b61014d60048036038101906101489190610f5f565b610788565b60405161015a9190610b82565b60405180910390f35b6060805f805f858154811061017b5761017a610fe7565b5b905f5260205f2090600502019050805f0181600101826002015f9054906101000a900463ffffffff168280546101b090611041565b80601f01602080910402602001604051908101604052809291908181526020018280546101dc90611041565b80156102275780601f106101fe57610100808354040283529160200191610227565b820191905f5260205f20905b81548152906001019060200180831161020a57829003601f168201915b505050505092508180548060200260200160405190810160405280929190818152602001828054801561027757602002820191905f5260205f20905b815481526020019060010190808311610263575b50505050509150935093509350509193909250565b5f8080549050905090565b815f81815481106102ab576102aa610fe7565b5b905f5260205f2090600502016002015f9054906101000a900463ffffffff1663ffffffff164210610311576040517f08c379a0000000000000000000000000000000000000000000000000000000008152600401610308906110bb565b60405180910390fd5b5f805490508310610357576040517f08c379a000000000000000000000000000000000000000000000000000000000815260040161034e90611123565b60405180910390fd5b5f80848154811061036b5761036a610fe7565b5b905f5260205f2090600502019050806004015f3373ffffffffffffffffffffffffffffffffffffffff1673ffffffffffffffffffffffffffffffffffffffff1681526020019081526020015f205f9054906101000a900460ff1615610405576040517f08c379a00000000000000000000000000000000000000000000000000000000081526004016103fc9061118b565b60405180910390fd5b61045f8160010180548060200260200160405190810160405280929190818152602001828054801561045457602002820191905f5260205f20905b815481526020019060010190808311610440575b5050505050846108bb565b61049e576040517f08c379a0000000000000000000000000000000000000000000000000000000008152600401610495906111f3565b60405180910390fd5b806003015f8481526020019081526020015f205f8154809291906104c19061123e565b91905055506001816004015f3373ffffffffffffffffffffffffffffffffffffffff1673ffffffffffffffffffffffffffffffffffffffff1681526020019081526020015f205f6101000a81548160ff0219169083151502179055507f4d99b957a2bc29a30ebd96a7be8e68fe50a3c701db28a91436490b7d53870ca4338560405161054e9291906112c4565b60405180910390a150505050565b6060805f805f858154811061057457610573610fe7565b5b905f5260205f20906005020190505f816001018054905067ffffffffffffffff8111156105a4576105a3610d4d565b5b6040519080825280602002602001820160405280156105d25781602001602082028036833780820191505090505b5090505f5b826001018054905081101561064457826003015f84600101838154811061060157610600610fe7565b5b905f5260205f20015481526020019081526020015f205482828151811061062b5761062a610fe7565b5b60200260200101818152505080806001019150506105d7565b50816001018142846002015f9054906101000a900463ffffffff1663ffffffff1611828054806020026020016040519081016040528092919081815260200182805480156106af57602002820191905f5260205f20905b81548152602001906001019080831161069b575b5050505050925094509450945050509193909250565b5f81815481106106d3575f80fd5b905f5260205f2090600502015f91509050805f0180546106f290611041565b80601f016020809104026020016040519081016040528092919081815260200182805461071e90611041565b80156107695780601f1061074057610100808354040283529160200191610769565b820191905f5260205f20905b81548152906001019060200180831161074c57829003601f168201915b505050505090806002015f9054906101000a900463ffffffff16905082565b5f808351116107cc576040517f08c379a00000000000000000000000000000000000000000000000000000000081526004016107c390611335565b60405180910390fd5b5f60018160018154018082558091505003905f5260205f209050505f60015f805490506107f99190611353565b90505f80828154811061080f5761080e610fe7565b5b905f5260205f209060050201905085815f01908161082d9190611523565b508481600101908051906020019061084692919061090d565b50834261085391906115f2565b816002015f6101000a81548163ffffffff021916908363ffffffff1602179055507f8743ce889ded037c23e138b6bc3759dfad1bf6ffe9aa1ed2e6652964ef0c014c8686866040516108a793929190611659565b60405180910390a181925050509392505050565b5f805f90505b835181101561090257828482815181106108de576108dd610fe7565b5b6020026020010151036108f5576001915050610907565b80806001019150506108c1565b505f90505b92915050565b828054828255905f5260205f20908101928215610947579160200282015b8281111561094657825182559160200191906001019061092b565b5b5090506109549190610958565b5090565b5b8082111561096f575f815f905550600101610959565b5090565b5f604051905090565b5f80fd5b5f80fd5b5f819050919050565b61099681610984565b81146109a0575f80fd5b50565b5f813590506109b18161098d565b92915050565b5f602082840312156109cc576109cb61097c565b5b5f6109d9848285016109a3565b91505092915050565b5f81519050919050565b5f82825260208201905092915050565b8281835e5f83830152505050565b5f601f19601f8301169050919050565b5f610a24826109e2565b610a2e81856109ec565b9350610a3e8185602086016109fc565b610a4781610a0a565b840191505092915050565b5f81519050919050565b5f82825260208201905092915050565b5f819050602082019050919050565b5f819050919050565b610a8d81610a7b565b82525050565b5f610a9e8383610a84565b60208301905092915050565b5f602082019050919050565b5f610ac082610a52565b610aca8185610a5c565b9350610ad583610a6c565b805f5b83811015610b05578151610aec8882610a93565b9750610af783610aaa565b925050600181019050610ad8565b5085935050505092915050565b5f63ffffffff82169050919050565b610b2a81610b12565b82525050565b5f6060820190508181035f830152610b488186610a1a565b90508181036020830152610b5c8185610ab6565b9050610b6b6040830184610b21565b949350505050565b610b7c81610984565b82525050565b5f602082019050610b955f830184610b73565b92915050565b610ba481610a7b565b8114610bae575f80fd5b50565b5f81359050610bbf81610b9b565b92915050565b5f8060408385031215610bdb57610bda61097c565b5b5f610be8858286016109a3565b9250506020610bf985828601610bb1565b9150509250929050565b5f81519050919050565b5f82825260208201905092915050565b5f819050602082019050919050565b610c3581610984565b82525050565b5f610c468383610c2c565b60208301905092915050565b5f602082019050919050565b5f610c6882610c03565b610c728185610c0d565b9350610c7d83610c1d565b805f5b83811015610cad578151610c948882610c3b565b9750610c9f83610c52565b925050600181019050610c80565b5085935050505092915050565b5f8115159050919050565b610cce81610cba565b82525050565b5f6060820190508181035f830152610cec8186610ab6565b90508181036020830152610d008185610c5e565b9050610d0f6040830184610cc5565b949350505050565b5f6040820190508181035f830152610d2f8185610a1a565b9050610d3e6020830184610b21565b9392505050565b5f80fd5b5f80fd5b7f4e487b71000000000000000000000000000000000000000000000000000000005f52604160045260245ffd5b610d8382610a0a565b810181811067ffffffffffffffff82111715610da257610da1610d4d565b5b80604052505050565b5f610db4610973565b9050610dc08282610d7a565b919050565b5f67ffffffffffffffff821115610ddf57610dde610d4d565b5b610de882610a0a565b9050602081019050919050565b828183375f83830152505050565b5f610e15610e1084610dc5565b610dab565b905082815260208101848484011115610e3157610e30610d49565b5b610e3c848285610df5565b509392505050565b5f82601f830112610e5857610e57610d45565b5b8135610e68848260208601610e03565b91505092915050565b5f67ffffffffffffffff821115610e8b57610e8a610d4d565b5b602082029050602081019050919050565b5f80fd5b5f610eb2610ead84610e71565b610dab565b90508083825260208201905060208402830185811115610ed557610ed4610e9c565b5b835b81811015610efe5780610eea8882610bb1565b845260208401935050602081019050610ed7565b5050509392505050565b5f82601f830112610f1c57610f1b610d45565b5b8135610f2c848260208601610ea0565b91505092915050565b610f3e81610b12565b8114610f48575f80fd5b50565b5f81359050610f5981610f35565b92915050565b5f805f60608486031215610f7657610f7561097c565b5b5f84013567ffffffffffffffff811115610f9357610f92610980565b5b610f9f86828701610e44565b935050602084013567ffffffffffffffff811115610fc057610fbf610980565b5b610fcc86828701610f08565b9250506040610fdd86828701610f4b565b9150509250925092565b7f4e487b71000000000000000000000000000000000000000000000000000000005f52603260045260245ffd5b7f4e487b71000000000000000000000000000000000000000000000000000000005f52602260045260245ffd5b5f600282049050600182168061105857607f821691505b60208210810361106b5761106a611014565b5b50919050565b7f506f6c6c20636c6f7365640000000000000000000000000000000000000000005f82015250565b5f6110a5600b836109ec565b91506110b082611071565b602082019050919050565b5f6020820190508181035f8301526110d281611099565b9050919050565b7f496e76616c696420506f6c6c20494400000000000000000000000000000000005f82015250565b5f61110d600f836109ec565b9150611118826110d9565b602082019050919050565b5f6020820190508181035f83015261113a81611101565b9050919050565b7f416c726561647920766f746564000000000000000000000000000000000000005f82015250565b5f611175600d836109ec565b915061118082611141565b602082019050919050565b5f6020820190508181035f8301526111a281611169565b9050919050565b7f496e76616c6964206f7074696f6e0000000000000000000000000000000000005f82015250565b5f6111dd600e836109ec565b91506111e8826111a9565b602082019050919050565b5f6020820190508181035f83015261120a816111d1565b9050919050565b7f4e487b71000000000000000000000000000000000000000000000000000000005f52601160045260245ffd5b5f61124882610984565b91507fffffffffffffffffffffffffffffffffffffffffffffffffffffffffffffffff820361127a57611279611211565b5b600182019050919050565b5f73ffffffffffffffffffffffffffffffffffffffff82169050919050565b5f6112ae82611285565b9050919050565b6112be816112a4565b82525050565b5f6040820190506112d75f8301856112b5565b6112e46020830184610b73565b9392505050565b7f4e6f206f7074696f6e732070726f7669646564000000000000000000000000005f82015250565b5f61131f6013836109ec565b915061132a826112eb565b602082019050919050565b5f6020820190508181035f83015261134c81611313565b9050919050565b5f61135d82610984565b915061136883610984565b92508282039050818111156113805761137f611211565b5b92915050565b5f819050815f5260205f209050919050565b5f6020601f8301049050919050565b5f82821b905092915050565b5f600883026113e27fffffffffffffffffffffffffffffffffffffffffffffffffffffffffffffffff826113a7565b6113ec86836113a7565b95508019841693508086168417925050509392505050565b5f819050919050565b5f61142761142261141d84610984565b611404565b610984565b9050919050565b5f819050919050565b6114408361140d565b61145461144c8261142e565b8484546113b3565b825550505050565b5f90565b61146861145c565b611473818484611437565b505050565b5b818110156114965761148b5f82611460565b600181019050611479565b5050565b601f8211156114db576114ac81611386565b6114b584611398565b810160208510156114c4578190505b6114d86114d085611398565b830182611478565b50505b505050565b5f82821c905092915050565b5f6114fb5f19846008026114e0565b1980831691505092915050565b5f61151383836114ec565b9150826002028217905092915050565b61152c826109e2565b67ffffffffffffffff81111561154557611544610d4d565b5b61154f8254611041565b61155a82828561149a565b5f60209050601f83116001811461158b575f8415611579578287015190505b6115838582611508565b8655506115ea565b601f19841661159986611386565b5f5b828110156115c05784890151825560018201915060208501945060208101905061159b565b868310156115dd57848901516115d9601f8916826114ec565b8355505b6001600288020188555050505b505050505050565b5f6115fc82610b12565b915061160783610b12565b9250828201905063ffffffff81111561162357611622611211565b5b92915050565b5f61164361163e61163984610b12565b611404565b610984565b9050919050565b61165381611629565b82525050565b5f6060820190508181035f8301526116718186610a1a565b905081810360208301526116858185610ab6565b9050611694604083018461164a565b94935050505056fea2646970667358221220a45c4e406a1c2a9ef84e94a2640f7fa10fe3a7d536d23fd15c6d0feee5f60ad564736f6c634300081a0033",
					"opcodes": "PUSH1 0x80 PUSH1 0x40 MSTORE CALLVALUE DUP1 ISZERO PUSH1 0xE JUMPI PUSH0 DUP1 REVERT JUMPDEST POP PUSH2 0x16D2 DUP1 PUSH2 0x1C PUSH0 CODECOPY PUSH0 RETURN INVALID PUSH1 0x80 PUSH1 0x40 MSTORE CALLVALUE DUP1 ISZERO PUSH2 0xF JUMPI PUSH0 DUP1 REVERT JUMPDEST POP PUSH1 0x4 CALLDATASIZE LT PUSH2 0x60 JUMPI PUSH0 CALLDATALOAD PUSH1 0xE0 SHR DUP1 PUSH4 0x1A8CBCAA EQ PUSH2 0x64 JUMPI DUP1 PUSH4 0x3EF87D54 EQ PUSH2 0x96 JUMPI DUP1 PUSH4 0x68BB8BB6 EQ PUSH2 0xB4 JUMPI DUP1 PUSH4 0x81A60C0D EQ PUSH2 0xD0 JUMPI DUP1 PUSH4 0xAC2F0074 EQ PUSH2 0x102 JUMPI DUP1 PUSH4 0xB4E94908 EQ PUSH2 0x133 JUMPI JUMPDEST PUSH0 DUP1 REVERT JUMPDEST PUSH2 0x7E PUSH1 0x4 DUP1 CALLDATASIZE SUB DUP2 ADD SWAP1 PUSH2 0x79 SWAP2 SWAP1 PUSH2 0x9B7 JUMP JUMPDEST PUSH2 0x163 JUMP JUMPDEST PUSH1 0x40 MLOAD PUSH2 0x8D SWAP4 SWAP3 SWAP2 SWAP1 PUSH2 0xB30 JUMP JUMPDEST PUSH1 0x40 MLOAD DUP1 SWAP2 SUB SWAP1 RETURN JUMPDEST PUSH2 0x9E PUSH2 0x28C JUMP JUMPDEST PUSH1 0x40 MLOAD PUSH2 0xAB SWAP2 SWAP1 PUSH2 0xB82 JUMP JUMPDEST PUSH1 0x40 MLOAD DUP1 SWAP2 SUB SWAP1 RETURN JUMPDEST PUSH2 0xCE PUSH1 0x4 DUP1 CALLDATASIZE SUB DUP2 ADD SWAP1 PUSH2 0xC9 SWAP2 SWAP1 PUSH2 0xBC5 JUMP JUMPDEST PUSH2 0x297 JUMP JUMPDEST STOP JUMPDEST PUSH2 0xEA PUSH1 0x4 DUP1 CALLDATASIZE SUB DUP2 ADD SWAP1 PUSH2 0xE5 SWAP2 SWAP1 PUSH2 0x9B7 JUMP JUMPDEST PUSH2 0x55C JUMP JUMPDEST PUSH1 0x40 MLOAD PUSH2 0xF9 SWAP4 SWAP3 SWAP2 SWAP1 PUSH2 0xCD4 JUMP JUMPDEST PUSH1 0x40 MLOAD DUP1 SWAP2 SUB SWAP1 RETURN JUMPDEST PUSH2 0x11C PUSH1 0x4 DUP1 CALLDATASIZE SUB DUP2 ADD SWAP1 PUSH2 0x117 SWAP2 SWAP1 PUSH2 0x9B7 JUMP JUMPDEST PUSH2 0x6C5 JUMP JUMPDEST PUSH1 0x40 MLOAD PUSH2 0x12A SWAP3 SWAP2 SWAP1 PUSH2 0xD17 JUMP JUMPDEST PUSH1 0x40 MLOAD DUP1 SWAP2 SUB SWAP1 RETURN JUMPDEST PUSH2 0x14D PUSH1 0x4 DUP1 CALLDATASIZE SUB DUP2 ADD SWAP1 PUSH2 0x148 SWAP2 SWAP1 PUSH2 0xF5F JUMP JUMPDEST PUSH2 0x788 JUMP JUMPDEST PUSH1 0x40 MLOAD PUSH2 0x15A SWAP2 SWAP1 PUSH2 0xB82 JUMP JUMPDEST PUSH1 0x40 MLOAD DUP1 SWAP2 SUB SWAP1 RETURN JUMPDEST PUSH1 0x60 DUP1 PUSH0 DUP1 PUSH0 DUP6 DUP2 SLOAD DUP2 LT PUSH2 0x17B JUMPI PUSH2 0x17A PUSH2 0xFE7 JUMP JUMPDEST JUMPDEST SWAP1 PUSH0 MSTORE PUSH1 0x20 PUSH0 KECCAK256 SWAP1 PUSH1 0x5 MUL ADD SWAP1 POP DUP1 PUSH0 ADD DUP2 PUSH1 0x1 ADD DUP3 PUSH1 0x2 ADD PUSH0 SWAP1 SLOAD SWAP1 PUSH2 0x100 EXP SWAP1 DIV PUSH4 0xFFFFFFFF AND DUP3 DUP1 SLOAD PUSH2 0x1B0 SWAP1 PUSH2 0x1041 JUMP JUMPDEST DUP1 PUSH1 0x1F ADD PUSH1 0x20 DUP1 SWAP2 DIV MUL PUSH1 0x20 ADD PUSH1 0x40 MLOAD SWAP1 DUP2 ADD PUSH1 0x40 MSTORE DUP1 SWAP3 SWAP2 SWAP1 DUP2 DUP2 MSTORE PUSH1 0x20 ADD DUP3 DUP1 SLOAD PUSH2 0x1DC SWAP1 PUSH2 0x1041 JUMP JUMPDEST DUP1 ISZERO PUSH2 0x227 JUMPI DUP1 PUSH1 0x1F LT PUSH2 0x1FE JUMPI PUSH2 0x100 DUP1 DUP4 SLOAD DIV MUL DUP4 MSTORE SWAP2 PUSH1 0x20 ADD SWAP2 PUSH2 0x227 JUMP JUMPDEST DUP3 ADD SWAP2 SWAP1 PUSH0 MSTORE PUSH1 0x20 PUSH0 KECCAK256 SWAP1 JUMPDEST DUP2 SLOAD DUP2 MSTORE SWAP1 PUSH1 0x1 ADD SWAP1 PUSH1 0x20 ADD DUP1 DUP4 GT PUSH2 0x20A JUMPI DUP3 SWAP1 SUB PUSH1 0x1F AND DUP3 ADD SWAP2 JUMPDEST POP POP POP POP POP SWAP3 POP DUP2 DUP1 SLOAD DUP1 PUSH1 0x20 MUL PUSH1 0x20 ADD PUSH1 0x40 MLOAD SWAP1 DUP2 ADD PUSH1 0x40 MSTORE DUP1 SWAP3 SWAP2 SWAP1 DUP2 DUP2 MSTORE PUSH1 0x20 ADD DUP3 DUP1 SLOAD DUP1 ISZERO PUSH2 0x277 JUMPI PUSH1 0x20 MUL DUP3 ADD SWAP2 SWAP1 PUSH0 MSTORE PUSH1 0x20 PUSH0 KECCAK256 SWAP1 JUMPDEST DUP2 SLOAD DUP2 MSTORE PUSH1 0x20 ADD SWAP1 PUSH1 0x1 ADD SWAP1 DUP1 DUP4 GT PUSH2 0x263 JUMPI JUMPDEST POP POP POP POP POP SWAP2 POP SWAP4 POP SWAP4 POP SWAP4 POP POP SWAP2 SWAP4 SWAP1 SWAP3 POP JUMP JUMPDEST PUSH0 DUP1 DUP1 SLOAD SWAP1 POP SWAP1 POP SWAP1 JUMP JUMPDEST DUP2 PUSH0 DUP2 DUP2 SLOAD DUP2 LT PUSH2 0x2AB JUMPI PUSH2 0x2AA PUSH2 0xFE7 JUMP JUMPDEST JUMPDEST SWAP1 PUSH0 MSTORE PUSH1 0x20 PUSH0 KECCAK256 SWAP1 PUSH1 0x5 MUL ADD PUSH1 0x2 ADD PUSH0 SWAP1 SLOAD SWAP1 PUSH2 0x100 EXP SWAP1 DIV PUSH4 0xFFFFFFFF AND PUSH4 0xFFFFFFFF AND TIMESTAMP LT PUSH2 0x311 JUMPI PUSH1 0x40 MLOAD PUSH32 0x8C379A000000000000000000000000000000000000000000000000000000000 DUP2 MSTORE PUSH1 0x4 ADD PUSH2 0x308 SWAP1 PUSH2 0x10BB JUMP JUMPDEST PUSH1 0x40 MLOAD DUP1 SWAP2 SUB SWAP1 REVERT JUMPDEST PUSH0 DUP1 SLOAD SWAP1 POP DUP4 LT PUSH2 0x357 JUMPI PUSH1 0x40 MLOAD PUSH32 0x8C379A000000000000000000000000000000000000000000000000000000000 DUP2 MSTORE PUSH1 0x4 ADD PUSH2 0x34E SWAP1 PUSH2 0x1123 JUMP JUMPDEST PUSH1 0x40 MLOAD DUP1 SWAP2 SUB SWAP1 REVERT JUMPDEST PUSH0 DUP1 DUP5 DUP2 SLOAD DUP2 LT PUSH2 0x36B JUMPI PUSH2 0x36A PUSH2 0xFE7 JUMP JUMPDEST JUMPDEST SWAP1 PUSH0 MSTORE PUSH1 0x20 PUSH0 KECCAK256 SWAP1 PUSH1 0x5 MUL ADD SWAP1 POP DUP1 PUSH1 0x4 ADD PUSH0 CALLER PUSH20 0xFFFFFFFFFFFFFFFFFFFFFFFFFFFFFFFFFFFFFFFF AND PUSH20 0xFFFFFFFFFFFFFFFFFFFFFFFFFFFFFFFFFFFFFFFF AND DUP2 MSTORE PUSH1 0x20 ADD SWAP1 DUP2 MSTORE PUSH1 0x20 ADD PUSH0 KECCAK256 PUSH0 SWAP1 SLOAD SWAP1 PUSH2 0x100 EXP SWAP1 DIV PUSH1 0xFF AND ISZERO PUSH2 0x405 JUMPI PUSH1 0x40 MLOAD PUSH32 0x8C379A000000000000000000000000000000000000000000000000000000000 DUP2 MSTORE PUSH1 0x4 ADD PUSH2 0x3FC SWAP1 PUSH2 0x118B JUMP JUMPDEST PUSH1 0x40 MLOAD DUP1 SWAP2 SUB SWAP1 REVERT JUMPDEST PUSH2 0x45F DUP2 PUSH1 0x1 ADD DUP1 SLOAD DUP1 PUSH1 0x20 MUL PUSH1 0x20 ADD PUSH1 0x40 MLOAD SWAP1 DUP2 ADD PUSH1 0x40 MSTORE DUP1 SWAP3 SWAP2 SWAP1 DUP2 DUP2 MSTORE PUSH1 0x20 ADD DUP3 DUP1 SLOAD DUP1 ISZERO PUSH2 0x454 JUMPI PUSH1 0x20 MUL DUP3 ADD SWAP2 SWAP1 PUSH0 MSTORE PUSH1 0x20 PUSH0 KECCAK256 SWAP1 JUMPDEST DUP2 SLOAD DUP2 MSTORE PUSH1 0x20 ADD SWAP1 PUSH1 0x1 ADD SWAP1 DUP1 DUP4 GT PUSH2 0x440 JUMPI JUMPDEST POP POP POP POP POP DUP5 PUSH2 0x8BB JUMP JUMPDEST PUSH2 0x49E JUMPI PUSH1 0x40 MLOAD PUSH32 0x8C379A000000000000000000000000000000000000000000000000000000000 DUP2 MSTORE PUSH1 0x4 ADD PUSH2 0x495 SWAP1 PUSH2 0x11F3 JUMP JUMPDEST PUSH1 0x40 MLOAD DUP1 SWAP2 SUB SWAP1 REVERT JUMPDEST DUP1 PUSH1 0x3 ADD PUSH0 DUP5 DUP2 MSTORE PUSH1 0x20 ADD SWAP1 DUP2 MSTORE PUSH1 0x20 ADD PUSH0 KECCAK256 PUSH0 DUP2 SLOAD DUP1 SWAP3 SWAP2 SWAP1 PUSH2 0x4C1 SWAP1 PUSH2 0x123E JUMP JUMPDEST SWAP2 SWAP1 POP SSTORE POP PUSH1 0x1 DUP2 PUSH1 0x4 ADD PUSH0 CALLER PUSH20 0xFFFFFFFFFFFFFFFFFFFFFFFFFFFFFFFFFFFFFFFF AND PUSH20 0xFFFFFFFFFFFFFFFFFFFFFFFFFFFFFFFFFFFFFFFF AND DUP2 MSTORE PUSH1 0x20 ADD SWAP1 DUP2 MSTORE PUSH1 0x20 ADD PUSH0 KECCAK256 PUSH0 PUSH2 0x100 EXP DUP2 SLOAD DUP2 PUSH1 0xFF MUL NOT AND SWAP1 DUP4 ISZERO ISZERO MUL OR SWAP1 SSTORE POP PUSH32 0x4D99B957A2BC29A30EBD96A7BE8E68FE50A3C701DB28A91436490B7D53870CA4 CALLER DUP6 PUSH1 0x40 MLOAD PUSH2 0x54E SWAP3 SWAP2 SWAP1 PUSH2 0x12C4 JUMP JUMPDEST PUSH1 0x40 MLOAD DUP1 SWAP2 SUB SWAP1 LOG1 POP POP POP POP JUMP JUMPDEST PUSH1 0x60 DUP1 PUSH0 DUP1 PUSH0 DUP6 DUP2 SLOAD DUP2 LT PUSH2 0x574 JUMPI PUSH2 0x573 PUSH2 0xFE7 JUMP JUMPDEST JUMPDEST SWAP1 PUSH0 MSTORE PUSH1 0x20 PUSH0 KECCAK256 SWAP1 PUSH1 0x5 MUL ADD SWAP1 POP PUSH0 DUP2 PUSH1 0x1 ADD DUP1 SLOAD SWAP1 POP PUSH8 0xFFFFFFFFFFFFFFFF DUP2 GT ISZERO PUSH2 0x5A4 JUMPI PUSH2 0x5A3 PUSH2 0xD4D JUMP JUMPDEST JUMPDEST PUSH1 0x40 MLOAD SWAP1 DUP1 DUP3 MSTORE DUP1 PUSH1 0x20 MUL PUSH1 0x20 ADD DUP3 ADD PUSH1 0x40 MSTORE DUP1 ISZERO PUSH2 0x5D2 JUMPI DUP2 PUSH1 0x20 ADD PUSH1 0x20 DUP3 MUL DUP1 CALLDATASIZE DUP4 CALLDATACOPY DUP1 DUP3 ADD SWAP2 POP POP SWAP1 POP JUMPDEST POP SWAP1 POP PUSH0 JUMPDEST DUP3 PUSH1 0x1 ADD DUP1 SLOAD SWAP1 POP DUP2 LT ISZERO PUSH2 0x644 JUMPI DUP3 PUSH1 0x3 ADD PUSH0 DUP5 PUSH1 0x1 ADD DUP4 DUP2 SLOAD DUP2 LT PUSH2 0x601 JUMPI PUSH2 0x600 PUSH2 0xFE7 JUMP JUMPDEST JUMPDEST SWAP1 PUSH0 MSTORE PUSH1 0x20 PUSH0 KECCAK256 ADD SLOAD DUP2 MSTORE PUSH1 0x20 ADD SWAP1 DUP2 MSTORE PUSH1 0x20 ADD PUSH0 KECCAK256 SLOAD DUP3 DUP3 DUP2 MLOAD DUP2 LT PUSH2 0x62B JUMPI PUSH2 0x62A PUSH2 0xFE7 JUMP JUMPDEST JUMPDEST PUSH1 0x20 MUL PUSH1 0x20 ADD ADD DUP2 DUP2 MSTORE POP POP DUP1 DUP1 PUSH1 0x1 ADD SWAP2 POP POP PUSH2 0x5D7 JUMP JUMPDEST POP DUP2 PUSH1 0x1 ADD DUP2 TIMESTAMP DUP5 PUSH1 0x2 ADD PUSH0 SWAP1 SLOAD SWAP1 PUSH2 0x100 EXP SWAP1 DIV PUSH4 0xFFFFFFFF AND PUSH4 0xFFFFFFFF AND GT DUP3 DUP1 SLOAD DUP1 PUSH1 0x20 MUL PUSH1 0x20 ADD PUSH1 0x40 MLOAD SWAP1 DUP2 ADD PUSH1 0x40 MSTORE DUP1 SWAP3 SWAP2 SWAP1 DUP2 DUP2 MSTORE PUSH1 0x20 ADD DUP3 DUP1 SLOAD DUP1 ISZERO PUSH2 0x6AF JUMPI PUSH1 0x20 MUL DUP3 ADD SWAP2 SWAP1 PUSH0 MSTORE PUSH1 0x20 PUSH0 KECCAK256 SWAP1 JUMPDEST DUP2 SLOAD DUP2 MSTORE PUSH1 0x20 ADD SWAP1 PUSH1 0x1 ADD SWAP1 DUP1 DUP4 GT PUSH2 0x69B JUMPI JUMPDEST POP POP POP POP POP SWAP3 POP SWAP5 POP SWAP5 POP SWAP5 POP POP POP SWAP2 SWAP4 SWAP1 SWAP3 POP JUMP JUMPDEST PUSH0 DUP2 DUP2 SLOAD DUP2 LT PUSH2 0x6D3 JUMPI PUSH0 DUP1 REVERT JUMPDEST SWAP1 PUSH0 MSTORE PUSH1 0x20 PUSH0 KECCAK256 SWAP1 PUSH1 0x5 MUL ADD PUSH0 SWAP2 POP SWAP1 POP DUP1 PUSH0 ADD DUP1 SLOAD PUSH2 0x6F2 SWAP1 PUSH2 0x1041 JUMP JUMPDEST DUP1 PUSH1 0x1F ADD PUSH1 0x20 DUP1 SWAP2 DIV MUL PUSH1 0x20 ADD PUSH1 0x40 MLOAD SWAP1 DUP2 ADD PUSH1 0x40 MSTORE DUP1 SWAP3 SWAP2 SWAP1 DUP2 DUP2 MSTORE PUSH1 0x20 ADD DUP3 DUP1 SLOAD PUSH2 0x71E SWAP1 PUSH2 0x1041 JUMP JUMPDEST DUP1 ISZERO PUSH2 0x769 JUMPI DUP1 PUSH1 0x1F LT PUSH2 0x740 JUMPI PUSH2 0x100 DUP1 DUP4 SLOAD DIV MUL DUP4 MSTORE SWAP2 PUSH1 0x20 ADD SWAP2 PUSH2 0x769 JUMP JUMPDEST DUP3 ADD SWAP2 SWAP1 PUSH0 MSTORE PUSH1 0x20 PUSH0 KECCAK256 SWAP1 JUMPDEST DUP2 SLOAD DUP2 MSTORE SWAP1 PUSH1 0x1 ADD SWAP1 PUSH1 0x20 ADD DUP1 DUP4 GT PUSH2 0x74C JUMPI DUP3 SWAP1 SUB PUSH1 0x1F AND DUP3 ADD SWAP2 JUMPDEST POP POP POP POP POP SWAP1 DUP1 PUSH1 0x2 ADD PUSH0 SWAP1 SLOAD SWAP1 PUSH2 0x100 EXP SWAP1 DIV PUSH4 0xFFFFFFFF AND SWAP1 POP DUP3 JUMP JUMPDEST PUSH0 DUP1 DUP4 MLOAD GT PUSH2 0x7CC JUMPI PUSH1 0x40 MLOAD PUSH32 0x8C379A000000000000000000000000000000000000000000000000000000000 DUP2 MSTORE PUSH1 0x4 ADD PUSH2 0x7C3 SWAP1 PUSH2 0x1335 JUMP JUMPDEST PUSH1 0x40 MLOAD DUP1 SWAP2 SUB SWAP1 REVERT JUMPDEST PUSH0 PUSH1 0x1 DUP2 PUSH1 0x1 DUP2 SLOAD ADD DUP1 DUP3 SSTORE DUP1 SWAP2 POP POP SUB SWAP1 PUSH0 MSTORE PUSH1 0x20 PUSH0 KECCAK256 SWAP1 POP POP PUSH0 PUSH1 0x1 PUSH0 DUP1 SLOAD SWAP1 POP PUSH2 0x7F9 SWAP2 SWAP1 PUSH2 0x1353 JUMP JUMPDEST SWAP1 POP PUSH0 DUP1 DUP3 DUP2 SLOAD DUP2 LT PUSH2 0x80F JUMPI PUSH2 0x80E PUSH2 0xFE7 JUMP JUMPDEST JUMPDEST SWAP1 PUSH0 MSTORE PUSH1 0x20 PUSH0 KECCAK256 SWAP1 PUSH1 0x5 MUL ADD SWAP1 POP DUP6 DUP2 PUSH0 ADD SWAP1 DUP2 PUSH2 0x82D SWAP2 SWAP1 PUSH2 0x1523 JUMP JUMPDEST POP DUP5 DUP2 PUSH1 0x1 ADD SWAP1 DUP1 MLOAD SWAP1 PUSH1 0x20 ADD SWAP1 PUSH2 0x846 SWAP3 SWAP2 SWAP1 PUSH2 0x90D JUMP JUMPDEST POP DUP4 TIMESTAMP PUSH2 0x853 SWAP2 SWAP1 PUSH2 0x15F2 JUMP JUMPDEST DUP2 PUSH1 0x2 ADD PUSH0 PUSH2 0x100 EXP DUP2 SLOAD DUP2 PUSH4 0xFFFFFFFF MUL NOT AND SWAP1 DUP4 PUSH4 0xFFFFFFFF AND MUL OR SWAP1 SSTORE POP PUSH32 0x8743CE889DED037C23E138B6BC3759DFAD1BF6FFE9AA1ED2E6652964EF0C014C DUP7 DUP7 DUP7 PUSH1 0x40 MLOAD PUSH2 0x8A7 SWAP4 SWAP3 SWAP2 SWAP1 PUSH2 0x1659 JUMP JUMPDEST PUSH1 0x40 MLOAD DUP1 SWAP2 SUB SWAP1 LOG1 DUP2 SWAP3 POP POP POP SWAP4 SWAP3 POP POP POP JUMP JUMPDEST PUSH0 DUP1 PUSH0 SWAP1 POP JUMPDEST DUP4 MLOAD DUP2 LT ISZERO PUSH2 0x902 JUMPI DUP3 DUP5 DUP3 DUP2 MLOAD DUP2 LT PUSH2 0x8DE JUMPI PUSH2 0x8DD PUSH2 0xFE7 JUMP JUMPDEST JUMPDEST PUSH1 0x20 MUL PUSH1 0x20 ADD ADD MLOAD SUB PUSH2 0x8F5 JUMPI PUSH1 0x1 SWAP2 POP POP PUSH2 0x907 JUMP JUMPDEST DUP1 DUP1 PUSH1 0x1 ADD SWAP2 POP POP PUSH2 0x8C1 JUMP JUMPDEST POP PUSH0 SWAP1 POP JUMPDEST SWAP3 SWAP2 POP POP JUMP JUMPDEST DUP3 DUP1 SLOAD DUP3 DUP3 SSTORE SWAP1 PUSH0 MSTORE PUSH1 0x20 PUSH0 KECCAK256 SWAP1 DUP2 ADD SWAP3 DUP3 ISZERO PUSH2 0x947 JUMPI SWAP2 PUSH1 0x20 MUL DUP3 ADD JUMPDEST DUP3 DUP2 GT ISZERO PUSH2 0x946 JUMPI DUP3 MLOAD DUP3 SSTORE SWAP2 PUSH1 0x20 ADD SWAP2 SWAP1 PUSH1 0x1 ADD SWAP1 PUSH2 0x92B JUMP JUMPDEST JUMPDEST POP SWAP1 POP PUSH2 0x954 SWAP2 SWAP1 PUSH2 0x958 JUMP JUMPDEST POP SWAP1 JUMP JUMPDEST JUMPDEST DUP1 DUP3 GT ISZERO PUSH2 0x96F JUMPI PUSH0 DUP2 PUSH0 SWAP1 SSTORE POP PUSH1 0x1 ADD PUSH2 0x959 JUMP JUMPDEST POP SWAP1 JUMP JUMPDEST PUSH0 PUSH1 0x40 MLOAD SWAP1 POP SWAP1 JUMP JUMPDEST PUSH0 DUP1 REVERT JUMPDEST PUSH0 DUP1 REVERT JUMPDEST PUSH0 DUP2 SWAP1 POP SWAP2 SWAP1 POP JUMP JUMPDEST PUSH2 0x996 DUP2 PUSH2 0x984 JUMP JUMPDEST DUP2 EQ PUSH2 0x9A0 JUMPI PUSH0 DUP1 REVERT JUMPDEST POP JUMP JUMPDEST PUSH0 DUP2 CALLDATALOAD SWAP1 POP PUSH2 0x9B1 DUP2 PUSH2 0x98D JUMP JUMPDEST SWAP3 SWAP2 POP POP JUMP JUMPDEST PUSH0 PUSH1 0x20 DUP3 DUP5 SUB SLT ISZERO PUSH2 0x9CC JUMPI PUSH2 0x9CB PUSH2 0x97C JUMP JUMPDEST JUMPDEST PUSH0 PUSH2 0x9D9 DUP5 DUP3 DUP6 ADD PUSH2 0x9A3 JUMP JUMPDEST SWAP2 POP POP SWAP3 SWAP2 POP POP JUMP JUMPDEST PUSH0 DUP2 MLOAD SWAP1 POP SWAP2 SWAP1 POP JUMP JUMPDEST PUSH0 DUP3 DUP3 MSTORE PUSH1 0x20 DUP3 ADD SWAP1 POP SWAP3 SWAP2 POP POP JUMP JUMPDEST DUP3 DUP2 DUP4 MCOPY PUSH0 DUP4 DUP4 ADD MSTORE POP POP POP JUMP JUMPDEST PUSH0 PUSH1 0x1F NOT PUSH1 0x1F DUP4 ADD AND SWAP1 POP SWAP2 SWAP1 POP JUMP JUMPDEST PUSH0 PUSH2 0xA24 DUP3 PUSH2 0x9E2 JUMP JUMPDEST PUSH2 0xA2E DUP2 DUP6 PUSH2 0x9EC JUMP JUMPDEST SWAP4 POP PUSH2 0xA3E DUP2 DUP6 PUSH1 0x20 DUP7 ADD PUSH2 0x9FC JUMP JUMPDEST PUSH2 0xA47 DUP2 PUSH2 0xA0A JUMP JUMPDEST DUP5 ADD SWAP2 POP POP SWAP3 SWAP2 POP POP JUMP JUMPDEST PUSH0 DUP2 MLOAD SWAP1 POP SWAP2 SWAP1 POP JUMP JUMPDEST PUSH0 DUP3 DUP3 MSTORE PUSH1 0x20 DUP3 ADD SWAP1 POP SWAP3 SWAP2 POP POP JUMP JUMPDEST PUSH0 DUP2 SWAP1 POP PUSH1 0x20 DUP3 ADD SWAP1 POP SWAP2 SWAP1 POP JUMP JUMPDEST PUSH0 DUP2 SWAP1 POP SWAP2 SWAP1 POP JUMP JUMPDEST PUSH2 0xA8D DUP2 PUSH2 0xA7B JUMP JUMPDEST DUP3 MSTORE POP POP JUMP JUMPDEST PUSH0 PUSH2 0xA9E DUP4 DUP4 PUSH2 0xA84 JUMP JUMPDEST PUSH1 0x20 DUP4 ADD SWAP1 POP SWAP3 SWAP2 POP POP JUMP JUMPDEST PUSH0 PUSH1 0x20 DUP3 ADD SWAP1 POP SWAP2 SWAP1 POP JUMP JUMPDEST PUSH0 PUSH2 0xAC0 DUP3 PUSH2 0xA52 JUMP JUMPDEST PUSH2 0xACA DUP2 DUP6 PUSH2 0xA5C JUMP JUMPDEST SWAP4 POP PUSH2 0xAD5 DUP4 PUSH2 0xA6C JUMP JUMPDEST DUP1 PUSH0 JUMPDEST DUP4 DUP2 LT ISZERO PUSH2 0xB05 JUMPI DUP2 MLOAD PUSH2 0xAEC DUP9 DUP3 PUSH2 0xA93 JUMP JUMPDEST SWAP8 POP PUSH2 0xAF7 DUP4 PUSH2 0xAAA JUMP JUMPDEST SWAP3 POP POP PUSH1 0x1 DUP2 ADD SWAP1 POP PUSH2 0xAD8 JUMP JUMPDEST POP DUP6 SWAP4 POP POP POP POP SWAP3 SWAP2 POP POP JUMP JUMPDEST PUSH0 PUSH4 0xFFFFFFFF DUP3 AND SWAP1 POP SWAP2 SWAP1 POP JUMP JUMPDEST PUSH2 0xB2A DUP2 PUSH2 0xB12 JUMP JUMPDEST DUP3 MSTORE POP POP JUMP JUMPDEST PUSH0 PUSH1 0x60 DUP3 ADD SWAP1 POP DUP2 DUP2 SUB PUSH0 DUP4 ADD MSTORE PUSH2 0xB48 DUP2 DUP7 PUSH2 0xA1A JUMP JUMPDEST SWAP1 POP DUP2 DUP2 SUB PUSH1 0x20 DUP4 ADD MSTORE PUSH2 0xB5C DUP2 DUP6 PUSH2 0xAB6 JUMP JUMPDEST SWAP1 POP PUSH2 0xB6B PUSH1 0x40 DUP4 ADD DUP5 PUSH2 0xB21 JUMP JUMPDEST SWAP5 SWAP4 POP POP POP POP JUMP JUMPDEST PUSH2 0xB7C DUP2 PUSH2 0x984 JUMP JUMPDEST DUP3 MSTORE POP POP JUMP JUMPDEST PUSH0 PUSH1 0x20 DUP3 ADD SWAP1 POP PUSH2 0xB95 PUSH0 DUP4 ADD DUP5 PUSH2 0xB73 JUMP JUMPDEST SWAP3 SWAP2 POP POP JUMP JUMPDEST PUSH2 0xBA4 DUP2 PUSH2 0xA7B JUMP JUMPDEST DUP2 EQ PUSH2 0xBAE JUMPI PUSH0 DUP1 REVERT JUMPDEST POP JUMP JUMPDEST PUSH0 DUP2 CALLDATALOAD SWAP1 POP PUSH2 0xBBF DUP2 PUSH2 0xB9B JUMP JUMPDEST SWAP3 SWAP2 POP POP JUMP JUMPDEST PUSH0 DUP1 PUSH1 0x40 DUP4 DUP6 SUB SLT ISZERO PUSH2 0xBDB JUMPI PUSH2 0xBDA PUSH2 0x97C JUMP JUMPDEST JUMPDEST PUSH0 PUSH2 0xBE8 DUP6 DUP3 DUP7 ADD PUSH2 0x9A3 JUMP JUMPDEST SWAP3 POP POP PUSH1 0x20 PUSH2 0xBF9 DUP6 DUP3 DUP7 ADD PUSH2 0xBB1 JUMP JUMPDEST SWAP2 POP POP SWAP3 POP SWAP3 SWAP1 POP JUMP JUMPDEST PUSH0 DUP2 MLOAD SWAP1 POP SWAP2 SWAP1 POP JUMP JUMPDEST PUSH0 DUP3 DUP3 MSTORE PUSH1 0x20 DUP3 ADD SWAP1 POP SWAP3 SWAP2 POP POP JUMP JUMPDEST PUSH0 DUP2 SWAP1 POP PUSH1 0x20 DUP3 ADD SWAP1 POP SWAP2 SWAP1 POP JUMP JUMPDEST PUSH2 0xC35 DUP2 PUSH2 0x984 JUMP JUMPDEST DUP3 MSTORE POP POP JUMP JUMPDEST PUSH0 PUSH2 0xC46 DUP4 DUP4 PUSH2 0xC2C JUMP JUMPDEST PUSH1 0x20 DUP4 ADD SWAP1 POP SWAP3 SWAP2 POP POP JUMP JUMPDEST PUSH0 PUSH1 0x20 DUP3 ADD SWAP1 POP SWAP2 SWAP1 POP JUMP JUMPDEST PUSH0 PUSH2 0xC68 DUP3 PUSH2 0xC03 JUMP JUMPDEST PUSH2 0xC72 DUP2 DUP6 PUSH2 0xC0D JUMP JUMPDEST SWAP4 POP PUSH2 0xC7D DUP4 PUSH2 0xC1D JUMP JUMPDEST DUP1 PUSH0 JUMPDEST DUP4 DUP2 LT ISZERO PUSH2 0xCAD JUMPI DUP2 MLOAD PUSH2 0xC94 DUP9 DUP3 PUSH2 0xC3B JUMP JUMPDEST SWAP8 POP PUSH2 0xC9F DUP4 PUSH2 0xC52 JUMP JUMPDEST SWAP3 POP POP PUSH1 0x1 DUP2 ADD SWAP1 POP PUSH2 0xC80 JUMP JUMPDEST POP DUP6 SWAP4 POP POP POP POP SWAP3 SWAP2 POP POP JUMP JUMPDEST PUSH0 DUP2 ISZERO ISZERO SWAP1 POP SWAP2 SWAP1 POP JUMP JUMPDEST PUSH2 0xCCE DUP2 PUSH2 0xCBA JUMP JUMPDEST DUP3 MSTORE POP POP JUMP JUMPDEST PUSH0 PUSH1 0x60 DUP3 ADD SWAP1 POP DUP2 DUP2 SUB PUSH0 DUP4 ADD MSTORE PUSH2 0xCEC DUP2 DUP7 PUSH2 0xAB6 JUMP JUMPDEST SWAP1 POP DUP2 DUP2 SUB PUSH1 0x20 DUP4 ADD MSTORE PUSH2 0xD00 DUP2 DUP6 PUSH2 0xC5E JUMP JUMPDEST SWAP1 POP PUSH2 0xD0F PUSH1 0x40 DUP4 ADD DUP5 PUSH2 0xCC5 JUMP JUMPDEST SWAP5 SWAP4 POP POP POP POP JUMP JUMPDEST PUSH0 PUSH1 0x40 DUP3 ADD SWAP1 POP DUP2 DUP2 SUB PUSH0 DUP4 ADD MSTORE PUSH2 0xD2F DUP2 DUP6 PUSH2 0xA1A JUMP JUMPDEST SWAP1 POP PUSH2 0xD3E PUSH1 0x20 DUP4 ADD DUP5 PUSH2 0xB21 JUMP JUMPDEST SWAP4 SWAP3 POP POP POP JUMP JUMPDEST PUSH0 DUP1 REVERT JUMPDEST PUSH0 DUP1 REVERT JUMPDEST PUSH32 0x4E487B7100000000000000000000000000000000000000000000000000000000 PUSH0 MSTORE PUSH1 0x41 PUSH1 0x4 MSTORE PUSH1 0x24 PUSH0 REVERT JUMPDEST PUSH2 0xD83 DUP3 PUSH2 0xA0A JUMP JUMPDEST DUP2 ADD DUP2 DUP2 LT PUSH8 0xFFFFFFFFFFFFFFFF DUP3 GT OR ISZERO PUSH2 0xDA2 JUMPI PUSH2 0xDA1 PUSH2 0xD4D JUMP JUMPDEST JUMPDEST DUP1 PUSH1 0x40 MSTORE POP POP POP JUMP JUMPDEST PUSH0 PUSH2 0xDB4 PUSH2 0x973 JUMP JUMPDEST SWAP1 POP PUSH2 0xDC0 DUP3 DUP3 PUSH2 0xD7A JUMP JUMPDEST SWAP2 SWAP1 POP JUMP JUMPDEST PUSH0 PUSH8 0xFFFFFFFFFFFFFFFF DUP3 GT ISZERO PUSH2 0xDDF JUMPI PUSH2 0xDDE PUSH2 0xD4D JUMP JUMPDEST JUMPDEST PUSH2 0xDE8 DUP3 PUSH2 0xA0A JUMP JUMPDEST SWAP1 POP PUSH1 0x20 DUP2 ADD SWAP1 POP SWAP2 SWAP1 POP JUMP JUMPDEST DUP3 DUP2 DUP4 CALLDATACOPY PUSH0 DUP4 DUP4 ADD MSTORE POP POP POP JUMP JUMPDEST PUSH0 PUSH2 0xE15 PUSH2 0xE10 DUP5 PUSH2 0xDC5 JUMP JUMPDEST PUSH2 0xDAB JUMP JUMPDEST SWAP1 POP DUP3 DUP2 MSTORE PUSH1 0x20 DUP2 ADD DUP5 DUP5 DUP5 ADD GT ISZERO PUSH2 0xE31 JUMPI PUSH2 0xE30 PUSH2 0xD49 JUMP JUMPDEST JUMPDEST PUSH2 0xE3C DUP5 DUP3 DUP6 PUSH2 0xDF5 JUMP JUMPDEST POP SWAP4 SWAP3 POP POP POP JUMP JUMPDEST PUSH0 DUP3 PUSH1 0x1F DUP4 ADD SLT PUSH2 0xE58 JUMPI PUSH2 0xE57 PUSH2 0xD45 JUMP JUMPDEST JUMPDEST DUP2 CALLDATALOAD PUSH2 0xE68 DUP5 DUP3 PUSH1 0x20 DUP7 ADD PUSH2 0xE03 JUMP JUMPDEST SWAP2 POP POP SWAP3 SWAP2 POP POP JUMP JUMPDEST PUSH0 PUSH8 0xFFFFFFFFFFFFFFFF DUP3 GT ISZERO PUSH2 0xE8B JUMPI PUSH2 0xE8A PUSH2 0xD4D JUMP JUMPDEST JUMPDEST PUSH1 0x20 DUP3 MUL SWAP1 POP PUSH1 0x20 DUP2 ADD SWAP1 POP SWAP2 SWAP1 POP JUMP JUMPDEST PUSH0 DUP1 REVERT JUMPDEST PUSH0 PUSH2 0xEB2 PUSH2 0xEAD DUP5 PUSH2 0xE71 JUMP JUMPDEST PUSH2 0xDAB JUMP JUMPDEST SWAP1 POP DUP1 DUP4 DUP3 MSTORE PUSH1 0x20 DUP3 ADD SWAP1 POP PUSH1 0x20 DUP5 MUL DUP4 ADD DUP6 DUP2 GT ISZERO PUSH2 0xED5 JUMPI PUSH2 0xED4 PUSH2 0xE9C JUMP JUMPDEST JUMPDEST DUP4 JUMPDEST DUP2 DUP2 LT ISZERO PUSH2 0xEFE JUMPI DUP1 PUSH2 0xEEA DUP9 DUP3 PUSH2 0xBB1 JUMP JUMPDEST DUP5 MSTORE PUSH1 0x20 DUP5 ADD SWAP4 POP POP PUSH1 0x20 DUP2 ADD SWAP1 POP PUSH2 0xED7 JUMP JUMPDEST POP POP POP SWAP4 SWAP3 POP POP POP JUMP JUMPDEST PUSH0 DUP3 PUSH1 0x1F DUP4 ADD SLT PUSH2 0xF1C JUMPI PUSH2 0xF1B PUSH2 0xD45 JUMP JUMPDEST JUMPDEST DUP2 CALLDATALOAD PUSH2 0xF2C DUP5 DUP3 PUSH1 0x20 DUP7 ADD PUSH2 0xEA0 JUMP JUMPDEST SWAP2 POP POP SWAP3 SWAP2 POP POP JUMP JUMPDEST PUSH2 0xF3E DUP2 PUSH2 0xB12 JUMP JUMPDEST DUP2 EQ PUSH2 0xF48 JUMPI PUSH0 DUP1 REVERT JUMPDEST POP JUMP JUMPDEST PUSH0 DUP2 CALLDATALOAD SWAP1 POP PUSH2 0xF59 DUP2 PUSH2 0xF35 JUMP JUMPDEST SWAP3 SWAP2 POP POP JUMP JUMPDEST PUSH0 DUP1 PUSH0 PUSH1 0x60 DUP5 DUP7 SUB SLT ISZERO PUSH2 0xF76 JUMPI PUSH2 0xF75 PUSH2 0x97C JUMP JUMPDEST JUMPDEST PUSH0 DUP5 ADD CALLDATALOAD PUSH8 0xFFFFFFFFFFFFFFFF DUP2 GT ISZERO PUSH2 0xF93 JUMPI PUSH2 0xF92 PUSH2 0x980 JUMP JUMPDEST JUMPDEST PUSH2 0xF9F DUP7 DUP3 DUP8 ADD PUSH2 0xE44 JUMP JUMPDEST SWAP4 POP POP PUSH1 0x20 DUP5 ADD CALLDATALOAD PUSH8 0xFFFFFFFFFFFFFFFF DUP2 GT ISZERO PUSH2 0xFC0 JUMPI PUSH2 0xFBF PUSH2 0x980 JUMP JUMPDEST JUMPDEST PUSH2 0xFCC DUP7 DUP3 DUP8 ADD PUSH2 0xF08 JUMP JUMPDEST SWAP3 POP POP PUSH1 0x40 PUSH2 0xFDD DUP7 DUP3 DUP8 ADD PUSH2 0xF4B JUMP JUMPDEST SWAP2 POP POP SWAP3 POP SWAP3 POP SWAP3 JUMP JUMPDEST PUSH32 0x4E487B7100000000000000000000000000000000000000000000000000000000 PUSH0 MSTORE PUSH1 0x32 PUSH1 0x4 MSTORE PUSH1 0x24 PUSH0 REVERT JUMPDEST PUSH32 0x4E487B7100000000000000000000000000000000000000000000000000000000 PUSH0 MSTORE PUSH1 0x22 PUSH1 0x4 MSTORE PUSH1 0x24 PUSH0 REVERT JUMPDEST PUSH0 PUSH1 0x2 DUP3 DIV SWAP1 POP PUSH1 0x1 DUP3 AND DUP1 PUSH2 0x1058 JUMPI PUSH1 0x7F DUP3 AND SWAP2 POP JUMPDEST PUSH1 0x20 DUP3 LT DUP2 SUB PUSH2 0x106B JUMPI PUSH2 0x106A PUSH2 0x1014 JUMP JUMPDEST JUMPDEST POP SWAP2 SWAP1 POP JUMP JUMPDEST PUSH32 0x506F6C6C20636C6F736564000000000000000000000000000000000000000000 PUSH0 DUP3 ADD MSTORE POP JUMP JUMPDEST PUSH0 PUSH2 0x10A5 PUSH1 0xB DUP4 PUSH2 0x9EC JUMP JUMPDEST SWAP2 POP PUSH2 0x10B0 DUP3 PUSH2 0x1071 JUMP JUMPDEST PUSH1 0x20 DUP3 ADD SWAP1 POP SWAP2 SWAP1 POP JUMP JUMPDEST PUSH0 PUSH1 0x20 DUP3 ADD SWAP1 POP DUP2 DUP2 SUB PUSH0 DUP4 ADD MSTORE PUSH2 0x10D2 DUP2 PUSH2 0x1099 JUMP JUMPDEST SWAP1 POP SWAP2 SWAP1 POP JUMP JUMPDEST PUSH32 0x496E76616C696420506F6C6C2049440000000000000000000000000000000000 PUSH0 DUP3 ADD MSTORE POP JUMP JUMPDEST PUSH0 PUSH2 0x110D PUSH1 0xF DUP4 PUSH2 0x9EC JUMP JUMPDEST SWAP2 POP PUSH2 0x1118 DUP3 PUSH2 0x10D9 JUMP JUMPDEST PUSH1 0x20 DUP3 ADD SWAP1 POP SWAP2 SWAP1 POP JUMP JUMPDEST PUSH0 PUSH1 0x20 DUP3 ADD SWAP1 POP DUP2 DUP2 SUB PUSH0 DUP4 ADD MSTORE PUSH2 0x113A DUP2 PUSH2 0x1101 JUMP JUMPDEST SWAP1 POP SWAP2 SWAP1 POP JUMP JUMPDEST PUSH32 0x416C726561647920766F74656400000000000000000000000000000000000000 PUSH0 DUP3 ADD MSTORE POP JUMP JUMPDEST PUSH0 PUSH2 0x1175 PUSH1 0xD DUP4 PUSH2 0x9EC JUMP JUMPDEST SWAP2 POP PUSH2 0x1180 DUP3 PUSH2 0x1141 JUMP JUMPDEST PUSH1 0x20 DUP3 ADD SWAP1 POP SWAP2 SWAP1 POP JUMP JUMPDEST PUSH0 PUSH1 0x20 DUP3 ADD SWAP1 POP DUP2 DUP2 SUB PUSH0 DUP4 ADD MSTORE PUSH2 0x11A2 DUP2 PUSH2 0x1169 JUMP JUMPDEST SWAP1 POP SWAP2 SWAP1 POP JUMP JUMPDEST PUSH32 0x496E76616C6964206F7074696F6E000000000000000000000000000000000000 PUSH0 DUP3 ADD MSTORE POP JUMP JUMPDEST PUSH0 PUSH2 0x11DD PUSH1 0xE DUP4 PUSH2 0x9EC JUMP JUMPDEST SWAP2 POP PUSH2 0x11E8 DUP3 PUSH2 0x11A9 JUMP JUMPDEST PUSH1 0x20 DUP3 ADD SWAP1 POP SWAP2 SWAP1 POP JUMP JUMPDEST PUSH0 PUSH1 0x20 DUP3 ADD SWAP1 POP DUP2 DUP2 SUB PUSH0 DUP4 ADD MSTORE PUSH2 0x120A DUP2 PUSH2 0x11D1 JUMP JUMPDEST SWAP1 POP SWAP2 SWAP1 POP JUMP JUMPDEST PUSH32 0x4E487B7100000000000000000000000000000000000000000000000000000000 PUSH0 MSTORE PUSH1 0x11 PUSH1 0x4 MSTORE PUSH1 0x24 PUSH0 REVERT JUMPDEST PUSH0 PUSH2 0x1248 DUP3 PUSH2 0x984 JUMP JUMPDEST SWAP2 POP PUSH32 0xFFFFFFFFFFFFFFFFFFFFFFFFFFFFFFFFFFFFFFFFFFFFFFFFFFFFFFFFFFFFFFFF DUP3 SUB PUSH2 0x127A JUMPI PUSH2 0x1279 PUSH2 0x1211 JUMP JUMPDEST JUMPDEST PUSH1 0x1 DUP3 ADD SWAP1 POP SWAP2 SWAP1 POP JUMP JUMPDEST PUSH0 PUSH20 0xFFFFFFFFFFFFFFFFFFFFFFFFFFFFFFFFFFFFFFFF DUP3 AND SWAP1 POP SWAP2 SWAP1 POP JUMP JUMPDEST PUSH0 PUSH2 0x12AE DUP3 PUSH2 0x1285 JUMP JUMPDEST SWAP1 POP SWAP2 SWAP1 POP JUMP JUMPDEST PUSH2 0x12BE DUP2 PUSH2 0x12A4 JUMP JUMPDEST DUP3 MSTORE POP POP JUMP JUMPDEST PUSH0 PUSH1 0x40 DUP3 ADD SWAP1 POP PUSH2 0x12D7 PUSH0 DUP4 ADD DUP6 PUSH2 0x12B5 JUMP JUMPDEST PUSH2 0x12E4 PUSH1 0x20 DUP4 ADD DUP5 PUSH2 0xB73 JUMP JUMPDEST SWAP4 SWAP3 POP POP POP JUMP JUMPDEST PUSH32 0x4E6F206F7074696F6E732070726F766964656400000000000000000000000000 PUSH0 DUP3 ADD MSTORE POP JUMP JUMPDEST PUSH0 PUSH2 0x131F PUSH1 0x13 DUP4 PUSH2 0x9EC JUMP JUMPDEST SWAP2 POP PUSH2 0x132A DUP3 PUSH2 0x12EB JUMP JUMPDEST PUSH1 0x20 DUP3 ADD SWAP1 POP SWAP2 SWAP1 POP JUMP JUMPDEST PUSH0 PUSH1 0x20 DUP3 ADD SWAP1 POP DUP2 DUP2 SUB PUSH0 DUP4 ADD MSTORE PUSH2 0x134C DUP2 PUSH2 0x1313 JUMP JUMPDEST SWAP1 POP SWAP2 SWAP1 POP JUMP JUMPDEST PUSH0 PUSH2 0x135D DUP3 PUSH2 0x984 JUMP JUMPDEST SWAP2 POP PUSH2 0x1368 DUP4 PUSH2 0x984 JUMP JUMPDEST SWAP3 POP DUP3 DUP3 SUB SWAP1 POP DUP2 DUP2 GT ISZERO PUSH2 0x1380 JUMPI PUSH2 0x137F PUSH2 0x1211 JUMP JUMPDEST JUMPDEST SWAP3 SWAP2 POP POP JUMP JUMPDEST PUSH0 DUP2 SWAP1 POP DUP2 PUSH0 MSTORE PUSH1 0x20 PUSH0 KECCAK256 SWAP1 POP SWAP2 SWAP1 POP JUMP JUMPDEST PUSH0 PUSH1 0x20 PUSH1 0x1F DUP4 ADD DIV SWAP1 POP SWAP2 SWAP1 POP JUMP JUMPDEST PUSH0 DUP3 DUP3 SHL SWAP1 POP SWAP3 SWAP2 POP POP JUMP JUMPDEST PUSH0 PUSH1 0x8 DUP4 MUL PUSH2 0x13E2 PUSH32 0xFFFFFFFFFFFFFFFFFFFFFFFFFFFFFFFFFFFFFFFFFFFFFFFFFFFFFFFFFFFFFFFF DUP3 PUSH2 0x13A7 JUMP JUMPDEST PUSH2 0x13EC DUP7 DUP4 PUSH2 0x13A7 JUMP JUMPDEST SWAP6 POP DUP1 NOT DUP5 AND SWAP4 POP DUP1 DUP7 AND DUP5 OR SWAP3 POP POP POP SWAP4 SWAP3 POP POP POP JUMP JUMPDEST PUSH0 DUP2 SWAP1 POP SWAP2 SWAP1 POP JUMP JUMPDEST PUSH0 PUSH2 0x1427 PUSH2 0x1422 PUSH2 0x141D DUP5 PUSH2 0x984 JUMP JUMPDEST PUSH2 0x1404 JUMP JUMPDEST PUSH2 0x984 JUMP JUMPDEST SWAP1 POP SWAP2 SWAP1 POP JUMP JUMPDEST PUSH0 DUP2 SWAP1 POP SWAP2 SWAP1 POP JUMP JUMPDEST PUSH2 0x1440 DUP4 PUSH2 0x140D JUMP JUMPDEST PUSH2 0x1454 PUSH2 0x144C DUP3 PUSH2 0x142E JUMP JUMPDEST DUP5 DUP5 SLOAD PUSH2 0x13B3 JUMP JUMPDEST DUP3 SSTORE POP POP POP POP JUMP JUMPDEST PUSH0 SWAP1 JUMP JUMPDEST PUSH2 0x1468 PUSH2 0x145C JUMP JUMPDEST PUSH2 0x1473 DUP2 DUP5 DUP5 PUSH2 0x1437 JUMP JUMPDEST POP POP POP JUMP JUMPDEST JUMPDEST DUP2 DUP2 LT ISZERO PUSH2 0x1496 JUMPI PUSH2 0x148B PUSH0 DUP3 PUSH2 0x1460 JUMP JUMPDEST PUSH1 0x1 DUP2 ADD SWAP1 POP PUSH2 0x1479 JUMP JUMPDEST POP POP JUMP JUMPDEST PUSH1 0x1F DUP3 GT ISZERO PUSH2 0x14DB JUMPI PUSH2 0x14AC DUP2 PUSH2 0x1386 JUMP JUMPDEST PUSH2 0x14B5 DUP5 PUSH2 0x1398 JUMP JUMPDEST DUP2 ADD PUSH1 0x20 DUP6 LT ISZERO PUSH2 0x14C4 JUMPI DUP2 SWAP1 POP JUMPDEST PUSH2 0x14D8 PUSH2 0x14D0 DUP6 PUSH2 0x1398 JUMP JUMPDEST DUP4 ADD DUP3 PUSH2 0x1478 JUMP JUMPDEST POP POP JUMPDEST POP POP POP JUMP JUMPDEST PUSH0 DUP3 DUP3 SHR SWAP1 POP SWAP3 SWAP2 POP POP JUMP JUMPDEST PUSH0 PUSH2 0x14FB PUSH0 NOT DUP5 PUSH1 0x8 MUL PUSH2 0x14E0 JUMP JUMPDEST NOT DUP1 DUP4 AND SWAP2 POP POP SWAP3 SWAP2 POP POP JUMP JUMPDEST PUSH0 PUSH2 0x1513 DUP4 DUP4 PUSH2 0x14EC JUMP JUMPDEST SWAP2 POP DUP3 PUSH1 0x2 MUL DUP3 OR SWAP1 POP SWAP3 SWAP2 POP POP JUMP JUMPDEST PUSH2 0x152C DUP3 PUSH2 0x9E2 JUMP JUMPDEST PUSH8 0xFFFFFFFFFFFFFFFF DUP2 GT ISZERO PUSH2 0x1545 JUMPI PUSH2 0x1544 PUSH2 0xD4D JUMP JUMPDEST JUMPDEST PUSH2 0x154F DUP3 SLOAD PUSH2 0x1041 JUMP JUMPDEST PUSH2 0x155A DUP3 DUP3 DUP6 PUSH2 0x149A JUMP JUMPDEST PUSH0 PUSH1 0x20 SWAP1 POP PUSH1 0x1F DUP4 GT PUSH1 0x1 DUP2 EQ PUSH2 0x158B JUMPI PUSH0 DUP5 ISZERO PUSH2 0x1579 JUMPI DUP3 DUP8 ADD MLOAD SWAP1 POP JUMPDEST PUSH2 0x1583 DUP6 DUP3 PUSH2 0x1508 JUMP JUMPDEST DUP7 SSTORE POP PUSH2 0x15EA JUMP JUMPDEST PUSH1 0x1F NOT DUP5 AND PUSH2 0x1599 DUP7 PUSH2 0x1386 JUMP JUMPDEST PUSH0 JUMPDEST DUP3 DUP2 LT ISZERO PUSH2 0x15C0 JUMPI DUP5 DUP10 ADD MLOAD DUP3 SSTORE PUSH1 0x1 DUP3 ADD SWAP2 POP PUSH1 0x20 DUP6 ADD SWAP5 POP PUSH1 0x20 DUP2 ADD SWAP1 POP PUSH2 0x159B JUMP JUMPDEST DUP7 DUP4 LT ISZERO PUSH2 0x15DD JUMPI DUP5 DUP10 ADD MLOAD PUSH2 0x15D9 PUSH1 0x1F DUP10 AND DUP3 PUSH2 0x14EC JUMP JUMPDEST DUP4 SSTORE POP JUMPDEST PUSH1 0x1 PUSH1 0x2 DUP9 MUL ADD DUP9 SSTORE POP POP POP JUMPDEST POP POP POP POP POP POP JUMP JUMPDEST PUSH0 PUSH2 0x15FC DUP3 PUSH2 0xB12 JUMP JUMPDEST SWAP2 POP PUSH2 0x1607 DUP4 PUSH2 0xB12 JUMP JUMPDEST SWAP3 POP DUP3 DUP3 ADD SWAP1 POP PUSH4 0xFFFFFFFF DUP2 GT ISZERO PUSH2 0x1623 JUMPI PUSH2 0x1622 PUSH2 0x1211 JUMP JUMPDEST JUMPDEST SWAP3 SWAP2 POP POP JUMP JUMPDEST PUSH0 PUSH2 0x1643 PUSH2 0x163E PUSH2 0x1639 DUP5 PUSH2 0xB12 JUMP JUMPDEST PUSH2 0x1404 JUMP JUMPDEST PUSH2 0x984 JUMP JUMPDEST SWAP1 POP SWAP2 SWAP1 POP JUMP JUMPDEST PUSH2 0x1653 DUP2 PUSH2 0x1629 JUMP JUMPDEST DUP3 MSTORE POP POP JUMP JUMPDEST PUSH0 PUSH1 0x60 DUP3 ADD SWAP1 POP DUP2 DUP2 SUB PUSH0 DUP4 ADD MSTORE PUSH2 0x1671 DUP2 DUP7 PUSH2 0xA1A JUMP JUMPDEST SWAP1 POP DUP2 DUP2 SUB PUSH1 0x20 DUP4 ADD MSTORE PUSH2 0x1685 DUP2 DUP6 PUSH2 0xAB6 JUMP JUMPDEST SWAP1 POP PUSH2 0x1694 PUSH1 0x40 DUP4 ADD DUP5 PUSH2 0x164A JUMP JUMPDEST SWAP5 SWAP4 POP POP POP POP JUMP INVALID LOG2 PUSH5 0x6970667358 0x22 SLT KECCAK256 LOG4 TLOAD 0x4E BLOCKHASH PUSH11 0x1C2A9EF84E94A2640F7FA1 0xF 0xE3 0xA7 0xD5 CALLDATASIZE 0xD2 EXTCODEHASH 0xD1 TLOAD PUSH14 0xFEEE5F60AD564736F6C63430008 BYTE STOP CALLER "
				},
				"gasEstimates": {
					"creation": {
						"codeDepositCost": "1168400",
						"executionCost": "1212",
						"totalCost": "1169612"
					},
					"external": {
						"createPoll(string,bytes32[],uint32)": "infinite",
						"getPoll(uint256)": "infinite",
						"getResults(uint256)": "infinite",
						"getTotalPolls()": "2440",
						"polls(uint256)": "infinite",
						"vote(uint256,bytes32)": "infinite"
					},
					"internal": {
						"isValidOption(bytes32[] memory,bytes32)": "infinite"
					}
				},
				"methodIdentifiers": {
					"createPoll(string,bytes32[],uint32)": "b4e94908",
					"getPoll(uint256)": "1a8cbcaa",
					"getResults(uint256)": "81a60c0d",
					"getTotalPolls()": "3ef87d54",
					"polls(uint256)": "ac2f0074",
					"vote(uint256,bytes32)": "68bb8bb6"
				}
			},
			"storageLayout": {
				"storage": [
					{
						"astId": 22,
						"contract": "VotingTheory/polls.sol:Polls",
						"label": "polls",
						"offset": 0,
						"slot": "0",
						"type": "t_array(t_struct(Poll)18_storage)dyn_storage"
					}
				],
				"types": {
					"t_address": {
						"encoding": "inplace",
						"label": "address",
						"numberOfBytes": "20"
					},
					"t_array(t_bytes32)dyn_storage": {
						"base": "t_bytes32",
						"encoding": "dynamic_array",
						"label": "bytes32[]",
						"numberOfBytes": "32"
					},
					"t_array(t_struct(Poll)18_storage)dyn_storage": {
						"base": "t_struct(Poll)18_storage",
						"encoding": "dynamic_array",
						"label": "struct Polls.Poll[]",
						"numberOfBytes": "32"
					},
					"t_bool": {
						"encoding": "inplace",
						"label": "bool",
						"numberOfBytes": "1"
					},
					"t_bytes32": {
						"encoding": "inplace",
						"label": "bytes32",
						"numberOfBytes": "32"
					},
					"t_mapping(t_address,t_bool)": {
						"encoding": "mapping",
						"key": "t_address",
						"label": "mapping(address => bool)",
						"numberOfBytes": "32",
						"value": "t_bool"
					},
					"t_mapping(t_bytes32,t_uint256)": {
						"encoding": "mapping",
						"key": "t_bytes32",
						"label": "mapping(bytes32 => uint256)",
						"numberOfBytes": "32",
						"value": "t_uint256"
					},
					"t_string_storage": {
						"encoding": "bytes",
						"label": "string",
						"numberOfBytes": "32"
					},
					"t_struct(Poll)18_storage": {
						"encoding": "inplace",
						"label": "struct Polls.Poll",
						"members": [
							{
								"astId": 4,
								"contract": "VotingTheory/polls.sol:Polls",
								"label": "title",
								"offset": 0,
								"slot": "0",
								"type": "t_string_storage"
							},
							{
								"astId": 7,
								"contract": "VotingTheory/polls.sol:Polls",
								"label": "options",
								"offset": 0,
								"slot": "1",
								"type": "t_array(t_bytes32)dyn_storage"
							},
							{
								"astId": 9,
								"contract": "VotingTheory/polls.sol:Polls",
								"label": "endTime",
								"offset": 0,
								"slot": "2",
								"type": "t_uint32"
							},
							{
								"astId": 13,
								"contract": "VotingTheory/polls.sol:Polls",
								"label": "votes",
								"offset": 0,
								"slot": "3",
								"type": "t_mapping(t_bytes32,t_uint256)"
							},
							{
								"astId": 17,
								"contract": "VotingTheory/polls.sol:Polls",
								"label": "voted",
								"offset": 0,
								"slot": "4",
								"type": "t_mapping(t_address,t_bool)"
							}
						],
						"numberOfBytes": "160"
					},
					"t_uint256": {
						"encoding": "inplace",
						"label": "uint256",
						"numberOfBytes": "32"
					},
					"t_uint32": {
						"encoding": "inplace",
						"label": "uint32",
						"numberOfBytes": "4"
					}
				}
			},
			"userdoc": {
				"kind": "user",
				"methods": {},
				"notice": "You can use this contract for only the most basic voting",
				"version": 1
			}
		}
	}
}