{
	"VotingTheory/polls.sol": {
		"Polls": {
			"abi": [
				{
					"anonymous": false,
					"inputs": [
						{
							"indexed": false,
							"internalType": "string",
							"name": "title",
							"type": "string"
						},
						{
							"indexed": false,
							"internalType": "string[]",
							"name": "options",
							"type": "string[]"
						},
						{
							"indexed": false,
							"internalType": "uint256",
							"name": "duration",
							"type": "uint256"
						}
					],
					"name": "PollCreated",
					"type": "event"
				},
				{
					"anonymous": false,
					"inputs": [
						{
							"indexed": false,
							"internalType": "bytes",
							"name": "",
							"type": "bytes"
						}
					],
					"name": "Voted",
					"type": "event"
				},
				{
					"inputs": [
						{
							"internalType": "string",
							"name": "_title",
							"type": "string"
						},
						{
							"internalType": "string[]",
							"name": "_options",
							"type": "string[]"
						},
						{
							"internalType": "uint32",
							"name": "_duration",
							"type": "uint32"
						}
					],
					"name": "createPoll",
					"outputs": [
						{
							"internalType": "uint256",
							"name": "",
							"type": "uint256"
						}
					],
					"stateMutability": "nonpayable",
					"type": "function"
				},
				{
					"inputs": [
						{
							"internalType": "uint256",
							"name": "_pollId",
							"type": "uint256"
						}
					],
					"name": "getResults",
					"outputs": [
						{
							"internalType": "string[]",
							"name": "",
							"type": "string[]"
						},
						{
							"internalType": "uint256[]",
							"name": "",
							"type": "uint256[]"
						}
					],
					"stateMutability": "view",
					"type": "function"
				},
				{
					"inputs": [
						{
							"internalType": "uint256",
							"name": "_pollId",
							"type": "uint256"
						},
						{
							"internalType": "string",
							"name": "_option",
							"type": "string"
						}
					],
					"name": "vote",
					"outputs": [],
					"stateMutability": "nonpayable",
					"type": "function"
				}
			],
			"devdoc": {
				"author": "Navin Rajmohan",
				"custom:experimental": "This is an experimental contract.",
				"details": "All function calls are currently implemented without side effects",
				"kind": "dev",
				"methods": {
					"createPoll(string,string[],uint32)": {
						"details": "A function to create the poll in DApp"
					},
					"getResults(uint256)": {
						"details": "A function to retrieve the votes"
					},
					"vote(uint256,string)": {
						"details": "A fucntion to make the vote"
					}
				},
				"title": "A contract for managing polls",
				"version": 1
			},
			"evm": {
				"assembly": "    /* \"VotingTheory/polls.sol\":337:3031  contract Polls {... */\n  mstore(0x40, 0x80)\n  callvalue\n  dup1\n  iszero\n  tag_1\n  jumpi\n  0x00\n  dup1\n  revert\ntag_1:\n  pop\n  dataSize(sub_0)\n  dup1\n  dataOffset(sub_0)\n  0x00\n  codecopy\n  0x00\n  return\nstop\n\nsub_0: assembly {\n        /* \"VotingTheory/polls.sol\":337:3031  contract Polls {... */\n      mstore(0x40, 0x80)\n      callvalue\n      dup1\n      iszero\n      tag_1\n      jumpi\n      0x00\n      dup1\n      revert\n    tag_1:\n      pop\n      jumpi(tag_2, lt(calldatasize, 0x04))\n      shr(0xe0, calldataload(0x00))\n      dup1\n      0x1f252a8e\n      eq\n      tag_3\n      jumpi\n      dup1\n      0x24108475\n      eq\n      tag_4\n      jumpi\n      dup1\n      0x81a60c0d\n      eq\n      tag_5\n      jumpi\n    tag_2:\n      0x00\n      dup1\n      revert\n        /* \"VotingTheory/polls.sol\":1070:1585  function createPoll(string memory _title, string[] memory _options, uint32 _duration) public returns (uint256) {... */\n    tag_3:\n      tag_6\n      0x04\n      dup1\n      calldatasize\n      sub\n      dup2\n      add\n      swap1\n      tag_7\n      swap2\n      swap1\n      tag_8\n      jump\t// in\n    tag_7:\n      tag_9\n      jump\t// in\n    tag_6:\n      mload(0x40)\n      tag_10\n      swap2\n      swap1\n      tag_11\n      jump\t// in\n    tag_10:\n      mload(0x40)\n      dup1\n      swap2\n      sub\n      swap1\n      return\n        /* \"VotingTheory/polls.sol\":1632:2183  function vote(uint256 _pollId, string memory _option) public onlyActive(_pollId) {... */\n    tag_4:\n      tag_12\n      0x04\n      dup1\n      calldatasize\n      sub\n      dup2\n      add\n      swap1\n      tag_13\n      swap2\n      swap1\n      tag_14\n      jump\t// in\n    tag_13:\n      tag_15\n      jump\t// in\n    tag_12:\n      stop\n        /* \"VotingTheory/polls.sol\":2655:3029  function getResults(uint256 _pollId) external view returns (string[] memory, uint256[] memory) {... */\n    tag_5:\n      tag_16\n      0x04\n      dup1\n      calldatasize\n      sub\n      dup2\n      add\n      swap1\n      tag_17\n      swap2\n      swap1\n      tag_18\n      jump\t// in\n    tag_17:\n      tag_19\n      jump\t// in\n    tag_16:\n      mload(0x40)\n      tag_20\n      swap3\n      swap2\n      swap1\n      tag_21\n      jump\t// in\n    tag_20:\n      mload(0x40)\n      dup1\n      swap2\n      sub\n      swap1\n      return\n        /* \"VotingTheory/polls.sol\":1070:1585  function createPoll(string memory _title, string[] memory _options, uint32 _duration) public returns (uint256) {... */\n    tag_9:\n        /* \"VotingTheory/polls.sol\":1172:1179  uint256 */\n      0x00\n        /* \"VotingTheory/polls.sol\":1218:1219  0 */\n      dup1\n        /* \"VotingTheory/polls.sol\":1200:1208  _options */\n      dup4\n        /* \"VotingTheory/polls.sol\":1200:1215  _options.length */\n      mload\n        /* \"VotingTheory/polls.sol\":1200:1219  _options.length > 0 */\n      gt\n        /* \"VotingTheory/polls.sol\":1191:1243  require (_options.length > 0, \"No options provided\") */\n      tag_23\n      jumpi\n      mload(0x40)\n      0x08c379a000000000000000000000000000000000000000000000000000000000\n      dup2\n      mstore\n      0x04\n      add\n      tag_24\n      swap1\n      tag_25\n      jump\t// in\n    tag_24:\n      mload(0x40)\n      dup1\n      swap2\n      sub\n      swap1\n      revert\n    tag_23:\n        /* \"VotingTheory/polls.sol\":1253:1258  polls */\n      0x00\n        /* \"VotingTheory/polls.sol\":1253:1265  polls.push() */\n      0x01\n      dup2\n      0x01\n      dup2\n      sload\n      add\n      dup1\n      dup3\n      sstore\n      dup1\n      swap2\n      pop\n      pop\n      sub\n      swap1\n      0x00\n      mstore\n      keccak256(0x00, 0x20)\n      swap1\n      pop\n      pop\n        /* \"VotingTheory/polls.sol\":1275:1289  uint256 pollId */\n      0x00\n        /* \"VotingTheory/polls.sol\":1307:1308  1 */\n      0x01\n        /* \"VotingTheory/polls.sol\":1292:1297  polls */\n      0x00\n        /* \"VotingTheory/polls.sol\":1292:1304  polls.length */\n      dup1\n      sload\n      swap1\n      pop\n        /* \"VotingTheory/polls.sol\":1292:1308  polls.length - 1 */\n      tag_27\n      swap2\n      swap1\n      tag_28\n      jump\t// in\n    tag_27:\n        /* \"VotingTheory/polls.sol\":1275:1308  uint256 pollId = polls.length - 1 */\n      swap1\n      pop\n        /* \"VotingTheory/polls.sol\":1318:1335  Poll storage poll */\n      0x00\n        /* \"VotingTheory/polls.sol\":1338:1343  polls */\n      dup1\n        /* \"VotingTheory/polls.sol\":1344:1350  pollId */\n      dup3\n        /* \"VotingTheory/polls.sol\":1338:1351  polls[pollId] */\n      dup2\n      sload\n      dup2\n      lt\n      tag_29\n      jumpi\n      tag_30\n      tag_31\n      jump\t// in\n    tag_30:\n    tag_29:\n      swap1\n      0x00\n      mstore\n      keccak256(0x00, 0x20)\n      swap1\n      0x05\n      mul\n      add\n        /* \"VotingTheory/polls.sol\":1318:1351  Poll storage poll = polls[pollId] */\n      swap1\n      pop\n        /* \"VotingTheory/polls.sol\":1374:1380  _title */\n      dup6\n        /* \"VotingTheory/polls.sol\":1361:1365  poll */\n      dup2\n        /* \"VotingTheory/polls.sol\":1361:1371  poll.title */\n      0x00\n      add\n        /* \"VotingTheory/polls.sol\":1361:1380  poll.title = _title */\n      swap1\n      dup2\n      tag_33\n      swap2\n      swap1\n      tag_34\n      jump\t// in\n    tag_33:\n      pop\n        /* \"VotingTheory/polls.sol\":1406:1414  _options */\n      dup5\n        /* \"VotingTheory/polls.sol\":1390:1394  poll */\n      dup2\n        /* \"VotingTheory/polls.sol\":1390:1402  poll.options */\n      0x01\n      add\n        /* \"VotingTheory/polls.sol\":1390:1414  poll.options =  _options */\n      swap1\n      dup1\n      mload\n      swap1\n      0x20\n      add\n      swap1\n      tag_35\n      swap3\n      swap2\n      swap1\n      tag_36\n      jump\t// in\n    tag_35:\n      pop\n        /* \"VotingTheory/polls.sol\":1465:1474  _duration */\n      dup4\n        /* \"VotingTheory/polls.sol\":1446:1461  block.timestamp */\n      timestamp\n        /* \"VotingTheory/polls.sol\":1439:1474  uint32(block.timestamp) + _duration */\n      tag_37\n      swap2\n      swap1\n      tag_38\n      jump\t// in\n    tag_37:\n        /* \"VotingTheory/polls.sol\":1424:1428  poll */\n      dup2\n        /* \"VotingTheory/polls.sol\":1424:1436  poll.endTime */\n      0x02\n      add\n      0x00\n        /* \"VotingTheory/polls.sol\":1424:1474  poll.endTime = uint32(block.timestamp) + _duration */\n      0x0100\n      exp\n      dup2\n      sload\n      dup2\n      0xffffffff\n      mul\n      not\n      and\n      swap1\n      dup4\n      0xffffffff\n      and\n      mul\n      or\n      swap1\n      sstore\n      pop\n        /* \"VotingTheory/polls.sol\":1515:1555  PollCreated(_title, _options, _duration) */\n      0x1ededd90e900e0bd1754831e81e2f375c8a8fbc71eeeb8d6610ae6ec1afc880e\n        /* \"VotingTheory/polls.sol\":1527:1533  _title */\n      dup7\n        /* \"VotingTheory/polls.sol\":1535:1543  _options */\n      dup7\n        /* \"VotingTheory/polls.sol\":1545:1554  _duration */\n      dup7\n        /* \"VotingTheory/polls.sol\":1515:1555  PollCreated(_title, _options, _duration) */\n      mload(0x40)\n      tag_39\n      swap4\n      swap3\n      swap2\n      swap1\n      tag_40\n      jump\t// in\n    tag_39:\n      mload(0x40)\n      dup1\n      swap2\n      sub\n      swap1\n      log1\n        /* \"VotingTheory/polls.sol\":1572:1578  pollId */\n      dup2\n        /* \"VotingTheory/polls.sol\":1565:1578  return pollId */\n      swap3\n      pop\n      pop\n      pop\n        /* \"VotingTheory/polls.sol\":1070:1585  function createPoll(string memory _title, string[] memory _options, uint32 _duration) public returns (uint256) {... */\n      swap4\n      swap3\n      pop\n      pop\n      pop\n      jump\t// out\n        /* \"VotingTheory/polls.sol\":1632:2183  function vote(uint256 _pollId, string memory _option) public onlyActive(_pollId) {... */\n    tag_15:\n        /* \"VotingTheory/polls.sol\":1704:1711  _pollId */\n      dup2\n        /* \"VotingTheory/polls.sol\":957:962  polls */\n      0x00\n        /* \"VotingTheory/polls.sol\":963:970  _pollId */\n      dup2\n        /* \"VotingTheory/polls.sol\":957:971  polls[_pollId] */\n      dup2\n      sload\n      dup2\n      lt\n      tag_42\n      jumpi\n      tag_43\n      tag_31\n      jump\t// in\n    tag_43:\n    tag_42:\n      swap1\n      0x00\n      mstore\n      keccak256(0x00, 0x20)\n      swap1\n      0x05\n      mul\n      add\n        /* \"VotingTheory/polls.sol\":957:979  polls[_pollId].endTime */\n      0x02\n      add\n      0x00\n      swap1\n      sload\n      swap1\n      0x0100\n      exp\n      swap1\n      div\n      0xffffffff\n      and\n        /* \"VotingTheory/polls.sol\":939:979  block.timestamp < polls[_pollId].endTime */\n      0xffffffff\n      and\n        /* \"VotingTheory/polls.sol\":939:954  block.timestamp */\n      timestamp\n        /* \"VotingTheory/polls.sol\":939:979  block.timestamp < polls[_pollId].endTime */\n      lt\n        /* \"VotingTheory/polls.sol\":931:995  require(block.timestamp < polls[_pollId].endTime, \"Poll closed\") */\n      tag_45\n      jumpi\n      mload(0x40)\n      0x08c379a000000000000000000000000000000000000000000000000000000000\n      dup2\n      mstore\n      0x04\n      add\n      tag_46\n      swap1\n      tag_47\n      jump\t// in\n    tag_46:\n      mload(0x40)\n      dup1\n      swap2\n      sub\n      swap1\n      revert\n    tag_45:\n        /* \"VotingTheory/polls.sol\":1743:1748  polls */\n      0x00\n        /* \"VotingTheory/polls.sol\":1743:1755  polls.length */\n      dup1\n      sload\n      swap1\n      pop\n        /* \"VotingTheory/polls.sol\":1732:1739  _pollId */\n      dup4\n        /* \"VotingTheory/polls.sol\":1732:1755  _pollId <= polls.length */\n      gt\n      iszero\n        /* \"VotingTheory/polls.sol\":1723:1775  require (_pollId <= polls.length, \"Invalid Poll ID\") */\n      tag_49\n      jumpi\n      mload(0x40)\n      0x08c379a000000000000000000000000000000000000000000000000000000000\n      dup2\n      mstore\n      0x04\n      add\n      tag_50\n      swap1\n      tag_51\n      jump\t// in\n    tag_50:\n      mload(0x40)\n      dup1\n      swap2\n      sub\n      swap1\n      revert\n    tag_49:\n        /* \"VotingTheory/polls.sol\":1872:1889  Poll storage poll */\n      0x00\n        /* \"VotingTheory/polls.sol\":1892:1897  polls */\n      dup1\n        /* \"VotingTheory/polls.sol\":1898:1905  _pollId */\n      dup5\n        /* \"VotingTheory/polls.sol\":1892:1906  polls[_pollId] */\n      dup2\n      sload\n      dup2\n      lt\n      tag_52\n      jumpi\n      tag_53\n      tag_31\n      jump\t// in\n    tag_53:\n    tag_52:\n      swap1\n      0x00\n      mstore\n      keccak256(0x00, 0x20)\n      swap1\n      0x05\n      mul\n      add\n        /* \"VotingTheory/polls.sol\":1872:1906  Poll storage poll = polls[_pollId] */\n      swap1\n      pop\n        /* \"VotingTheory/polls.sol\":1926:1930  poll */\n      dup1\n        /* \"VotingTheory/polls.sol\":1926:1936  poll.voted */\n      0x04\n      add\n        /* \"VotingTheory/polls.sol\":1926:1948  poll.voted[msg.sender] */\n      0x00\n        /* \"VotingTheory/polls.sol\":1937:1947  msg.sender */\n      caller\n        /* \"VotingTheory/polls.sol\":1926:1948  poll.voted[msg.sender] */\n      0xffffffffffffffffffffffffffffffffffffffff\n      and\n      0xffffffffffffffffffffffffffffffffffffffff\n      and\n      dup2\n      mstore\n      0x20\n      add\n      swap1\n      dup2\n      mstore\n      0x20\n      add\n      0x00\n      keccak256\n      0x00\n      swap1\n      sload\n      swap1\n      0x0100\n      exp\n      swap1\n      div\n      0xff\n      and\n        /* \"VotingTheory/polls.sol\":1925:1948  !poll.voted[msg.sender] */\n      iszero\n        /* \"VotingTheory/polls.sol\":1916:1966  require (!poll.voted[msg.sender], \"Already voted\") */\n      tag_55\n      jumpi\n      mload(0x40)\n      0x08c379a000000000000000000000000000000000000000000000000000000000\n      dup2\n      mstore\n      0x04\n      add\n      tag_56\n      swap1\n      tag_57\n      jump\t// in\n    tag_56:\n      mload(0x40)\n      dup1\n      swap2\n      sub\n      swap1\n      revert\n    tag_55:\n        /* \"VotingTheory/polls.sol\":1985:2021  isValidOption(poll.options, _option) */\n      tag_58\n        /* \"VotingTheory/polls.sol\":1999:2003  poll */\n      dup2\n        /* \"VotingTheory/polls.sol\":1999:2011  poll.options */\n      0x01\n      add\n        /* \"VotingTheory/polls.sol\":1985:2021  isValidOption(poll.options, _option) */\n      dup1\n      sload\n      dup1\n      0x20\n      mul\n      0x20\n      add\n      mload(0x40)\n      swap1\n      dup2\n      add\n      0x40\n      mstore\n      dup1\n      swap3\n      swap2\n      swap1\n      dup2\n      dup2\n      mstore\n      0x20\n      add\n      0x00\n      swap1\n    tag_59:\n      dup3\n      dup3\n      lt\n      iszero\n      tag_60\n      jumpi\n      dup4\n      dup3\n      swap1\n      0x00\n      mstore\n      keccak256(0x00, 0x20)\n      add\n      dup1\n      sload\n      tag_62\n      swap1\n      tag_63\n      jump\t// in\n    tag_62:\n      dup1\n      0x1f\n      add\n      0x20\n      dup1\n      swap2\n      div\n      mul\n      0x20\n      add\n      mload(0x40)\n      swap1\n      dup2\n      add\n      0x40\n      mstore\n      dup1\n      swap3\n      swap2\n      swap1\n      dup2\n      dup2\n      mstore\n      0x20\n      add\n      dup3\n      dup1\n      sload\n      tag_64\n      swap1\n      tag_63\n      jump\t// in\n    tag_64:\n      dup1\n      iszero\n      tag_65\n      jumpi\n      dup1\n      0x1f\n      lt\n      tag_66\n      jumpi\n      0x0100\n      dup1\n      dup4\n      sload\n      div\n      mul\n      dup4\n      mstore\n      swap2\n      0x20\n      add\n      swap2\n      jump(tag_65)\n    tag_66:\n      dup3\n      add\n      swap2\n      swap1\n      0x00\n      mstore\n      keccak256(0x00, 0x20)\n      swap1\n    tag_67:\n      dup2\n      sload\n      dup2\n      mstore\n      swap1\n      0x01\n      add\n      swap1\n      0x20\n      add\n      dup1\n      dup4\n      gt\n      tag_67\n      jumpi\n      dup3\n      swap1\n      sub\n      0x1f\n      and\n      dup3\n      add\n      swap2\n    tag_65:\n      pop\n      pop\n      pop\n      pop\n      pop\n      dup2\n      mstore\n      0x20\n      add\n      swap1\n      0x01\n      add\n      swap1\n      jump(tag_59)\n    tag_60:\n      pop\n      pop\n      pop\n      pop\n        /* \"VotingTheory/polls.sol\":2013:2020  _option */\n      dup5\n        /* \"VotingTheory/polls.sol\":1985:1998  isValidOption */\n      tag_68\n        /* \"VotingTheory/polls.sol\":1985:2021  isValidOption(poll.options, _option) */\n      jump\t// in\n    tag_58:\n        /* \"VotingTheory/polls.sol\":1976:2040  require (isValidOption(poll.options, _option), \"Invalid option\") */\n      tag_69\n      jumpi\n      mload(0x40)\n      0x08c379a000000000000000000000000000000000000000000000000000000000\n      dup2\n      mstore\n      0x04\n      add\n      tag_70\n      swap1\n      tag_71\n      jump\t// in\n    tag_70:\n      mload(0x40)\n      dup1\n      swap2\n      sub\n      swap1\n      revert\n    tag_69:\n        /* \"VotingTheory/polls.sol\":2050:2054  poll */\n      dup1\n        /* \"VotingTheory/polls.sol\":2050:2060  poll.votes */\n      0x03\n      add\n        /* \"VotingTheory/polls.sol\":2061:2068  _option */\n      dup4\n        /* \"VotingTheory/polls.sol\":2050:2069  poll.votes[_option] */\n      mload(0x40)\n      tag_72\n      swap2\n      swap1\n      tag_73\n      jump\t// in\n    tag_72:\n      swap1\n      dup2\n      mstore\n      0x20\n      add\n      mload(0x40)\n      dup1\n      swap2\n      sub\n      swap1\n      keccak256\n      0x00\n        /* \"VotingTheory/polls.sol\":2050:2071  poll.votes[_option]++ */\n      dup2\n      sload\n      dup1\n      swap3\n      swap2\n      swap1\n      tag_74\n      swap1\n      tag_75\n      jump\t// in\n    tag_74:\n      swap2\n      swap1\n      pop\n      sstore\n      pop\n        /* \"VotingTheory/polls.sol\":2106:2110  true */\n      0x01\n        /* \"VotingTheory/polls.sol\":2081:2085  poll */\n      dup2\n        /* \"VotingTheory/polls.sol\":2081:2091  poll.voted */\n      0x04\n      add\n        /* \"VotingTheory/polls.sol\":2081:2103  poll.voted[msg.sender] */\n      0x00\n        /* \"VotingTheory/polls.sol\":2092:2102  msg.sender */\n      caller\n        /* \"VotingTheory/polls.sol\":2081:2103  poll.voted[msg.sender] */\n      0xffffffffffffffffffffffffffffffffffffffff\n      and\n      0xffffffffffffffffffffffffffffffffffffffff\n      and\n      dup2\n      mstore\n      0x20\n      add\n      swap1\n      dup2\n      mstore\n      0x20\n      add\n      0x00\n      keccak256\n      0x00\n        /* \"VotingTheory/polls.sol\":2081:2110  poll.voted[msg.sender] = true */\n      0x0100\n      exp\n      dup2\n      sload\n      dup2\n      0xff\n      mul\n      not\n      and\n      swap1\n      dup4\n      iszero\n      iszero\n      mul\n      or\n      swap1\n      sstore\n      pop\n        /* \"VotingTheory/polls.sol\":2125:2176  Voted(abi.encodePacked(msg.sender , \" has voted.\")) */\n      0x038712374569e245b0d09fa173eb0b0392e784f9cc7895e53b879dc1f6ef9c2a\n        /* \"VotingTheory/polls.sol\":2148:2158  msg.sender */\n      caller\n        /* \"VotingTheory/polls.sol\":2131:2175  abi.encodePacked(msg.sender , \" has voted.\") */\n      add(0x20, mload(0x40))\n      tag_76\n      swap2\n      swap1\n      tag_77\n      jump\t// in\n    tag_76:\n      mload(0x40)\n      0x20\n      dup2\n      dup4\n      sub\n      sub\n      dup2\n      mstore\n      swap1\n      0x40\n      mstore\n        /* \"VotingTheory/polls.sol\":2125:2176  Voted(abi.encodePacked(msg.sender , \" has voted.\")) */\n      mload(0x40)\n      tag_78\n      swap2\n      swap1\n      tag_79\n      jump\t// in\n    tag_78:\n      mload(0x40)\n      dup1\n      swap2\n      sub\n      swap1\n      log1\n        /* \"VotingTheory/polls.sol\":1713:2183  {... */\n      pop\n        /* \"VotingTheory/polls.sol\":1632:2183  function vote(uint256 _pollId, string memory _option) public onlyActive(_pollId) {... */\n      pop\n      pop\n      pop\n      jump\t// out\n        /* \"VotingTheory/polls.sol\":2655:3029  function getResults(uint256 _pollId) external view returns (string[] memory, uint256[] memory) {... */\n    tag_19:\n        /* \"VotingTheory/polls.sol\":2715:2730  string[] memory */\n      0x60\n        /* \"VotingTheory/polls.sol\":2732:2748  uint256[] memory */\n      dup1\n        /* \"VotingTheory/polls.sol\":2760:2777  Poll storage poll */\n      0x00\n        /* \"VotingTheory/polls.sol\":2780:2785  polls */\n      dup1\n        /* \"VotingTheory/polls.sol\":2786:2793  _pollId */\n      dup5\n        /* \"VotingTheory/polls.sol\":2780:2794  polls[_pollId] */\n      dup2\n      sload\n      dup2\n      lt\n      tag_81\n      jumpi\n      tag_82\n      tag_31\n      jump\t// in\n    tag_82:\n    tag_81:\n      swap1\n      0x00\n      mstore\n      keccak256(0x00, 0x20)\n      swap1\n      0x05\n      mul\n      add\n        /* \"VotingTheory/polls.sol\":2760:2794  Poll storage poll = polls[_pollId] */\n      swap1\n      pop\n        /* \"VotingTheory/polls.sol\":2804:2827  uint256[] memory counts */\n      0x00\n        /* \"VotingTheory/polls.sol\":2844:2848  poll */\n      dup2\n        /* \"VotingTheory/polls.sol\":2844:2856  poll.options */\n      0x01\n      add\n        /* \"VotingTheory/polls.sol\":2844:2863  poll.options.length */\n      dup1\n      sload\n      swap1\n      pop\n        /* \"VotingTheory/polls.sol\":2830:2864  new uint256[](poll.options.length) */\n      0xffffffffffffffff\n      dup2\n      gt\n      iszero\n      tag_84\n      jumpi\n      tag_85\n      tag_86\n      jump\t// in\n    tag_85:\n    tag_84:\n      mload(0x40)\n      swap1\n      dup1\n      dup3\n      mstore\n      dup1\n      0x20\n      mul\n      0x20\n      add\n      dup3\n      add\n      0x40\n      mstore\n      dup1\n      iszero\n      tag_87\n      jumpi\n      dup2\n      0x20\n      add\n      0x20\n      dup3\n      mul\n      dup1\n      calldatasize\n      dup4\n      calldatacopy\n      dup1\n      dup3\n      add\n      swap2\n      pop\n      pop\n      swap1\n      pop\n    tag_87:\n      pop\n        /* \"VotingTheory/polls.sol\":2804:2864  uint256[] memory counts = new uint256[](poll.options.length) */\n      swap1\n      pop\n        /* \"VotingTheory/polls.sol\":2878:2884  uint i */\n      0x00\n        /* \"VotingTheory/polls.sol\":2874:2984  for(uint i = 0; i < poll.options.length; i++) {... */\n    tag_88:\n        /* \"VotingTheory/polls.sol\":2894:2898  poll */\n      dup3\n        /* \"VotingTheory/polls.sol\":2894:2906  poll.options */\n      0x01\n      add\n        /* \"VotingTheory/polls.sol\":2894:2913  poll.options.length */\n      dup1\n      sload\n      swap1\n      pop\n        /* \"VotingTheory/polls.sol\":2890:2891  i */\n      dup2\n        /* \"VotingTheory/polls.sol\":2890:2913  i < poll.options.length */\n      lt\n        /* \"VotingTheory/polls.sol\":2874:2984  for(uint i = 0; i < poll.options.length; i++) {... */\n      iszero\n      tag_89\n      jumpi\n        /* \"VotingTheory/polls.sol\":2946:2950  poll */\n      dup3\n        /* \"VotingTheory/polls.sol\":2946:2956  poll.votes */\n      0x03\n      add\n        /* \"VotingTheory/polls.sol\":2957:2961  poll */\n      dup4\n        /* \"VotingTheory/polls.sol\":2957:2969  poll.options */\n      0x01\n      add\n        /* \"VotingTheory/polls.sol\":2970:2971  i */\n      dup3\n        /* \"VotingTheory/polls.sol\":2957:2972  poll.options[i] */\n      dup2\n      sload\n      dup2\n      lt\n      tag_91\n      jumpi\n      tag_92\n      tag_31\n      jump\t// in\n    tag_92:\n    tag_91:\n      swap1\n      0x00\n      mstore\n      keccak256(0x00, 0x20)\n      add\n        /* \"VotingTheory/polls.sol\":2946:2973  poll.votes[poll.options[i]] */\n      mload(0x40)\n      tag_94\n      swap2\n      swap1\n      tag_95\n      jump\t// in\n    tag_94:\n      swap1\n      dup2\n      mstore\n      0x20\n      add\n      mload(0x40)\n      dup1\n      swap2\n      sub\n      swap1\n      keccak256\n      sload\n        /* \"VotingTheory/polls.sol\":2934:2940  counts */\n      dup3\n        /* \"VotingTheory/polls.sol\":2941:2942  i */\n      dup3\n        /* \"VotingTheory/polls.sol\":2934:2943  counts[i] */\n      dup2\n      mload\n      dup2\n      lt\n      tag_96\n      jumpi\n      tag_97\n      tag_31\n      jump\t// in\n    tag_97:\n    tag_96:\n      0x20\n      mul\n      0x20\n      add\n      add\n        /* \"VotingTheory/polls.sol\":2934:2973  counts[i] = poll.votes[poll.options[i]] */\n      dup2\n      dup2\n      mstore\n      pop\n      pop\n        /* \"VotingTheory/polls.sol\":2915:2918  i++ */\n      dup1\n      dup1\n      0x01\n      add\n      swap2\n      pop\n      pop\n        /* \"VotingTheory/polls.sol\":2874:2984  for(uint i = 0; i < poll.options.length; i++) {... */\n      jump(tag_88)\n    tag_89:\n      pop\n        /* \"VotingTheory/polls.sol\":3001:3005  poll */\n      dup2\n        /* \"VotingTheory/polls.sol\":3001:3013  poll.options */\n      0x01\n      add\n        /* \"VotingTheory/polls.sol\":3015:3021  counts */\n      dup2\n        /* \"VotingTheory/polls.sol\":2993:3022  return (poll.options, counts) */\n      dup2\n      dup1\n      sload\n      dup1\n      0x20\n      mul\n      0x20\n      add\n      mload(0x40)\n      swap1\n      dup2\n      add\n      0x40\n      mstore\n      dup1\n      swap3\n      swap2\n      swap1\n      dup2\n      dup2\n      mstore\n      0x20\n      add\n      0x00\n      swap1\n    tag_98:\n      dup3\n      dup3\n      lt\n      iszero\n      tag_99\n      jumpi\n      dup4\n      dup3\n      swap1\n      0x00\n      mstore\n      keccak256(0x00, 0x20)\n      add\n      dup1\n      sload\n      tag_101\n      swap1\n      tag_63\n      jump\t// in\n    tag_101:\n      dup1\n      0x1f\n      add\n      0x20\n      dup1\n      swap2\n      div\n      mul\n      0x20\n      add\n      mload(0x40)\n      swap1\n      dup2\n      add\n      0x40\n      mstore\n      dup1\n      swap3\n      swap2\n      swap1\n      dup2\n      dup2\n      mstore\n      0x20\n      add\n      dup3\n      dup1\n      sload\n      tag_102\n      swap1\n      tag_63\n      jump\t// in\n    tag_102:\n      dup1\n      iszero\n      tag_103\n      jumpi\n      dup1\n      0x1f\n      lt\n      tag_104\n      jumpi\n      0x0100\n      dup1\n      dup4\n      sload\n      div\n      mul\n      dup4\n      mstore\n      swap2\n      0x20\n      add\n      swap2\n      jump(tag_103)\n    tag_104:\n      dup3\n      add\n      swap2\n      swap1\n      0x00\n      mstore\n      keccak256(0x00, 0x20)\n      swap1\n    tag_105:\n      dup2\n      sload\n      dup2\n      mstore\n      swap1\n      0x01\n      add\n      swap1\n      0x20\n      add\n      dup1\n      dup4\n      gt\n      tag_105\n      jumpi\n      dup3\n      swap1\n      sub\n      0x1f\n      and\n      dup3\n      add\n      swap2\n    tag_103:\n      pop\n      pop\n      pop\n      pop\n      pop\n      dup2\n      mstore\n      0x20\n      add\n      swap1\n      0x01\n      add\n      swap1\n      jump(tag_98)\n    tag_99:\n      pop\n      pop\n      pop\n      pop\n      swap2\n      pop\n      swap4\n      pop\n      swap4\n      pop\n      pop\n      pop\n        /* \"VotingTheory/polls.sol\":2655:3029  function getResults(uint256 _pollId) external view returns (string[] memory, uint256[] memory) {... */\n      swap2\n      pop\n      swap2\n      jump\t// out\n        /* \"VotingTheory/polls.sol\":2251:2603  function isValidOption(string[] memory _options, string memory _option) private pure returns (bool) {... */\n    tag_68:\n        /* \"VotingTheory/polls.sol\":2345:2349  bool */\n      0x00\n        /* \"VotingTheory/polls.sol\":2361:2379  bytes32 optionHash */\n      dup1\n        /* \"VotingTheory/polls.sol\":2398:2405  _option */\n      dup3\n        /* \"VotingTheory/polls.sol\":2382:2407  keccak256(bytes(_option)) */\n      dup1\n      mload\n      swap1\n      0x20\n      add\n      keccak256\n        /* \"VotingTheory/polls.sol\":2361:2407  bytes32 optionHash = keccak256(bytes(_option)) */\n      swap1\n      pop\n        /* \"VotingTheory/polls.sol\":2421:2427  uint i */\n      0x00\n        /* \"VotingTheory/polls.sol\":2417:2575  for(uint i = 0; i < _options.length; i++) {... */\n    tag_107:\n        /* \"VotingTheory/polls.sol\":2437:2445  _options */\n      dup5\n        /* \"VotingTheory/polls.sol\":2437:2452  _options.length */\n      mload\n        /* \"VotingTheory/polls.sol\":2433:2434  i */\n      dup2\n        /* \"VotingTheory/polls.sol\":2433:2452  i < _options.length */\n      lt\n        /* \"VotingTheory/polls.sol\":2417:2575  for(uint i = 0; i < _options.length; i++) {... */\n      iszero\n      tag_108\n      jumpi\n        /* \"VotingTheory/polls.sol\":2509:2519  optionHash */\n      dup2\n        /* \"VotingTheory/polls.sol\":2492:2500  _options */\n      dup6\n        /* \"VotingTheory/polls.sol\":2501:2502  i */\n      dup3\n        /* \"VotingTheory/polls.sol\":2492:2503  _options[i] */\n      dup2\n      mload\n      dup2\n      lt\n      tag_110\n      jumpi\n      tag_111\n      tag_31\n      jump\t// in\n    tag_111:\n    tag_110:\n      0x20\n      mul\n      0x20\n      add\n      add\n      mload\n        /* \"VotingTheory/polls.sol\":2476:2505  keccak256(bytes(_options[i])) */\n      dup1\n      mload\n      swap1\n      0x20\n      add\n      keccak256\n        /* \"VotingTheory/polls.sol\":2476:2519  keccak256(bytes(_options[i])) == optionHash */\n      sub\n        /* \"VotingTheory/polls.sol\":2473:2565  if(keccak256(bytes(_options[i])) == optionHash) {... */\n      tag_112\n      jumpi\n        /* \"VotingTheory/polls.sol\":2546:2550  true */\n      0x01\n        /* \"VotingTheory/polls.sol\":2539:2550  return true */\n      swap3\n      pop\n      pop\n      pop\n      jump(tag_106)\n        /* \"VotingTheory/polls.sol\":2473:2565  if(keccak256(bytes(_options[i])) == optionHash) {... */\n    tag_112:\n        /* \"VotingTheory/polls.sol\":2454:2457  i++ */\n      dup1\n      dup1\n      0x01\n      add\n      swap2\n      pop\n      pop\n        /* \"VotingTheory/polls.sol\":2417:2575  for(uint i = 0; i < _options.length; i++) {... */\n      jump(tag_107)\n    tag_108:\n      pop\n        /* \"VotingTheory/polls.sol\":2591:2596  false */\n      0x00\n        /* \"VotingTheory/polls.sol\":2584:2596  return false */\n      swap2\n      pop\n      pop\n        /* \"VotingTheory/polls.sol\":2251:2603  function isValidOption(string[] memory _options, string memory _option) private pure returns (bool) {... */\n    tag_106:\n      swap3\n      swap2\n      pop\n      pop\n      jump\t// out\n    tag_36:\n      dup3\n      dup1\n      sload\n      dup3\n      dup3\n      sstore\n      swap1\n      0x00\n      mstore\n      keccak256(0x00, 0x20)\n      swap1\n      dup2\n      add\n      swap3\n      dup3\n      iszero\n      tag_113\n      jumpi\n      swap2\n      0x20\n      mul\n      dup3\n      add\n    tag_114:\n      dup3\n      dup2\n      gt\n      iszero\n      tag_115\n      jumpi\n      dup3\n      mload\n      dup3\n      swap1\n      dup2\n      tag_116\n      swap2\n      swap1\n      tag_34\n      jump\t// in\n    tag_116:\n      pop\n      swap2\n      0x20\n      add\n      swap2\n      swap1\n      0x01\n      add\n      swap1\n      jump(tag_114)\n    tag_115:\n    tag_113:\n      pop\n      swap1\n      pop\n      tag_117\n      swap2\n      swap1\n      tag_118\n      jump\t// in\n    tag_117:\n      pop\n      swap1\n      jump\t// out\n    tag_118:\n    tag_119:\n      dup1\n      dup3\n      gt\n      iszero\n      tag_120\n      jumpi\n      0x00\n      dup2\n      dup2\n      tag_121\n      swap2\n      swap1\n      tag_122\n      jump\t// in\n    tag_121:\n      pop\n      0x01\n      add\n      jump(tag_119)\n    tag_120:\n      pop\n      swap1\n      jump\t// out\n    tag_122:\n      pop\n      dup1\n      sload\n      tag_123\n      swap1\n      tag_63\n      jump\t// in\n    tag_123:\n      0x00\n      dup3\n      sstore\n      dup1\n      0x1f\n      lt\n      tag_125\n      jumpi\n      pop\n      jump(tag_124)\n    tag_125:\n      0x1f\n      add\n      0x20\n      swap1\n      div\n      swap1\n      0x00\n      mstore\n      keccak256(0x00, 0x20)\n      swap1\n      dup2\n      add\n      swap1\n      tag_126\n      swap2\n      swap1\n      tag_127\n      jump\t// in\n    tag_126:\n    tag_124:\n      pop\n      jump\t// out\n    tag_127:\n    tag_128:\n      dup1\n      dup3\n      gt\n      iszero\n      tag_129\n      jumpi\n      0x00\n      dup2\n      0x00\n      swap1\n      sstore\n      pop\n      0x01\n      add\n      jump(tag_128)\n    tag_129:\n      pop\n      swap1\n      jump\t// out\n        /* \"#utility.yul\":7:82   */\n    tag_130:\n        /* \"#utility.yul\":40:46   */\n      0x00\n        /* \"#utility.yul\":73:75   */\n      0x40\n        /* \"#utility.yul\":67:76   */\n      mload\n        /* \"#utility.yul\":57:76   */\n      swap1\n      pop\n        /* \"#utility.yul\":7:82   */\n      swap1\n      jump\t// out\n        /* \"#utility.yul\":88:205   */\n    tag_131:\n        /* \"#utility.yul\":197:198   */\n      0x00\n        /* \"#utility.yul\":194:195   */\n      dup1\n        /* \"#utility.yul\":187:199   */\n      revert\n        /* \"#utility.yul\":211:328   */\n    tag_132:\n        /* \"#utility.yul\":320:321   */\n      0x00\n        /* \"#utility.yul\":317:318   */\n      dup1\n        /* \"#utility.yul\":310:322   */\n      revert\n        /* \"#utility.yul\":334:451   */\n    tag_133:\n        /* \"#utility.yul\":443:444   */\n      0x00\n        /* \"#utility.yul\":440:441   */\n      dup1\n        /* \"#utility.yul\":433:445   */\n      revert\n        /* \"#utility.yul\":457:574   */\n    tag_134:\n        /* \"#utility.yul\":566:567   */\n      0x00\n        /* \"#utility.yul\":563:564   */\n      dup1\n        /* \"#utility.yul\":556:568   */\n      revert\n        /* \"#utility.yul\":580:682   */\n    tag_135:\n        /* \"#utility.yul\":621:627   */\n      0x00\n        /* \"#utility.yul\":672:674   */\n      0x1f\n        /* \"#utility.yul\":668:675   */\n      not\n        /* \"#utility.yul\":663:665   */\n      0x1f\n        /* \"#utility.yul\":656:661   */\n      dup4\n        /* \"#utility.yul\":652:666   */\n      add\n        /* \"#utility.yul\":648:676   */\n      and\n        /* \"#utility.yul\":638:676   */\n      swap1\n      pop\n        /* \"#utility.yul\":580:682   */\n      swap2\n      swap1\n      pop\n      jump\t// out\n        /* \"#utility.yul\":688:868   */\n    tag_86:\n        /* \"#utility.yul\":736:813   */\n      0x4e487b7100000000000000000000000000000000000000000000000000000000\n        /* \"#utility.yul\":733:734   */\n      0x00\n        /* \"#utility.yul\":726:814   */\n      mstore\n        /* \"#utility.yul\":833:837   */\n      0x41\n        /* \"#utility.yul\":830:831   */\n      0x04\n        /* \"#utility.yul\":823:838   */\n      mstore\n        /* \"#utility.yul\":857:861   */\n      0x24\n        /* \"#utility.yul\":854:855   */\n      0x00\n        /* \"#utility.yul\":847:862   */\n      revert\n        /* \"#utility.yul\":874:1155   */\n    tag_136:\n        /* \"#utility.yul\":957:984   */\n      tag_224\n        /* \"#utility.yul\":979:983   */\n      dup3\n        /* \"#utility.yul\":957:984   */\n      tag_135\n      jump\t// in\n    tag_224:\n        /* \"#utility.yul\":949:955   */\n      dup2\n        /* \"#utility.yul\":945:985   */\n      add\n        /* \"#utility.yul\":1087:1093   */\n      dup2\n        /* \"#utility.yul\":1075:1085   */\n      dup2\n        /* \"#utility.yul\":1072:1094   */\n      lt\n        /* \"#utility.yul\":1051:1069   */\n      0xffffffffffffffff\n        /* \"#utility.yul\":1039:1049   */\n      dup3\n        /* \"#utility.yul\":1036:1070   */\n      gt\n        /* \"#utility.yul\":1033:1095   */\n      or\n        /* \"#utility.yul\":1030:1118   */\n      iszero\n      tag_225\n      jumpi\n        /* \"#utility.yul\":1098:1116   */\n      tag_226\n      tag_86\n      jump\t// in\n    tag_226:\n        /* \"#utility.yul\":1030:1118   */\n    tag_225:\n        /* \"#utility.yul\":1138:1148   */\n      dup1\n        /* \"#utility.yul\":1134:1136   */\n      0x40\n        /* \"#utility.yul\":1127:1149   */\n      mstore\n        /* \"#utility.yul\":917:1155   */\n      pop\n        /* \"#utility.yul\":874:1155   */\n      pop\n      pop\n      jump\t// out\n        /* \"#utility.yul\":1161:1290   */\n    tag_137:\n        /* \"#utility.yul\":1195:1201   */\n      0x00\n        /* \"#utility.yul\":1222:1242   */\n      tag_228\n      tag_130\n      jump\t// in\n    tag_228:\n        /* \"#utility.yul\":1212:1242   */\n      swap1\n      pop\n        /* \"#utility.yul\":1251:1284   */\n      tag_229\n        /* \"#utility.yul\":1279:1283   */\n      dup3\n        /* \"#utility.yul\":1271:1277   */\n      dup3\n        /* \"#utility.yul\":1251:1284   */\n      tag_136\n      jump\t// in\n    tag_229:\n        /* \"#utility.yul\":1161:1290   */\n      swap2\n      swap1\n      pop\n      jump\t// out\n        /* \"#utility.yul\":1296:1604   */\n    tag_138:\n        /* \"#utility.yul\":1358:1362   */\n      0x00\n        /* \"#utility.yul\":1448:1466   */\n      0xffffffffffffffff\n        /* \"#utility.yul\":1440:1446   */\n      dup3\n        /* \"#utility.yul\":1437:1467   */\n      gt\n        /* \"#utility.yul\":1434:1490   */\n      iszero\n      tag_231\n      jumpi\n        /* \"#utility.yul\":1470:1488   */\n      tag_232\n      tag_86\n      jump\t// in\n    tag_232:\n        /* \"#utility.yul\":1434:1490   */\n    tag_231:\n        /* \"#utility.yul\":1508:1537   */\n      tag_233\n        /* \"#utility.yul\":1530:1536   */\n      dup3\n        /* \"#utility.yul\":1508:1537   */\n      tag_135\n      jump\t// in\n    tag_233:\n        /* \"#utility.yul\":1500:1537   */\n      swap1\n      pop\n        /* \"#utility.yul\":1592:1596   */\n      0x20\n        /* \"#utility.yul\":1586:1590   */\n      dup2\n        /* \"#utility.yul\":1582:1597   */\n      add\n        /* \"#utility.yul\":1574:1597   */\n      swap1\n      pop\n        /* \"#utility.yul\":1296:1604   */\n      swap2\n      swap1\n      pop\n      jump\t// out\n        /* \"#utility.yul\":1610:1758   */\n    tag_139:\n        /* \"#utility.yul\":1708:1714   */\n      dup3\n        /* \"#utility.yul\":1703:1706   */\n      dup2\n        /* \"#utility.yul\":1698:1701   */\n      dup4\n        /* \"#utility.yul\":1685:1715   */\n      calldatacopy\n        /* \"#utility.yul\":1749:1750   */\n      0x00\n        /* \"#utility.yul\":1740:1746   */\n      dup4\n        /* \"#utility.yul\":1735:1738   */\n      dup4\n        /* \"#utility.yul\":1731:1747   */\n      add\n        /* \"#utility.yul\":1724:1751   */\n      mstore\n        /* \"#utility.yul\":1610:1758   */\n      pop\n      pop\n      pop\n      jump\t// out\n        /* \"#utility.yul\":1764:2189   */\n    tag_140:\n        /* \"#utility.yul\":1842:1847   */\n      0x00\n        /* \"#utility.yul\":1867:1933   */\n      tag_236\n        /* \"#utility.yul\":1883:1932   */\n      tag_237\n        /* \"#utility.yul\":1925:1931   */\n      dup5\n        /* \"#utility.yul\":1883:1932   */\n      tag_138\n      jump\t// in\n    tag_237:\n        /* \"#utility.yul\":1867:1933   */\n      tag_137\n      jump\t// in\n    tag_236:\n        /* \"#utility.yul\":1858:1933   */\n      swap1\n      pop\n        /* \"#utility.yul\":1956:1962   */\n      dup3\n        /* \"#utility.yul\":1949:1954   */\n      dup2\n        /* \"#utility.yul\":1942:1963   */\n      mstore\n        /* \"#utility.yul\":1994:1998   */\n      0x20\n        /* \"#utility.yul\":1987:1992   */\n      dup2\n        /* \"#utility.yul\":1983:1999   */\n      add\n        /* \"#utility.yul\":2032:2035   */\n      dup5\n        /* \"#utility.yul\":2023:2029   */\n      dup5\n        /* \"#utility.yul\":2018:2021   */\n      dup5\n        /* \"#utility.yul\":2014:2030   */\n      add\n        /* \"#utility.yul\":2011:2036   */\n      gt\n        /* \"#utility.yul\":2008:2120   */\n      iszero\n      tag_238\n      jumpi\n        /* \"#utility.yul\":2039:2118   */\n      tag_239\n      tag_134\n      jump\t// in\n    tag_239:\n        /* \"#utility.yul\":2008:2120   */\n    tag_238:\n        /* \"#utility.yul\":2129:2183   */\n      tag_240\n        /* \"#utility.yul\":2176:2182   */\n      dup5\n        /* \"#utility.yul\":2171:2174   */\n      dup3\n        /* \"#utility.yul\":2166:2169   */\n      dup6\n        /* \"#utility.yul\":2129:2183   */\n      tag_139\n      jump\t// in\n    tag_240:\n        /* \"#utility.yul\":1848:2189   */\n      pop\n        /* \"#utility.yul\":1764:2189   */\n      swap4\n      swap3\n      pop\n      pop\n      pop\n      jump\t// out\n        /* \"#utility.yul\":2209:2549   */\n    tag_141:\n        /* \"#utility.yul\":2265:2270   */\n      0x00\n        /* \"#utility.yul\":2314:2317   */\n      dup3\n        /* \"#utility.yul\":2307:2311   */\n      0x1f\n        /* \"#utility.yul\":2299:2305   */\n      dup4\n        /* \"#utility.yul\":2295:2312   */\n      add\n        /* \"#utility.yul\":2291:2318   */\n      slt\n        /* \"#utility.yul\":2281:2403   */\n      tag_242\n      jumpi\n        /* \"#utility.yul\":2322:2401   */\n      tag_243\n      tag_133\n      jump\t// in\n    tag_243:\n        /* \"#utility.yul\":2281:2403   */\n    tag_242:\n        /* \"#utility.yul\":2439:2445   */\n      dup2\n        /* \"#utility.yul\":2426:2446   */\n      calldataload\n        /* \"#utility.yul\":2464:2543   */\n      tag_244\n        /* \"#utility.yul\":2539:2542   */\n      dup5\n        /* \"#utility.yul\":2531:2537   */\n      dup3\n        /* \"#utility.yul\":2524:2528   */\n      0x20\n        /* \"#utility.yul\":2516:2522   */\n      dup7\n        /* \"#utility.yul\":2512:2529   */\n      add\n        /* \"#utility.yul\":2464:2543   */\n      tag_140\n      jump\t// in\n    tag_244:\n        /* \"#utility.yul\":2455:2543   */\n      swap2\n      pop\n        /* \"#utility.yul\":2271:2549   */\n      pop\n        /* \"#utility.yul\":2209:2549   */\n      swap3\n      swap2\n      pop\n      pop\n      jump\t// out\n        /* \"#utility.yul\":2555:2876   */\n    tag_142:\n        /* \"#utility.yul\":2642:2646   */\n      0x00\n        /* \"#utility.yul\":2732:2750   */\n      0xffffffffffffffff\n        /* \"#utility.yul\":2724:2730   */\n      dup3\n        /* \"#utility.yul\":2721:2751   */\n      gt\n        /* \"#utility.yul\":2718:2774   */\n      iszero\n      tag_246\n      jumpi\n        /* \"#utility.yul\":2754:2772   */\n      tag_247\n      tag_86\n      jump\t// in\n    tag_247:\n        /* \"#utility.yul\":2718:2774   */\n    tag_246:\n        /* \"#utility.yul\":2804:2808   */\n      0x20\n        /* \"#utility.yul\":2796:2802   */\n      dup3\n        /* \"#utility.yul\":2792:2809   */\n      mul\n        /* \"#utility.yul\":2784:2809   */\n      swap1\n      pop\n        /* \"#utility.yul\":2864:2868   */\n      0x20\n        /* \"#utility.yul\":2858:2862   */\n      dup2\n        /* \"#utility.yul\":2854:2869   */\n      add\n        /* \"#utility.yul\":2846:2869   */\n      swap1\n      pop\n        /* \"#utility.yul\":2555:2876   */\n      swap2\n      swap1\n      pop\n      jump\t// out\n        /* \"#utility.yul\":2882:2999   */\n    tag_143:\n        /* \"#utility.yul\":2991:2992   */\n      0x00\n        /* \"#utility.yul\":2988:2989   */\n      dup1\n        /* \"#utility.yul\":2981:2993   */\n      revert\n        /* \"#utility.yul\":3021:3966   */\n    tag_144:\n        /* \"#utility.yul\":3127:3132   */\n      0x00\n        /* \"#utility.yul\":3152:3243   */\n      tag_250\n        /* \"#utility.yul\":3168:3242   */\n      tag_251\n        /* \"#utility.yul\":3235:3241   */\n      dup5\n        /* \"#utility.yul\":3168:3242   */\n      tag_142\n      jump\t// in\n    tag_251:\n        /* \"#utility.yul\":3152:3243   */\n      tag_137\n      jump\t// in\n    tag_250:\n        /* \"#utility.yul\":3143:3243   */\n      swap1\n      pop\n        /* \"#utility.yul\":3263:3268   */\n      dup1\n        /* \"#utility.yul\":3292:3298   */\n      dup4\n        /* \"#utility.yul\":3285:3290   */\n      dup3\n        /* \"#utility.yul\":3278:3299   */\n      mstore\n        /* \"#utility.yul\":3326:3330   */\n      0x20\n        /* \"#utility.yul\":3319:3324   */\n      dup3\n        /* \"#utility.yul\":3315:3331   */\n      add\n        /* \"#utility.yul\":3308:3331   */\n      swap1\n      pop\n        /* \"#utility.yul\":3379:3383   */\n      0x20\n        /* \"#utility.yul\":3371:3377   */\n      dup5\n        /* \"#utility.yul\":3367:3384   */\n      mul\n        /* \"#utility.yul\":3359:3365   */\n      dup4\n        /* \"#utility.yul\":3355:3385   */\n      add\n        /* \"#utility.yul\":3408:3411   */\n      dup6\n        /* \"#utility.yul\":3400:3406   */\n      dup2\n        /* \"#utility.yul\":3397:3412   */\n      gt\n        /* \"#utility.yul\":3394:3516   */\n      iszero\n      tag_252\n      jumpi\n        /* \"#utility.yul\":3427:3506   */\n      tag_253\n      tag_143\n      jump\t// in\n    tag_253:\n        /* \"#utility.yul\":3394:3516   */\n    tag_252:\n        /* \"#utility.yul\":3542:3548   */\n      dup4\n        /* \"#utility.yul\":3525:3960   */\n    tag_254:\n        /* \"#utility.yul\":3559:3565   */\n      dup2\n        /* \"#utility.yul\":3554:3557   */\n      dup2\n        /* \"#utility.yul\":3551:3566   */\n      lt\n        /* \"#utility.yul\":3525:3960   */\n      iszero\n      tag_256\n      jumpi\n        /* \"#utility.yul\":3648:3651   */\n      dup1\n        /* \"#utility.yul\":3635:3652   */\n      calldataload\n        /* \"#utility.yul\":3684:3702   */\n      0xffffffffffffffff\n        /* \"#utility.yul\":3671:3682   */\n      dup2\n        /* \"#utility.yul\":3668:3703   */\n      gt\n        /* \"#utility.yul\":3665:3787   */\n      iszero\n      tag_257\n      jumpi\n        /* \"#utility.yul\":3706:3785   */\n      tag_258\n      tag_133\n      jump\t// in\n    tag_258:\n        /* \"#utility.yul\":3665:3787   */\n    tag_257:\n        /* \"#utility.yul\":3830:3841   */\n      dup1\n        /* \"#utility.yul\":3822:3828   */\n      dup7\n        /* \"#utility.yul\":3818:3842   */\n      add\n        /* \"#utility.yul\":3868:3915   */\n      tag_259\n        /* \"#utility.yul\":3911:3914   */\n      dup10\n        /* \"#utility.yul\":3899:3909   */\n      dup3\n        /* \"#utility.yul\":3868:3915   */\n      tag_141\n      jump\t// in\n    tag_259:\n        /* \"#utility.yul\":3863:3866   */\n      dup6\n        /* \"#utility.yul\":3856:3916   */\n      mstore\n        /* \"#utility.yul\":3945:3949   */\n      0x20\n        /* \"#utility.yul\":3940:3943   */\n      dup6\n        /* \"#utility.yul\":3936:3950   */\n      add\n        /* \"#utility.yul\":3929:3950   */\n      swap5\n      pop\n        /* \"#utility.yul\":3601:3960   */\n      pop\n      pop\n        /* \"#utility.yul\":3585:3589   */\n      0x20\n        /* \"#utility.yul\":3580:3583   */\n      dup2\n        /* \"#utility.yul\":3576:3590   */\n      add\n        /* \"#utility.yul\":3569:3590   */\n      swap1\n      pop\n        /* \"#utility.yul\":3525:3960   */\n      jump(tag_254)\n    tag_256:\n        /* \"#utility.yul\":3529:3550   */\n      pop\n        /* \"#utility.yul\":3133:3966   */\n      pop\n      pop\n        /* \"#utility.yul\":3021:3966   */\n      swap4\n      swap3\n      pop\n      pop\n      pop\n      jump\t// out\n        /* \"#utility.yul\":3988:4378   */\n    tag_145:\n        /* \"#utility.yul\":4069:4074   */\n      0x00\n        /* \"#utility.yul\":4118:4121   */\n      dup3\n        /* \"#utility.yul\":4111:4115   */\n      0x1f\n        /* \"#utility.yul\":4103:4109   */\n      dup4\n        /* \"#utility.yul\":4099:4116   */\n      add\n        /* \"#utility.yul\":4095:4122   */\n      slt\n        /* \"#utility.yul\":4085:4207   */\n      tag_261\n      jumpi\n        /* \"#utility.yul\":4126:4205   */\n      tag_262\n      tag_133\n      jump\t// in\n    tag_262:\n        /* \"#utility.yul\":4085:4207   */\n    tag_261:\n        /* \"#utility.yul\":4243:4249   */\n      dup2\n        /* \"#utility.yul\":4230:4250   */\n      calldataload\n        /* \"#utility.yul\":4268:4372   */\n      tag_263\n        /* \"#utility.yul\":4368:4371   */\n      dup5\n        /* \"#utility.yul\":4360:4366   */\n      dup3\n        /* \"#utility.yul\":4353:4357   */\n      0x20\n        /* \"#utility.yul\":4345:4351   */\n      dup7\n        /* \"#utility.yul\":4341:4358   */\n      add\n        /* \"#utility.yul\":4268:4372   */\n      tag_144\n      jump\t// in\n    tag_263:\n        /* \"#utility.yul\":4259:4372   */\n      swap2\n      pop\n        /* \"#utility.yul\":4075:4378   */\n      pop\n        /* \"#utility.yul\":3988:4378   */\n      swap3\n      swap2\n      pop\n      pop\n      jump\t// out\n        /* \"#utility.yul\":4384:4477   */\n    tag_146:\n        /* \"#utility.yul\":4420:4427   */\n      0x00\n        /* \"#utility.yul\":4460:4470   */\n      0xffffffff\n        /* \"#utility.yul\":4453:4458   */\n      dup3\n        /* \"#utility.yul\":4449:4471   */\n      and\n        /* \"#utility.yul\":4438:4471   */\n      swap1\n      pop\n        /* \"#utility.yul\":4384:4477   */\n      swap2\n      swap1\n      pop\n      jump\t// out\n        /* \"#utility.yul\":4483:4603   */\n    tag_147:\n        /* \"#utility.yul\":4555:4578   */\n      tag_266\n        /* \"#utility.yul\":4572:4577   */\n      dup2\n        /* \"#utility.yul\":4555:4578   */\n      tag_146\n      jump\t// in\n    tag_266:\n        /* \"#utility.yul\":4548:4553   */\n      dup2\n        /* \"#utility.yul\":4545:4579   */\n      eq\n        /* \"#utility.yul\":4535:4597   */\n      tag_267\n      jumpi\n        /* \"#utility.yul\":4593:4594   */\n      0x00\n        /* \"#utility.yul\":4590:4591   */\n      dup1\n        /* \"#utility.yul\":4583:4595   */\n      revert\n        /* \"#utility.yul\":4535:4597   */\n    tag_267:\n        /* \"#utility.yul\":4483:4603   */\n      pop\n      jump\t// out\n        /* \"#utility.yul\":4609:4746   */\n    tag_148:\n        /* \"#utility.yul\":4654:4659   */\n      0x00\n        /* \"#utility.yul\":4692:4698   */\n      dup2\n        /* \"#utility.yul\":4679:4699   */\n      calldataload\n        /* \"#utility.yul\":4670:4699   */\n      swap1\n      pop\n        /* \"#utility.yul\":4708:4740   */\n      tag_269\n        /* \"#utility.yul\":4734:4739   */\n      dup2\n        /* \"#utility.yul\":4708:4740   */\n      tag_147\n      jump\t// in\n    tag_269:\n        /* \"#utility.yul\":4609:4746   */\n      swap3\n      swap2\n      pop\n      pop\n      jump\t// out\n        /* \"#utility.yul\":4752:5779   */\n    tag_8:\n        /* \"#utility.yul\":4873:4879   */\n      0x00\n        /* \"#utility.yul\":4881:4887   */\n      dup1\n        /* \"#utility.yul\":4889:4895   */\n      0x00\n        /* \"#utility.yul\":4938:4940   */\n      0x60\n        /* \"#utility.yul\":4926:4935   */\n      dup5\n        /* \"#utility.yul\":4917:4924   */\n      dup7\n        /* \"#utility.yul\":4913:4936   */\n      sub\n        /* \"#utility.yul\":4909:4941   */\n      slt\n        /* \"#utility.yul\":4906:5025   */\n      iszero\n      tag_271\n      jumpi\n        /* \"#utility.yul\":4944:5023   */\n      tag_272\n      tag_131\n      jump\t// in\n    tag_272:\n        /* \"#utility.yul\":4906:5025   */\n    tag_271:\n        /* \"#utility.yul\":5092:5093   */\n      0x00\n        /* \"#utility.yul\":5081:5090   */\n      dup5\n        /* \"#utility.yul\":5077:5094   */\n      add\n        /* \"#utility.yul\":5064:5095   */\n      calldataload\n        /* \"#utility.yul\":5122:5140   */\n      0xffffffffffffffff\n        /* \"#utility.yul\":5114:5120   */\n      dup2\n        /* \"#utility.yul\":5111:5141   */\n      gt\n        /* \"#utility.yul\":5108:5225   */\n      iszero\n      tag_273\n      jumpi\n        /* \"#utility.yul\":5144:5223   */\n      tag_274\n      tag_132\n      jump\t// in\n    tag_274:\n        /* \"#utility.yul\":5108:5225   */\n    tag_273:\n        /* \"#utility.yul\":5249:5312   */\n      tag_275\n        /* \"#utility.yul\":5304:5311   */\n      dup7\n        /* \"#utility.yul\":5295:5301   */\n      dup3\n        /* \"#utility.yul\":5284:5293   */\n      dup8\n        /* \"#utility.yul\":5280:5302   */\n      add\n        /* \"#utility.yul\":5249:5312   */\n      tag_141\n      jump\t// in\n    tag_275:\n        /* \"#utility.yul\":5239:5312   */\n      swap4\n      pop\n        /* \"#utility.yul\":5035:5322   */\n      pop\n        /* \"#utility.yul\":5389:5391   */\n      0x20\n        /* \"#utility.yul\":5378:5387   */\n      dup5\n        /* \"#utility.yul\":5374:5392   */\n      add\n        /* \"#utility.yul\":5361:5393   */\n      calldataload\n        /* \"#utility.yul\":5420:5438   */\n      0xffffffffffffffff\n        /* \"#utility.yul\":5412:5418   */\n      dup2\n        /* \"#utility.yul\":5409:5439   */\n      gt\n        /* \"#utility.yul\":5406:5523   */\n      iszero\n      tag_276\n      jumpi\n        /* \"#utility.yul\":5442:5521   */\n      tag_277\n      tag_132\n      jump\t// in\n    tag_277:\n        /* \"#utility.yul\":5406:5523   */\n    tag_276:\n        /* \"#utility.yul\":5547:5635   */\n      tag_278\n        /* \"#utility.yul\":5627:5634   */\n      dup7\n        /* \"#utility.yul\":5618:5624   */\n      dup3\n        /* \"#utility.yul\":5607:5616   */\n      dup8\n        /* \"#utility.yul\":5603:5625   */\n      add\n        /* \"#utility.yul\":5547:5635   */\n      tag_145\n      jump\t// in\n    tag_278:\n        /* \"#utility.yul\":5537:5635   */\n      swap3\n      pop\n        /* \"#utility.yul\":5332:5645   */\n      pop\n        /* \"#utility.yul\":5684:5686   */\n      0x40\n        /* \"#utility.yul\":5710:5762   */\n      tag_279\n        /* \"#utility.yul\":5754:5761   */\n      dup7\n        /* \"#utility.yul\":5745:5751   */\n      dup3\n        /* \"#utility.yul\":5734:5743   */\n      dup8\n        /* \"#utility.yul\":5730:5752   */\n      add\n        /* \"#utility.yul\":5710:5762   */\n      tag_148\n      jump\t// in\n    tag_279:\n        /* \"#utility.yul\":5700:5762   */\n      swap2\n      pop\n        /* \"#utility.yul\":5655:5772   */\n      pop\n        /* \"#utility.yul\":4752:5779   */\n      swap3\n      pop\n      swap3\n      pop\n      swap3\n      jump\t// out\n        /* \"#utility.yul\":5785:5862   */\n    tag_149:\n        /* \"#utility.yul\":5822:5829   */\n      0x00\n        /* \"#utility.yul\":5851:5856   */\n      dup2\n        /* \"#utility.yul\":5840:5856   */\n      swap1\n      pop\n        /* \"#utility.yul\":5785:5862   */\n      swap2\n      swap1\n      pop\n      jump\t// out\n        /* \"#utility.yul\":5868:5986   */\n    tag_150:\n        /* \"#utility.yul\":5955:5979   */\n      tag_282\n        /* \"#utility.yul\":5973:5978   */\n      dup2\n        /* \"#utility.yul\":5955:5979   */\n      tag_149\n      jump\t// in\n    tag_282:\n        /* \"#utility.yul\":5950:5953   */\n      dup3\n        /* \"#utility.yul\":5943:5980   */\n      mstore\n        /* \"#utility.yul\":5868:5986   */\n      pop\n      pop\n      jump\t// out\n        /* \"#utility.yul\":5992:6214   */\n    tag_11:\n        /* \"#utility.yul\":6085:6089   */\n      0x00\n        /* \"#utility.yul\":6123:6125   */\n      0x20\n        /* \"#utility.yul\":6112:6121   */\n      dup3\n        /* \"#utility.yul\":6108:6126   */\n      add\n        /* \"#utility.yul\":6100:6126   */\n      swap1\n      pop\n        /* \"#utility.yul\":6136:6207   */\n      tag_284\n        /* \"#utility.yul\":6204:6205   */\n      0x00\n        /* \"#utility.yul\":6193:6202   */\n      dup4\n        /* \"#utility.yul\":6189:6206   */\n      add\n        /* \"#utility.yul\":6180:6186   */\n      dup5\n        /* \"#utility.yul\":6136:6207   */\n      tag_150\n      jump\t// in\n    tag_284:\n        /* \"#utility.yul\":5992:6214   */\n      swap3\n      swap2\n      pop\n      pop\n      jump\t// out\n        /* \"#utility.yul\":6220:6342   */\n    tag_151:\n        /* \"#utility.yul\":6293:6317   */\n      tag_286\n        /* \"#utility.yul\":6311:6316   */\n      dup2\n        /* \"#utility.yul\":6293:6317   */\n      tag_149\n      jump\t// in\n    tag_286:\n        /* \"#utility.yul\":6286:6291   */\n      dup2\n        /* \"#utility.yul\":6283:6318   */\n      eq\n        /* \"#utility.yul\":6273:6336   */\n      tag_287\n      jumpi\n        /* \"#utility.yul\":6332:6333   */\n      0x00\n        /* \"#utility.yul\":6329:6330   */\n      dup1\n        /* \"#utility.yul\":6322:6334   */\n      revert\n        /* \"#utility.yul\":6273:6336   */\n    tag_287:\n        /* \"#utility.yul\":6220:6342   */\n      pop\n      jump\t// out\n        /* \"#utility.yul\":6348:6487   */\n    tag_152:\n        /* \"#utility.yul\":6394:6399   */\n      0x00\n        /* \"#utility.yul\":6432:6438   */\n      dup2\n        /* \"#utility.yul\":6419:6439   */\n      calldataload\n        /* \"#utility.yul\":6410:6439   */\n      swap1\n      pop\n        /* \"#utility.yul\":6448:6481   */\n      tag_289\n        /* \"#utility.yul\":6475:6480   */\n      dup2\n        /* \"#utility.yul\":6448:6481   */\n      tag_151\n      jump\t// in\n    tag_289:\n        /* \"#utility.yul\":6348:6487   */\n      swap3\n      swap2\n      pop\n      pop\n      jump\t// out\n        /* \"#utility.yul\":6493:7147   */\n    tag_14:\n        /* \"#utility.yul\":6571:6577   */\n      0x00\n        /* \"#utility.yul\":6579:6585   */\n      dup1\n        /* \"#utility.yul\":6628:6630   */\n      0x40\n        /* \"#utility.yul\":6616:6625   */\n      dup4\n        /* \"#utility.yul\":6607:6614   */\n      dup6\n        /* \"#utility.yul\":6603:6626   */\n      sub\n        /* \"#utility.yul\":6599:6631   */\n      slt\n        /* \"#utility.yul\":6596:6715   */\n      iszero\n      tag_291\n      jumpi\n        /* \"#utility.yul\":6634:6713   */\n      tag_292\n      tag_131\n      jump\t// in\n    tag_292:\n        /* \"#utility.yul\":6596:6715   */\n    tag_291:\n        /* \"#utility.yul\":6754:6755   */\n      0x00\n        /* \"#utility.yul\":6779:6832   */\n      tag_293\n        /* \"#utility.yul\":6824:6831   */\n      dup6\n        /* \"#utility.yul\":6815:6821   */\n      dup3\n        /* \"#utility.yul\":6804:6813   */\n      dup7\n        /* \"#utility.yul\":6800:6822   */\n      add\n        /* \"#utility.yul\":6779:6832   */\n      tag_152\n      jump\t// in\n    tag_293:\n        /* \"#utility.yul\":6769:6832   */\n      swap3\n      pop\n        /* \"#utility.yul\":6725:6842   */\n      pop\n        /* \"#utility.yul\":6909:6911   */\n      0x20\n        /* \"#utility.yul\":6898:6907   */\n      dup4\n        /* \"#utility.yul\":6894:6912   */\n      add\n        /* \"#utility.yul\":6881:6913   */\n      calldataload\n        /* \"#utility.yul\":6940:6958   */\n      0xffffffffffffffff\n        /* \"#utility.yul\":6932:6938   */\n      dup2\n        /* \"#utility.yul\":6929:6959   */\n      gt\n        /* \"#utility.yul\":6926:7043   */\n      iszero\n      tag_294\n      jumpi\n        /* \"#utility.yul\":6962:7041   */\n      tag_295\n      tag_132\n      jump\t// in\n    tag_295:\n        /* \"#utility.yul\":6926:7043   */\n    tag_294:\n        /* \"#utility.yul\":7067:7130   */\n      tag_296\n        /* \"#utility.yul\":7122:7129   */\n      dup6\n        /* \"#utility.yul\":7113:7119   */\n      dup3\n        /* \"#utility.yul\":7102:7111   */\n      dup7\n        /* \"#utility.yul\":7098:7120   */\n      add\n        /* \"#utility.yul\":7067:7130   */\n      tag_141\n      jump\t// in\n    tag_296:\n        /* \"#utility.yul\":7057:7130   */\n      swap2\n      pop\n        /* \"#utility.yul\":6852:7140   */\n      pop\n        /* \"#utility.yul\":6493:7147   */\n      swap3\n      pop\n      swap3\n      swap1\n      pop\n      jump\t// out\n        /* \"#utility.yul\":7153:7482   */\n    tag_18:\n        /* \"#utility.yul\":7212:7218   */\n      0x00\n        /* \"#utility.yul\":7261:7263   */\n      0x20\n        /* \"#utility.yul\":7249:7258   */\n      dup3\n        /* \"#utility.yul\":7240:7247   */\n      dup5\n        /* \"#utility.yul\":7236:7259   */\n      sub\n        /* \"#utility.yul\":7232:7264   */\n      slt\n        /* \"#utility.yul\":7229:7348   */\n      iszero\n      tag_298\n      jumpi\n        /* \"#utility.yul\":7267:7346   */\n      tag_299\n      tag_131\n      jump\t// in\n    tag_299:\n        /* \"#utility.yul\":7229:7348   */\n    tag_298:\n        /* \"#utility.yul\":7387:7388   */\n      0x00\n        /* \"#utility.yul\":7412:7465   */\n      tag_300\n        /* \"#utility.yul\":7457:7464   */\n      dup5\n        /* \"#utility.yul\":7448:7454   */\n      dup3\n        /* \"#utility.yul\":7437:7446   */\n      dup6\n        /* \"#utility.yul\":7433:7455   */\n      add\n        /* \"#utility.yul\":7412:7465   */\n      tag_152\n      jump\t// in\n    tag_300:\n        /* \"#utility.yul\":7402:7465   */\n      swap2\n      pop\n        /* \"#utility.yul\":7358:7475   */\n      pop\n        /* \"#utility.yul\":7153:7482   */\n      swap3\n      swap2\n      pop\n      pop\n      jump\t// out\n        /* \"#utility.yul\":7488:7612   */\n    tag_153:\n        /* \"#utility.yul\":7565:7571   */\n      0x00\n        /* \"#utility.yul\":7599:7604   */\n      dup2\n        /* \"#utility.yul\":7593:7605   */\n      mload\n        /* \"#utility.yul\":7583:7605   */\n      swap1\n      pop\n        /* \"#utility.yul\":7488:7612   */\n      swap2\n      swap1\n      pop\n      jump\t// out\n        /* \"#utility.yul\":7618:7812   */\n    tag_154:\n        /* \"#utility.yul\":7727:7738   */\n      0x00\n        /* \"#utility.yul\":7761:7767   */\n      dup3\n        /* \"#utility.yul\":7756:7759   */\n      dup3\n        /* \"#utility.yul\":7749:7768   */\n      mstore\n        /* \"#utility.yul\":7801:7805   */\n      0x20\n        /* \"#utility.yul\":7796:7799   */\n      dup3\n        /* \"#utility.yul\":7792:7806   */\n      add\n        /* \"#utility.yul\":7777:7806   */\n      swap1\n      pop\n        /* \"#utility.yul\":7618:7812   */\n      swap3\n      swap2\n      pop\n      pop\n      jump\t// out\n        /* \"#utility.yul\":7818:7960   */\n    tag_155:\n        /* \"#utility.yul\":7895:7899   */\n      0x00\n        /* \"#utility.yul\":7918:7921   */\n      dup2\n        /* \"#utility.yul\":7910:7921   */\n      swap1\n      pop\n        /* \"#utility.yul\":7948:7952   */\n      0x20\n        /* \"#utility.yul\":7943:7946   */\n      dup3\n        /* \"#utility.yul\":7939:7953   */\n      add\n        /* \"#utility.yul\":7931:7953   */\n      swap1\n      pop\n        /* \"#utility.yul\":7818:7960   */\n      swap2\n      swap1\n      pop\n      jump\t// out\n        /* \"#utility.yul\":7966:8065   */\n    tag_156:\n        /* \"#utility.yul\":8018:8024   */\n      0x00\n        /* \"#utility.yul\":8052:8057   */\n      dup2\n        /* \"#utility.yul\":8046:8058   */\n      mload\n        /* \"#utility.yul\":8036:8058   */\n      swap1\n      pop\n        /* \"#utility.yul\":7966:8065   */\n      swap2\n      swap1\n      pop\n      jump\t// out\n        /* \"#utility.yul\":8071:8230   */\n    tag_157:\n        /* \"#utility.yul\":8145:8156   */\n      0x00\n        /* \"#utility.yul\":8179:8185   */\n      dup3\n        /* \"#utility.yul\":8174:8177   */\n      dup3\n        /* \"#utility.yul\":8167:8186   */\n      mstore\n        /* \"#utility.yul\":8219:8223   */\n      0x20\n        /* \"#utility.yul\":8214:8217   */\n      dup3\n        /* \"#utility.yul\":8210:8224   */\n      add\n        /* \"#utility.yul\":8195:8224   */\n      swap1\n      pop\n        /* \"#utility.yul\":8071:8230   */\n      swap3\n      swap2\n      pop\n      pop\n      jump\t// out\n        /* \"#utility.yul\":8236:8375   */\n    tag_158:\n        /* \"#utility.yul\":8325:8331   */\n      dup3\n        /* \"#utility.yul\":8320:8323   */\n      dup2\n        /* \"#utility.yul\":8315:8318   */\n      dup4\n        /* \"#utility.yul\":8309:8332   */\n      mcopy\n        /* \"#utility.yul\":8366:8367   */\n      0x00\n        /* \"#utility.yul\":8357:8363   */\n      dup4\n        /* \"#utility.yul\":8352:8355   */\n      dup4\n        /* \"#utility.yul\":8348:8364   */\n      add\n        /* \"#utility.yul\":8341:8368   */\n      mstore\n        /* \"#utility.yul\":8236:8375   */\n      pop\n      pop\n      pop\n      jump\t// out\n        /* \"#utility.yul\":8381:8738   */\n    tag_159:\n        /* \"#utility.yul\":8459:8462   */\n      0x00\n        /* \"#utility.yul\":8487:8526   */\n      tag_308\n        /* \"#utility.yul\":8520:8525   */\n      dup3\n        /* \"#utility.yul\":8487:8526   */\n      tag_156\n      jump\t// in\n    tag_308:\n        /* \"#utility.yul\":8542:8603   */\n      tag_309\n        /* \"#utility.yul\":8596:8602   */\n      dup2\n        /* \"#utility.yul\":8591:8594   */\n      dup6\n        /* \"#utility.yul\":8542:8603   */\n      tag_157\n      jump\t// in\n    tag_309:\n        /* \"#utility.yul\":8535:8603   */\n      swap4\n      pop\n        /* \"#utility.yul\":8612:8677   */\n      tag_310\n        /* \"#utility.yul\":8670:8676   */\n      dup2\n        /* \"#utility.yul\":8665:8668   */\n      dup6\n        /* \"#utility.yul\":8658:8662   */\n      0x20\n        /* \"#utility.yul\":8651:8656   */\n      dup7\n        /* \"#utility.yul\":8647:8663   */\n      add\n        /* \"#utility.yul\":8612:8677   */\n      tag_158\n      jump\t// in\n    tag_310:\n        /* \"#utility.yul\":8702:8731   */\n      tag_311\n        /* \"#utility.yul\":8724:8730   */\n      dup2\n        /* \"#utility.yul\":8702:8731   */\n      tag_135\n      jump\t// in\n    tag_311:\n        /* \"#utility.yul\":8697:8700   */\n      dup5\n        /* \"#utility.yul\":8693:8732   */\n      add\n        /* \"#utility.yul\":8686:8732   */\n      swap2\n      pop\n        /* \"#utility.yul\":8463:8738   */\n      pop\n        /* \"#utility.yul\":8381:8738   */\n      swap3\n      swap2\n      pop\n      pop\n      jump\t// out\n        /* \"#utility.yul\":8744:8940   */\n    tag_160:\n        /* \"#utility.yul\":8833:8843   */\n      0x00\n        /* \"#utility.yul\":8868:8934   */\n      tag_313\n        /* \"#utility.yul\":8930:8933   */\n      dup4\n        /* \"#utility.yul\":8922:8928   */\n      dup4\n        /* \"#utility.yul\":8868:8934   */\n      tag_159\n      jump\t// in\n    tag_313:\n        /* \"#utility.yul\":8854:8934   */\n      swap1\n      pop\n        /* \"#utility.yul\":8744:8940   */\n      swap3\n      swap2\n      pop\n      pop\n      jump\t// out\n        /* \"#utility.yul\":8946:9069   */\n    tag_161:\n        /* \"#utility.yul\":9026:9030   */\n      0x00\n        /* \"#utility.yul\":9058:9062   */\n      0x20\n        /* \"#utility.yul\":9053:9056   */\n      dup3\n        /* \"#utility.yul\":9049:9063   */\n      add\n        /* \"#utility.yul\":9041:9063   */\n      swap1\n      pop\n        /* \"#utility.yul\":8946:9069   */\n      swap2\n      swap1\n      pop\n      jump\t// out\n        /* \"#utility.yul\":9103:10094   */\n    tag_162:\n        /* \"#utility.yul\":9242:9245   */\n      0x00\n        /* \"#utility.yul\":9271:9335   */\n      tag_316\n        /* \"#utility.yul\":9329:9334   */\n      dup3\n        /* \"#utility.yul\":9271:9335   */\n      tag_153\n      jump\t// in\n    tag_316:\n        /* \"#utility.yul\":9351:9447   */\n      tag_317\n        /* \"#utility.yul\":9440:9446   */\n      dup2\n        /* \"#utility.yul\":9435:9438   */\n      dup6\n        /* \"#utility.yul\":9351:9447   */\n      tag_154\n      jump\t// in\n    tag_317:\n        /* \"#utility.yul\":9344:9447   */\n      swap4\n      pop\n        /* \"#utility.yul\":9473:9476   */\n      dup4\n        /* \"#utility.yul\":9518:9522   */\n      0x20\n        /* \"#utility.yul\":9510:9516   */\n      dup3\n        /* \"#utility.yul\":9506:9523   */\n      mul\n        /* \"#utility.yul\":9501:9504   */\n      dup6\n        /* \"#utility.yul\":9497:9524   */\n      add\n        /* \"#utility.yul\":9548:9614   */\n      tag_318\n        /* \"#utility.yul\":9608:9613   */\n      dup6\n        /* \"#utility.yul\":9548:9614   */\n      tag_155\n      jump\t// in\n    tag_318:\n        /* \"#utility.yul\":9637:9644   */\n      dup1\n        /* \"#utility.yul\":9668:9669   */\n      0x00\n        /* \"#utility.yul\":9653:10049   */\n    tag_319:\n        /* \"#utility.yul\":9678:9684   */\n      dup6\n        /* \"#utility.yul\":9675:9676   */\n      dup2\n        /* \"#utility.yul\":9672:9685   */\n      lt\n        /* \"#utility.yul\":9653:10049   */\n      iszero\n      tag_321\n      jumpi\n        /* \"#utility.yul\":9749:9758   */\n      dup5\n        /* \"#utility.yul\":9743:9747   */\n      dup5\n        /* \"#utility.yul\":9739:9759   */\n      sub\n        /* \"#utility.yul\":9734:9737   */\n      dup10\n        /* \"#utility.yul\":9727:9760   */\n      mstore\n        /* \"#utility.yul\":9800:9806   */\n      dup2\n        /* \"#utility.yul\":9794:9807   */\n      mload\n        /* \"#utility.yul\":9828:9912   */\n      tag_322\n        /* \"#utility.yul\":9907:9911   */\n      dup6\n        /* \"#utility.yul\":9892:9905   */\n      dup3\n        /* \"#utility.yul\":9828:9912   */\n      tag_160\n      jump\t// in\n    tag_322:\n        /* \"#utility.yul\":9820:9912   */\n      swap5\n      pop\n        /* \"#utility.yul\":9935:10005   */\n      tag_323\n        /* \"#utility.yul\":9998:10004   */\n      dup4\n        /* \"#utility.yul\":9935:10005   */\n      tag_161\n      jump\t// in\n    tag_323:\n        /* \"#utility.yul\":9925:10005   */\n      swap3\n      pop\n        /* \"#utility.yul\":10034:10038   */\n      0x20\n        /* \"#utility.yul\":10029:10032   */\n      dup11\n        /* \"#utility.yul\":10025:10039   */\n      add\n        /* \"#utility.yul\":10018:10039   */\n      swap10\n      pop\n        /* \"#utility.yul\":9713:10049   */\n      pop\n        /* \"#utility.yul\":9700:9701   */\n      0x01\n        /* \"#utility.yul\":9697:9698   */\n      dup2\n        /* \"#utility.yul\":9693:9702   */\n      add\n        /* \"#utility.yul\":9688:9702   */\n      swap1\n      pop\n        /* \"#utility.yul\":9653:10049   */\n      jump(tag_319)\n    tag_321:\n        /* \"#utility.yul\":9657:9671   */\n      pop\n        /* \"#utility.yul\":10065:10069   */\n      dup3\n        /* \"#utility.yul\":10058:10069   */\n      swap8\n      pop\n        /* \"#utility.yul\":10085:10088   */\n      dup8\n        /* \"#utility.yul\":10078:10088   */\n      swap6\n      pop\n        /* \"#utility.yul\":9247:10094   */\n      pop\n      pop\n      pop\n      pop\n      pop\n        /* \"#utility.yul\":9103:10094   */\n      swap3\n      swap2\n      pop\n      pop\n      jump\t// out\n        /* \"#utility.yul\":10100:10214   */\n    tag_163:\n        /* \"#utility.yul\":10167:10173   */\n      0x00\n        /* \"#utility.yul\":10201:10206   */\n      dup2\n        /* \"#utility.yul\":10195:10207   */\n      mload\n        /* \"#utility.yul\":10185:10207   */\n      swap1\n      pop\n        /* \"#utility.yul\":10100:10214   */\n      swap2\n      swap1\n      pop\n      jump\t// out\n        /* \"#utility.yul\":10220:10404   */\n    tag_164:\n        /* \"#utility.yul\":10319:10330   */\n      0x00\n        /* \"#utility.yul\":10353:10359   */\n      dup3\n        /* \"#utility.yul\":10348:10351   */\n      dup3\n        /* \"#utility.yul\":10341:10360   */\n      mstore\n        /* \"#utility.yul\":10393:10397   */\n      0x20\n        /* \"#utility.yul\":10388:10391   */\n      dup3\n        /* \"#utility.yul\":10384:10398   */\n      add\n        /* \"#utility.yul\":10369:10398   */\n      swap1\n      pop\n        /* \"#utility.yul\":10220:10404   */\n      swap3\n      swap2\n      pop\n      pop\n      jump\t// out\n        /* \"#utility.yul\":10410:10542   */\n    tag_165:\n        /* \"#utility.yul\":10477:10481   */\n      0x00\n        /* \"#utility.yul\":10500:10503   */\n      dup2\n        /* \"#utility.yul\":10492:10503   */\n      swap1\n      pop\n        /* \"#utility.yul\":10530:10534   */\n      0x20\n        /* \"#utility.yul\":10525:10528   */\n      dup3\n        /* \"#utility.yul\":10521:10535   */\n      add\n        /* \"#utility.yul\":10513:10535   */\n      swap1\n      pop\n        /* \"#utility.yul\":10410:10542   */\n      swap2\n      swap1\n      pop\n      jump\t// out\n        /* \"#utility.yul\":10548:10656   */\n    tag_166:\n        /* \"#utility.yul\":10625:10649   */\n      tag_328\n        /* \"#utility.yul\":10643:10648   */\n      dup2\n        /* \"#utility.yul\":10625:10649   */\n      tag_149\n      jump\t// in\n    tag_328:\n        /* \"#utility.yul\":10620:10623   */\n      dup3\n        /* \"#utility.yul\":10613:10650   */\n      mstore\n        /* \"#utility.yul\":10548:10656   */\n      pop\n      pop\n      jump\t// out\n        /* \"#utility.yul\":10662:10841   */\n    tag_167:\n        /* \"#utility.yul\":10731:10741   */\n      0x00\n        /* \"#utility.yul\":10752:10798   */\n      tag_330\n        /* \"#utility.yul\":10794:10797   */\n      dup4\n        /* \"#utility.yul\":10786:10792   */\n      dup4\n        /* \"#utility.yul\":10752:10798   */\n      tag_166\n      jump\t// in\n    tag_330:\n        /* \"#utility.yul\":10830:10834   */\n      0x20\n        /* \"#utility.yul\":10825:10828   */\n      dup4\n        /* \"#utility.yul\":10821:10835   */\n      add\n        /* \"#utility.yul\":10807:10835   */\n      swap1\n      pop\n        /* \"#utility.yul\":10662:10841   */\n      swap3\n      swap2\n      pop\n      pop\n      jump\t// out\n        /* \"#utility.yul\":10847:10960   */\n    tag_168:\n        /* \"#utility.yul\":10917:10921   */\n      0x00\n        /* \"#utility.yul\":10949:10953   */\n      0x20\n        /* \"#utility.yul\":10944:10947   */\n      dup3\n        /* \"#utility.yul\":10940:10954   */\n      add\n        /* \"#utility.yul\":10932:10954   */\n      swap1\n      pop\n        /* \"#utility.yul\":10847:10960   */\n      swap2\n      swap1\n      pop\n      jump\t// out\n        /* \"#utility.yul\":10996:11728   */\n    tag_169:\n        /* \"#utility.yul\":11115:11118   */\n      0x00\n        /* \"#utility.yul\":11144:11198   */\n      tag_333\n        /* \"#utility.yul\":11192:11197   */\n      dup3\n        /* \"#utility.yul\":11144:11198   */\n      tag_163\n      jump\t// in\n    tag_333:\n        /* \"#utility.yul\":11214:11300   */\n      tag_334\n        /* \"#utility.yul\":11293:11299   */\n      dup2\n        /* \"#utility.yul\":11288:11291   */\n      dup6\n        /* \"#utility.yul\":11214:11300   */\n      tag_164\n      jump\t// in\n    tag_334:\n        /* \"#utility.yul\":11207:11300   */\n      swap4\n      pop\n        /* \"#utility.yul\":11324:11380   */\n      tag_335\n        /* \"#utility.yul\":11374:11379   */\n      dup4\n        /* \"#utility.yul\":11324:11380   */\n      tag_165\n      jump\t// in\n    tag_335:\n        /* \"#utility.yul\":11403:11410   */\n      dup1\n        /* \"#utility.yul\":11434:11435   */\n      0x00\n        /* \"#utility.yul\":11419:11703   */\n    tag_336:\n        /* \"#utility.yul\":11444:11450   */\n      dup4\n        /* \"#utility.yul\":11441:11442   */\n      dup2\n        /* \"#utility.yul\":11438:11451   */\n      lt\n        /* \"#utility.yul\":11419:11703   */\n      iszero\n      tag_338\n      jumpi\n        /* \"#utility.yul\":11520:11526   */\n      dup2\n        /* \"#utility.yul\":11514:11527   */\n      mload\n        /* \"#utility.yul\":11547:11610   */\n      tag_339\n        /* \"#utility.yul\":11606:11609   */\n      dup9\n        /* \"#utility.yul\":11591:11604   */\n      dup3\n        /* \"#utility.yul\":11547:11610   */\n      tag_167\n      jump\t// in\n    tag_339:\n        /* \"#utility.yul\":11540:11610   */\n      swap8\n      pop\n        /* \"#utility.yul\":11633:11693   */\n      tag_340\n        /* \"#utility.yul\":11686:11692   */\n      dup4\n        /* \"#utility.yul\":11633:11693   */\n      tag_168\n      jump\t// in\n    tag_340:\n        /* \"#utility.yul\":11623:11693   */\n      swap3\n      pop\n        /* \"#utility.yul\":11479:11703   */\n      pop\n        /* \"#utility.yul\":11466:11467   */\n      0x01\n        /* \"#utility.yul\":11463:11464   */\n      dup2\n        /* \"#utility.yul\":11459:11468   */\n      add\n        /* \"#utility.yul\":11454:11468   */\n      swap1\n      pop\n        /* \"#utility.yul\":11419:11703   */\n      jump(tag_336)\n    tag_338:\n        /* \"#utility.yul\":11423:11437   */\n      pop\n        /* \"#utility.yul\":11719:11722   */\n      dup6\n        /* \"#utility.yul\":11712:11722   */\n      swap4\n      pop\n        /* \"#utility.yul\":11120:11728   */\n      pop\n      pop\n      pop\n        /* \"#utility.yul\":10996:11728   */\n      swap3\n      swap2\n      pop\n      pop\n      jump\t// out\n        /* \"#utility.yul\":11734:12408   */\n    tag_21:\n        /* \"#utility.yul\":11975:11979   */\n      0x00\n        /* \"#utility.yul\":12013:12015   */\n      0x40\n        /* \"#utility.yul\":12002:12011   */\n      dup3\n        /* \"#utility.yul\":11998:12016   */\n      add\n        /* \"#utility.yul\":11990:12016   */\n      swap1\n      pop\n        /* \"#utility.yul\":12062:12071   */\n      dup2\n        /* \"#utility.yul\":12056:12060   */\n      dup2\n        /* \"#utility.yul\":12052:12072   */\n      sub\n        /* \"#utility.yul\":12048:12049   */\n      0x00\n        /* \"#utility.yul\":12037:12046   */\n      dup4\n        /* \"#utility.yul\":12033:12050   */\n      add\n        /* \"#utility.yul\":12026:12073   */\n      mstore\n        /* \"#utility.yul\":12090:12218   */\n      tag_342\n        /* \"#utility.yul\":12213:12217   */\n      dup2\n        /* \"#utility.yul\":12204:12210   */\n      dup6\n        /* \"#utility.yul\":12090:12218   */\n      tag_162\n      jump\t// in\n    tag_342:\n        /* \"#utility.yul\":12082:12218   */\n      swap1\n      pop\n        /* \"#utility.yul\":12265:12274   */\n      dup2\n        /* \"#utility.yul\":12259:12263   */\n      dup2\n        /* \"#utility.yul\":12255:12275   */\n      sub\n        /* \"#utility.yul\":12250:12252   */\n      0x20\n        /* \"#utility.yul\":12239:12248   */\n      dup4\n        /* \"#utility.yul\":12235:12253   */\n      add\n        /* \"#utility.yul\":12228:12276   */\n      mstore\n        /* \"#utility.yul\":12293:12401   */\n      tag_343\n        /* \"#utility.yul\":12396:12400   */\n      dup2\n        /* \"#utility.yul\":12387:12393   */\n      dup5\n        /* \"#utility.yul\":12293:12401   */\n      tag_169\n      jump\t// in\n    tag_343:\n        /* \"#utility.yul\":12285:12401   */\n      swap1\n      pop\n        /* \"#utility.yul\":11734:12408   */\n      swap4\n      swap3\n      pop\n      pop\n      pop\n      jump\t// out\n        /* \"#utility.yul\":12414:12583   */\n    tag_170:\n        /* \"#utility.yul\":12498:12509   */\n      0x00\n        /* \"#utility.yul\":12532:12538   */\n      dup3\n        /* \"#utility.yul\":12527:12530   */\n      dup3\n        /* \"#utility.yul\":12520:12539   */\n      mstore\n        /* \"#utility.yul\":12572:12576   */\n      0x20\n        /* \"#utility.yul\":12567:12570   */\n      dup3\n        /* \"#utility.yul\":12563:12577   */\n      add\n        /* \"#utility.yul\":12548:12577   */\n      swap1\n      pop\n        /* \"#utility.yul\":12414:12583   */\n      swap3\n      swap2\n      pop\n      pop\n      jump\t// out\n        /* \"#utility.yul\":12589:12758   */\n    tag_171:\n        /* \"#utility.yul\":12729:12750   */\n      0x4e6f206f7074696f6e732070726f766964656400000000000000000000000000\n        /* \"#utility.yul\":12725:12726   */\n      0x00\n        /* \"#utility.yul\":12717:12723   */\n      dup3\n        /* \"#utility.yul\":12713:12727   */\n      add\n        /* \"#utility.yul\":12706:12751   */\n      mstore\n        /* \"#utility.yul\":12589:12758   */\n      pop\n      jump\t// out\n        /* \"#utility.yul\":12764:13130   */\n    tag_172:\n        /* \"#utility.yul\":12906:12909   */\n      0x00\n        /* \"#utility.yul\":12927:12994   */\n      tag_347\n        /* \"#utility.yul\":12991:12993   */\n      0x13\n        /* \"#utility.yul\":12986:12989   */\n      dup4\n        /* \"#utility.yul\":12927:12994   */\n      tag_170\n      jump\t// in\n    tag_347:\n        /* \"#utility.yul\":12920:12994   */\n      swap2\n      pop\n        /* \"#utility.yul\":13003:13096   */\n      tag_348\n        /* \"#utility.yul\":13092:13095   */\n      dup3\n        /* \"#utility.yul\":13003:13096   */\n      tag_171\n      jump\t// in\n    tag_348:\n        /* \"#utility.yul\":13121:13123   */\n      0x20\n        /* \"#utility.yul\":13116:13119   */\n      dup3\n        /* \"#utility.yul\":13112:13124   */\n      add\n        /* \"#utility.yul\":13105:13124   */\n      swap1\n      pop\n        /* \"#utility.yul\":12764:13130   */\n      swap2\n      swap1\n      pop\n      jump\t// out\n        /* \"#utility.yul\":13136:13555   */\n    tag_25:\n        /* \"#utility.yul\":13302:13306   */\n      0x00\n        /* \"#utility.yul\":13340:13342   */\n      0x20\n        /* \"#utility.yul\":13329:13338   */\n      dup3\n        /* \"#utility.yul\":13325:13343   */\n      add\n        /* \"#utility.yul\":13317:13343   */\n      swap1\n      pop\n        /* \"#utility.yul\":13389:13398   */\n      dup2\n        /* \"#utility.yul\":13383:13387   */\n      dup2\n        /* \"#utility.yul\":13379:13399   */\n      sub\n        /* \"#utility.yul\":13375:13376   */\n      0x00\n        /* \"#utility.yul\":13364:13373   */\n      dup4\n        /* \"#utility.yul\":13360:13377   */\n      add\n        /* \"#utility.yul\":13353:13400   */\n      mstore\n        /* \"#utility.yul\":13417:13548   */\n      tag_350\n        /* \"#utility.yul\":13543:13547   */\n      dup2\n        /* \"#utility.yul\":13417:13548   */\n      tag_172\n      jump\t// in\n    tag_350:\n        /* \"#utility.yul\":13409:13548   */\n      swap1\n      pop\n        /* \"#utility.yul\":13136:13555   */\n      swap2\n      swap1\n      pop\n      jump\t// out\n        /* \"#utility.yul\":13561:13741   */\n    tag_173:\n        /* \"#utility.yul\":13609:13686   */\n      0x4e487b7100000000000000000000000000000000000000000000000000000000\n        /* \"#utility.yul\":13606:13607   */\n      0x00\n        /* \"#utility.yul\":13599:13687   */\n      mstore\n        /* \"#utility.yul\":13706:13710   */\n      0x11\n        /* \"#utility.yul\":13703:13704   */\n      0x04\n        /* \"#utility.yul\":13696:13711   */\n      mstore\n        /* \"#utility.yul\":13730:13734   */\n      0x24\n        /* \"#utility.yul\":13727:13728   */\n      0x00\n        /* \"#utility.yul\":13720:13735   */\n      revert\n        /* \"#utility.yul\":13747:13941   */\n    tag_28:\n        /* \"#utility.yul\":13787:13791   */\n      0x00\n        /* \"#utility.yul\":13807:13827   */\n      tag_353\n        /* \"#utility.yul\":13825:13826   */\n      dup3\n        /* \"#utility.yul\":13807:13827   */\n      tag_149\n      jump\t// in\n    tag_353:\n        /* \"#utility.yul\":13802:13827   */\n      swap2\n      pop\n        /* \"#utility.yul\":13841:13861   */\n      tag_354\n        /* \"#utility.yul\":13859:13860   */\n      dup4\n        /* \"#utility.yul\":13841:13861   */\n      tag_149\n      jump\t// in\n    tag_354:\n        /* \"#utility.yul\":13836:13861   */\n      swap3\n      pop\n        /* \"#utility.yul\":13885:13886   */\n      dup3\n        /* \"#utility.yul\":13882:13883   */\n      dup3\n        /* \"#utility.yul\":13878:13887   */\n      sub\n        /* \"#utility.yul\":13870:13887   */\n      swap1\n      pop\n        /* \"#utility.yul\":13909:13910   */\n      dup2\n        /* \"#utility.yul\":13903:13907   */\n      dup2\n        /* \"#utility.yul\":13900:13911   */\n      gt\n        /* \"#utility.yul\":13897:13934   */\n      iszero\n      tag_355\n      jumpi\n        /* \"#utility.yul\":13914:13932   */\n      tag_356\n      tag_173\n      jump\t// in\n    tag_356:\n        /* \"#utility.yul\":13897:13934   */\n    tag_355:\n        /* \"#utility.yul\":13747:13941   */\n      swap3\n      swap2\n      pop\n      pop\n      jump\t// out\n        /* \"#utility.yul\":13947:14127   */\n    tag_31:\n        /* \"#utility.yul\":13995:14072   */\n      0x4e487b7100000000000000000000000000000000000000000000000000000000\n        /* \"#utility.yul\":13992:13993   */\n      0x00\n        /* \"#utility.yul\":13985:14073   */\n      mstore\n        /* \"#utility.yul\":14092:14096   */\n      0x32\n        /* \"#utility.yul\":14089:14090   */\n      0x04\n        /* \"#utility.yul\":14082:14097   */\n      mstore\n        /* \"#utility.yul\":14116:14120   */\n      0x24\n        /* \"#utility.yul\":14113:14114   */\n      0x00\n        /* \"#utility.yul\":14106:14121   */\n      revert\n        /* \"#utility.yul\":14133:14313   */\n    tag_174:\n        /* \"#utility.yul\":14181:14258   */\n      0x4e487b7100000000000000000000000000000000000000000000000000000000\n        /* \"#utility.yul\":14178:14179   */\n      0x00\n        /* \"#utility.yul\":14171:14259   */\n      mstore\n        /* \"#utility.yul\":14278:14282   */\n      0x22\n        /* \"#utility.yul\":14275:14276   */\n      0x04\n        /* \"#utility.yul\":14268:14283   */\n      mstore\n        /* \"#utility.yul\":14302:14306   */\n      0x24\n        /* \"#utility.yul\":14299:14300   */\n      0x00\n        /* \"#utility.yul\":14292:14307   */\n      revert\n        /* \"#utility.yul\":14319:14639   */\n    tag_63:\n        /* \"#utility.yul\":14363:14369   */\n      0x00\n        /* \"#utility.yul\":14400:14401   */\n      0x02\n        /* \"#utility.yul\":14394:14398   */\n      dup3\n        /* \"#utility.yul\":14390:14402   */\n      div\n        /* \"#utility.yul\":14380:14402   */\n      swap1\n      pop\n        /* \"#utility.yul\":14447:14448   */\n      0x01\n        /* \"#utility.yul\":14441:14445   */\n      dup3\n        /* \"#utility.yul\":14437:14449   */\n      and\n        /* \"#utility.yul\":14468:14486   */\n      dup1\n        /* \"#utility.yul\":14458:14539   */\n      tag_360\n      jumpi\n        /* \"#utility.yul\":14524:14528   */\n      0x7f\n        /* \"#utility.yul\":14516:14522   */\n      dup3\n        /* \"#utility.yul\":14512:14529   */\n      and\n        /* \"#utility.yul\":14502:14529   */\n      swap2\n      pop\n        /* \"#utility.yul\":14458:14539   */\n    tag_360:\n        /* \"#utility.yul\":14586:14588   */\n      0x20\n        /* \"#utility.yul\":14578:14584   */\n      dup3\n        /* \"#utility.yul\":14575:14589   */\n      lt\n        /* \"#utility.yul\":14555:14573   */\n      dup2\n        /* \"#utility.yul\":14552:14590   */\n      sub\n        /* \"#utility.yul\":14549:14633   */\n      tag_361\n      jumpi\n        /* \"#utility.yul\":14605:14623   */\n      tag_362\n      tag_174\n      jump\t// in\n    tag_362:\n        /* \"#utility.yul\":14549:14633   */\n    tag_361:\n        /* \"#utility.yul\":14370:14639   */\n      pop\n        /* \"#utility.yul\":14319:14639   */\n      swap2\n      swap1\n      pop\n      jump\t// out\n        /* \"#utility.yul\":14645:14786   */\n    tag_175:\n        /* \"#utility.yul\":14694:14698   */\n      0x00\n        /* \"#utility.yul\":14717:14720   */\n      dup2\n        /* \"#utility.yul\":14709:14720   */\n      swap1\n      pop\n        /* \"#utility.yul\":14740:14743   */\n      dup2\n        /* \"#utility.yul\":14737:14738   */\n      0x00\n        /* \"#utility.yul\":14730:14744   */\n      mstore\n        /* \"#utility.yul\":14774:14778   */\n      0x20\n        /* \"#utility.yul\":14771:14772   */\n      0x00\n        /* \"#utility.yul\":14761:14779   */\n      keccak256\n        /* \"#utility.yul\":14753:14779   */\n      swap1\n      pop\n        /* \"#utility.yul\":14645:14786   */\n      swap2\n      swap1\n      pop\n      jump\t// out\n        /* \"#utility.yul\":14792:14885   */\n    tag_176:\n        /* \"#utility.yul\":14829:14835   */\n      0x00\n        /* \"#utility.yul\":14876:14878   */\n      0x20\n        /* \"#utility.yul\":14871:14873   */\n      0x1f\n        /* \"#utility.yul\":14864:14869   */\n      dup4\n        /* \"#utility.yul\":14860:14874   */\n      add\n        /* \"#utility.yul\":14856:14879   */\n      div\n        /* \"#utility.yul\":14846:14879   */\n      swap1\n      pop\n        /* \"#utility.yul\":14792:14885   */\n      swap2\n      swap1\n      pop\n      jump\t// out\n        /* \"#utility.yul\":14891:14998   */\n    tag_177:\n        /* \"#utility.yul\":14935:14943   */\n      0x00\n        /* \"#utility.yul\":14985:14990   */\n      dup3\n        /* \"#utility.yul\":14979:14983   */\n      dup3\n        /* \"#utility.yul\":14975:14991   */\n      shl\n        /* \"#utility.yul\":14954:14991   */\n      swap1\n      pop\n        /* \"#utility.yul\":14891:14998   */\n      swap3\n      swap2\n      pop\n      pop\n      jump\t// out\n        /* \"#utility.yul\":15004:15397   */\n    tag_178:\n        /* \"#utility.yul\":15073:15079   */\n      0x00\n        /* \"#utility.yul\":15123:15124   */\n      0x08\n        /* \"#utility.yul\":15111:15121   */\n      dup4\n        /* \"#utility.yul\":15107:15125   */\n      mul\n        /* \"#utility.yul\":15146:15243   */\n      tag_367\n        /* \"#utility.yul\":15176:15242   */\n      0xffffffffffffffffffffffffffffffffffffffffffffffffffffffffffffffff\n        /* \"#utility.yul\":15165:15174   */\n      dup3\n        /* \"#utility.yul\":15146:15243   */\n      tag_177\n      jump\t// in\n    tag_367:\n        /* \"#utility.yul\":15264:15303   */\n      tag_368\n        /* \"#utility.yul\":15294:15302   */\n      dup7\n        /* \"#utility.yul\":15283:15292   */\n      dup4\n        /* \"#utility.yul\":15264:15303   */\n      tag_177\n      jump\t// in\n    tag_368:\n        /* \"#utility.yul\":15252:15303   */\n      swap6\n      pop\n        /* \"#utility.yul\":15336:15340   */\n      dup1\n        /* \"#utility.yul\":15332:15341   */\n      not\n        /* \"#utility.yul\":15325:15330   */\n      dup5\n        /* \"#utility.yul\":15321:15342   */\n      and\n        /* \"#utility.yul\":15312:15342   */\n      swap4\n      pop\n        /* \"#utility.yul\":15385:15389   */\n      dup1\n        /* \"#utility.yul\":15375:15383   */\n      dup7\n        /* \"#utility.yul\":15371:15390   */\n      and\n        /* \"#utility.yul\":15364:15369   */\n      dup5\n        /* \"#utility.yul\":15361:15391   */\n      or\n        /* \"#utility.yul\":15351:15391   */\n      swap3\n      pop\n        /* \"#utility.yul\":15080:15397   */\n      pop\n      pop\n        /* \"#utility.yul\":15004:15397   */\n      swap4\n      swap3\n      pop\n      pop\n      pop\n      jump\t// out\n        /* \"#utility.yul\":15403:15463   */\n    tag_179:\n        /* \"#utility.yul\":15431:15434   */\n      0x00\n        /* \"#utility.yul\":15452:15457   */\n      dup2\n        /* \"#utility.yul\":15445:15457   */\n      swap1\n      pop\n        /* \"#utility.yul\":15403:15463   */\n      swap2\n      swap1\n      pop\n      jump\t// out\n        /* \"#utility.yul\":15469:15611   */\n    tag_180:\n        /* \"#utility.yul\":15519:15528   */\n      0x00\n        /* \"#utility.yul\":15552:15605   */\n      tag_371\n        /* \"#utility.yul\":15570:15604   */\n      tag_372\n        /* \"#utility.yul\":15579:15603   */\n      tag_373\n        /* \"#utility.yul\":15597:15602   */\n      dup5\n        /* \"#utility.yul\":15579:15603   */\n      tag_149\n      jump\t// in\n    tag_373:\n        /* \"#utility.yul\":15570:15604   */\n      tag_179\n      jump\t// in\n    tag_372:\n        /* \"#utility.yul\":15552:15605   */\n      tag_149\n      jump\t// in\n    tag_371:\n        /* \"#utility.yul\":15539:15605   */\n      swap1\n      pop\n        /* \"#utility.yul\":15469:15611   */\n      swap2\n      swap1\n      pop\n      jump\t// out\n        /* \"#utility.yul\":15617:15692   */\n    tag_181:\n        /* \"#utility.yul\":15660:15663   */\n      0x00\n        /* \"#utility.yul\":15681:15686   */\n      dup2\n        /* \"#utility.yul\":15674:15686   */\n      swap1\n      pop\n        /* \"#utility.yul\":15617:15692   */\n      swap2\n      swap1\n      pop\n      jump\t// out\n        /* \"#utility.yul\":15698:15967   */\n    tag_182:\n        /* \"#utility.yul\":15808:15847   */\n      tag_376\n        /* \"#utility.yul\":15839:15846   */\n      dup4\n        /* \"#utility.yul\":15808:15847   */\n      tag_180\n      jump\t// in\n    tag_376:\n        /* \"#utility.yul\":15869:15960   */\n      tag_377\n        /* \"#utility.yul\":15918:15959   */\n      tag_378\n        /* \"#utility.yul\":15942:15958   */\n      dup3\n        /* \"#utility.yul\":15918:15959   */\n      tag_181\n      jump\t// in\n    tag_378:\n        /* \"#utility.yul\":15910:15916   */\n      dup5\n        /* \"#utility.yul\":15903:15907   */\n      dup5\n        /* \"#utility.yul\":15897:15908   */\n      sload\n        /* \"#utility.yul\":15869:15960   */\n      tag_178\n      jump\t// in\n    tag_377:\n        /* \"#utility.yul\":15863:15867   */\n      dup3\n        /* \"#utility.yul\":15856:15961   */\n      sstore\n        /* \"#utility.yul\":15774:15967   */\n      pop\n        /* \"#utility.yul\":15698:15967   */\n      pop\n      pop\n      pop\n      jump\t// out\n        /* \"#utility.yul\":15973:16046   */\n    tag_183:\n        /* \"#utility.yul\":16018:16021   */\n      0x00\n        /* \"#utility.yul\":15973:16046   */\n      swap1\n      jump\t// out\n        /* \"#utility.yul\":16052:16241   */\n    tag_184:\n        /* \"#utility.yul\":16129:16161   */\n      tag_381\n      tag_183\n      jump\t// in\n    tag_381:\n        /* \"#utility.yul\":16170:16235   */\n      tag_382\n        /* \"#utility.yul\":16228:16234   */\n      dup2\n        /* \"#utility.yul\":16220:16226   */\n      dup5\n        /* \"#utility.yul\":16214:16218   */\n      dup5\n        /* \"#utility.yul\":16170:16235   */\n      tag_182\n      jump\t// in\n    tag_382:\n        /* \"#utility.yul\":16105:16241   */\n      pop\n        /* \"#utility.yul\":16052:16241   */\n      pop\n      pop\n      jump\t// out\n        /* \"#utility.yul\":16247:16433   */\n    tag_185:\n        /* \"#utility.yul\":16307:16427   */\n    tag_384:\n        /* \"#utility.yul\":16324:16327   */\n      dup2\n        /* \"#utility.yul\":16317:16322   */\n      dup2\n        /* \"#utility.yul\":16314:16328   */\n      lt\n        /* \"#utility.yul\":16307:16427   */\n      iszero\n      tag_386\n      jumpi\n        /* \"#utility.yul\":16378:16417   */\n      tag_387\n        /* \"#utility.yul\":16415:16416   */\n      0x00\n        /* \"#utility.yul\":16408:16413   */\n      dup3\n        /* \"#utility.yul\":16378:16417   */\n      tag_184\n      jump\t// in\n    tag_387:\n        /* \"#utility.yul\":16351:16352   */\n      0x01\n        /* \"#utility.yul\":16344:16349   */\n      dup2\n        /* \"#utility.yul\":16340:16353   */\n      add\n        /* \"#utility.yul\":16331:16353   */\n      swap1\n      pop\n        /* \"#utility.yul\":16307:16427   */\n      jump(tag_384)\n    tag_386:\n        /* \"#utility.yul\":16247:16433   */\n      pop\n      pop\n      jump\t// out\n        /* \"#utility.yul\":16439:16982   */\n    tag_186:\n        /* \"#utility.yul\":16540:16542   */\n      0x1f\n        /* \"#utility.yul\":16535:16538   */\n      dup3\n        /* \"#utility.yul\":16532:16543   */\n      gt\n        /* \"#utility.yul\":16529:16975   */\n      iszero\n      tag_389\n      jumpi\n        /* \"#utility.yul\":16574:16612   */\n      tag_390\n        /* \"#utility.yul\":16606:16611   */\n      dup2\n        /* \"#utility.yul\":16574:16612   */\n      tag_175\n      jump\t// in\n    tag_390:\n        /* \"#utility.yul\":16658:16687   */\n      tag_391\n        /* \"#utility.yul\":16676:16686   */\n      dup5\n        /* \"#utility.yul\":16658:16687   */\n      tag_176\n      jump\t// in\n    tag_391:\n        /* \"#utility.yul\":16648:16656   */\n      dup2\n        /* \"#utility.yul\":16644:16688   */\n      add\n        /* \"#utility.yul\":16841:16843   */\n      0x20\n        /* \"#utility.yul\":16829:16839   */\n      dup6\n        /* \"#utility.yul\":16826:16844   */\n      lt\n        /* \"#utility.yul\":16823:16872   */\n      iszero\n      tag_392\n      jumpi\n        /* \"#utility.yul\":16862:16870   */\n      dup2\n        /* \"#utility.yul\":16847:16870   */\n      swap1\n      pop\n        /* \"#utility.yul\":16823:16872   */\n    tag_392:\n        /* \"#utility.yul\":16885:16965   */\n      tag_393\n        /* \"#utility.yul\":16941:16963   */\n      tag_394\n        /* \"#utility.yul\":16959:16962   */\n      dup6\n        /* \"#utility.yul\":16941:16963   */\n      tag_176\n      jump\t// in\n    tag_394:\n        /* \"#utility.yul\":16931:16939   */\n      dup4\n        /* \"#utility.yul\":16927:16964   */\n      add\n        /* \"#utility.yul\":16914:16925   */\n      dup3\n        /* \"#utility.yul\":16885:16965   */\n      tag_185\n      jump\t// in\n    tag_393:\n        /* \"#utility.yul\":16544:16975   */\n      pop\n      pop\n        /* \"#utility.yul\":16529:16975   */\n    tag_389:\n        /* \"#utility.yul\":16439:16982   */\n      pop\n      pop\n      pop\n      jump\t// out\n        /* \"#utility.yul\":16988:17105   */\n    tag_187:\n        /* \"#utility.yul\":17042:17050   */\n      0x00\n        /* \"#utility.yul\":17092:17097   */\n      dup3\n        /* \"#utility.yul\":17086:17090   */\n      dup3\n        /* \"#utility.yul\":17082:17098   */\n      shr\n        /* \"#utility.yul\":17061:17098   */\n      swap1\n      pop\n        /* \"#utility.yul\":16988:17105   */\n      swap3\n      swap2\n      pop\n      pop\n      jump\t// out\n        /* \"#utility.yul\":17111:17280   */\n    tag_188:\n        /* \"#utility.yul\":17155:17161   */\n      0x00\n        /* \"#utility.yul\":17188:17239   */\n      tag_397\n        /* \"#utility.yul\":17236:17237   */\n      0x00\n        /* \"#utility.yul\":17232:17238   */\n      not\n        /* \"#utility.yul\":17224:17229   */\n      dup5\n        /* \"#utility.yul\":17221:17222   */\n      0x08\n        /* \"#utility.yul\":17217:17230   */\n      mul\n        /* \"#utility.yul\":17188:17239   */\n      tag_187\n      jump\t// in\n    tag_397:\n        /* \"#utility.yul\":17184:17240   */\n      not\n        /* \"#utility.yul\":17269:17273   */\n      dup1\n        /* \"#utility.yul\":17263:17267   */\n      dup4\n        /* \"#utility.yul\":17259:17274   */\n      and\n        /* \"#utility.yul\":17249:17274   */\n      swap2\n      pop\n        /* \"#utility.yul\":17162:17280   */\n      pop\n        /* \"#utility.yul\":17111:17280   */\n      swap3\n      swap2\n      pop\n      pop\n      jump\t// out\n        /* \"#utility.yul\":17285:17580   */\n    tag_189:\n        /* \"#utility.yul\":17361:17365   */\n      0x00\n        /* \"#utility.yul\":17507:17536   */\n      tag_399\n        /* \"#utility.yul\":17532:17535   */\n      dup4\n        /* \"#utility.yul\":17526:17530   */\n      dup4\n        /* \"#utility.yul\":17507:17536   */\n      tag_188\n      jump\t// in\n    tag_399:\n        /* \"#utility.yul\":17499:17536   */\n      swap2\n      pop\n        /* \"#utility.yul\":17569:17572   */\n      dup3\n        /* \"#utility.yul\":17566:17567   */\n      0x02\n        /* \"#utility.yul\":17562:17573   */\n      mul\n        /* \"#utility.yul\":17556:17560   */\n      dup3\n        /* \"#utility.yul\":17553:17574   */\n      or\n        /* \"#utility.yul\":17545:17574   */\n      swap1\n      pop\n        /* \"#utility.yul\":17285:17580   */\n      swap3\n      swap2\n      pop\n      pop\n      jump\t// out\n        /* \"#utility.yul\":17585:18980   */\n    tag_34:\n        /* \"#utility.yul\":17702:17739   */\n      tag_401\n        /* \"#utility.yul\":17735:17738   */\n      dup3\n        /* \"#utility.yul\":17702:17739   */\n      tag_156\n      jump\t// in\n    tag_401:\n        /* \"#utility.yul\":17804:17822   */\n      0xffffffffffffffff\n        /* \"#utility.yul\":17796:17802   */\n      dup2\n        /* \"#utility.yul\":17793:17823   */\n      gt\n        /* \"#utility.yul\":17790:17846   */\n      iszero\n      tag_402\n      jumpi\n        /* \"#utility.yul\":17826:17844   */\n      tag_403\n      tag_86\n      jump\t// in\n    tag_403:\n        /* \"#utility.yul\":17790:17846   */\n    tag_402:\n        /* \"#utility.yul\":17870:17908   */\n      tag_404\n        /* \"#utility.yul\":17902:17906   */\n      dup3\n        /* \"#utility.yul\":17896:17907   */\n      sload\n        /* \"#utility.yul\":17870:17908   */\n      tag_63\n      jump\t// in\n    tag_404:\n        /* \"#utility.yul\":17955:18022   */\n      tag_405\n        /* \"#utility.yul\":18015:18021   */\n      dup3\n        /* \"#utility.yul\":18007:18013   */\n      dup3\n        /* \"#utility.yul\":18001:18005   */\n      dup6\n        /* \"#utility.yul\":17955:18022   */\n      tag_186\n      jump\t// in\n    tag_405:\n        /* \"#utility.yul\":18049:18050   */\n      0x00\n        /* \"#utility.yul\":18073:18077   */\n      0x20\n        /* \"#utility.yul\":18060:18077   */\n      swap1\n      pop\n        /* \"#utility.yul\":18105:18107   */\n      0x1f\n        /* \"#utility.yul\":18097:18103   */\n      dup4\n        /* \"#utility.yul\":18094:18108   */\n      gt\n        /* \"#utility.yul\":18122:18123   */\n      0x01\n        /* \"#utility.yul\":18117:18735   */\n      dup2\n      eq\n      tag_407\n      jumpi\n        /* \"#utility.yul\":18779:18780   */\n      0x00\n        /* \"#utility.yul\":18796:18802   */\n      dup5\n        /* \"#utility.yul\":18793:18870   */\n      iszero\n      tag_408\n      jumpi\n        /* \"#utility.yul\":18845:18854   */\n      dup3\n        /* \"#utility.yul\":18840:18843   */\n      dup8\n        /* \"#utility.yul\":18836:18855   */\n      add\n        /* \"#utility.yul\":18830:18856   */\n      mload\n        /* \"#utility.yul\":18821:18856   */\n      swap1\n      pop\n        /* \"#utility.yul\":18793:18870   */\n    tag_408:\n        /* \"#utility.yul\":18896:18963   */\n      tag_409\n        /* \"#utility.yul\":18956:18962   */\n      dup6\n        /* \"#utility.yul\":18949:18954   */\n      dup3\n        /* \"#utility.yul\":18896:18963   */\n      tag_189\n      jump\t// in\n    tag_409:\n        /* \"#utility.yul\":18890:18894   */\n      dup7\n        /* \"#utility.yul\":18883:18964   */\n      sstore\n        /* \"#utility.yul\":18752:18974   */\n      pop\n        /* \"#utility.yul\":18087:18974   */\n      jump(tag_406)\n        /* \"#utility.yul\":18117:18735   */\n    tag_407:\n        /* \"#utility.yul\":18169:18173   */\n      0x1f\n        /* \"#utility.yul\":18165:18174   */\n      not\n        /* \"#utility.yul\":18157:18163   */\n      dup5\n        /* \"#utility.yul\":18153:18175   */\n      and\n        /* \"#utility.yul\":18203:18240   */\n      tag_410\n        /* \"#utility.yul\":18235:18239   */\n      dup7\n        /* \"#utility.yul\":18203:18240   */\n      tag_175\n      jump\t// in\n    tag_410:\n        /* \"#utility.yul\":18262:18263   */\n      0x00\n        /* \"#utility.yul\":18276:18484   */\n    tag_411:\n        /* \"#utility.yul\":18290:18297   */\n      dup3\n        /* \"#utility.yul\":18287:18288   */\n      dup2\n        /* \"#utility.yul\":18284:18298   */\n      lt\n        /* \"#utility.yul\":18276:18484   */\n      iszero\n      tag_413\n      jumpi\n        /* \"#utility.yul\":18369:18378   */\n      dup5\n        /* \"#utility.yul\":18364:18367   */\n      dup10\n        /* \"#utility.yul\":18360:18379   */\n      add\n        /* \"#utility.yul\":18354:18380   */\n      mload\n        /* \"#utility.yul\":18346:18352   */\n      dup3\n        /* \"#utility.yul\":18339:18381   */\n      sstore\n        /* \"#utility.yul\":18420:18421   */\n      0x01\n        /* \"#utility.yul\":18412:18418   */\n      dup3\n        /* \"#utility.yul\":18408:18422   */\n      add\n        /* \"#utility.yul\":18398:18422   */\n      swap2\n      pop\n        /* \"#utility.yul\":18467:18469   */\n      0x20\n        /* \"#utility.yul\":18456:18465   */\n      dup6\n        /* \"#utility.yul\":18452:18470   */\n      add\n        /* \"#utility.yul\":18439:18470   */\n      swap5\n      pop\n        /* \"#utility.yul\":18313:18317   */\n      0x20\n        /* \"#utility.yul\":18310:18311   */\n      dup2\n        /* \"#utility.yul\":18306:18318   */\n      add\n        /* \"#utility.yul\":18301:18318   */\n      swap1\n      pop\n        /* \"#utility.yul\":18276:18484   */\n      jump(tag_411)\n    tag_413:\n        /* \"#utility.yul\":18512:18518   */\n      dup7\n        /* \"#utility.yul\":18503:18510   */\n      dup4\n        /* \"#utility.yul\":18500:18519   */\n      lt\n        /* \"#utility.yul\":18497:18676   */\n      iszero\n      tag_414\n      jumpi\n        /* \"#utility.yul\":18570:18579   */\n      dup5\n        /* \"#utility.yul\":18565:18568   */\n      dup10\n        /* \"#utility.yul\":18561:18580   */\n      add\n        /* \"#utility.yul\":18555:18581   */\n      mload\n        /* \"#utility.yul\":18613:18661   */\n      tag_415\n        /* \"#utility.yul\":18655:18659   */\n      0x1f\n        /* \"#utility.yul\":18647:18653   */\n      dup10\n        /* \"#utility.yul\":18643:18660   */\n      and\n        /* \"#utility.yul\":18632:18641   */\n      dup3\n        /* \"#utility.yul\":18613:18661   */\n      tag_188\n      jump\t// in\n    tag_415:\n        /* \"#utility.yul\":18605:18611   */\n      dup4\n        /* \"#utility.yul\":18598:18662   */\n      sstore\n        /* \"#utility.yul\":18520:18676   */\n      pop\n        /* \"#utility.yul\":18497:18676   */\n    tag_414:\n        /* \"#utility.yul\":18722:18723   */\n      0x01\n        /* \"#utility.yul\":18718:18719   */\n      0x02\n        /* \"#utility.yul\":18710:18716   */\n      dup9\n        /* \"#utility.yul\":18706:18720   */\n      mul\n        /* \"#utility.yul\":18702:18724   */\n      add\n        /* \"#utility.yul\":18696:18700   */\n      dup9\n        /* \"#utility.yul\":18689:18725   */\n      sstore\n        /* \"#utility.yul\":18124:18735   */\n      pop\n      pop\n      pop\n        /* \"#utility.yul\":18087:18974   */\n    tag_406:\n      pop\n        /* \"#utility.yul\":17677:18980   */\n      pop\n      pop\n      pop\n        /* \"#utility.yul\":17585:18980   */\n      pop\n      pop\n      jump\t// out\n        /* \"#utility.yul\":18986:19183   */\n    tag_38:\n        /* \"#utility.yul\":19025:19028   */\n      0x00\n        /* \"#utility.yul\":19044:19063   */\n      tag_417\n        /* \"#utility.yul\":19061:19062   */\n      dup3\n        /* \"#utility.yul\":19044:19063   */\n      tag_146\n      jump\t// in\n    tag_417:\n        /* \"#utility.yul\":19039:19063   */\n      swap2\n      pop\n        /* \"#utility.yul\":19077:19096   */\n      tag_418\n        /* \"#utility.yul\":19094:19095   */\n      dup4\n        /* \"#utility.yul\":19077:19096   */\n      tag_146\n      jump\t// in\n    tag_418:\n        /* \"#utility.yul\":19072:19096   */\n      swap3\n      pop\n        /* \"#utility.yul\":19119:19120   */\n      dup3\n        /* \"#utility.yul\":19116:19117   */\n      dup3\n        /* \"#utility.yul\":19112:19121   */\n      add\n        /* \"#utility.yul\":19105:19121   */\n      swap1\n      pop\n        /* \"#utility.yul\":19142:19152   */\n      0xffffffff\n        /* \"#utility.yul\":19137:19140   */\n      dup2\n        /* \"#utility.yul\":19134:19153   */\n      gt\n        /* \"#utility.yul\":19131:19176   */\n      iszero\n      tag_419\n      jumpi\n        /* \"#utility.yul\":19156:19174   */\n      tag_420\n      tag_173\n      jump\t// in\n    tag_420:\n        /* \"#utility.yul\":19131:19176   */\n    tag_419:\n        /* \"#utility.yul\":18986:19183   */\n      swap3\n      swap2\n      pop\n      pop\n      jump\t// out\n        /* \"#utility.yul\":19189:19566   */\n    tag_190:\n        /* \"#utility.yul\":19277:19280   */\n      0x00\n        /* \"#utility.yul\":19305:19344   */\n      tag_422\n        /* \"#utility.yul\":19338:19343   */\n      dup3\n        /* \"#utility.yul\":19305:19344   */\n      tag_156\n      jump\t// in\n    tag_422:\n        /* \"#utility.yul\":19360:19431   */\n      tag_423\n        /* \"#utility.yul\":19424:19430   */\n      dup2\n        /* \"#utility.yul\":19419:19422   */\n      dup6\n        /* \"#utility.yul\":19360:19431   */\n      tag_170\n      jump\t// in\n    tag_423:\n        /* \"#utility.yul\":19353:19431   */\n      swap4\n      pop\n        /* \"#utility.yul\":19440:19505   */\n      tag_424\n        /* \"#utility.yul\":19498:19504   */\n      dup2\n        /* \"#utility.yul\":19493:19496   */\n      dup6\n        /* \"#utility.yul\":19486:19490   */\n      0x20\n        /* \"#utility.yul\":19479:19484   */\n      dup7\n        /* \"#utility.yul\":19475:19491   */\n      add\n        /* \"#utility.yul\":19440:19505   */\n      tag_158\n      jump\t// in\n    tag_424:\n        /* \"#utility.yul\":19530:19559   */\n      tag_425\n        /* \"#utility.yul\":19552:19558   */\n      dup2\n        /* \"#utility.yul\":19530:19559   */\n      tag_135\n      jump\t// in\n    tag_425:\n        /* \"#utility.yul\":19525:19528   */\n      dup5\n        /* \"#utility.yul\":19521:19560   */\n      add\n        /* \"#utility.yul\":19514:19560   */\n      swap2\n      pop\n        /* \"#utility.yul\":19281:19566   */\n      pop\n        /* \"#utility.yul\":19189:19566   */\n      swap3\n      swap2\n      pop\n      pop\n      jump\t// out\n        /* \"#utility.yul\":19572:19712   */\n    tag_191:\n        /* \"#utility.yul\":19621:19630   */\n      0x00\n        /* \"#utility.yul\":19654:19706   */\n      tag_427\n        /* \"#utility.yul\":19672:19705   */\n      tag_428\n        /* \"#utility.yul\":19681:19704   */\n      tag_429\n        /* \"#utility.yul\":19698:19703   */\n      dup5\n        /* \"#utility.yul\":19681:19704   */\n      tag_146\n      jump\t// in\n    tag_429:\n        /* \"#utility.yul\":19672:19705   */\n      tag_179\n      jump\t// in\n    tag_428:\n        /* \"#utility.yul\":19654:19706   */\n      tag_149\n      jump\t// in\n    tag_427:\n        /* \"#utility.yul\":19641:19706   */\n      swap1\n      pop\n        /* \"#utility.yul\":19572:19712   */\n      swap2\n      swap1\n      pop\n      jump\t// out\n        /* \"#utility.yul\":19718:19847   */\n    tag_192:\n        /* \"#utility.yul\":19804:19840   */\n      tag_431\n        /* \"#utility.yul\":19834:19839   */\n      dup2\n        /* \"#utility.yul\":19804:19840   */\n      tag_191\n      jump\t// in\n    tag_431:\n        /* \"#utility.yul\":19799:19802   */\n      dup3\n        /* \"#utility.yul\":19792:19841   */\n      mstore\n        /* \"#utility.yul\":19718:19847   */\n      pop\n      pop\n      jump\t// out\n        /* \"#utility.yul\":19853:20575   */\n    tag_40:\n        /* \"#utility.yul\":20091:20095   */\n      0x00\n        /* \"#utility.yul\":20129:20131   */\n      0x60\n        /* \"#utility.yul\":20118:20127   */\n      dup3\n        /* \"#utility.yul\":20114:20132   */\n      add\n        /* \"#utility.yul\":20106:20132   */\n      swap1\n      pop\n        /* \"#utility.yul\":20178:20187   */\n      dup2\n        /* \"#utility.yul\":20172:20176   */\n      dup2\n        /* \"#utility.yul\":20168:20188   */\n      sub\n        /* \"#utility.yul\":20164:20165   */\n      0x00\n        /* \"#utility.yul\":20153:20162   */\n      dup4\n        /* \"#utility.yul\":20149:20166   */\n      add\n        /* \"#utility.yul\":20142:20189   */\n      mstore\n        /* \"#utility.yul\":20206:20284   */\n      tag_433\n        /* \"#utility.yul\":20279:20283   */\n      dup2\n        /* \"#utility.yul\":20270:20276   */\n      dup7\n        /* \"#utility.yul\":20206:20284   */\n      tag_190\n      jump\t// in\n    tag_433:\n        /* \"#utility.yul\":20198:20284   */\n      swap1\n      pop\n        /* \"#utility.yul\":20331:20340   */\n      dup2\n        /* \"#utility.yul\":20325:20329   */\n      dup2\n        /* \"#utility.yul\":20321:20341   */\n      sub\n        /* \"#utility.yul\":20316:20318   */\n      0x20\n        /* \"#utility.yul\":20305:20314   */\n      dup4\n        /* \"#utility.yul\":20301:20319   */\n      add\n        /* \"#utility.yul\":20294:20342   */\n      mstore\n        /* \"#utility.yul\":20359:20487   */\n      tag_434\n        /* \"#utility.yul\":20482:20486   */\n      dup2\n        /* \"#utility.yul\":20473:20479   */\n      dup6\n        /* \"#utility.yul\":20359:20487   */\n      tag_162\n      jump\t// in\n    tag_434:\n        /* \"#utility.yul\":20351:20487   */\n      swap1\n      pop\n        /* \"#utility.yul\":20497:20568   */\n      tag_435\n        /* \"#utility.yul\":20564:20566   */\n      0x40\n        /* \"#utility.yul\":20553:20562   */\n      dup4\n        /* \"#utility.yul\":20549:20567   */\n      add\n        /* \"#utility.yul\":20540:20546   */\n      dup5\n        /* \"#utility.yul\":20497:20568   */\n      tag_192\n      jump\t// in\n    tag_435:\n        /* \"#utility.yul\":19853:20575   */\n      swap5\n      swap4\n      pop\n      pop\n      pop\n      pop\n      jump\t// out\n        /* \"#utility.yul\":20581:20742   */\n    tag_193:\n        /* \"#utility.yul\":20721:20734   */\n      0x506f6c6c20636c6f736564000000000000000000000000000000000000000000\n        /* \"#utility.yul\":20717:20718   */\n      0x00\n        /* \"#utility.yul\":20709:20715   */\n      dup3\n        /* \"#utility.yul\":20705:20719   */\n      add\n        /* \"#utility.yul\":20698:20735   */\n      mstore\n        /* \"#utility.yul\":20581:20742   */\n      pop\n      jump\t// out\n        /* \"#utility.yul\":20748:21114   */\n    tag_194:\n        /* \"#utility.yul\":20890:20893   */\n      0x00\n        /* \"#utility.yul\":20911:20978   */\n      tag_438\n        /* \"#utility.yul\":20975:20977   */\n      0x0b\n        /* \"#utility.yul\":20970:20973   */\n      dup4\n        /* \"#utility.yul\":20911:20978   */\n      tag_170\n      jump\t// in\n    tag_438:\n        /* \"#utility.yul\":20904:20978   */\n      swap2\n      pop\n        /* \"#utility.yul\":20987:21080   */\n      tag_439\n        /* \"#utility.yul\":21076:21079   */\n      dup3\n        /* \"#utility.yul\":20987:21080   */\n      tag_193\n      jump\t// in\n    tag_439:\n        /* \"#utility.yul\":21105:21107   */\n      0x20\n        /* \"#utility.yul\":21100:21103   */\n      dup3\n        /* \"#utility.yul\":21096:21108   */\n      add\n        /* \"#utility.yul\":21089:21108   */\n      swap1\n      pop\n        /* \"#utility.yul\":20748:21114   */\n      swap2\n      swap1\n      pop\n      jump\t// out\n        /* \"#utility.yul\":21120:21539   */\n    tag_47:\n        /* \"#utility.yul\":21286:21290   */\n      0x00\n        /* \"#utility.yul\":21324:21326   */\n      0x20\n        /* \"#utility.yul\":21313:21322   */\n      dup3\n        /* \"#utility.yul\":21309:21327   */\n      add\n        /* \"#utility.yul\":21301:21327   */\n      swap1\n      pop\n        /* \"#utility.yul\":21373:21382   */\n      dup2\n        /* \"#utility.yul\":21367:21371   */\n      dup2\n        /* \"#utility.yul\":21363:21383   */\n      sub\n        /* \"#utility.yul\":21359:21360   */\n      0x00\n        /* \"#utility.yul\":21348:21357   */\n      dup4\n        /* \"#utility.yul\":21344:21361   */\n      add\n        /* \"#utility.yul\":21337:21384   */\n      mstore\n        /* \"#utility.yul\":21401:21532   */\n      tag_441\n        /* \"#utility.yul\":21527:21531   */\n      dup2\n        /* \"#utility.yul\":21401:21532   */\n      tag_194\n      jump\t// in\n    tag_441:\n        /* \"#utility.yul\":21393:21532   */\n      swap1\n      pop\n        /* \"#utility.yul\":21120:21539   */\n      swap2\n      swap1\n      pop\n      jump\t// out\n        /* \"#utility.yul\":21545:21710   */\n    tag_195:\n        /* \"#utility.yul\":21685:21702   */\n      0x496e76616c696420506f6c6c2049440000000000000000000000000000000000\n        /* \"#utility.yul\":21681:21682   */\n      0x00\n        /* \"#utility.yul\":21673:21679   */\n      dup3\n        /* \"#utility.yul\":21669:21683   */\n      add\n        /* \"#utility.yul\":21662:21703   */\n      mstore\n        /* \"#utility.yul\":21545:21710   */\n      pop\n      jump\t// out\n        /* \"#utility.yul\":21716:22082   */\n    tag_196:\n        /* \"#utility.yul\":21858:21861   */\n      0x00\n        /* \"#utility.yul\":21879:21946   */\n      tag_444\n        /* \"#utility.yul\":21943:21945   */\n      0x0f\n        /* \"#utility.yul\":21938:21941   */\n      dup4\n        /* \"#utility.yul\":21879:21946   */\n      tag_170\n      jump\t// in\n    tag_444:\n        /* \"#utility.yul\":21872:21946   */\n      swap2\n      pop\n        /* \"#utility.yul\":21955:22048   */\n      tag_445\n        /* \"#utility.yul\":22044:22047   */\n      dup3\n        /* \"#utility.yul\":21955:22048   */\n      tag_195\n      jump\t// in\n    tag_445:\n        /* \"#utility.yul\":22073:22075   */\n      0x20\n        /* \"#utility.yul\":22068:22071   */\n      dup3\n        /* \"#utility.yul\":22064:22076   */\n      add\n        /* \"#utility.yul\":22057:22076   */\n      swap1\n      pop\n        /* \"#utility.yul\":21716:22082   */\n      swap2\n      swap1\n      pop\n      jump\t// out\n        /* \"#utility.yul\":22088:22507   */\n    tag_51:\n        /* \"#utility.yul\":22254:22258   */\n      0x00\n        /* \"#utility.yul\":22292:22294   */\n      0x20\n        /* \"#utility.yul\":22281:22290   */\n      dup3\n        /* \"#utility.yul\":22277:22295   */\n      add\n        /* \"#utility.yul\":22269:22295   */\n      swap1\n      pop\n        /* \"#utility.yul\":22341:22350   */\n      dup2\n        /* \"#utility.yul\":22335:22339   */\n      dup2\n        /* \"#utility.yul\":22331:22351   */\n      sub\n        /* \"#utility.yul\":22327:22328   */\n      0x00\n        /* \"#utility.yul\":22316:22325   */\n      dup4\n        /* \"#utility.yul\":22312:22329   */\n      add\n        /* \"#utility.yul\":22305:22352   */\n      mstore\n        /* \"#utility.yul\":22369:22500   */\n      tag_447\n        /* \"#utility.yul\":22495:22499   */\n      dup2\n        /* \"#utility.yul\":22369:22500   */\n      tag_196\n      jump\t// in\n    tag_447:\n        /* \"#utility.yul\":22361:22500   */\n      swap1\n      pop\n        /* \"#utility.yul\":22088:22507   */\n      swap2\n      swap1\n      pop\n      jump\t// out\n        /* \"#utility.yul\":22513:22676   */\n    tag_197:\n        /* \"#utility.yul\":22653:22668   */\n      0x416c726561647920766f74656400000000000000000000000000000000000000\n        /* \"#utility.yul\":22649:22650   */\n      0x00\n        /* \"#utility.yul\":22641:22647   */\n      dup3\n        /* \"#utility.yul\":22637:22651   */\n      add\n        /* \"#utility.yul\":22630:22669   */\n      mstore\n        /* \"#utility.yul\":22513:22676   */\n      pop\n      jump\t// out\n        /* \"#utility.yul\":22682:23048   */\n    tag_198:\n        /* \"#utility.yul\":22824:22827   */\n      0x00\n        /* \"#utility.yul\":22845:22912   */\n      tag_450\n        /* \"#utility.yul\":22909:22911   */\n      0x0d\n        /* \"#utility.yul\":22904:22907   */\n      dup4\n        /* \"#utility.yul\":22845:22912   */\n      tag_170\n      jump\t// in\n    tag_450:\n        /* \"#utility.yul\":22838:22912   */\n      swap2\n      pop\n        /* \"#utility.yul\":22921:23014   */\n      tag_451\n        /* \"#utility.yul\":23010:23013   */\n      dup3\n        /* \"#utility.yul\":22921:23014   */\n      tag_197\n      jump\t// in\n    tag_451:\n        /* \"#utility.yul\":23039:23041   */\n      0x20\n        /* \"#utility.yul\":23034:23037   */\n      dup3\n        /* \"#utility.yul\":23030:23042   */\n      add\n        /* \"#utility.yul\":23023:23042   */\n      swap1\n      pop\n        /* \"#utility.yul\":22682:23048   */\n      swap2\n      swap1\n      pop\n      jump\t// out\n        /* \"#utility.yul\":23054:23473   */\n    tag_57:\n        /* \"#utility.yul\":23220:23224   */\n      0x00\n        /* \"#utility.yul\":23258:23260   */\n      0x20\n        /* \"#utility.yul\":23247:23256   */\n      dup3\n        /* \"#utility.yul\":23243:23261   */\n      add\n        /* \"#utility.yul\":23235:23261   */\n      swap1\n      pop\n        /* \"#utility.yul\":23307:23316   */\n      dup2\n        /* \"#utility.yul\":23301:23305   */\n      dup2\n        /* \"#utility.yul\":23297:23317   */\n      sub\n        /* \"#utility.yul\":23293:23294   */\n      0x00\n        /* \"#utility.yul\":23282:23291   */\n      dup4\n        /* \"#utility.yul\":23278:23295   */\n      add\n        /* \"#utility.yul\":23271:23318   */\n      mstore\n        /* \"#utility.yul\":23335:23466   */\n      tag_453\n        /* \"#utility.yul\":23461:23465   */\n      dup2\n        /* \"#utility.yul\":23335:23466   */\n      tag_198\n      jump\t// in\n    tag_453:\n        /* \"#utility.yul\":23327:23466   */\n      swap1\n      pop\n        /* \"#utility.yul\":23054:23473   */\n      swap2\n      swap1\n      pop\n      jump\t// out\n        /* \"#utility.yul\":23479:23643   */\n    tag_199:\n        /* \"#utility.yul\":23619:23635   */\n      0x496e76616c6964206f7074696f6e000000000000000000000000000000000000\n        /* \"#utility.yul\":23615:23616   */\n      0x00\n        /* \"#utility.yul\":23607:23613   */\n      dup3\n        /* \"#utility.yul\":23603:23617   */\n      add\n        /* \"#utility.yul\":23596:23636   */\n      mstore\n        /* \"#utility.yul\":23479:23643   */\n      pop\n      jump\t// out\n        /* \"#utility.yul\":23649:24015   */\n    tag_200:\n        /* \"#utility.yul\":23791:23794   */\n      0x00\n        /* \"#utility.yul\":23812:23879   */\n      tag_456\n        /* \"#utility.yul\":23876:23878   */\n      0x0e\n        /* \"#utility.yul\":23871:23874   */\n      dup4\n        /* \"#utility.yul\":23812:23879   */\n      tag_170\n      jump\t// in\n    tag_456:\n        /* \"#utility.yul\":23805:23879   */\n      swap2\n      pop\n        /* \"#utility.yul\":23888:23981   */\n      tag_457\n        /* \"#utility.yul\":23977:23980   */\n      dup3\n        /* \"#utility.yul\":23888:23981   */\n      tag_199\n      jump\t// in\n    tag_457:\n        /* \"#utility.yul\":24006:24008   */\n      0x20\n        /* \"#utility.yul\":24001:24004   */\n      dup3\n        /* \"#utility.yul\":23997:24009   */\n      add\n        /* \"#utility.yul\":23990:24009   */\n      swap1\n      pop\n        /* \"#utility.yul\":23649:24015   */\n      swap2\n      swap1\n      pop\n      jump\t// out\n        /* \"#utility.yul\":24021:24440   */\n    tag_71:\n        /* \"#utility.yul\":24187:24191   */\n      0x00\n        /* \"#utility.yul\":24225:24227   */\n      0x20\n        /* \"#utility.yul\":24214:24223   */\n      dup3\n        /* \"#utility.yul\":24210:24228   */\n      add\n        /* \"#utility.yul\":24202:24228   */\n      swap1\n      pop\n        /* \"#utility.yul\":24274:24283   */\n      dup2\n        /* \"#utility.yul\":24268:24272   */\n      dup2\n        /* \"#utility.yul\":24264:24284   */\n      sub\n        /* \"#utility.yul\":24260:24261   */\n      0x00\n        /* \"#utility.yul\":24249:24258   */\n      dup4\n        /* \"#utility.yul\":24245:24262   */\n      add\n        /* \"#utility.yul\":24238:24285   */\n      mstore\n        /* \"#utility.yul\":24302:24433   */\n      tag_459\n        /* \"#utility.yul\":24428:24432   */\n      dup2\n        /* \"#utility.yul\":24302:24433   */\n      tag_200\n      jump\t// in\n    tag_459:\n        /* \"#utility.yul\":24294:24433   */\n      swap1\n      pop\n        /* \"#utility.yul\":24021:24440   */\n      swap2\n      swap1\n      pop\n      jump\t// out\n        /* \"#utility.yul\":24446:24594   */\n    tag_201:\n        /* \"#utility.yul\":24548:24559   */\n      0x00\n        /* \"#utility.yul\":24585:24588   */\n      dup2\n        /* \"#utility.yul\":24570:24588   */\n      swap1\n      pop\n        /* \"#utility.yul\":24446:24594   */\n      swap3\n      swap2\n      pop\n      pop\n      jump\t// out\n        /* \"#utility.yul\":24600:24990   */\n    tag_202:\n        /* \"#utility.yul\":24706:24709   */\n      0x00\n        /* \"#utility.yul\":24734:24773   */\n      tag_462\n        /* \"#utility.yul\":24767:24772   */\n      dup3\n        /* \"#utility.yul\":24734:24773   */\n      tag_156\n      jump\t// in\n    tag_462:\n        /* \"#utility.yul\":24789:24878   */\n      tag_463\n        /* \"#utility.yul\":24871:24877   */\n      dup2\n        /* \"#utility.yul\":24866:24869   */\n      dup6\n        /* \"#utility.yul\":24789:24878   */\n      tag_201\n      jump\t// in\n    tag_463:\n        /* \"#utility.yul\":24782:24878   */\n      swap4\n      pop\n        /* \"#utility.yul\":24887:24952   */\n      tag_464\n        /* \"#utility.yul\":24945:24951   */\n      dup2\n        /* \"#utility.yul\":24940:24943   */\n      dup6\n        /* \"#utility.yul\":24933:24937   */\n      0x20\n        /* \"#utility.yul\":24926:24931   */\n      dup7\n        /* \"#utility.yul\":24922:24938   */\n      add\n        /* \"#utility.yul\":24887:24952   */\n      tag_158\n      jump\t// in\n    tag_464:\n        /* \"#utility.yul\":24977:24983   */\n      dup1\n        /* \"#utility.yul\":24972:24975   */\n      dup5\n        /* \"#utility.yul\":24968:24984   */\n      add\n        /* \"#utility.yul\":24961:24984   */\n      swap2\n      pop\n        /* \"#utility.yul\":24710:24990   */\n      pop\n        /* \"#utility.yul\":24600:24990   */\n      swap3\n      swap2\n      pop\n      pop\n      jump\t// out\n        /* \"#utility.yul\":24996:25271   */\n    tag_73:\n        /* \"#utility.yul\":25128:25131   */\n      0x00\n        /* \"#utility.yul\":25150:25245   */\n      tag_466\n        /* \"#utility.yul\":25241:25244   */\n      dup3\n        /* \"#utility.yul\":25232:25238   */\n      dup5\n        /* \"#utility.yul\":25150:25245   */\n      tag_202\n      jump\t// in\n    tag_466:\n        /* \"#utility.yul\":25143:25245   */\n      swap2\n      pop\n        /* \"#utility.yul\":25262:25265   */\n      dup2\n        /* \"#utility.yul\":25255:25265   */\n      swap1\n      pop\n        /* \"#utility.yul\":24996:25271   */\n      swap3\n      swap2\n      pop\n      pop\n      jump\t// out\n        /* \"#utility.yul\":25277:25510   */\n    tag_75:\n        /* \"#utility.yul\":25316:25319   */\n      0x00\n        /* \"#utility.yul\":25339:25363   */\n      tag_468\n        /* \"#utility.yul\":25357:25362   */\n      dup3\n        /* \"#utility.yul\":25339:25363   */\n      tag_149\n      jump\t// in\n    tag_468:\n        /* \"#utility.yul\":25330:25363   */\n      swap2\n      pop\n        /* \"#utility.yul\":25385:25451   */\n      0xffffffffffffffffffffffffffffffffffffffffffffffffffffffffffffffff\n        /* \"#utility.yul\":25378:25383   */\n      dup3\n        /* \"#utility.yul\":25375:25452   */\n      sub\n        /* \"#utility.yul\":25372:25475   */\n      tag_469\n      jumpi\n        /* \"#utility.yul\":25455:25473   */\n      tag_470\n      tag_173\n      jump\t// in\n    tag_470:\n        /* \"#utility.yul\":25372:25475   */\n    tag_469:\n        /* \"#utility.yul\":25502:25503   */\n      0x01\n        /* \"#utility.yul\":25495:25500   */\n      dup3\n        /* \"#utility.yul\":25491:25504   */\n      add\n        /* \"#utility.yul\":25484:25504   */\n      swap1\n      pop\n        /* \"#utility.yul\":25277:25510   */\n      swap2\n      swap1\n      pop\n      jump\t// out\n        /* \"#utility.yul\":25516:25642   */\n    tag_203:\n        /* \"#utility.yul\":25553:25560   */\n      0x00\n        /* \"#utility.yul\":25593:25635   */\n      0xffffffffffffffffffffffffffffffffffffffff\n        /* \"#utility.yul\":25586:25591   */\n      dup3\n        /* \"#utility.yul\":25582:25636   */\n      and\n        /* \"#utility.yul\":25571:25636   */\n      swap1\n      pop\n        /* \"#utility.yul\":25516:25642   */\n      swap2\n      swap1\n      pop\n      jump\t// out\n        /* \"#utility.yul\":25648:25744   */\n    tag_204:\n        /* \"#utility.yul\":25685:25692   */\n      0x00\n        /* \"#utility.yul\":25714:25738   */\n      tag_473\n        /* \"#utility.yul\":25732:25737   */\n      dup3\n        /* \"#utility.yul\":25714:25738   */\n      tag_203\n      jump\t// in\n    tag_473:\n        /* \"#utility.yul\":25703:25738   */\n      swap1\n      pop\n        /* \"#utility.yul\":25648:25744   */\n      swap2\n      swap1\n      pop\n      jump\t// out\n        /* \"#utility.yul\":25750:25844   */\n    tag_205:\n        /* \"#utility.yul\":25783:25791   */\n      0x00\n        /* \"#utility.yul\":25831:25836   */\n      dup2\n        /* \"#utility.yul\":25827:25829   */\n      0x60\n        /* \"#utility.yul\":25823:25837   */\n      shl\n        /* \"#utility.yul\":25802:25837   */\n      swap1\n      pop\n        /* \"#utility.yul\":25750:25844   */\n      swap2\n      swap1\n      pop\n      jump\t// out\n        /* \"#utility.yul\":25850:25944   */\n    tag_206:\n        /* \"#utility.yul\":25889:25896   */\n      0x00\n        /* \"#utility.yul\":25918:25938   */\n      tag_476\n        /* \"#utility.yul\":25932:25937   */\n      dup3\n        /* \"#utility.yul\":25918:25938   */\n      tag_205\n      jump\t// in\n    tag_476:\n        /* \"#utility.yul\":25907:25938   */\n      swap1\n      pop\n        /* \"#utility.yul\":25850:25944   */\n      swap2\n      swap1\n      pop\n      jump\t// out\n        /* \"#utility.yul\":25950:26050   */\n    tag_207:\n        /* \"#utility.yul\":25989:25996   */\n      0x00\n        /* \"#utility.yul\":26018:26044   */\n      tag_478\n        /* \"#utility.yul\":26038:26043   */\n      dup3\n        /* \"#utility.yul\":26018:26044   */\n      tag_206\n      jump\t// in\n    tag_478:\n        /* \"#utility.yul\":26007:26044   */\n      swap1\n      pop\n        /* \"#utility.yul\":25950:26050   */\n      swap2\n      swap1\n      pop\n      jump\t// out\n        /* \"#utility.yul\":26056:26213   */\n    tag_208:\n        /* \"#utility.yul\":26161:26206   */\n      tag_480\n        /* \"#utility.yul\":26181:26205   */\n      tag_481\n        /* \"#utility.yul\":26199:26204   */\n      dup3\n        /* \"#utility.yul\":26181:26205   */\n      tag_204\n      jump\t// in\n    tag_481:\n        /* \"#utility.yul\":26161:26206   */\n      tag_207\n      jump\t// in\n    tag_480:\n        /* \"#utility.yul\":26156:26159   */\n      dup3\n        /* \"#utility.yul\":26149:26207   */\n      mstore\n        /* \"#utility.yul\":26056:26213   */\n      pop\n      pop\n      jump\t// out\n        /* \"#utility.yul\":26219:26380   */\n    tag_209:\n        /* \"#utility.yul\":26359:26372   */\n      0x2068617320766f7465642e000000000000000000000000000000000000000000\n        /* \"#utility.yul\":26355:26356   */\n      0x00\n        /* \"#utility.yul\":26347:26353   */\n      dup3\n        /* \"#utility.yul\":26343:26357   */\n      add\n        /* \"#utility.yul\":26336:26373   */\n      mstore\n        /* \"#utility.yul\":26219:26380   */\n      pop\n      jump\t// out\n        /* \"#utility.yul\":26386:26788   */\n    tag_210:\n        /* \"#utility.yul\":26546:26549   */\n      0x00\n        /* \"#utility.yul\":26567:26652   */\n      tag_484\n        /* \"#utility.yul\":26649:26651   */\n      0x0b\n        /* \"#utility.yul\":26644:26647   */\n      dup4\n        /* \"#utility.yul\":26567:26652   */\n      tag_201\n      jump\t// in\n    tag_484:\n        /* \"#utility.yul\":26560:26652   */\n      swap2\n      pop\n        /* \"#utility.yul\":26661:26754   */\n      tag_485\n        /* \"#utility.yul\":26750:26753   */\n      dup3\n        /* \"#utility.yul\":26661:26754   */\n      tag_209\n      jump\t// in\n    tag_485:\n        /* \"#utility.yul\":26779:26781   */\n      0x0b\n        /* \"#utility.yul\":26774:26777   */\n      dup3\n        /* \"#utility.yul\":26770:26782   */\n      add\n        /* \"#utility.yul\":26763:26782   */\n      swap1\n      pop\n        /* \"#utility.yul\":26386:26788   */\n      swap2\n      swap1\n      pop\n      jump\t// out\n        /* \"#utility.yul\":26794:27316   */\n    tag_77:\n        /* \"#utility.yul\":27007:27010   */\n      0x00\n        /* \"#utility.yul\":27022:27097   */\n      tag_487\n        /* \"#utility.yul\":27093:27096   */\n      dup3\n        /* \"#utility.yul\":27084:27090   */\n      dup5\n        /* \"#utility.yul\":27022:27097   */\n      tag_208\n      jump\t// in\n    tag_487:\n        /* \"#utility.yul\":27122:27124   */\n      0x14\n        /* \"#utility.yul\":27117:27120   */\n      dup3\n        /* \"#utility.yul\":27113:27125   */\n      add\n        /* \"#utility.yul\":27106:27125   */\n      swap2\n      pop\n        /* \"#utility.yul\":27142:27290   */\n      tag_488\n        /* \"#utility.yul\":27286:27289   */\n      dup3\n        /* \"#utility.yul\":27142:27290   */\n      tag_210\n      jump\t// in\n    tag_488:\n        /* \"#utility.yul\":27135:27290   */\n      swap2\n      pop\n        /* \"#utility.yul\":27307:27310   */\n      dup2\n        /* \"#utility.yul\":27300:27310   */\n      swap1\n      pop\n        /* \"#utility.yul\":26794:27316   */\n      swap3\n      swap2\n      pop\n      pop\n      jump\t// out\n        /* \"#utility.yul\":27322:27420   */\n    tag_211:\n        /* \"#utility.yul\":27373:27379   */\n      0x00\n        /* \"#utility.yul\":27407:27412   */\n      dup2\n        /* \"#utility.yul\":27401:27413   */\n      mload\n        /* \"#utility.yul\":27391:27413   */\n      swap1\n      pop\n        /* \"#utility.yul\":27322:27420   */\n      swap2\n      swap1\n      pop\n      jump\t// out\n        /* \"#utility.yul\":27426:27594   */\n    tag_212:\n        /* \"#utility.yul\":27509:27520   */\n      0x00\n        /* \"#utility.yul\":27543:27549   */\n      dup3\n        /* \"#utility.yul\":27538:27541   */\n      dup3\n        /* \"#utility.yul\":27531:27550   */\n      mstore\n        /* \"#utility.yul\":27583:27587   */\n      0x20\n        /* \"#utility.yul\":27578:27581   */\n      dup3\n        /* \"#utility.yul\":27574:27588   */\n      add\n        /* \"#utility.yul\":27559:27588   */\n      swap1\n      pop\n        /* \"#utility.yul\":27426:27594   */\n      swap3\n      swap2\n      pop\n      pop\n      jump\t// out\n        /* \"#utility.yul\":27600:27973   */\n    tag_213:\n        /* \"#utility.yul\":27686:27689   */\n      0x00\n        /* \"#utility.yul\":27714:27752   */\n      tag_492\n        /* \"#utility.yul\":27746:27751   */\n      dup3\n        /* \"#utility.yul\":27714:27752   */\n      tag_211\n      jump\t// in\n    tag_492:\n        /* \"#utility.yul\":27768:27838   */\n      tag_493\n        /* \"#utility.yul\":27831:27837   */\n      dup2\n        /* \"#utility.yul\":27826:27829   */\n      dup6\n        /* \"#utility.yul\":27768:27838   */\n      tag_212\n      jump\t// in\n    tag_493:\n        /* \"#utility.yul\":27761:27838   */\n      swap4\n      pop\n        /* \"#utility.yul\":27847:27912   */\n      tag_494\n        /* \"#utility.yul\":27905:27911   */\n      dup2\n        /* \"#utility.yul\":27900:27903   */\n      dup6\n        /* \"#utility.yul\":27893:27897   */\n      0x20\n        /* \"#utility.yul\":27886:27891   */\n      dup7\n        /* \"#utility.yul\":27882:27898   */\n      add\n        /* \"#utility.yul\":27847:27912   */\n      tag_158\n      jump\t// in\n    tag_494:\n        /* \"#utility.yul\":27937:27966   */\n      tag_495\n        /* \"#utility.yul\":27959:27965   */\n      dup2\n        /* \"#utility.yul\":27937:27966   */\n      tag_135\n      jump\t// in\n    tag_495:\n        /* \"#utility.yul\":27932:27935   */\n      dup5\n        /* \"#utility.yul\":27928:27967   */\n      add\n        /* \"#utility.yul\":27921:27967   */\n      swap2\n      pop\n        /* \"#utility.yul\":27690:27973   */\n      pop\n        /* \"#utility.yul\":27600:27973   */\n      swap3\n      swap2\n      pop\n      pop\n      jump\t// out\n        /* \"#utility.yul\":27979:28288   */\n    tag_79:\n        /* \"#utility.yul\":28090:28094   */\n      0x00\n        /* \"#utility.yul\":28128:28130   */\n      0x20\n        /* \"#utility.yul\":28117:28126   */\n      dup3\n        /* \"#utility.yul\":28113:28131   */\n      add\n        /* \"#utility.yul\":28105:28131   */\n      swap1\n      pop\n        /* \"#utility.yul\":28177:28186   */\n      dup2\n        /* \"#utility.yul\":28171:28175   */\n      dup2\n        /* \"#utility.yul\":28167:28187   */\n      sub\n        /* \"#utility.yul\":28163:28164   */\n      0x00\n        /* \"#utility.yul\":28152:28161   */\n      dup4\n        /* \"#utility.yul\":28148:28165   */\n      add\n        /* \"#utility.yul\":28141:28188   */\n      mstore\n        /* \"#utility.yul\":28205:28281   */\n      tag_497\n        /* \"#utility.yul\":28276:28280   */\n      dup2\n        /* \"#utility.yul\":28267:28273   */\n      dup5\n        /* \"#utility.yul\":28205:28281   */\n      tag_213\n      jump\t// in\n    tag_497:\n        /* \"#utility.yul\":28197:28281   */\n      swap1\n      pop\n        /* \"#utility.yul\":27979:28288   */\n      swap3\n      swap2\n      pop\n      pop\n      jump\t// out\n        /* \"#utility.yul\":28318:29192   */\n    tag_214:\n        /* \"#utility.yul\":28421:28424   */\n      0x00\n        /* \"#utility.yul\":28458:28463   */\n      dup2\n        /* \"#utility.yul\":28452:28464   */\n      sload\n        /* \"#utility.yul\":28487:28523   */\n      tag_499\n        /* \"#utility.yul\":28513:28522   */\n      dup2\n        /* \"#utility.yul\":28487:28523   */\n      tag_63\n      jump\t// in\n    tag_499:\n        /* \"#utility.yul\":28539:28628   */\n      tag_500\n        /* \"#utility.yul\":28621:28627   */\n      dup2\n        /* \"#utility.yul\":28616:28619   */\n      dup7\n        /* \"#utility.yul\":28539:28628   */\n      tag_201\n      jump\t// in\n    tag_500:\n        /* \"#utility.yul\":28532:28628   */\n      swap5\n      pop\n        /* \"#utility.yul\":28659:28660   */\n      0x01\n        /* \"#utility.yul\":28648:28657   */\n      dup3\n        /* \"#utility.yul\":28644:28661   */\n      and\n        /* \"#utility.yul\":28675:28676   */\n      0x00\n        /* \"#utility.yul\":28670:28836   */\n      dup2\n      eq\n      tag_502\n      jumpi\n        /* \"#utility.yul\":28850:28851   */\n      0x01\n        /* \"#utility.yul\":28845:29186   */\n      dup2\n      eq\n      tag_503\n      jumpi\n        /* \"#utility.yul\":28637:29186   */\n      jump(tag_501)\n        /* \"#utility.yul\":28670:28836   */\n    tag_502:\n        /* \"#utility.yul\":28754:28758   */\n      0xff\n        /* \"#utility.yul\":28750:28759   */\n      not\n        /* \"#utility.yul\":28739:28748   */\n      dup4\n        /* \"#utility.yul\":28735:28760   */\n      and\n        /* \"#utility.yul\":28730:28733   */\n      dup7\n        /* \"#utility.yul\":28723:28761   */\n      mstore\n        /* \"#utility.yul\":28816:28822   */\n      dup2\n        /* \"#utility.yul\":28809:28823   */\n      iszero\n        /* \"#utility.yul\":28802:28824   */\n      iszero\n        /* \"#utility.yul\":28794:28800   */\n      dup3\n        /* \"#utility.yul\":28790:28825   */\n      mul\n        /* \"#utility.yul\":28785:28788   */\n      dup7\n        /* \"#utility.yul\":28781:28826   */\n      add\n        /* \"#utility.yul\":28774:28826   */\n      swap4\n      pop\n        /* \"#utility.yul\":28670:28836   */\n      jump(tag_501)\n        /* \"#utility.yul\":28845:29186   */\n    tag_503:\n        /* \"#utility.yul\":28912:28950   */\n      tag_504\n        /* \"#utility.yul\":28944:28949   */\n      dup6\n        /* \"#utility.yul\":28912:28950   */\n      tag_175\n      jump\t// in\n    tag_504:\n        /* \"#utility.yul\":28972:28973   */\n      0x00\n        /* \"#utility.yul\":28986:29140   */\n    tag_505:\n        /* \"#utility.yul\":29000:29006   */\n      dup4\n        /* \"#utility.yul\":28997:28998   */\n      dup2\n        /* \"#utility.yul\":28994:29007   */\n      lt\n        /* \"#utility.yul\":28986:29140   */\n      iszero\n      tag_507\n      jumpi\n        /* \"#utility.yul\":29074:29081   */\n      dup2\n        /* \"#utility.yul\":29068:29082   */\n      sload\n        /* \"#utility.yul\":29064:29065   */\n      dup2\n        /* \"#utility.yul\":29059:29062   */\n      dup10\n        /* \"#utility.yul\":29055:29066   */\n      add\n        /* \"#utility.yul\":29048:29083   */\n      mstore\n        /* \"#utility.yul\":29124:29125   */\n      0x01\n        /* \"#utility.yul\":29115:29122   */\n      dup3\n        /* \"#utility.yul\":29111:29126   */\n      add\n        /* \"#utility.yul\":29100:29126   */\n      swap2\n      pop\n        /* \"#utility.yul\":29022:29026   */\n      0x20\n        /* \"#utility.yul\":29019:29020   */\n      dup2\n        /* \"#utility.yul\":29015:29027   */\n      add\n        /* \"#utility.yul\":29010:29027   */\n      swap1\n      pop\n        /* \"#utility.yul\":28986:29140   */\n      jump(tag_505)\n    tag_507:\n        /* \"#utility.yul\":29169:29175   */\n      dup4\n        /* \"#utility.yul\":29164:29167   */\n      dup9\n        /* \"#utility.yul\":29160:29176   */\n      add\n        /* \"#utility.yul\":29153:29176   */\n      swap6\n      pop\n        /* \"#utility.yul\":28852:29186   */\n      pop\n      pop\n        /* \"#utility.yul\":28637:29186   */\n    tag_501:\n      pop\n        /* \"#utility.yul\":28425:29192   */\n      pop\n      pop\n        /* \"#utility.yul\":28318:29192   */\n      swap3\n      swap2\n      pop\n      pop\n      jump\t// out\n        /* \"#utility.yul\":29198:29467   */\n    tag_95:\n        /* \"#utility.yul\":29327:29330   */\n      0x00\n        /* \"#utility.yul\":29349:29441   */\n      tag_509\n        /* \"#utility.yul\":29437:29440   */\n      dup3\n        /* \"#utility.yul\":29428:29434   */\n      dup5\n        /* \"#utility.yul\":29349:29441   */\n      tag_214\n      jump\t// in\n    tag_509:\n        /* \"#utility.yul\":29342:29441   */\n      swap2\n      pop\n        /* \"#utility.yul\":29458:29461   */\n      dup2\n        /* \"#utility.yul\":29451:29461   */\n      swap1\n      pop\n        /* \"#utility.yul\":29198:29467   */\n      swap3\n      swap2\n      pop\n      pop\n      jump\t// out\n\n    auxdata: 0xa2646970667358221220a4339999712b5ff1e9fdbf6e94ba89e7a04c300e92d6577135928b2278f0b0f164736f6c634300081a0033\n}\n",
				"bytecode": {
					"linkReferences": {},
					"object": "6080604052348015600e575f80fd5b506117488061001c5f395ff3fe608060405234801561000f575f80fd5b506004361061003f575f3560e01c80631f252a8e14610043578063241084751461007357806381a60c0d1461008f575b5f80fd5b61005d60048036038101906100589190610ad0565b6100c0565b60405161006a9190610b70565b60405180910390f35b61008d60048036038101906100889190610bb3565b6101f3565b005b6100a960048036038101906100a49190610c0d565b610561565b6040516100b7929190610e0a565b60405180910390f35b5f80835111610104576040517f08c379a00000000000000000000000000000000000000000000000000000000081526004016100fb90610e99565b60405180910390fd5b5f60018160018154018082558091505003905f5260205f209050505f60015f805490506101319190610ee4565b90505f80828154811061014757610146610f17565b5b905f5260205f209060050201905085815f019081610165919061113e565b508481600101908051906020019061017e929190610796565b50834261018b919061120d565b816002015f6101000a81548163ffffffff021916908363ffffffff1602179055507f1ededd90e900e0bd1754831e81e2f375c8a8fbc71eeeb8d6610ae6ec1afc880e8686866040516101df939291906112ac565b60405180910390a181925050509392505050565b815f818154811061020757610206610f17565b5b905f5260205f2090600502016002015f9054906101000a900463ffffffff1663ffffffff16421061026d576040517f08c379a000000000000000000000000000000000000000000000000000000000815260040161026490611339565b60405180910390fd5b5f805490508311156102b4576040517f08c379a00000000000000000000000000000000000000000000000000000000081526004016102ab906113a1565b60405180910390fd5b5f8084815481106102c8576102c7610f17565b5b905f5260205f2090600502019050806004015f3373ffffffffffffffffffffffffffffffffffffffff1673ffffffffffffffffffffffffffffffffffffffff1681526020019081526020015f205f9054906101000a900460ff1615610362576040517f08c379a000000000000000000000000000000000000000000000000000000000815260040161035990611409565b60405180910390fd5b61043a81600101805480602002602001604051908101604052809291908181526020015f905b82821015610430578382905f5260205f200180546103a590610f71565b80601f01602080910402602001604051908101604052809291908181526020018280546103d190610f71565b801561041c5780601f106103f35761010080835404028352916020019161041c565b820191905f5260205f20905b8154815290600101906020018083116103ff57829003601f168201915b505050505081526020019060010190610388565b5050505084610733565b610479576040517f08c379a000000000000000000000000000000000000000000000000000000000815260040161047090611471565b60405180910390fd5b806003018360405161048b91906114c9565b90815260200160405180910390205f8154809291906104a9906114df565b91905055506001816004015f3373ffffffffffffffffffffffffffffffffffffffff1673ffffffffffffffffffffffffffffffffffffffff1681526020019081526020015f205f6101000a81548160ff0219169083151502179055507f038712374569e245b0d09fa173eb0b0392e784f9cc7895e53b879dc1f6ef9c2a3360405160200161053791906115e5565b604051602081830303815290604052604051610553919061165c565b60405180910390a150505050565b6060805f80848154811061057857610577610f17565b5b905f5260205f20906005020190505f816001018054905067ffffffffffffffff8111156105a8576105a7610891565b5b6040519080825280602002602001820160405280156105d65781602001602082028036833780820191505090505b5090505f5b8260010180549050811015610654578260030183600101828154811061060457610603610f17565b5b905f5260205f200160405161061991906116fc565b90815260200160405180910390205482828151811061063b5761063a610f17565b5b60200260200101818152505080806001019150506105db565b50816001018181805480602002602001604051908101604052809291908181526020015f905b82821015610722578382905f5260205f2001805461069790610f71565b80601f01602080910402602001604051908101604052809291908181526020018280546106c390610f71565b801561070e5780601f106106e55761010080835404028352916020019161070e565b820191905f5260205f20905b8154815290600101906020018083116106f157829003601f168201915b50505050508152602001906001019061067a565b505050509150935093505050915091565b5f80828051906020012090505f5b845181101561078a578185828151811061075e5761075d610f17565b5b6020026020010151805190602001200361077d57600192505050610790565b8080600101915050610741565b505f9150505b92915050565b828054828255905f5260205f209081019282156107dc579160200282015b828111156107db5782518290816107cb919061113e565b50916020019190600101906107b4565b5b5090506107e991906107ed565b5090565b5b8082111561080c575f81816108039190610810565b506001016107ee565b5090565b50805461081c90610f71565b5f825580601f1061082d575061084a565b601f0160209004905f5260205f2090810190610849919061084d565b5b50565b5b80821115610864575f815f90555060010161084e565b5090565b5f604051905090565b5f80fd5b5f80fd5b5f80fd5b5f80fd5b5f601f19601f8301169050919050565b7f4e487b71000000000000000000000000000000000000000000000000000000005f52604160045260245ffd5b6108c782610881565b810181811067ffffffffffffffff821117156108e6576108e5610891565b5b80604052505050565b5f6108f8610868565b905061090482826108be565b919050565b5f67ffffffffffffffff82111561092357610922610891565b5b61092c82610881565b9050602081019050919050565b828183375f83830152505050565b5f61095961095484610909565b6108ef565b9050828152602081018484840111156109755761097461087d565b5b610980848285610939565b509392505050565b5f82601f83011261099c5761099b610879565b5b81356109ac848260208601610947565b91505092915050565b5f67ffffffffffffffff8211156109cf576109ce610891565b5b602082029050602081019050919050565b5f80fd5b5f6109f66109f1846109b5565b6108ef565b90508083825260208201905060208402830185811115610a1957610a186109e0565b5b835b81811015610a6057803567ffffffffffffffff811115610a3e57610a3d610879565b5b808601610a4b8982610988565b85526020850194505050602081019050610a1b565b5050509392505050565b5f82601f830112610a7e57610a7d610879565b5b8135610a8e8482602086016109e4565b91505092915050565b5f63ffffffff82169050919050565b610aaf81610a97565b8114610ab9575f80fd5b50565b5f81359050610aca81610aa6565b92915050565b5f805f60608486031215610ae757610ae6610871565b5b5f84013567ffffffffffffffff811115610b0457610b03610875565b5b610b1086828701610988565b935050602084013567ffffffffffffffff811115610b3157610b30610875565b5b610b3d86828701610a6a565b9250506040610b4e86828701610abc565b9150509250925092565b5f819050919050565b610b6a81610b58565b82525050565b5f602082019050610b835f830184610b61565b92915050565b610b9281610b58565b8114610b9c575f80fd5b50565b5f81359050610bad81610b89565b92915050565b5f8060408385031215610bc957610bc8610871565b5b5f610bd685828601610b9f565b925050602083013567ffffffffffffffff811115610bf757610bf6610875565b5b610c0385828601610988565b9150509250929050565b5f60208284031215610c2257610c21610871565b5b5f610c2f84828501610b9f565b91505092915050565b5f81519050919050565b5f82825260208201905092915050565b5f819050602082019050919050565b5f81519050919050565b5f82825260208201905092915050565b8281835e5f83830152505050565b5f610c9382610c61565b610c9d8185610c6b565b9350610cad818560208601610c7b565b610cb681610881565b840191505092915050565b5f610ccc8383610c89565b905092915050565b5f602082019050919050565b5f610cea82610c38565b610cf48185610c42565b935083602082028501610d0685610c52565b805f5b85811015610d415784840389528151610d228582610cc1565b9450610d2d83610cd4565b925060208a01995050600181019050610d09565b50829750879550505050505092915050565b5f81519050919050565b5f82825260208201905092915050565b5f819050602082019050919050565b610d8581610b58565b82525050565b5f610d968383610d7c565b60208301905092915050565b5f602082019050919050565b5f610db882610d53565b610dc28185610d5d565b9350610dcd83610d6d565b805f5b83811015610dfd578151610de48882610d8b565b9750610def83610da2565b925050600181019050610dd0565b5085935050505092915050565b5f6040820190508181035f830152610e228185610ce0565b90508181036020830152610e368184610dae565b90509392505050565b5f82825260208201905092915050565b7f4e6f206f7074696f6e732070726f7669646564000000000000000000000000005f82015250565b5f610e83601383610e3f565b9150610e8e82610e4f565b602082019050919050565b5f6020820190508181035f830152610eb081610e77565b9050919050565b7f4e487b71000000000000000000000000000000000000000000000000000000005f52601160045260245ffd5b5f610eee82610b58565b9150610ef983610b58565b9250828203905081811115610f1157610f10610eb7565b5b92915050565b7f4e487b71000000000000000000000000000000000000000000000000000000005f52603260045260245ffd5b7f4e487b71000000000000000000000000000000000000000000000000000000005f52602260045260245ffd5b5f6002820490506001821680610f8857607f821691505b602082108103610f9b57610f9a610f44565b5b50919050565b5f819050815f5260205f209050919050565b5f6020601f8301049050919050565b5f82821b905092915050565b5f60088302610ffd7fffffffffffffffffffffffffffffffffffffffffffffffffffffffffffffffff82610fc2565b6110078683610fc2565b95508019841693508086168417925050509392505050565b5f819050919050565b5f61104261103d61103884610b58565b61101f565b610b58565b9050919050565b5f819050919050565b61105b83611028565b61106f61106782611049565b848454610fce565b825550505050565b5f90565b611083611077565b61108e818484611052565b505050565b5b818110156110b1576110a65f8261107b565b600181019050611094565b5050565b601f8211156110f6576110c781610fa1565b6110d084610fb3565b810160208510156110df578190505b6110f36110eb85610fb3565b830182611093565b50505b505050565b5f82821c905092915050565b5f6111165f19846008026110fb565b1980831691505092915050565b5f61112e8383611107565b9150826002028217905092915050565b61114782610c61565b67ffffffffffffffff8111156111605761115f610891565b5b61116a8254610f71565b6111758282856110b5565b5f60209050601f8311600181146111a6575f8415611194578287015190505b61119e8582611123565b865550611205565b601f1984166111b486610fa1565b5f5b828110156111db578489015182556001820191506020850194506020810190506111b6565b868310156111f857848901516111f4601f891682611107565b8355505b6001600288020188555050505b505050505050565b5f61121782610a97565b915061122283610a97565b9250828201905063ffffffff81111561123e5761123d610eb7565b5b92915050565b5f61124e82610c61565b6112588185610e3f565b9350611268818560208601610c7b565b61127181610881565b840191505092915050565b5f61129661129161128c84610a97565b61101f565b610b58565b9050919050565b6112a68161127c565b82525050565b5f6060820190508181035f8301526112c48186611244565b905081810360208301526112d88185610ce0565b90506112e7604083018461129d565b949350505050565b7f506f6c6c20636c6f7365640000000000000000000000000000000000000000005f82015250565b5f611323600b83610e3f565b915061132e826112ef565b602082019050919050565b5f6020820190508181035f83015261135081611317565b9050919050565b7f496e76616c696420506f6c6c20494400000000000000000000000000000000005f82015250565b5f61138b600f83610e3f565b915061139682611357565b602082019050919050565b5f6020820190508181035f8301526113b88161137f565b9050919050565b7f416c726561647920766f746564000000000000000000000000000000000000005f82015250565b5f6113f3600d83610e3f565b91506113fe826113bf565b602082019050919050565b5f6020820190508181035f830152611420816113e7565b9050919050565b7f496e76616c6964206f7074696f6e0000000000000000000000000000000000005f82015250565b5f61145b600e83610e3f565b915061146682611427565b602082019050919050565b5f6020820190508181035f8301526114888161144f565b9050919050565b5f81905092915050565b5f6114a382610c61565b6114ad818561148f565b93506114bd818560208601610c7b565b80840191505092915050565b5f6114d48284611499565b915081905092915050565b5f6114e982610b58565b91507fffffffffffffffffffffffffffffffffffffffffffffffffffffffffffffffff820361151b5761151a610eb7565b5b600182019050919050565b5f73ffffffffffffffffffffffffffffffffffffffff82169050919050565b5f61154f82611526565b9050919050565b5f8160601b9050919050565b5f61156c82611556565b9050919050565b5f61157d82611562565b9050919050565b61159561159082611545565b611573565b82525050565b7f2068617320766f7465642e0000000000000000000000000000000000000000005f82015250565b5f6115cf600b8361148f565b91506115da8261159b565b600b82019050919050565b5f6115f08284611584565b6014820191506115ff826115c3565b915081905092915050565b5f81519050919050565b5f82825260208201905092915050565b5f61162e8261160a565b6116388185611614565b9350611648818560208601610c7b565b61165181610881565b840191505092915050565b5f6020820190508181035f8301526116748184611624565b905092915050565b5f815461168881610f71565b611692818661148f565b9450600182165f81146116ac57600181146116c1576116f3565b60ff19831686528115158202860193506116f3565b6116ca85610fa1565b5f5b838110156116eb578154818901526001820191506020810190506116cc565b838801955050505b50505092915050565b5f611707828461167c565b91508190509291505056fea2646970667358221220a4339999712b5ff1e9fdbf6e94ba89e7a04c300e92d6577135928b2278f0b0f164736f6c634300081a0033",
					"opcodes": "PUSH1 0x80 PUSH1 0x40 MSTORE CALLVALUE DUP1 ISZERO PUSH1 0xE JUMPI PUSH0 DUP1 REVERT JUMPDEST POP PUSH2 0x1748 DUP1 PUSH2 0x1C PUSH0 CODECOPY PUSH0 RETURN INVALID PUSH1 0x80 PUSH1 0x40 MSTORE CALLVALUE DUP1 ISZERO PUSH2 0xF JUMPI PUSH0 DUP1 REVERT JUMPDEST POP PUSH1 0x4 CALLDATASIZE LT PUSH2 0x3F JUMPI PUSH0 CALLDATALOAD PUSH1 0xE0 SHR DUP1 PUSH4 0x1F252A8E EQ PUSH2 0x43 JUMPI DUP1 PUSH4 0x24108475 EQ PUSH2 0x73 JUMPI DUP1 PUSH4 0x81A60C0D EQ PUSH2 0x8F JUMPI JUMPDEST PUSH0 DUP1 REVERT JUMPDEST PUSH2 0x5D PUSH1 0x4 DUP1 CALLDATASIZE SUB DUP2 ADD SWAP1 PUSH2 0x58 SWAP2 SWAP1 PUSH2 0xAD0 JUMP JUMPDEST PUSH2 0xC0 JUMP JUMPDEST PUSH1 0x40 MLOAD PUSH2 0x6A SWAP2 SWAP1 PUSH2 0xB70 JUMP JUMPDEST PUSH1 0x40 MLOAD DUP1 SWAP2 SUB SWAP1 RETURN JUMPDEST PUSH2 0x8D PUSH1 0x4 DUP1 CALLDATASIZE SUB DUP2 ADD SWAP1 PUSH2 0x88 SWAP2 SWAP1 PUSH2 0xBB3 JUMP JUMPDEST PUSH2 0x1F3 JUMP JUMPDEST STOP JUMPDEST PUSH2 0xA9 PUSH1 0x4 DUP1 CALLDATASIZE SUB DUP2 ADD SWAP1 PUSH2 0xA4 SWAP2 SWAP1 PUSH2 0xC0D JUMP JUMPDEST PUSH2 0x561 JUMP JUMPDEST PUSH1 0x40 MLOAD PUSH2 0xB7 SWAP3 SWAP2 SWAP1 PUSH2 0xE0A JUMP JUMPDEST PUSH1 0x40 MLOAD DUP1 SWAP2 SUB SWAP1 RETURN JUMPDEST PUSH0 DUP1 DUP4 MLOAD GT PUSH2 0x104 JUMPI PUSH1 0x40 MLOAD PUSH32 0x8C379A000000000000000000000000000000000000000000000000000000000 DUP2 MSTORE PUSH1 0x4 ADD PUSH2 0xFB SWAP1 PUSH2 0xE99 JUMP JUMPDEST PUSH1 0x40 MLOAD DUP1 SWAP2 SUB SWAP1 REVERT JUMPDEST PUSH0 PUSH1 0x1 DUP2 PUSH1 0x1 DUP2 SLOAD ADD DUP1 DUP3 SSTORE DUP1 SWAP2 POP POP SUB SWAP1 PUSH0 MSTORE PUSH1 0x20 PUSH0 KECCAK256 SWAP1 POP POP PUSH0 PUSH1 0x1 PUSH0 DUP1 SLOAD SWAP1 POP PUSH2 0x131 SWAP2 SWAP1 PUSH2 0xEE4 JUMP JUMPDEST SWAP1 POP PUSH0 DUP1 DUP3 DUP2 SLOAD DUP2 LT PUSH2 0x147 JUMPI PUSH2 0x146 PUSH2 0xF17 JUMP JUMPDEST JUMPDEST SWAP1 PUSH0 MSTORE PUSH1 0x20 PUSH0 KECCAK256 SWAP1 PUSH1 0x5 MUL ADD SWAP1 POP DUP6 DUP2 PUSH0 ADD SWAP1 DUP2 PUSH2 0x165 SWAP2 SWAP1 PUSH2 0x113E JUMP JUMPDEST POP DUP5 DUP2 PUSH1 0x1 ADD SWAP1 DUP1 MLOAD SWAP1 PUSH1 0x20 ADD SWAP1 PUSH2 0x17E SWAP3 SWAP2 SWAP1 PUSH2 0x796 JUMP JUMPDEST POP DUP4 TIMESTAMP PUSH2 0x18B SWAP2 SWAP1 PUSH2 0x120D JUMP JUMPDEST DUP2 PUSH1 0x2 ADD PUSH0 PUSH2 0x100 EXP DUP2 SLOAD DUP2 PUSH4 0xFFFFFFFF MUL NOT AND SWAP1 DUP4 PUSH4 0xFFFFFFFF AND MUL OR SWAP1 SSTORE POP PUSH32 0x1EDEDD90E900E0BD1754831E81E2F375C8A8FBC71EEEB8D6610AE6EC1AFC880E DUP7 DUP7 DUP7 PUSH1 0x40 MLOAD PUSH2 0x1DF SWAP4 SWAP3 SWAP2 SWAP1 PUSH2 0x12AC JUMP JUMPDEST PUSH1 0x40 MLOAD DUP1 SWAP2 SUB SWAP1 LOG1 DUP2 SWAP3 POP POP POP SWAP4 SWAP3 POP POP POP JUMP JUMPDEST DUP2 PUSH0 DUP2 DUP2 SLOAD DUP2 LT PUSH2 0x207 JUMPI PUSH2 0x206 PUSH2 0xF17 JUMP JUMPDEST JUMPDEST SWAP1 PUSH0 MSTORE PUSH1 0x20 PUSH0 KECCAK256 SWAP1 PUSH1 0x5 MUL ADD PUSH1 0x2 ADD PUSH0 SWAP1 SLOAD SWAP1 PUSH2 0x100 EXP SWAP1 DIV PUSH4 0xFFFFFFFF AND PUSH4 0xFFFFFFFF AND TIMESTAMP LT PUSH2 0x26D JUMPI PUSH1 0x40 MLOAD PUSH32 0x8C379A000000000000000000000000000000000000000000000000000000000 DUP2 MSTORE PUSH1 0x4 ADD PUSH2 0x264 SWAP1 PUSH2 0x1339 JUMP JUMPDEST PUSH1 0x40 MLOAD DUP1 SWAP2 SUB SWAP1 REVERT JUMPDEST PUSH0 DUP1 SLOAD SWAP1 POP DUP4 GT ISZERO PUSH2 0x2B4 JUMPI PUSH1 0x40 MLOAD PUSH32 0x8C379A000000000000000000000000000000000000000000000000000000000 DUP2 MSTORE PUSH1 0x4 ADD PUSH2 0x2AB SWAP1 PUSH2 0x13A1 JUMP JUMPDEST PUSH1 0x40 MLOAD DUP1 SWAP2 SUB SWAP1 REVERT JUMPDEST PUSH0 DUP1 DUP5 DUP2 SLOAD DUP2 LT PUSH2 0x2C8 JUMPI PUSH2 0x2C7 PUSH2 0xF17 JUMP JUMPDEST JUMPDEST SWAP1 PUSH0 MSTORE PUSH1 0x20 PUSH0 KECCAK256 SWAP1 PUSH1 0x5 MUL ADD SWAP1 POP DUP1 PUSH1 0x4 ADD PUSH0 CALLER PUSH20 0xFFFFFFFFFFFFFFFFFFFFFFFFFFFFFFFFFFFFFFFF AND PUSH20 0xFFFFFFFFFFFFFFFFFFFFFFFFFFFFFFFFFFFFFFFF AND DUP2 MSTORE PUSH1 0x20 ADD SWAP1 DUP2 MSTORE PUSH1 0x20 ADD PUSH0 KECCAK256 PUSH0 SWAP1 SLOAD SWAP1 PUSH2 0x100 EXP SWAP1 DIV PUSH1 0xFF AND ISZERO PUSH2 0x362 JUMPI PUSH1 0x40 MLOAD PUSH32 0x8C379A000000000000000000000000000000000000000000000000000000000 DUP2 MSTORE PUSH1 0x4 ADD PUSH2 0x359 SWAP1 PUSH2 0x1409 JUMP JUMPDEST PUSH1 0x40 MLOAD DUP1 SWAP2 SUB SWAP1 REVERT JUMPDEST PUSH2 0x43A DUP2 PUSH1 0x1 ADD DUP1 SLOAD DUP1 PUSH1 0x20 MUL PUSH1 0x20 ADD PUSH1 0x40 MLOAD SWAP1 DUP2 ADD PUSH1 0x40 MSTORE DUP1 SWAP3 SWAP2 SWAP1 DUP2 DUP2 MSTORE PUSH1 0x20 ADD PUSH0 SWAP1 JUMPDEST DUP3 DUP3 LT ISZERO PUSH2 0x430 JUMPI DUP4 DUP3 SWAP1 PUSH0 MSTORE PUSH1 0x20 PUSH0 KECCAK256 ADD DUP1 SLOAD PUSH2 0x3A5 SWAP1 PUSH2 0xF71 JUMP JUMPDEST DUP1 PUSH1 0x1F ADD PUSH1 0x20 DUP1 SWAP2 DIV MUL PUSH1 0x20 ADD PUSH1 0x40 MLOAD SWAP1 DUP2 ADD PUSH1 0x40 MSTORE DUP1 SWAP3 SWAP2 SWAP1 DUP2 DUP2 MSTORE PUSH1 0x20 ADD DUP3 DUP1 SLOAD PUSH2 0x3D1 SWAP1 PUSH2 0xF71 JUMP JUMPDEST DUP1 ISZERO PUSH2 0x41C JUMPI DUP1 PUSH1 0x1F LT PUSH2 0x3F3 JUMPI PUSH2 0x100 DUP1 DUP4 SLOAD DIV MUL DUP4 MSTORE SWAP2 PUSH1 0x20 ADD SWAP2 PUSH2 0x41C JUMP JUMPDEST DUP3 ADD SWAP2 SWAP1 PUSH0 MSTORE PUSH1 0x20 PUSH0 KECCAK256 SWAP1 JUMPDEST DUP2 SLOAD DUP2 MSTORE SWAP1 PUSH1 0x1 ADD SWAP1 PUSH1 0x20 ADD DUP1 DUP4 GT PUSH2 0x3FF JUMPI DUP3 SWAP1 SUB PUSH1 0x1F AND DUP3 ADD SWAP2 JUMPDEST POP POP POP POP POP DUP2 MSTORE PUSH1 0x20 ADD SWAP1 PUSH1 0x1 ADD SWAP1 PUSH2 0x388 JUMP JUMPDEST POP POP POP POP DUP5 PUSH2 0x733 JUMP JUMPDEST PUSH2 0x479 JUMPI PUSH1 0x40 MLOAD PUSH32 0x8C379A000000000000000000000000000000000000000000000000000000000 DUP2 MSTORE PUSH1 0x4 ADD PUSH2 0x470 SWAP1 PUSH2 0x1471 JUMP JUMPDEST PUSH1 0x40 MLOAD DUP1 SWAP2 SUB SWAP1 REVERT JUMPDEST DUP1 PUSH1 0x3 ADD DUP4 PUSH1 0x40 MLOAD PUSH2 0x48B SWAP2 SWAP1 PUSH2 0x14C9 JUMP JUMPDEST SWAP1 DUP2 MSTORE PUSH1 0x20 ADD PUSH1 0x40 MLOAD DUP1 SWAP2 SUB SWAP1 KECCAK256 PUSH0 DUP2 SLOAD DUP1 SWAP3 SWAP2 SWAP1 PUSH2 0x4A9 SWAP1 PUSH2 0x14DF JUMP JUMPDEST SWAP2 SWAP1 POP SSTORE POP PUSH1 0x1 DUP2 PUSH1 0x4 ADD PUSH0 CALLER PUSH20 0xFFFFFFFFFFFFFFFFFFFFFFFFFFFFFFFFFFFFFFFF AND PUSH20 0xFFFFFFFFFFFFFFFFFFFFFFFFFFFFFFFFFFFFFFFF AND DUP2 MSTORE PUSH1 0x20 ADD SWAP1 DUP2 MSTORE PUSH1 0x20 ADD PUSH0 KECCAK256 PUSH0 PUSH2 0x100 EXP DUP2 SLOAD DUP2 PUSH1 0xFF MUL NOT AND SWAP1 DUP4 ISZERO ISZERO MUL OR SWAP1 SSTORE POP PUSH32 0x38712374569E245B0D09FA173EB0B0392E784F9CC7895E53B879DC1F6EF9C2A CALLER PUSH1 0x40 MLOAD PUSH1 0x20 ADD PUSH2 0x537 SWAP2 SWAP1 PUSH2 0x15E5 JUMP JUMPDEST PUSH1 0x40 MLOAD PUSH1 0x20 DUP2 DUP4 SUB SUB DUP2 MSTORE SWAP1 PUSH1 0x40 MSTORE PUSH1 0x40 MLOAD PUSH2 0x553 SWAP2 SWAP1 PUSH2 0x165C JUMP JUMPDEST PUSH1 0x40 MLOAD DUP1 SWAP2 SUB SWAP1 LOG1 POP POP POP POP JUMP JUMPDEST PUSH1 0x60 DUP1 PUSH0 DUP1 DUP5 DUP2 SLOAD DUP2 LT PUSH2 0x578 JUMPI PUSH2 0x577 PUSH2 0xF17 JUMP JUMPDEST JUMPDEST SWAP1 PUSH0 MSTORE PUSH1 0x20 PUSH0 KECCAK256 SWAP1 PUSH1 0x5 MUL ADD SWAP1 POP PUSH0 DUP2 PUSH1 0x1 ADD DUP1 SLOAD SWAP1 POP PUSH8 0xFFFFFFFFFFFFFFFF DUP2 GT ISZERO PUSH2 0x5A8 JUMPI PUSH2 0x5A7 PUSH2 0x891 JUMP JUMPDEST JUMPDEST PUSH1 0x40 MLOAD SWAP1 DUP1 DUP3 MSTORE DUP1 PUSH1 0x20 MUL PUSH1 0x20 ADD DUP3 ADD PUSH1 0x40 MSTORE DUP1 ISZERO PUSH2 0x5D6 JUMPI DUP2 PUSH1 0x20 ADD PUSH1 0x20 DUP3 MUL DUP1 CALLDATASIZE DUP4 CALLDATACOPY DUP1 DUP3 ADD SWAP2 POP POP SWAP1 POP JUMPDEST POP SWAP1 POP PUSH0 JUMPDEST DUP3 PUSH1 0x1 ADD DUP1 SLOAD SWAP1 POP DUP2 LT ISZERO PUSH2 0x654 JUMPI DUP3 PUSH1 0x3 ADD DUP4 PUSH1 0x1 ADD DUP3 DUP2 SLOAD DUP2 LT PUSH2 0x604 JUMPI PUSH2 0x603 PUSH2 0xF17 JUMP JUMPDEST JUMPDEST SWAP1 PUSH0 MSTORE PUSH1 0x20 PUSH0 KECCAK256 ADD PUSH1 0x40 MLOAD PUSH2 0x619 SWAP2 SWAP1 PUSH2 0x16FC JUMP JUMPDEST SWAP1 DUP2 MSTORE PUSH1 0x20 ADD PUSH1 0x40 MLOAD DUP1 SWAP2 SUB SWAP1 KECCAK256 SLOAD DUP3 DUP3 DUP2 MLOAD DUP2 LT PUSH2 0x63B JUMPI PUSH2 0x63A PUSH2 0xF17 JUMP JUMPDEST JUMPDEST PUSH1 0x20 MUL PUSH1 0x20 ADD ADD DUP2 DUP2 MSTORE POP POP DUP1 DUP1 PUSH1 0x1 ADD SWAP2 POP POP PUSH2 0x5DB JUMP JUMPDEST POP DUP2 PUSH1 0x1 ADD DUP2 DUP2 DUP1 SLOAD DUP1 PUSH1 0x20 MUL PUSH1 0x20 ADD PUSH1 0x40 MLOAD SWAP1 DUP2 ADD PUSH1 0x40 MSTORE DUP1 SWAP3 SWAP2 SWAP1 DUP2 DUP2 MSTORE PUSH1 0x20 ADD PUSH0 SWAP1 JUMPDEST DUP3 DUP3 LT ISZERO PUSH2 0x722 JUMPI DUP4 DUP3 SWAP1 PUSH0 MSTORE PUSH1 0x20 PUSH0 KECCAK256 ADD DUP1 SLOAD PUSH2 0x697 SWAP1 PUSH2 0xF71 JUMP JUMPDEST DUP1 PUSH1 0x1F ADD PUSH1 0x20 DUP1 SWAP2 DIV MUL PUSH1 0x20 ADD PUSH1 0x40 MLOAD SWAP1 DUP2 ADD PUSH1 0x40 MSTORE DUP1 SWAP3 SWAP2 SWAP1 DUP2 DUP2 MSTORE PUSH1 0x20 ADD DUP3 DUP1 SLOAD PUSH2 0x6C3 SWAP1 PUSH2 0xF71 JUMP JUMPDEST DUP1 ISZERO PUSH2 0x70E JUMPI DUP1 PUSH1 0x1F LT PUSH2 0x6E5 JUMPI PUSH2 0x100 DUP1 DUP4 SLOAD DIV MUL DUP4 MSTORE SWAP2 PUSH1 0x20 ADD SWAP2 PUSH2 0x70E JUMP JUMPDEST DUP3 ADD SWAP2 SWAP1 PUSH0 MSTORE PUSH1 0x20 PUSH0 KECCAK256 SWAP1 JUMPDEST DUP2 SLOAD DUP2 MSTORE SWAP1 PUSH1 0x1 ADD SWAP1 PUSH1 0x20 ADD DUP1 DUP4 GT PUSH2 0x6F1 JUMPI DUP3 SWAP1 SUB PUSH1 0x1F AND DUP3 ADD SWAP2 JUMPDEST POP POP POP POP POP DUP2 MSTORE PUSH1 0x20 ADD SWAP1 PUSH1 0x1 ADD SWAP1 PUSH2 0x67A JUMP JUMPDEST POP POP POP POP SWAP2 POP SWAP4 POP SWAP4 POP POP POP SWAP2 POP SWAP2 JUMP JUMPDEST PUSH0 DUP1 DUP3 DUP1 MLOAD SWAP1 PUSH1 0x20 ADD KECCAK256 SWAP1 POP PUSH0 JUMPDEST DUP5 MLOAD DUP2 LT ISZERO PUSH2 0x78A JUMPI DUP2 DUP6 DUP3 DUP2 MLOAD DUP2 LT PUSH2 0x75E JUMPI PUSH2 0x75D PUSH2 0xF17 JUMP JUMPDEST JUMPDEST PUSH1 0x20 MUL PUSH1 0x20 ADD ADD MLOAD DUP1 MLOAD SWAP1 PUSH1 0x20 ADD KECCAK256 SUB PUSH2 0x77D JUMPI PUSH1 0x1 SWAP3 POP POP POP PUSH2 0x790 JUMP JUMPDEST DUP1 DUP1 PUSH1 0x1 ADD SWAP2 POP POP PUSH2 0x741 JUMP JUMPDEST POP PUSH0 SWAP2 POP POP JUMPDEST SWAP3 SWAP2 POP POP JUMP JUMPDEST DUP3 DUP1 SLOAD DUP3 DUP3 SSTORE SWAP1 PUSH0 MSTORE PUSH1 0x20 PUSH0 KECCAK256 SWAP1 DUP2 ADD SWAP3 DUP3 ISZERO PUSH2 0x7DC JUMPI SWAP2 PUSH1 0x20 MUL DUP3 ADD JUMPDEST DUP3 DUP2 GT ISZERO PUSH2 0x7DB JUMPI DUP3 MLOAD DUP3 SWAP1 DUP2 PUSH2 0x7CB SWAP2 SWAP1 PUSH2 0x113E JUMP JUMPDEST POP SWAP2 PUSH1 0x20 ADD SWAP2 SWAP1 PUSH1 0x1 ADD SWAP1 PUSH2 0x7B4 JUMP JUMPDEST JUMPDEST POP SWAP1 POP PUSH2 0x7E9 SWAP2 SWAP1 PUSH2 0x7ED JUMP JUMPDEST POP SWAP1 JUMP JUMPDEST JUMPDEST DUP1 DUP3 GT ISZERO PUSH2 0x80C JUMPI PUSH0 DUP2 DUP2 PUSH2 0x803 SWAP2 SWAP1 PUSH2 0x810 JUMP JUMPDEST POP PUSH1 0x1 ADD PUSH2 0x7EE JUMP JUMPDEST POP SWAP1 JUMP JUMPDEST POP DUP1 SLOAD PUSH2 0x81C SWAP1 PUSH2 0xF71 JUMP JUMPDEST PUSH0 DUP3 SSTORE DUP1 PUSH1 0x1F LT PUSH2 0x82D JUMPI POP PUSH2 0x84A JUMP JUMPDEST PUSH1 0x1F ADD PUSH1 0x20 SWAP1 DIV SWAP1 PUSH0 MSTORE PUSH1 0x20 PUSH0 KECCAK256 SWAP1 DUP2 ADD SWAP1 PUSH2 0x849 SWAP2 SWAP1 PUSH2 0x84D JUMP JUMPDEST JUMPDEST POP JUMP JUMPDEST JUMPDEST DUP1 DUP3 GT ISZERO PUSH2 0x864 JUMPI PUSH0 DUP2 PUSH0 SWAP1 SSTORE POP PUSH1 0x1 ADD PUSH2 0x84E JUMP JUMPDEST POP SWAP1 JUMP JUMPDEST PUSH0 PUSH1 0x40 MLOAD SWAP1 POP SWAP1 JUMP JUMPDEST PUSH0 DUP1 REVERT JUMPDEST PUSH0 DUP1 REVERT JUMPDEST PUSH0 DUP1 REVERT JUMPDEST PUSH0 DUP1 REVERT JUMPDEST PUSH0 PUSH1 0x1F NOT PUSH1 0x1F DUP4 ADD AND SWAP1 POP SWAP2 SWAP1 POP JUMP JUMPDEST PUSH32 0x4E487B7100000000000000000000000000000000000000000000000000000000 PUSH0 MSTORE PUSH1 0x41 PUSH1 0x4 MSTORE PUSH1 0x24 PUSH0 REVERT JUMPDEST PUSH2 0x8C7 DUP3 PUSH2 0x881 JUMP JUMPDEST DUP2 ADD DUP2 DUP2 LT PUSH8 0xFFFFFFFFFFFFFFFF DUP3 GT OR ISZERO PUSH2 0x8E6 JUMPI PUSH2 0x8E5 PUSH2 0x891 JUMP JUMPDEST JUMPDEST DUP1 PUSH1 0x40 MSTORE POP POP POP JUMP JUMPDEST PUSH0 PUSH2 0x8F8 PUSH2 0x868 JUMP JUMPDEST SWAP1 POP PUSH2 0x904 DUP3 DUP3 PUSH2 0x8BE JUMP JUMPDEST SWAP2 SWAP1 POP JUMP JUMPDEST PUSH0 PUSH8 0xFFFFFFFFFFFFFFFF DUP3 GT ISZERO PUSH2 0x923 JUMPI PUSH2 0x922 PUSH2 0x891 JUMP JUMPDEST JUMPDEST PUSH2 0x92C DUP3 PUSH2 0x881 JUMP JUMPDEST SWAP1 POP PUSH1 0x20 DUP2 ADD SWAP1 POP SWAP2 SWAP1 POP JUMP JUMPDEST DUP3 DUP2 DUP4 CALLDATACOPY PUSH0 DUP4 DUP4 ADD MSTORE POP POP POP JUMP JUMPDEST PUSH0 PUSH2 0x959 PUSH2 0x954 DUP5 PUSH2 0x909 JUMP JUMPDEST PUSH2 0x8EF JUMP JUMPDEST SWAP1 POP DUP3 DUP2 MSTORE PUSH1 0x20 DUP2 ADD DUP5 DUP5 DUP5 ADD GT ISZERO PUSH2 0x975 JUMPI PUSH2 0x974 PUSH2 0x87D JUMP JUMPDEST JUMPDEST PUSH2 0x980 DUP5 DUP3 DUP6 PUSH2 0x939 JUMP JUMPDEST POP SWAP4 SWAP3 POP POP POP JUMP JUMPDEST PUSH0 DUP3 PUSH1 0x1F DUP4 ADD SLT PUSH2 0x99C JUMPI PUSH2 0x99B PUSH2 0x879 JUMP JUMPDEST JUMPDEST DUP2 CALLDATALOAD PUSH2 0x9AC DUP5 DUP3 PUSH1 0x20 DUP7 ADD PUSH2 0x947 JUMP JUMPDEST SWAP2 POP POP SWAP3 SWAP2 POP POP JUMP JUMPDEST PUSH0 PUSH8 0xFFFFFFFFFFFFFFFF DUP3 GT ISZERO PUSH2 0x9CF JUMPI PUSH2 0x9CE PUSH2 0x891 JUMP JUMPDEST JUMPDEST PUSH1 0x20 DUP3 MUL SWAP1 POP PUSH1 0x20 DUP2 ADD SWAP1 POP SWAP2 SWAP1 POP JUMP JUMPDEST PUSH0 DUP1 REVERT JUMPDEST PUSH0 PUSH2 0x9F6 PUSH2 0x9F1 DUP5 PUSH2 0x9B5 JUMP JUMPDEST PUSH2 0x8EF JUMP JUMPDEST SWAP1 POP DUP1 DUP4 DUP3 MSTORE PUSH1 0x20 DUP3 ADD SWAP1 POP PUSH1 0x20 DUP5 MUL DUP4 ADD DUP6 DUP2 GT ISZERO PUSH2 0xA19 JUMPI PUSH2 0xA18 PUSH2 0x9E0 JUMP JUMPDEST JUMPDEST DUP4 JUMPDEST DUP2 DUP2 LT ISZERO PUSH2 0xA60 JUMPI DUP1 CALLDATALOAD PUSH8 0xFFFFFFFFFFFFFFFF DUP2 GT ISZERO PUSH2 0xA3E JUMPI PUSH2 0xA3D PUSH2 0x879 JUMP JUMPDEST JUMPDEST DUP1 DUP7 ADD PUSH2 0xA4B DUP10 DUP3 PUSH2 0x988 JUMP JUMPDEST DUP6 MSTORE PUSH1 0x20 DUP6 ADD SWAP5 POP POP POP PUSH1 0x20 DUP2 ADD SWAP1 POP PUSH2 0xA1B JUMP JUMPDEST POP POP POP SWAP4 SWAP3 POP POP POP JUMP JUMPDEST PUSH0 DUP3 PUSH1 0x1F DUP4 ADD SLT PUSH2 0xA7E JUMPI PUSH2 0xA7D PUSH2 0x879 JUMP JUMPDEST JUMPDEST DUP2 CALLDATALOAD PUSH2 0xA8E DUP5 DUP3 PUSH1 0x20 DUP7 ADD PUSH2 0x9E4 JUMP JUMPDEST SWAP2 POP POP SWAP3 SWAP2 POP POP JUMP JUMPDEST PUSH0 PUSH4 0xFFFFFFFF DUP3 AND SWAP1 POP SWAP2 SWAP1 POP JUMP JUMPDEST PUSH2 0xAAF DUP2 PUSH2 0xA97 JUMP JUMPDEST DUP2 EQ PUSH2 0xAB9 JUMPI PUSH0 DUP1 REVERT JUMPDEST POP JUMP JUMPDEST PUSH0 DUP2 CALLDATALOAD SWAP1 POP PUSH2 0xACA DUP2 PUSH2 0xAA6 JUMP JUMPDEST SWAP3 SWAP2 POP POP JUMP JUMPDEST PUSH0 DUP1 PUSH0 PUSH1 0x60 DUP5 DUP7 SUB SLT ISZERO PUSH2 0xAE7 JUMPI PUSH2 0xAE6 PUSH2 0x871 JUMP JUMPDEST JUMPDEST PUSH0 DUP5 ADD CALLDATALOAD PUSH8 0xFFFFFFFFFFFFFFFF DUP2 GT ISZERO PUSH2 0xB04 JUMPI PUSH2 0xB03 PUSH2 0x875 JUMP JUMPDEST JUMPDEST PUSH2 0xB10 DUP7 DUP3 DUP8 ADD PUSH2 0x988 JUMP JUMPDEST SWAP4 POP POP PUSH1 0x20 DUP5 ADD CALLDATALOAD PUSH8 0xFFFFFFFFFFFFFFFF DUP2 GT ISZERO PUSH2 0xB31 JUMPI PUSH2 0xB30 PUSH2 0x875 JUMP JUMPDEST JUMPDEST PUSH2 0xB3D DUP7 DUP3 DUP8 ADD PUSH2 0xA6A JUMP JUMPDEST SWAP3 POP POP PUSH1 0x40 PUSH2 0xB4E DUP7 DUP3 DUP8 ADD PUSH2 0xABC JUMP JUMPDEST SWAP2 POP POP SWAP3 POP SWAP3 POP SWAP3 JUMP JUMPDEST PUSH0 DUP2 SWAP1 POP SWAP2 SWAP1 POP JUMP JUMPDEST PUSH2 0xB6A DUP2 PUSH2 0xB58 JUMP JUMPDEST DUP3 MSTORE POP POP JUMP JUMPDEST PUSH0 PUSH1 0x20 DUP3 ADD SWAP1 POP PUSH2 0xB83 PUSH0 DUP4 ADD DUP5 PUSH2 0xB61 JUMP JUMPDEST SWAP3 SWAP2 POP POP JUMP JUMPDEST PUSH2 0xB92 DUP2 PUSH2 0xB58 JUMP JUMPDEST DUP2 EQ PUSH2 0xB9C JUMPI PUSH0 DUP1 REVERT JUMPDEST POP JUMP JUMPDEST PUSH0 DUP2 CALLDATALOAD SWAP1 POP PUSH2 0xBAD DUP2 PUSH2 0xB89 JUMP JUMPDEST SWAP3 SWAP2 POP POP JUMP JUMPDEST PUSH0 DUP1 PUSH1 0x40 DUP4 DUP6 SUB SLT ISZERO PUSH2 0xBC9 JUMPI PUSH2 0xBC8 PUSH2 0x871 JUMP JUMPDEST JUMPDEST PUSH0 PUSH2 0xBD6 DUP6 DUP3 DUP7 ADD PUSH2 0xB9F JUMP JUMPDEST SWAP3 POP POP PUSH1 0x20 DUP4 ADD CALLDATALOAD PUSH8 0xFFFFFFFFFFFFFFFF DUP2 GT ISZERO PUSH2 0xBF7 JUMPI PUSH2 0xBF6 PUSH2 0x875 JUMP JUMPDEST JUMPDEST PUSH2 0xC03 DUP6 DUP3 DUP7 ADD PUSH2 0x988 JUMP JUMPDEST SWAP2 POP POP SWAP3 POP SWAP3 SWAP1 POP JUMP JUMPDEST PUSH0 PUSH1 0x20 DUP3 DUP5 SUB SLT ISZERO PUSH2 0xC22 JUMPI PUSH2 0xC21 PUSH2 0x871 JUMP JUMPDEST JUMPDEST PUSH0 PUSH2 0xC2F DUP5 DUP3 DUP6 ADD PUSH2 0xB9F JUMP JUMPDEST SWAP2 POP POP SWAP3 SWAP2 POP POP JUMP JUMPDEST PUSH0 DUP2 MLOAD SWAP1 POP SWAP2 SWAP1 POP JUMP JUMPDEST PUSH0 DUP3 DUP3 MSTORE PUSH1 0x20 DUP3 ADD SWAP1 POP SWAP3 SWAP2 POP POP JUMP JUMPDEST PUSH0 DUP2 SWAP1 POP PUSH1 0x20 DUP3 ADD SWAP1 POP SWAP2 SWAP1 POP JUMP JUMPDEST PUSH0 DUP2 MLOAD SWAP1 POP SWAP2 SWAP1 POP JUMP JUMPDEST PUSH0 DUP3 DUP3 MSTORE PUSH1 0x20 DUP3 ADD SWAP1 POP SWAP3 SWAP2 POP POP JUMP JUMPDEST DUP3 DUP2 DUP4 MCOPY PUSH0 DUP4 DUP4 ADD MSTORE POP POP POP JUMP JUMPDEST PUSH0 PUSH2 0xC93 DUP3 PUSH2 0xC61 JUMP JUMPDEST PUSH2 0xC9D DUP2 DUP6 PUSH2 0xC6B JUMP JUMPDEST SWAP4 POP PUSH2 0xCAD DUP2 DUP6 PUSH1 0x20 DUP7 ADD PUSH2 0xC7B JUMP JUMPDEST PUSH2 0xCB6 DUP2 PUSH2 0x881 JUMP JUMPDEST DUP5 ADD SWAP2 POP POP SWAP3 SWAP2 POP POP JUMP JUMPDEST PUSH0 PUSH2 0xCCC DUP4 DUP4 PUSH2 0xC89 JUMP JUMPDEST SWAP1 POP SWAP3 SWAP2 POP POP JUMP JUMPDEST PUSH0 PUSH1 0x20 DUP3 ADD SWAP1 POP SWAP2 SWAP1 POP JUMP JUMPDEST PUSH0 PUSH2 0xCEA DUP3 PUSH2 0xC38 JUMP JUMPDEST PUSH2 0xCF4 DUP2 DUP6 PUSH2 0xC42 JUMP JUMPDEST SWAP4 POP DUP4 PUSH1 0x20 DUP3 MUL DUP6 ADD PUSH2 0xD06 DUP6 PUSH2 0xC52 JUMP JUMPDEST DUP1 PUSH0 JUMPDEST DUP6 DUP2 LT ISZERO PUSH2 0xD41 JUMPI DUP5 DUP5 SUB DUP10 MSTORE DUP2 MLOAD PUSH2 0xD22 DUP6 DUP3 PUSH2 0xCC1 JUMP JUMPDEST SWAP5 POP PUSH2 0xD2D DUP4 PUSH2 0xCD4 JUMP JUMPDEST SWAP3 POP PUSH1 0x20 DUP11 ADD SWAP10 POP POP PUSH1 0x1 DUP2 ADD SWAP1 POP PUSH2 0xD09 JUMP JUMPDEST POP DUP3 SWAP8 POP DUP8 SWAP6 POP POP POP POP POP POP SWAP3 SWAP2 POP POP JUMP JUMPDEST PUSH0 DUP2 MLOAD SWAP1 POP SWAP2 SWAP1 POP JUMP JUMPDEST PUSH0 DUP3 DUP3 MSTORE PUSH1 0x20 DUP3 ADD SWAP1 POP SWAP3 SWAP2 POP POP JUMP JUMPDEST PUSH0 DUP2 SWAP1 POP PUSH1 0x20 DUP3 ADD SWAP1 POP SWAP2 SWAP1 POP JUMP JUMPDEST PUSH2 0xD85 DUP2 PUSH2 0xB58 JUMP JUMPDEST DUP3 MSTORE POP POP JUMP JUMPDEST PUSH0 PUSH2 0xD96 DUP4 DUP4 PUSH2 0xD7C JUMP JUMPDEST PUSH1 0x20 DUP4 ADD SWAP1 POP SWAP3 SWAP2 POP POP JUMP JUMPDEST PUSH0 PUSH1 0x20 DUP3 ADD SWAP1 POP SWAP2 SWAP1 POP JUMP JUMPDEST PUSH0 PUSH2 0xDB8 DUP3 PUSH2 0xD53 JUMP JUMPDEST PUSH2 0xDC2 DUP2 DUP6 PUSH2 0xD5D JUMP JUMPDEST SWAP4 POP PUSH2 0xDCD DUP4 PUSH2 0xD6D JUMP JUMPDEST DUP1 PUSH0 JUMPDEST DUP4 DUP2 LT ISZERO PUSH2 0xDFD JUMPI DUP2 MLOAD PUSH2 0xDE4 DUP9 DUP3 PUSH2 0xD8B JUMP JUMPDEST SWAP8 POP PUSH2 0xDEF DUP4 PUSH2 0xDA2 JUMP JUMPDEST SWAP3 POP POP PUSH1 0x1 DUP2 ADD SWAP1 POP PUSH2 0xDD0 JUMP JUMPDEST POP DUP6 SWAP4 POP POP POP POP SWAP3 SWAP2 POP POP JUMP JUMPDEST PUSH0 PUSH1 0x40 DUP3 ADD SWAP1 POP DUP2 DUP2 SUB PUSH0 DUP4 ADD MSTORE PUSH2 0xE22 DUP2 DUP6 PUSH2 0xCE0 JUMP JUMPDEST SWAP1 POP DUP2 DUP2 SUB PUSH1 0x20 DUP4 ADD MSTORE PUSH2 0xE36 DUP2 DUP5 PUSH2 0xDAE JUMP JUMPDEST SWAP1 POP SWAP4 SWAP3 POP POP POP JUMP JUMPDEST PUSH0 DUP3 DUP3 MSTORE PUSH1 0x20 DUP3 ADD SWAP1 POP SWAP3 SWAP2 POP POP JUMP JUMPDEST PUSH32 0x4E6F206F7074696F6E732070726F766964656400000000000000000000000000 PUSH0 DUP3 ADD MSTORE POP JUMP JUMPDEST PUSH0 PUSH2 0xE83 PUSH1 0x13 DUP4 PUSH2 0xE3F JUMP JUMPDEST SWAP2 POP PUSH2 0xE8E DUP3 PUSH2 0xE4F JUMP JUMPDEST PUSH1 0x20 DUP3 ADD SWAP1 POP SWAP2 SWAP1 POP JUMP JUMPDEST PUSH0 PUSH1 0x20 DUP3 ADD SWAP1 POP DUP2 DUP2 SUB PUSH0 DUP4 ADD MSTORE PUSH2 0xEB0 DUP2 PUSH2 0xE77 JUMP JUMPDEST SWAP1 POP SWAP2 SWAP1 POP JUMP JUMPDEST PUSH32 0x4E487B7100000000000000000000000000000000000000000000000000000000 PUSH0 MSTORE PUSH1 0x11 PUSH1 0x4 MSTORE PUSH1 0x24 PUSH0 REVERT JUMPDEST PUSH0 PUSH2 0xEEE DUP3 PUSH2 0xB58 JUMP JUMPDEST SWAP2 POP PUSH2 0xEF9 DUP4 PUSH2 0xB58 JUMP JUMPDEST SWAP3 POP DUP3 DUP3 SUB SWAP1 POP DUP2 DUP2 GT ISZERO PUSH2 0xF11 JUMPI PUSH2 0xF10 PUSH2 0xEB7 JUMP JUMPDEST JUMPDEST SWAP3 SWAP2 POP POP JUMP JUMPDEST PUSH32 0x4E487B7100000000000000000000000000000000000000000000000000000000 PUSH0 MSTORE PUSH1 0x32 PUSH1 0x4 MSTORE PUSH1 0x24 PUSH0 REVERT JUMPDEST PUSH32 0x4E487B7100000000000000000000000000000000000000000000000000000000 PUSH0 MSTORE PUSH1 0x22 PUSH1 0x4 MSTORE PUSH1 0x24 PUSH0 REVERT JUMPDEST PUSH0 PUSH1 0x2 DUP3 DIV SWAP1 POP PUSH1 0x1 DUP3 AND DUP1 PUSH2 0xF88 JUMPI PUSH1 0x7F DUP3 AND SWAP2 POP JUMPDEST PUSH1 0x20 DUP3 LT DUP2 SUB PUSH2 0xF9B JUMPI PUSH2 0xF9A PUSH2 0xF44 JUMP JUMPDEST JUMPDEST POP SWAP2 SWAP1 POP JUMP JUMPDEST PUSH0 DUP2 SWAP1 POP DUP2 PUSH0 MSTORE PUSH1 0x20 PUSH0 KECCAK256 SWAP1 POP SWAP2 SWAP1 POP JUMP JUMPDEST PUSH0 PUSH1 0x20 PUSH1 0x1F DUP4 ADD DIV SWAP1 POP SWAP2 SWAP1 POP JUMP JUMPDEST PUSH0 DUP3 DUP3 SHL SWAP1 POP SWAP3 SWAP2 POP POP JUMP JUMPDEST PUSH0 PUSH1 0x8 DUP4 MUL PUSH2 0xFFD PUSH32 0xFFFFFFFFFFFFFFFFFFFFFFFFFFFFFFFFFFFFFFFFFFFFFFFFFFFFFFFFFFFFFFFF DUP3 PUSH2 0xFC2 JUMP JUMPDEST PUSH2 0x1007 DUP7 DUP4 PUSH2 0xFC2 JUMP JUMPDEST SWAP6 POP DUP1 NOT DUP5 AND SWAP4 POP DUP1 DUP7 AND DUP5 OR SWAP3 POP POP POP SWAP4 SWAP3 POP POP POP JUMP JUMPDEST PUSH0 DUP2 SWAP1 POP SWAP2 SWAP1 POP JUMP JUMPDEST PUSH0 PUSH2 0x1042 PUSH2 0x103D PUSH2 0x1038 DUP5 PUSH2 0xB58 JUMP JUMPDEST PUSH2 0x101F JUMP JUMPDEST PUSH2 0xB58 JUMP JUMPDEST SWAP1 POP SWAP2 SWAP1 POP JUMP JUMPDEST PUSH0 DUP2 SWAP1 POP SWAP2 SWAP1 POP JUMP JUMPDEST PUSH2 0x105B DUP4 PUSH2 0x1028 JUMP JUMPDEST PUSH2 0x106F PUSH2 0x1067 DUP3 PUSH2 0x1049 JUMP JUMPDEST DUP5 DUP5 SLOAD PUSH2 0xFCE JUMP JUMPDEST DUP3 SSTORE POP POP POP POP JUMP JUMPDEST PUSH0 SWAP1 JUMP JUMPDEST PUSH2 0x1083 PUSH2 0x1077 JUMP JUMPDEST PUSH2 0x108E DUP2 DUP5 DUP5 PUSH2 0x1052 JUMP JUMPDEST POP POP POP JUMP JUMPDEST JUMPDEST DUP2 DUP2 LT ISZERO PUSH2 0x10B1 JUMPI PUSH2 0x10A6 PUSH0 DUP3 PUSH2 0x107B JUMP JUMPDEST PUSH1 0x1 DUP2 ADD SWAP1 POP PUSH2 0x1094 JUMP JUMPDEST POP POP JUMP JUMPDEST PUSH1 0x1F DUP3 GT ISZERO PUSH2 0x10F6 JUMPI PUSH2 0x10C7 DUP2 PUSH2 0xFA1 JUMP JUMPDEST PUSH2 0x10D0 DUP5 PUSH2 0xFB3 JUMP JUMPDEST DUP2 ADD PUSH1 0x20 DUP6 LT ISZERO PUSH2 0x10DF JUMPI DUP2 SWAP1 POP JUMPDEST PUSH2 0x10F3 PUSH2 0x10EB DUP6 PUSH2 0xFB3 JUMP JUMPDEST DUP4 ADD DUP3 PUSH2 0x1093 JUMP JUMPDEST POP POP JUMPDEST POP POP POP JUMP JUMPDEST PUSH0 DUP3 DUP3 SHR SWAP1 POP SWAP3 SWAP2 POP POP JUMP JUMPDEST PUSH0 PUSH2 0x1116 PUSH0 NOT DUP5 PUSH1 0x8 MUL PUSH2 0x10FB JUMP JUMPDEST NOT DUP1 DUP4 AND SWAP2 POP POP SWAP3 SWAP2 POP POP JUMP JUMPDEST PUSH0 PUSH2 0x112E DUP4 DUP4 PUSH2 0x1107 JUMP JUMPDEST SWAP2 POP DUP3 PUSH1 0x2 MUL DUP3 OR SWAP1 POP SWAP3 SWAP2 POP POP JUMP JUMPDEST PUSH2 0x1147 DUP3 PUSH2 0xC61 JUMP JUMPDEST PUSH8 0xFFFFFFFFFFFFFFFF DUP2 GT ISZERO PUSH2 0x1160 JUMPI PUSH2 0x115F PUSH2 0x891 JUMP JUMPDEST JUMPDEST PUSH2 0x116A DUP3 SLOAD PUSH2 0xF71 JUMP JUMPDEST PUSH2 0x1175 DUP3 DUP3 DUP6 PUSH2 0x10B5 JUMP JUMPDEST PUSH0 PUSH1 0x20 SWAP1 POP PUSH1 0x1F DUP4 GT PUSH1 0x1 DUP2 EQ PUSH2 0x11A6 JUMPI PUSH0 DUP5 ISZERO PUSH2 0x1194 JUMPI DUP3 DUP8 ADD MLOAD SWAP1 POP JUMPDEST PUSH2 0x119E DUP6 DUP3 PUSH2 0x1123 JUMP JUMPDEST DUP7 SSTORE POP PUSH2 0x1205 JUMP JUMPDEST PUSH1 0x1F NOT DUP5 AND PUSH2 0x11B4 DUP7 PUSH2 0xFA1 JUMP JUMPDEST PUSH0 JUMPDEST DUP3 DUP2 LT ISZERO PUSH2 0x11DB JUMPI DUP5 DUP10 ADD MLOAD DUP3 SSTORE PUSH1 0x1 DUP3 ADD SWAP2 POP PUSH1 0x20 DUP6 ADD SWAP5 POP PUSH1 0x20 DUP2 ADD SWAP1 POP PUSH2 0x11B6 JUMP JUMPDEST DUP7 DUP4 LT ISZERO PUSH2 0x11F8 JUMPI DUP5 DUP10 ADD MLOAD PUSH2 0x11F4 PUSH1 0x1F DUP10 AND DUP3 PUSH2 0x1107 JUMP JUMPDEST DUP4 SSTORE POP JUMPDEST PUSH1 0x1 PUSH1 0x2 DUP9 MUL ADD DUP9 SSTORE POP POP POP JUMPDEST POP POP POP POP POP POP JUMP JUMPDEST PUSH0 PUSH2 0x1217 DUP3 PUSH2 0xA97 JUMP JUMPDEST SWAP2 POP PUSH2 0x1222 DUP4 PUSH2 0xA97 JUMP JUMPDEST SWAP3 POP DUP3 DUP3 ADD SWAP1 POP PUSH4 0xFFFFFFFF DUP2 GT ISZERO PUSH2 0x123E JUMPI PUSH2 0x123D PUSH2 0xEB7 JUMP JUMPDEST JUMPDEST SWAP3 SWAP2 POP POP JUMP JUMPDEST PUSH0 PUSH2 0x124E DUP3 PUSH2 0xC61 JUMP JUMPDEST PUSH2 0x1258 DUP2 DUP6 PUSH2 0xE3F JUMP JUMPDEST SWAP4 POP PUSH2 0x1268 DUP2 DUP6 PUSH1 0x20 DUP7 ADD PUSH2 0xC7B JUMP JUMPDEST PUSH2 0x1271 DUP2 PUSH2 0x881 JUMP JUMPDEST DUP5 ADD SWAP2 POP POP SWAP3 SWAP2 POP POP JUMP JUMPDEST PUSH0 PUSH2 0x1296 PUSH2 0x1291 PUSH2 0x128C DUP5 PUSH2 0xA97 JUMP JUMPDEST PUSH2 0x101F JUMP JUMPDEST PUSH2 0xB58 JUMP JUMPDEST SWAP1 POP SWAP2 SWAP1 POP JUMP JUMPDEST PUSH2 0x12A6 DUP2 PUSH2 0x127C JUMP JUMPDEST DUP3 MSTORE POP POP JUMP JUMPDEST PUSH0 PUSH1 0x60 DUP3 ADD SWAP1 POP DUP2 DUP2 SUB PUSH0 DUP4 ADD MSTORE PUSH2 0x12C4 DUP2 DUP7 PUSH2 0x1244 JUMP JUMPDEST SWAP1 POP DUP2 DUP2 SUB PUSH1 0x20 DUP4 ADD MSTORE PUSH2 0x12D8 DUP2 DUP6 PUSH2 0xCE0 JUMP JUMPDEST SWAP1 POP PUSH2 0x12E7 PUSH1 0x40 DUP4 ADD DUP5 PUSH2 0x129D JUMP JUMPDEST SWAP5 SWAP4 POP POP POP POP JUMP JUMPDEST PUSH32 0x506F6C6C20636C6F736564000000000000000000000000000000000000000000 PUSH0 DUP3 ADD MSTORE POP JUMP JUMPDEST PUSH0 PUSH2 0x1323 PUSH1 0xB DUP4 PUSH2 0xE3F JUMP JUMPDEST SWAP2 POP PUSH2 0x132E DUP3 PUSH2 0x12EF JUMP JUMPDEST PUSH1 0x20 DUP3 ADD SWAP1 POP SWAP2 SWAP1 POP JUMP JUMPDEST PUSH0 PUSH1 0x20 DUP3 ADD SWAP1 POP DUP2 DUP2 SUB PUSH0 DUP4 ADD MSTORE PUSH2 0x1350 DUP2 PUSH2 0x1317 JUMP JUMPDEST SWAP1 POP SWAP2 SWAP1 POP JUMP JUMPDEST PUSH32 0x496E76616C696420506F6C6C2049440000000000000000000000000000000000 PUSH0 DUP3 ADD MSTORE POP JUMP JUMPDEST PUSH0 PUSH2 0x138B PUSH1 0xF DUP4 PUSH2 0xE3F JUMP JUMPDEST SWAP2 POP PUSH2 0x1396 DUP3 PUSH2 0x1357 JUMP JUMPDEST PUSH1 0x20 DUP3 ADD SWAP1 POP SWAP2 SWAP1 POP JUMP JUMPDEST PUSH0 PUSH1 0x20 DUP3 ADD SWAP1 POP DUP2 DUP2 SUB PUSH0 DUP4 ADD MSTORE PUSH2 0x13B8 DUP2 PUSH2 0x137F JUMP JUMPDEST SWAP1 POP SWAP2 SWAP1 POP JUMP JUMPDEST PUSH32 0x416C726561647920766F74656400000000000000000000000000000000000000 PUSH0 DUP3 ADD MSTORE POP JUMP JUMPDEST PUSH0 PUSH2 0x13F3 PUSH1 0xD DUP4 PUSH2 0xE3F JUMP JUMPDEST SWAP2 POP PUSH2 0x13FE DUP3 PUSH2 0x13BF JUMP JUMPDEST PUSH1 0x20 DUP3 ADD SWAP1 POP SWAP2 SWAP1 POP JUMP JUMPDEST PUSH0 PUSH1 0x20 DUP3 ADD SWAP1 POP DUP2 DUP2 SUB PUSH0 DUP4 ADD MSTORE PUSH2 0x1420 DUP2 PUSH2 0x13E7 JUMP JUMPDEST SWAP1 POP SWAP2 SWAP1 POP JUMP JUMPDEST PUSH32 0x496E76616C6964206F7074696F6E000000000000000000000000000000000000 PUSH0 DUP3 ADD MSTORE POP JUMP JUMPDEST PUSH0 PUSH2 0x145B PUSH1 0xE DUP4 PUSH2 0xE3F JUMP JUMPDEST SWAP2 POP PUSH2 0x1466 DUP3 PUSH2 0x1427 JUMP JUMPDEST PUSH1 0x20 DUP3 ADD SWAP1 POP SWAP2 SWAP1 POP JUMP JUMPDEST PUSH0 PUSH1 0x20 DUP3 ADD SWAP1 POP DUP2 DUP2 SUB PUSH0 DUP4 ADD MSTORE PUSH2 0x1488 DUP2 PUSH2 0x144F JUMP JUMPDEST SWAP1 POP SWAP2 SWAP1 POP JUMP JUMPDEST PUSH0 DUP2 SWAP1 POP SWAP3 SWAP2 POP POP JUMP JUMPDEST PUSH0 PUSH2 0x14A3 DUP3 PUSH2 0xC61 JUMP JUMPDEST PUSH2 0x14AD DUP2 DUP6 PUSH2 0x148F JUMP JUMPDEST SWAP4 POP PUSH2 0x14BD DUP2 DUP6 PUSH1 0x20 DUP7 ADD PUSH2 0xC7B JUMP JUMPDEST DUP1 DUP5 ADD SWAP2 POP POP SWAP3 SWAP2 POP POP JUMP JUMPDEST PUSH0 PUSH2 0x14D4 DUP3 DUP5 PUSH2 0x1499 JUMP JUMPDEST SWAP2 POP DUP2 SWAP1 POP SWAP3 SWAP2 POP POP JUMP JUMPDEST PUSH0 PUSH2 0x14E9 DUP3 PUSH2 0xB58 JUMP JUMPDEST SWAP2 POP PUSH32 0xFFFFFFFFFFFFFFFFFFFFFFFFFFFFFFFFFFFFFFFFFFFFFFFFFFFFFFFFFFFFFFFF DUP3 SUB PUSH2 0x151B JUMPI PUSH2 0x151A PUSH2 0xEB7 JUMP JUMPDEST JUMPDEST PUSH1 0x1 DUP3 ADD SWAP1 POP SWAP2 SWAP1 POP JUMP JUMPDEST PUSH0 PUSH20 0xFFFFFFFFFFFFFFFFFFFFFFFFFFFFFFFFFFFFFFFF DUP3 AND SWAP1 POP SWAP2 SWAP1 POP JUMP JUMPDEST PUSH0 PUSH2 0x154F DUP3 PUSH2 0x1526 JUMP JUMPDEST SWAP1 POP SWAP2 SWAP1 POP JUMP JUMPDEST PUSH0 DUP2 PUSH1 0x60 SHL SWAP1 POP SWAP2 SWAP1 POP JUMP JUMPDEST PUSH0 PUSH2 0x156C DUP3 PUSH2 0x1556 JUMP JUMPDEST SWAP1 POP SWAP2 SWAP1 POP JUMP JUMPDEST PUSH0 PUSH2 0x157D DUP3 PUSH2 0x1562 JUMP JUMPDEST SWAP1 POP SWAP2 SWAP1 POP JUMP JUMPDEST PUSH2 0x1595 PUSH2 0x1590 DUP3 PUSH2 0x1545 JUMP JUMPDEST PUSH2 0x1573 JUMP JUMPDEST DUP3 MSTORE POP POP JUMP JUMPDEST PUSH32 0x2068617320766F7465642E000000000000000000000000000000000000000000 PUSH0 DUP3 ADD MSTORE POP JUMP JUMPDEST PUSH0 PUSH2 0x15CF PUSH1 0xB DUP4 PUSH2 0x148F JUMP JUMPDEST SWAP2 POP PUSH2 0x15DA DUP3 PUSH2 0x159B JUMP JUMPDEST PUSH1 0xB DUP3 ADD SWAP1 POP SWAP2 SWAP1 POP JUMP JUMPDEST PUSH0 PUSH2 0x15F0 DUP3 DUP5 PUSH2 0x1584 JUMP JUMPDEST PUSH1 0x14 DUP3 ADD SWAP2 POP PUSH2 0x15FF DUP3 PUSH2 0x15C3 JUMP JUMPDEST SWAP2 POP DUP2 SWAP1 POP SWAP3 SWAP2 POP POP JUMP JUMPDEST PUSH0 DUP2 MLOAD SWAP1 POP SWAP2 SWAP1 POP JUMP JUMPDEST PUSH0 DUP3 DUP3 MSTORE PUSH1 0x20 DUP3 ADD SWAP1 POP SWAP3 SWAP2 POP POP JUMP JUMPDEST PUSH0 PUSH2 0x162E DUP3 PUSH2 0x160A JUMP JUMPDEST PUSH2 0x1638 DUP2 DUP6 PUSH2 0x1614 JUMP JUMPDEST SWAP4 POP PUSH2 0x1648 DUP2 DUP6 PUSH1 0x20 DUP7 ADD PUSH2 0xC7B JUMP JUMPDEST PUSH2 0x1651 DUP2 PUSH2 0x881 JUMP JUMPDEST DUP5 ADD SWAP2 POP POP SWAP3 SWAP2 POP POP JUMP JUMPDEST PUSH0 PUSH1 0x20 DUP3 ADD SWAP1 POP DUP2 DUP2 SUB PUSH0 DUP4 ADD MSTORE PUSH2 0x1674 DUP2 DUP5 PUSH2 0x1624 JUMP JUMPDEST SWAP1 POP SWAP3 SWAP2 POP POP JUMP JUMPDEST PUSH0 DUP2 SLOAD PUSH2 0x1688 DUP2 PUSH2 0xF71 JUMP JUMPDEST PUSH2 0x1692 DUP2 DUP7 PUSH2 0x148F JUMP JUMPDEST SWAP5 POP PUSH1 0x1 DUP3 AND PUSH0 DUP2 EQ PUSH2 0x16AC JUMPI PUSH1 0x1 DUP2 EQ PUSH2 0x16C1 JUMPI PUSH2 0x16F3 JUMP JUMPDEST PUSH1 0xFF NOT DUP4 AND DUP7 MSTORE DUP2 ISZERO ISZERO DUP3 MUL DUP7 ADD SWAP4 POP PUSH2 0x16F3 JUMP JUMPDEST PUSH2 0x16CA DUP6 PUSH2 0xFA1 JUMP JUMPDEST PUSH0 JUMPDEST DUP4 DUP2 LT ISZERO PUSH2 0x16EB JUMPI DUP2 SLOAD DUP2 DUP10 ADD MSTORE PUSH1 0x1 DUP3 ADD SWAP2 POP PUSH1 0x20 DUP2 ADD SWAP1 POP PUSH2 0x16CC JUMP JUMPDEST DUP4 DUP9 ADD SWAP6 POP POP POP JUMPDEST POP POP POP SWAP3 SWAP2 POP POP JUMP JUMPDEST PUSH0 PUSH2 0x1707 DUP3 DUP5 PUSH2 0x167C JUMP JUMPDEST SWAP2 POP DUP2 SWAP1 POP SWAP3 SWAP2 POP POP JUMP INVALID LOG2 PUSH5 0x6970667358 0x22 SLT KECCAK256 LOG4 CALLER SWAP10 SWAP10 PUSH18 0x2B5FF1E9FDBF6E94BA89E7A04C300E92D657 PUSH18 0x35928B2278F0B0F164736F6C634300081A00 CALLER "
				},
				"gasEstimates": {
					"creation": {
						"codeDepositCost": "1192000",
						"executionCost": "1239",
						"totalCost": "1193239"
					},
					"external": {
						"createPoll(string,string[],uint32)": "infinite",
						"getResults(uint256)": "infinite",
						"vote(uint256,string)": "infinite"
					},
					"internal": {
						"isValidOption(string memory[] memory,string memory)": "infinite"
					}
				},
				"methodIdentifiers": {
					"createPoll(string,string[],uint32)": "1f252a8e",
					"getResults(uint256)": "81a60c0d",
					"vote(uint256,string)": "24108475"
				}
			},
			"storageLayout": {
				"storage": [
					{
						"astId": 22,
						"contract": "VotingTheory/polls.sol:Polls",
						"label": "polls",
						"offset": 0,
						"slot": "0",
						"type": "t_array(t_struct(Poll)18_storage)dyn_storage"
					}
				],
				"types": {
					"t_address": {
						"encoding": "inplace",
						"label": "address",
						"numberOfBytes": "20"
					},
					"t_array(t_string_storage)dyn_storage": {
						"base": "t_string_storage",
						"encoding": "dynamic_array",
						"label": "string[]",
						"numberOfBytes": "32"
					},
					"t_array(t_struct(Poll)18_storage)dyn_storage": {
						"base": "t_struct(Poll)18_storage",
						"encoding": "dynamic_array",
						"label": "struct Polls.Poll[]",
						"numberOfBytes": "32"
					},
					"t_bool": {
						"encoding": "inplace",
						"label": "bool",
						"numberOfBytes": "1"
					},
					"t_mapping(t_address,t_bool)": {
						"encoding": "mapping",
						"key": "t_address",
						"label": "mapping(address => bool)",
						"numberOfBytes": "32",
						"value": "t_bool"
					},
					"t_mapping(t_string_memory_ptr,t_uint256)": {
						"encoding": "mapping",
						"key": "t_string_memory_ptr",
						"label": "mapping(string => uint256)",
						"numberOfBytes": "32",
						"value": "t_uint256"
					},
					"t_string_memory_ptr": {
						"encoding": "bytes",
						"label": "string",
						"numberOfBytes": "32"
					},
					"t_string_storage": {
						"encoding": "bytes",
						"label": "string",
						"numberOfBytes": "32"
					},
					"t_struct(Poll)18_storage": {
						"encoding": "inplace",
						"label": "struct Polls.Poll",
						"members": [
							{
								"astId": 4,
								"contract": "VotingTheory/polls.sol:Polls",
								"label": "title",
								"offset": 0,
								"slot": "0",
								"type": "t_string_storage"
							},
							{
								"astId": 7,
								"contract": "VotingTheory/polls.sol:Polls",
								"label": "options",
								"offset": 0,
								"slot": "1",
								"type": "t_array(t_string_storage)dyn_storage"
							},
							{
								"astId": 9,
								"contract": "VotingTheory/polls.sol:Polls",
								"label": "endTime",
								"offset": 0,
								"slot": "2",
								"type": "t_uint32"
							},
							{
								"astId": 13,
								"contract": "VotingTheory/polls.sol:Polls",
								"label": "votes",
								"offset": 0,
								"slot": "3",
								"type": "t_mapping(t_string_memory_ptr,t_uint256)"
							},
							{
								"astId": 17,
								"contract": "VotingTheory/polls.sol:Polls",
								"label": "voted",
								"offset": 0,
								"slot": "4",
								"type": "t_mapping(t_address,t_bool)"
							}
						],
						"numberOfBytes": "160"
					},
					"t_uint256": {
						"encoding": "inplace",
						"label": "uint256",
						"numberOfBytes": "32"
					},
					"t_uint32": {
						"encoding": "inplace",
						"label": "uint32",
						"numberOfBytes": "4"
					}
				}
			},
			"userdoc": {
				"kind": "user",
				"methods": {},
				"notice": "You can use this contract for only the most basic voting",
				"version": 1
			}
		}
	}
}