{
	"VotingTheory/polls.sol": {
		"Polls": {
			"abi": [
				{
					"anonymous": false,
					"inputs": [
						{
							"indexed": false,
							"internalType": "string",
							"name": "title",
							"type": "string"
						},
						{
							"indexed": false,
							"internalType": "string[]",
							"name": "options",
							"type": "string[]"
						},
						{
							"indexed": false,
							"internalType": "uint256",
							"name": "duration",
							"type": "uint256"
						}
					],
					"name": "PollCreated",
					"type": "event"
				},
				{
					"anonymous": false,
					"inputs": [
						{
							"indexed": false,
							"internalType": "bytes",
							"name": "",
							"type": "bytes"
						}
					],
					"name": "Voted",
					"type": "event"
				},
				{
					"inputs": [
						{
							"internalType": "string",
							"name": "_title",
							"type": "string"
						},
						{
							"internalType": "string[]",
							"name": "_options",
							"type": "string[]"
						},
						{
							"internalType": "uint32",
							"name": "_duration",
							"type": "uint32"
						}
					],
					"name": "createPoll",
					"outputs": [
						{
							"internalType": "uint256",
							"name": "",
							"type": "uint256"
						}
					],
					"stateMutability": "nonpayable",
					"type": "function"
				},
				{
					"inputs": [],
					"name": "getActivePolls",
					"outputs": [
						{
							"components": [
								{
									"internalType": "string",
									"name": "title",
									"type": "string"
								},
								{
									"internalType": "string[]",
									"name": "options",
									"type": "string[]"
								},
								{
									"internalType": "uint32",
									"name": "endTime",
									"type": "uint32"
								},
								{
									"internalType": "uint256",
									"name": "pollId",
									"type": "uint256"
								}
							],
							"internalType": "struct Polls.ActivePolls[]",
							"name": "",
							"type": "tuple[]"
						}
					],
					"stateMutability": "view",
					"type": "function"
				},
				{
					"inputs": [
						{
							"internalType": "uint256",
							"name": "_pollId",
							"type": "uint256"
						}
					],
					"name": "getResults",
					"outputs": [
						{
							"internalType": "string[]",
							"name": "",
							"type": "string[]"
						},
						{
							"internalType": "uint256[]",
							"name": "",
							"type": "uint256[]"
						}
					],
					"stateMutability": "view",
					"type": "function"
				},
				{
					"inputs": [
						{
							"internalType": "uint256",
							"name": "",
							"type": "uint256"
						}
					],
					"name": "polls",
					"outputs": [
						{
							"internalType": "string",
							"name": "title",
							"type": "string"
						},
						{
							"internalType": "uint32",
							"name": "endTime",
							"type": "uint32"
						}
					],
					"stateMutability": "view",
					"type": "function"
				},
				{
					"inputs": [
						{
							"internalType": "uint256",
							"name": "_pollId",
							"type": "uint256"
						},
						{
							"internalType": "string",
							"name": "_option",
							"type": "string"
						}
					],
					"name": "vote",
					"outputs": [],
					"stateMutability": "nonpayable",
					"type": "function"
				}
			],
			"devdoc": {
				"author": "Navin Rajmohan",
				"custom:experimental": "This is an experimental contract.",
				"details": "All function calls are currently implemented without side effects",
				"kind": "dev",
				"methods": {
					"createPoll(string,string[],uint32)": {
						"details": "A function to create the poll in DApp"
					},
					"getResults(uint256)": {
						"details": "A function to retrieve the votes"
					},
					"vote(uint256,string)": {
						"details": "A fucntion to make the vote"
					}
				},
				"title": "A contract for managing polls",
				"version": 1
			},
			"evm": {
				"assembly": "    /* \"VotingTheory/polls.sol\":337:4001  contract Polls {... */\n  mstore(0x40, 0x80)\n  callvalue\n  dup1\n  iszero\n  tag_1\n  jumpi\n  0x00\n  dup1\n  revert\ntag_1:\n  pop\n  dataSize(sub_0)\n  dup1\n  dataOffset(sub_0)\n  0x00\n  codecopy\n  0x00\n  return\nstop\n\nsub_0: assembly {\n        /* \"VotingTheory/polls.sol\":337:4001  contract Polls {... */\n      mstore(0x40, 0x80)\n      callvalue\n      dup1\n      iszero\n      tag_1\n      jumpi\n      0x00\n      dup1\n      revert\n    tag_1:\n      pop\n      jumpi(tag_2, lt(calldatasize, 0x04))\n      shr(0xe0, calldataload(0x00))\n      dup1\n      0x1f252a8e\n      eq\n      tag_3\n      jumpi\n      dup1\n      0x24108475\n      eq\n      tag_4\n      jumpi\n      dup1\n      0x63a9492f\n      eq\n      tag_5\n      jumpi\n      dup1\n      0x81a60c0d\n      eq\n      tag_6\n      jumpi\n      dup1\n      0xac2f0074\n      eq\n      tag_7\n      jumpi\n    tag_2:\n      0x00\n      dup1\n      revert\n        /* \"VotingTheory/polls.sol\":1197:1714  function createPoll(string memory _title, string[] memory _options, uint32 _duration) external returns (uint256) {... */\n    tag_3:\n      tag_8\n      0x04\n      dup1\n      calldatasize\n      sub\n      dup2\n      add\n      swap1\n      tag_9\n      swap2\n      swap1\n      tag_10\n      jump\t// in\n    tag_9:\n      tag_11\n      jump\t// in\n    tag_8:\n      mload(0x40)\n      tag_12\n      swap2\n      swap1\n      tag_13\n      jump\t// in\n    tag_12:\n      mload(0x40)\n      dup1\n      swap2\n      sub\n      swap1\n      return\n        /* \"VotingTheory/polls.sol\":1761:2314  function vote(uint256 _pollId, string memory _option) external onlyActive(_pollId) {... */\n    tag_4:\n      tag_14\n      0x04\n      dup1\n      calldatasize\n      sub\n      dup2\n      add\n      swap1\n      tag_15\n      swap2\n      swap1\n      tag_16\n      jump\t// in\n    tag_15:\n      tag_17\n      jump\t// in\n    tag_14:\n      stop\n        /* \"VotingTheory/polls.sol\":3219:3999  function getActivePolls() external view returns (ActivePolls[] memory) {... */\n    tag_5:\n      tag_18\n      tag_19\n      jump\t// in\n    tag_18:\n      mload(0x40)\n      tag_20\n      swap2\n      swap1\n      tag_21\n      jump\t// in\n    tag_20:\n      mload(0x40)\n      dup1\n      swap2\n      sub\n      swap1\n      return\n        /* \"VotingTheory/polls.sol\":2787:3161  function getResults(uint256 _pollId) external view returns (string[] memory, uint256[] memory) {... */\n    tag_6:\n      tag_22\n      0x04\n      dup1\n      calldatasize\n      sub\n      dup2\n      add\n      swap1\n      tag_23\n      swap2\n      swap1\n      tag_24\n      jump\t// in\n    tag_23:\n      tag_25\n      jump\t// in\n    tag_22:\n      mload(0x40)\n      tag_26\n      swap3\n      swap2\n      swap1\n      tag_27\n      jump\t// in\n    tag_26:\n      mload(0x40)\n      dup1\n      swap2\n      sub\n      swap1\n      return\n        /* \"VotingTheory/polls.sol\":803:822  Poll[] public polls */\n    tag_7:\n      tag_28\n      0x04\n      dup1\n      calldatasize\n      sub\n      dup2\n      add\n      swap1\n      tag_29\n      swap2\n      swap1\n      tag_24\n      jump\t// in\n    tag_29:\n      tag_30\n      jump\t// in\n    tag_28:\n      mload(0x40)\n      tag_31\n      swap3\n      swap2\n      swap1\n      tag_32\n      jump\t// in\n    tag_31:\n      mload(0x40)\n      dup1\n      swap2\n      sub\n      swap1\n      return\n        /* \"VotingTheory/polls.sol\":1197:1714  function createPoll(string memory _title, string[] memory _options, uint32 _duration) external returns (uint256) {... */\n    tag_11:\n        /* \"VotingTheory/polls.sol\":1301:1308  uint256 */\n      0x00\n        /* \"VotingTheory/polls.sol\":1347:1348  0 */\n      dup1\n        /* \"VotingTheory/polls.sol\":1329:1337  _options */\n      dup4\n        /* \"VotingTheory/polls.sol\":1329:1344  _options.length */\n      mload\n        /* \"VotingTheory/polls.sol\":1329:1348  _options.length > 0 */\n      gt\n        /* \"VotingTheory/polls.sol\":1320:1372  require (_options.length > 0, \"No options provided\") */\n      tag_34\n      jumpi\n      mload(0x40)\n      0x08c379a000000000000000000000000000000000000000000000000000000000\n      dup2\n      mstore\n      0x04\n      add\n      tag_35\n      swap1\n      tag_36\n      jump\t// in\n    tag_35:\n      mload(0x40)\n      dup1\n      swap2\n      sub\n      swap1\n      revert\n    tag_34:\n        /* \"VotingTheory/polls.sol\":1382:1387  polls */\n      0x00\n        /* \"VotingTheory/polls.sol\":1382:1394  polls.push() */\n      0x01\n      dup2\n      0x01\n      dup2\n      sload\n      add\n      dup1\n      dup3\n      sstore\n      dup1\n      swap2\n      pop\n      pop\n      sub\n      swap1\n      0x00\n      mstore\n      keccak256(0x00, 0x20)\n      swap1\n      pop\n      pop\n        /* \"VotingTheory/polls.sol\":1404:1418  uint256 pollId */\n      0x00\n        /* \"VotingTheory/polls.sol\":1436:1437  1 */\n      0x01\n        /* \"VotingTheory/polls.sol\":1421:1426  polls */\n      0x00\n        /* \"VotingTheory/polls.sol\":1421:1433  polls.length */\n      dup1\n      sload\n      swap1\n      pop\n        /* \"VotingTheory/polls.sol\":1421:1437  polls.length - 1 */\n      tag_38\n      swap2\n      swap1\n      tag_39\n      jump\t// in\n    tag_38:\n        /* \"VotingTheory/polls.sol\":1404:1437  uint256 pollId = polls.length - 1 */\n      swap1\n      pop\n        /* \"VotingTheory/polls.sol\":1447:1464  Poll storage poll */\n      0x00\n        /* \"VotingTheory/polls.sol\":1467:1472  polls */\n      dup1\n        /* \"VotingTheory/polls.sol\":1473:1479  pollId */\n      dup3\n        /* \"VotingTheory/polls.sol\":1467:1480  polls[pollId] */\n      dup2\n      sload\n      dup2\n      lt\n      tag_40\n      jumpi\n      tag_41\n      tag_42\n      jump\t// in\n    tag_41:\n    tag_40:\n      swap1\n      0x00\n      mstore\n      keccak256(0x00, 0x20)\n      swap1\n      0x05\n      mul\n      add\n        /* \"VotingTheory/polls.sol\":1447:1480  Poll storage poll = polls[pollId] */\n      swap1\n      pop\n        /* \"VotingTheory/polls.sol\":1503:1509  _title */\n      dup6\n        /* \"VotingTheory/polls.sol\":1490:1494  poll */\n      dup2\n        /* \"VotingTheory/polls.sol\":1490:1500  poll.title */\n      0x00\n      add\n        /* \"VotingTheory/polls.sol\":1490:1509  poll.title = _title */\n      swap1\n      dup2\n      tag_44\n      swap2\n      swap1\n      tag_45\n      jump\t// in\n    tag_44:\n      pop\n        /* \"VotingTheory/polls.sol\":1535:1543  _options */\n      dup5\n        /* \"VotingTheory/polls.sol\":1519:1523  poll */\n      dup2\n        /* \"VotingTheory/polls.sol\":1519:1531  poll.options */\n      0x01\n      add\n        /* \"VotingTheory/polls.sol\":1519:1543  poll.options =  _options */\n      swap1\n      dup1\n      mload\n      swap1\n      0x20\n      add\n      swap1\n      tag_46\n      swap3\n      swap2\n      swap1\n      tag_47\n      jump\t// in\n    tag_46:\n      pop\n        /* \"VotingTheory/polls.sol\":1594:1603  _duration */\n      dup4\n        /* \"VotingTheory/polls.sol\":1575:1590  block.timestamp */\n      timestamp\n        /* \"VotingTheory/polls.sol\":1568:1603  uint32(block.timestamp) + _duration */\n      tag_48\n      swap2\n      swap1\n      tag_49\n      jump\t// in\n    tag_48:\n        /* \"VotingTheory/polls.sol\":1553:1557  poll */\n      dup2\n        /* \"VotingTheory/polls.sol\":1553:1565  poll.endTime */\n      0x02\n      add\n      0x00\n        /* \"VotingTheory/polls.sol\":1553:1603  poll.endTime = uint32(block.timestamp) + _duration */\n      0x0100\n      exp\n      dup2\n      sload\n      dup2\n      0xffffffff\n      mul\n      not\n      and\n      swap1\n      dup4\n      0xffffffff\n      and\n      mul\n      or\n      swap1\n      sstore\n      pop\n        /* \"VotingTheory/polls.sol\":1644:1684  PollCreated(_title, _options, _duration) */\n      0x1ededd90e900e0bd1754831e81e2f375c8a8fbc71eeeb8d6610ae6ec1afc880e\n        /* \"VotingTheory/polls.sol\":1656:1662  _title */\n      dup7\n        /* \"VotingTheory/polls.sol\":1664:1672  _options */\n      dup7\n        /* \"VotingTheory/polls.sol\":1674:1683  _duration */\n      dup7\n        /* \"VotingTheory/polls.sol\":1644:1684  PollCreated(_title, _options, _duration) */\n      mload(0x40)\n      tag_50\n      swap4\n      swap3\n      swap2\n      swap1\n      tag_51\n      jump\t// in\n    tag_50:\n      mload(0x40)\n      dup1\n      swap2\n      sub\n      swap1\n      log1\n        /* \"VotingTheory/polls.sol\":1701:1707  pollId */\n      dup2\n        /* \"VotingTheory/polls.sol\":1694:1707  return pollId */\n      swap3\n      pop\n      pop\n      pop\n        /* \"VotingTheory/polls.sol\":1197:1714  function createPoll(string memory _title, string[] memory _options, uint32 _duration) external returns (uint256) {... */\n      swap4\n      swap3\n      pop\n      pop\n      pop\n      jump\t// out\n        /* \"VotingTheory/polls.sol\":1761:2314  function vote(uint256 _pollId, string memory _option) external onlyActive(_pollId) {... */\n    tag_17:\n        /* \"VotingTheory/polls.sol\":1835:1842  _pollId */\n      dup2\n        /* \"VotingTheory/polls.sol\":1084:1089  polls */\n      0x00\n        /* \"VotingTheory/polls.sol\":1090:1097  _pollId */\n      dup2\n        /* \"VotingTheory/polls.sol\":1084:1098  polls[_pollId] */\n      dup2\n      sload\n      dup2\n      lt\n      tag_53\n      jumpi\n      tag_54\n      tag_42\n      jump\t// in\n    tag_54:\n    tag_53:\n      swap1\n      0x00\n      mstore\n      keccak256(0x00, 0x20)\n      swap1\n      0x05\n      mul\n      add\n        /* \"VotingTheory/polls.sol\":1084:1106  polls[_pollId].endTime */\n      0x02\n      add\n      0x00\n      swap1\n      sload\n      swap1\n      0x0100\n      exp\n      swap1\n      div\n      0xffffffff\n      and\n        /* \"VotingTheory/polls.sol\":1066:1106  block.timestamp < polls[_pollId].endTime */\n      0xffffffff\n      and\n        /* \"VotingTheory/polls.sol\":1066:1081  block.timestamp */\n      timestamp\n        /* \"VotingTheory/polls.sol\":1066:1106  block.timestamp < polls[_pollId].endTime */\n      lt\n        /* \"VotingTheory/polls.sol\":1058:1122  require(block.timestamp < polls[_pollId].endTime, \"Poll closed\") */\n      tag_56\n      jumpi\n      mload(0x40)\n      0x08c379a000000000000000000000000000000000000000000000000000000000\n      dup2\n      mstore\n      0x04\n      add\n      tag_57\n      swap1\n      tag_58\n      jump\t// in\n    tag_57:\n      mload(0x40)\n      dup1\n      swap2\n      sub\n      swap1\n      revert\n    tag_56:\n        /* \"VotingTheory/polls.sol\":1874:1879  polls */\n      0x00\n        /* \"VotingTheory/polls.sol\":1874:1886  polls.length */\n      dup1\n      sload\n      swap1\n      pop\n        /* \"VotingTheory/polls.sol\":1863:1870  _pollId */\n      dup4\n        /* \"VotingTheory/polls.sol\":1863:1886  _pollId <= polls.length */\n      gt\n      iszero\n        /* \"VotingTheory/polls.sol\":1854:1906  require (_pollId <= polls.length, \"Invalid Poll ID\") */\n      tag_60\n      jumpi\n      mload(0x40)\n      0x08c379a000000000000000000000000000000000000000000000000000000000\n      dup2\n      mstore\n      0x04\n      add\n      tag_61\n      swap1\n      tag_62\n      jump\t// in\n    tag_61:\n      mload(0x40)\n      dup1\n      swap2\n      sub\n      swap1\n      revert\n    tag_60:\n        /* \"VotingTheory/polls.sol\":2003:2020  Poll storage poll */\n      0x00\n        /* \"VotingTheory/polls.sol\":2023:2028  polls */\n      dup1\n        /* \"VotingTheory/polls.sol\":2029:2036  _pollId */\n      dup5\n        /* \"VotingTheory/polls.sol\":2023:2037  polls[_pollId] */\n      dup2\n      sload\n      dup2\n      lt\n      tag_63\n      jumpi\n      tag_64\n      tag_42\n      jump\t// in\n    tag_64:\n    tag_63:\n      swap1\n      0x00\n      mstore\n      keccak256(0x00, 0x20)\n      swap1\n      0x05\n      mul\n      add\n        /* \"VotingTheory/polls.sol\":2003:2037  Poll storage poll = polls[_pollId] */\n      swap1\n      pop\n        /* \"VotingTheory/polls.sol\":2057:2061  poll */\n      dup1\n        /* \"VotingTheory/polls.sol\":2057:2067  poll.voted */\n      0x04\n      add\n        /* \"VotingTheory/polls.sol\":2057:2079  poll.voted[msg.sender] */\n      0x00\n        /* \"VotingTheory/polls.sol\":2068:2078  msg.sender */\n      caller\n        /* \"VotingTheory/polls.sol\":2057:2079  poll.voted[msg.sender] */\n      0xffffffffffffffffffffffffffffffffffffffff\n      and\n      0xffffffffffffffffffffffffffffffffffffffff\n      and\n      dup2\n      mstore\n      0x20\n      add\n      swap1\n      dup2\n      mstore\n      0x20\n      add\n      0x00\n      keccak256\n      0x00\n      swap1\n      sload\n      swap1\n      0x0100\n      exp\n      swap1\n      div\n      0xff\n      and\n        /* \"VotingTheory/polls.sol\":2056:2079  !poll.voted[msg.sender] */\n      iszero\n        /* \"VotingTheory/polls.sol\":2047:2097  require (!poll.voted[msg.sender], \"Already voted\") */\n      tag_66\n      jumpi\n      mload(0x40)\n      0x08c379a000000000000000000000000000000000000000000000000000000000\n      dup2\n      mstore\n      0x04\n      add\n      tag_67\n      swap1\n      tag_68\n      jump\t// in\n    tag_67:\n      mload(0x40)\n      dup1\n      swap2\n      sub\n      swap1\n      revert\n    tag_66:\n        /* \"VotingTheory/polls.sol\":2116:2152  isValidOption(poll.options, _option) */\n      tag_69\n        /* \"VotingTheory/polls.sol\":2130:2134  poll */\n      dup2\n        /* \"VotingTheory/polls.sol\":2130:2142  poll.options */\n      0x01\n      add\n        /* \"VotingTheory/polls.sol\":2116:2152  isValidOption(poll.options, _option) */\n      dup1\n      sload\n      dup1\n      0x20\n      mul\n      0x20\n      add\n      mload(0x40)\n      swap1\n      dup2\n      add\n      0x40\n      mstore\n      dup1\n      swap3\n      swap2\n      swap1\n      dup2\n      dup2\n      mstore\n      0x20\n      add\n      0x00\n      swap1\n    tag_70:\n      dup3\n      dup3\n      lt\n      iszero\n      tag_71\n      jumpi\n      dup4\n      dup3\n      swap1\n      0x00\n      mstore\n      keccak256(0x00, 0x20)\n      add\n      dup1\n      sload\n      tag_73\n      swap1\n      tag_74\n      jump\t// in\n    tag_73:\n      dup1\n      0x1f\n      add\n      0x20\n      dup1\n      swap2\n      div\n      mul\n      0x20\n      add\n      mload(0x40)\n      swap1\n      dup2\n      add\n      0x40\n      mstore\n      dup1\n      swap3\n      swap2\n      swap1\n      dup2\n      dup2\n      mstore\n      0x20\n      add\n      dup3\n      dup1\n      sload\n      tag_75\n      swap1\n      tag_74\n      jump\t// in\n    tag_75:\n      dup1\n      iszero\n      tag_76\n      jumpi\n      dup1\n      0x1f\n      lt\n      tag_77\n      jumpi\n      0x0100\n      dup1\n      dup4\n      sload\n      div\n      mul\n      dup4\n      mstore\n      swap2\n      0x20\n      add\n      swap2\n      jump(tag_76)\n    tag_77:\n      dup3\n      add\n      swap2\n      swap1\n      0x00\n      mstore\n      keccak256(0x00, 0x20)\n      swap1\n    tag_78:\n      dup2\n      sload\n      dup2\n      mstore\n      swap1\n      0x01\n      add\n      swap1\n      0x20\n      add\n      dup1\n      dup4\n      gt\n      tag_78\n      jumpi\n      dup3\n      swap1\n      sub\n      0x1f\n      and\n      dup3\n      add\n      swap2\n    tag_76:\n      pop\n      pop\n      pop\n      pop\n      pop\n      dup2\n      mstore\n      0x20\n      add\n      swap1\n      0x01\n      add\n      swap1\n      jump(tag_70)\n    tag_71:\n      pop\n      pop\n      pop\n      pop\n        /* \"VotingTheory/polls.sol\":2144:2151  _option */\n      dup5\n        /* \"VotingTheory/polls.sol\":2116:2129  isValidOption */\n      tag_79\n        /* \"VotingTheory/polls.sol\":2116:2152  isValidOption(poll.options, _option) */\n      jump\t// in\n    tag_69:\n        /* \"VotingTheory/polls.sol\":2107:2171  require (isValidOption(poll.options, _option), \"Invalid option\") */\n      tag_80\n      jumpi\n      mload(0x40)\n      0x08c379a000000000000000000000000000000000000000000000000000000000\n      dup2\n      mstore\n      0x04\n      add\n      tag_81\n      swap1\n      tag_82\n      jump\t// in\n    tag_81:\n      mload(0x40)\n      dup1\n      swap2\n      sub\n      swap1\n      revert\n    tag_80:\n        /* \"VotingTheory/polls.sol\":2181:2185  poll */\n      dup1\n        /* \"VotingTheory/polls.sol\":2181:2191  poll.votes */\n      0x03\n      add\n        /* \"VotingTheory/polls.sol\":2192:2199  _option */\n      dup4\n        /* \"VotingTheory/polls.sol\":2181:2200  poll.votes[_option] */\n      mload(0x40)\n      tag_83\n      swap2\n      swap1\n      tag_84\n      jump\t// in\n    tag_83:\n      swap1\n      dup2\n      mstore\n      0x20\n      add\n      mload(0x40)\n      dup1\n      swap2\n      sub\n      swap1\n      keccak256\n      0x00\n        /* \"VotingTheory/polls.sol\":2181:2202  poll.votes[_option]++ */\n      dup2\n      sload\n      dup1\n      swap3\n      swap2\n      swap1\n      tag_85\n      swap1\n      tag_86\n      jump\t// in\n    tag_85:\n      swap2\n      swap1\n      pop\n      sstore\n      pop\n        /* \"VotingTheory/polls.sol\":2237:2241  true */\n      0x01\n        /* \"VotingTheory/polls.sol\":2212:2216  poll */\n      dup2\n        /* \"VotingTheory/polls.sol\":2212:2222  poll.voted */\n      0x04\n      add\n        /* \"VotingTheory/polls.sol\":2212:2234  poll.voted[msg.sender] */\n      0x00\n        /* \"VotingTheory/polls.sol\":2223:2233  msg.sender */\n      caller\n        /* \"VotingTheory/polls.sol\":2212:2234  poll.voted[msg.sender] */\n      0xffffffffffffffffffffffffffffffffffffffff\n      and\n      0xffffffffffffffffffffffffffffffffffffffff\n      and\n      dup2\n      mstore\n      0x20\n      add\n      swap1\n      dup2\n      mstore\n      0x20\n      add\n      0x00\n      keccak256\n      0x00\n        /* \"VotingTheory/polls.sol\":2212:2241  poll.voted[msg.sender] = true */\n      0x0100\n      exp\n      dup2\n      sload\n      dup2\n      0xff\n      mul\n      not\n      and\n      swap1\n      dup4\n      iszero\n      iszero\n      mul\n      or\n      swap1\n      sstore\n      pop\n        /* \"VotingTheory/polls.sol\":2256:2307  Voted(abi.encodePacked(msg.sender , \" has voted.\")) */\n      0x038712374569e245b0d09fa173eb0b0392e784f9cc7895e53b879dc1f6ef9c2a\n        /* \"VotingTheory/polls.sol\":2279:2289  msg.sender */\n      caller\n        /* \"VotingTheory/polls.sol\":2262:2306  abi.encodePacked(msg.sender , \" has voted.\") */\n      add(0x20, mload(0x40))\n      tag_87\n      swap2\n      swap1\n      tag_88\n      jump\t// in\n    tag_87:\n      mload(0x40)\n      0x20\n      dup2\n      dup4\n      sub\n      sub\n      dup2\n      mstore\n      swap1\n      0x40\n      mstore\n        /* \"VotingTheory/polls.sol\":2256:2307  Voted(abi.encodePacked(msg.sender , \" has voted.\")) */\n      mload(0x40)\n      tag_89\n      swap2\n      swap1\n      tag_90\n      jump\t// in\n    tag_89:\n      mload(0x40)\n      dup1\n      swap2\n      sub\n      swap1\n      log1\n        /* \"VotingTheory/polls.sol\":1844:2314  {... */\n      pop\n        /* \"VotingTheory/polls.sol\":1761:2314  function vote(uint256 _pollId, string memory _option) external onlyActive(_pollId) {... */\n      pop\n      pop\n      pop\n      jump\t// out\n        /* \"VotingTheory/polls.sol\":3219:3999  function getActivePolls() external view returns (ActivePolls[] memory) {... */\n    tag_19:\n        /* \"VotingTheory/polls.sol\":3268:3288  ActivePolls[] memory */\n      0x60\n        /* \"VotingTheory/polls.sol\":3300:3319  uint256 activeCount */\n      0x00\n        /* \"VotingTheory/polls.sol\":3338:3344  uint i */\n      dup1\n        /* \"VotingTheory/polls.sol\":3333:3484  for (uint i = 0; i < polls.length; i++) {... */\n    tag_92:\n        /* \"VotingTheory/polls.sol\":3354:3359  polls */\n      0x00\n        /* \"VotingTheory/polls.sol\":3354:3366  polls.length */\n      dup1\n      sload\n      swap1\n      pop\n        /* \"VotingTheory/polls.sol\":3350:3351  i */\n      dup2\n        /* \"VotingTheory/polls.sol\":3350:3366  i < polls.length */\n      lt\n        /* \"VotingTheory/polls.sol\":3333:3484  for (uint i = 0; i < polls.length; i++) {... */\n      iszero\n      tag_93\n      jumpi\n        /* \"VotingTheory/polls.sol\":3411:3426  block.timestamp */\n      timestamp\n        /* \"VotingTheory/polls.sol\":3391:3396  polls */\n      0x00\n        /* \"VotingTheory/polls.sol\":3397:3398  i */\n      dup3\n        /* \"VotingTheory/polls.sol\":3391:3399  polls[i] */\n      dup2\n      sload\n      dup2\n      lt\n      tag_95\n      jumpi\n      tag_96\n      tag_42\n      jump\t// in\n    tag_96:\n    tag_95:\n      swap1\n      0x00\n      mstore\n      keccak256(0x00, 0x20)\n      swap1\n      0x05\n      mul\n      add\n        /* \"VotingTheory/polls.sol\":3391:3407  polls[i].endTime */\n      0x02\n      add\n      0x00\n      swap1\n      sload\n      swap1\n      0x0100\n      exp\n      swap1\n      div\n      0xffffffff\n      and\n        /* \"VotingTheory/polls.sol\":3391:3426  polls[i].endTime >= block.timestamp */\n      0xffffffff\n      and\n      lt\n        /* \"VotingTheory/polls.sol\":3387:3474  if (polls[i].endTime >= block.timestamp) {... */\n      tag_98\n      jumpi\n        /* \"VotingTheory/polls.sol\":3446:3459  activeCount++ */\n      dup2\n      dup1\n      tag_99\n      swap1\n      tag_86\n      jump\t// in\n    tag_99:\n      swap3\n      pop\n      pop\n        /* \"VotingTheory/polls.sol\":3387:3474  if (polls[i].endTime >= block.timestamp) {... */\n    tag_98:\n        /* \"VotingTheory/polls.sol\":3368:3371  i++ */\n      dup1\n      dup1\n      0x01\n      add\n      swap2\n      pop\n      pop\n        /* \"VotingTheory/polls.sol\":3333:3484  for (uint i = 0; i < polls.length; i++) {... */\n      jump(tag_92)\n    tag_93:\n      pop\n        /* \"VotingTheory/polls.sol\":3493:3521  ActivePolls[] memory actPoll */\n      0x00\n        /* \"VotingTheory/polls.sol\":3542:3553  activeCount */\n      dup2\n        /* \"VotingTheory/polls.sol\":3524:3554  new ActivePolls[](activeCount) */\n      0xffffffffffffffff\n      dup2\n      gt\n      iszero\n      tag_100\n      jumpi\n      tag_101\n      tag_102\n      jump\t// in\n    tag_101:\n    tag_100:\n      mload(0x40)\n      swap1\n      dup1\n      dup3\n      mstore\n      dup1\n      0x20\n      mul\n      0x20\n      add\n      dup3\n      add\n      0x40\n      mstore\n      dup1\n      iszero\n      tag_103\n      jumpi\n      dup2\n      0x20\n      add\n    tag_104:\n      tag_105\n      tag_106\n      jump\t// in\n    tag_105:\n      dup2\n      mstore\n      0x20\n      add\n      swap1\n      0x01\n      swap1\n      sub\n      swap1\n      dup2\n      tag_104\n      jumpi\n      swap1\n      pop\n    tag_103:\n      pop\n        /* \"VotingTheory/polls.sol\":3493:3554  ActivePolls[] memory actPoll = new ActivePolls[](activeCount) */\n      swap1\n      pop\n        /* \"VotingTheory/polls.sol\":3564:3577  uint256 index */\n      0x00\n        /* \"VotingTheory/polls.sol\":3595:3601  uint i */\n      dup1\n        /* \"VotingTheory/polls.sol\":3591:3969  for(uint i = 0; i < polls.length; i++) {... */\n    tag_107:\n        /* \"VotingTheory/polls.sol\":3611:3616  polls */\n      0x00\n        /* \"VotingTheory/polls.sol\":3611:3623  polls.length */\n      dup1\n      sload\n      swap1\n      pop\n        /* \"VotingTheory/polls.sol\":3607:3608  i */\n      dup2\n        /* \"VotingTheory/polls.sol\":3607:3623  i < polls.length */\n      lt\n        /* \"VotingTheory/polls.sol\":3591:3969  for(uint i = 0; i < polls.length; i++) {... */\n      iszero\n      tag_108\n      jumpi\n        /* \"VotingTheory/polls.sol\":3668:3683  block.timestamp */\n      timestamp\n        /* \"VotingTheory/polls.sol\":3648:3653  polls */\n      0x00\n        /* \"VotingTheory/polls.sol\":3654:3655  i */\n      dup3\n        /* \"VotingTheory/polls.sol\":3648:3656  polls[i] */\n      dup2\n      sload\n      dup2\n      lt\n      tag_110\n      jumpi\n      tag_111\n      tag_42\n      jump\t// in\n    tag_111:\n    tag_110:\n      swap1\n      0x00\n      mstore\n      keccak256(0x00, 0x20)\n      swap1\n      0x05\n      mul\n      add\n        /* \"VotingTheory/polls.sol\":3648:3664  polls[i].endTime */\n      0x02\n      add\n      0x00\n      swap1\n      sload\n      swap1\n      0x0100\n      exp\n      swap1\n      div\n      0xffffffff\n      and\n        /* \"VotingTheory/polls.sol\":3648:3683  polls[i].endTime >= block.timestamp */\n      0xffffffff\n      and\n      lt\n        /* \"VotingTheory/polls.sol\":3644:3959  if (polls[i].endTime >= block.timestamp) {... */\n      tag_113\n      jumpi\n        /* \"VotingTheory/polls.sol\":3720:3919  ActivePolls({... */\n      mload(0x40)\n      dup1\n      0x80\n      add\n      0x40\n      mstore\n      dup1\n        /* \"VotingTheory/polls.sol\":3792:3797  polls */\n      0x00\n        /* \"VotingTheory/polls.sol\":3798:3799  i */\n      dup4\n        /* \"VotingTheory/polls.sol\":3792:3800  polls[i] */\n      dup2\n      sload\n      dup2\n      lt\n      tag_114\n      jumpi\n      tag_115\n      tag_42\n      jump\t// in\n    tag_115:\n    tag_114:\n      swap1\n      0x00\n      mstore\n      keccak256(0x00, 0x20)\n      swap1\n      0x05\n      mul\n      add\n        /* \"VotingTheory/polls.sol\":3792:3806  polls[i].title */\n      0x00\n      add\n        /* \"VotingTheory/polls.sol\":3720:3919  ActivePolls({... */\n      dup1\n      sload\n      tag_117\n      swap1\n      tag_74\n      jump\t// in\n    tag_117:\n      dup1\n      0x1f\n      add\n      0x20\n      dup1\n      swap2\n      div\n      mul\n      0x20\n      add\n      mload(0x40)\n      swap1\n      dup2\n      add\n      0x40\n      mstore\n      dup1\n      swap3\n      swap2\n      swap1\n      dup2\n      dup2\n      mstore\n      0x20\n      add\n      dup3\n      dup1\n      sload\n      tag_118\n      swap1\n      tag_74\n      jump\t// in\n    tag_118:\n      dup1\n      iszero\n      tag_119\n      jumpi\n      dup1\n      0x1f\n      lt\n      tag_120\n      jumpi\n      0x0100\n      dup1\n      dup4\n      sload\n      div\n      mul\n      dup4\n      mstore\n      swap2\n      0x20\n      add\n      swap2\n      jump(tag_119)\n    tag_120:\n      dup3\n      add\n      swap2\n      swap1\n      0x00\n      mstore\n      keccak256(0x00, 0x20)\n      swap1\n    tag_121:\n      dup2\n      sload\n      dup2\n      mstore\n      swap1\n      0x01\n      add\n      swap1\n      0x20\n      add\n      dup1\n      dup4\n      gt\n      tag_121\n      jumpi\n      dup3\n      swap1\n      sub\n      0x1f\n      and\n      dup3\n      add\n      swap2\n    tag_119:\n      pop\n      pop\n      pop\n      pop\n      pop\n      dup2\n      mstore\n      0x20\n      add\n        /* \"VotingTheory/polls.sol\":3884:3889  polls */\n      0x00\n        /* \"VotingTheory/polls.sol\":3890:3891  i */\n      dup4\n        /* \"VotingTheory/polls.sol\":3884:3892  polls[i] */\n      dup2\n      sload\n      dup2\n      lt\n      tag_122\n      jumpi\n      tag_123\n      tag_42\n      jump\t// in\n    tag_123:\n    tag_122:\n      swap1\n      0x00\n      mstore\n      keccak256(0x00, 0x20)\n      swap1\n      0x05\n      mul\n      add\n        /* \"VotingTheory/polls.sol\":3884:3900  polls[i].options */\n      0x01\n      add\n        /* \"VotingTheory/polls.sol\":3720:3919  ActivePolls({... */\n      dup1\n      sload\n      dup1\n      0x20\n      mul\n      0x20\n      add\n      mload(0x40)\n      swap1\n      dup2\n      add\n      0x40\n      mstore\n      dup1\n      swap3\n      swap2\n      swap1\n      dup2\n      dup2\n      mstore\n      0x20\n      add\n      0x00\n      swap1\n    tag_125:\n      dup3\n      dup3\n      lt\n      iszero\n      tag_126\n      jumpi\n      dup4\n      dup3\n      swap1\n      0x00\n      mstore\n      keccak256(0x00, 0x20)\n      add\n      dup1\n      sload\n      tag_128\n      swap1\n      tag_74\n      jump\t// in\n    tag_128:\n      dup1\n      0x1f\n      add\n      0x20\n      dup1\n      swap2\n      div\n      mul\n      0x20\n      add\n      mload(0x40)\n      swap1\n      dup2\n      add\n      0x40\n      mstore\n      dup1\n      swap3\n      swap2\n      swap1\n      dup2\n      dup2\n      mstore\n      0x20\n      add\n      dup3\n      dup1\n      sload\n      tag_129\n      swap1\n      tag_74\n      jump\t// in\n    tag_129:\n      dup1\n      iszero\n      tag_130\n      jumpi\n      dup1\n      0x1f\n      lt\n      tag_131\n      jumpi\n      0x0100\n      dup1\n      dup4\n      sload\n      div\n      mul\n      dup4\n      mstore\n      swap2\n      0x20\n      add\n      swap2\n      jump(tag_130)\n    tag_131:\n      dup3\n      add\n      swap2\n      swap1\n      0x00\n      mstore\n      keccak256(0x00, 0x20)\n      swap1\n    tag_132:\n      dup2\n      sload\n      dup2\n      mstore\n      swap1\n      0x01\n      add\n      swap1\n      0x20\n      add\n      dup1\n      dup4\n      gt\n      tag_132\n      jumpi\n      dup3\n      swap1\n      sub\n      0x1f\n      and\n      dup3\n      add\n      swap2\n    tag_130:\n      pop\n      pop\n      pop\n      pop\n      pop\n      dup2\n      mstore\n      0x20\n      add\n      swap1\n      0x01\n      add\n      swap1\n      jump(tag_125)\n    tag_126:\n      pop\n      pop\n      pop\n      pop\n      dup2\n      mstore\n      0x20\n      add\n        /* \"VotingTheory/polls.sol\":3837:3842  polls */\n      0x00\n        /* \"VotingTheory/polls.sol\":3843:3844  i */\n      dup4\n        /* \"VotingTheory/polls.sol\":3837:3845  polls[i] */\n      dup2\n      sload\n      dup2\n      lt\n      tag_133\n      jumpi\n      tag_134\n      tag_42\n      jump\t// in\n    tag_134:\n    tag_133:\n      swap1\n      0x00\n      mstore\n      keccak256(0x00, 0x20)\n      swap1\n      0x05\n      mul\n      add\n        /* \"VotingTheory/polls.sol\":3837:3853  polls[i].endTime */\n      0x02\n      add\n      0x00\n      swap1\n      sload\n      swap1\n      0x0100\n      exp\n      swap1\n      div\n      0xffffffff\n      and\n        /* \"VotingTheory/polls.sol\":3720:3919  ActivePolls({... */\n      0xffffffff\n      and\n      dup2\n      mstore\n      0x20\n      add\n        /* \"VotingTheory/polls.sol\":3762:3763  i */\n      dup3\n        /* \"VotingTheory/polls.sol\":3720:3919  ActivePolls({... */\n      dup2\n      mstore\n      pop\n        /* \"VotingTheory/polls.sol\":3703:3710  actPoll */\n      dup4\n        /* \"VotingTheory/polls.sol\":3711:3716  index */\n      dup4\n        /* \"VotingTheory/polls.sol\":3703:3717  actPoll[index] */\n      dup2\n      mload\n      dup2\n      lt\n      tag_136\n      jumpi\n      tag_137\n      tag_42\n      jump\t// in\n    tag_137:\n    tag_136:\n      0x20\n      mul\n      0x20\n      add\n      add\n        /* \"VotingTheory/polls.sol\":3703:3919  actPoll[index] = ActivePolls({... */\n      dup2\n      swap1\n      mstore\n      pop\n        /* \"VotingTheory/polls.sol\":3937:3944  index++ */\n      dup2\n      dup1\n      tag_138\n      swap1\n      tag_86\n      jump\t// in\n    tag_138:\n      swap3\n      pop\n      pop\n        /* \"VotingTheory/polls.sol\":3644:3959  if (polls[i].endTime >= block.timestamp) {... */\n    tag_113:\n        /* \"VotingTheory/polls.sol\":3625:3628  i++ */\n      dup1\n      dup1\n      0x01\n      add\n      swap2\n      pop\n      pop\n        /* \"VotingTheory/polls.sol\":3591:3969  for(uint i = 0; i < polls.length; i++) {... */\n      jump(tag_107)\n    tag_108:\n      pop\n        /* \"VotingTheory/polls.sol\":3985:3992  actPoll */\n      dup2\n        /* \"VotingTheory/polls.sol\":3978:3992  return actPoll */\n      swap4\n      pop\n      pop\n      pop\n      pop\n        /* \"VotingTheory/polls.sol\":3219:3999  function getActivePolls() external view returns (ActivePolls[] memory) {... */\n      swap1\n      jump\t// out\n        /* \"VotingTheory/polls.sol\":2787:3161  function getResults(uint256 _pollId) external view returns (string[] memory, uint256[] memory) {... */\n    tag_25:\n        /* \"VotingTheory/polls.sol\":2847:2862  string[] memory */\n      0x60\n        /* \"VotingTheory/polls.sol\":2864:2880  uint256[] memory */\n      dup1\n        /* \"VotingTheory/polls.sol\":2892:2909  Poll storage poll */\n      0x00\n        /* \"VotingTheory/polls.sol\":2912:2917  polls */\n      dup1\n        /* \"VotingTheory/polls.sol\":2918:2925  _pollId */\n      dup5\n        /* \"VotingTheory/polls.sol\":2912:2926  polls[_pollId] */\n      dup2\n      sload\n      dup2\n      lt\n      tag_140\n      jumpi\n      tag_141\n      tag_42\n      jump\t// in\n    tag_141:\n    tag_140:\n      swap1\n      0x00\n      mstore\n      keccak256(0x00, 0x20)\n      swap1\n      0x05\n      mul\n      add\n        /* \"VotingTheory/polls.sol\":2892:2926  Poll storage poll = polls[_pollId] */\n      swap1\n      pop\n        /* \"VotingTheory/polls.sol\":2936:2959  uint256[] memory counts */\n      0x00\n        /* \"VotingTheory/polls.sol\":2976:2980  poll */\n      dup2\n        /* \"VotingTheory/polls.sol\":2976:2988  poll.options */\n      0x01\n      add\n        /* \"VotingTheory/polls.sol\":2976:2995  poll.options.length */\n      dup1\n      sload\n      swap1\n      pop\n        /* \"VotingTheory/polls.sol\":2962:2996  new uint256[](poll.options.length) */\n      0xffffffffffffffff\n      dup2\n      gt\n      iszero\n      tag_143\n      jumpi\n      tag_144\n      tag_102\n      jump\t// in\n    tag_144:\n    tag_143:\n      mload(0x40)\n      swap1\n      dup1\n      dup3\n      mstore\n      dup1\n      0x20\n      mul\n      0x20\n      add\n      dup3\n      add\n      0x40\n      mstore\n      dup1\n      iszero\n      tag_145\n      jumpi\n      dup2\n      0x20\n      add\n      0x20\n      dup3\n      mul\n      dup1\n      calldatasize\n      dup4\n      calldatacopy\n      dup1\n      dup3\n      add\n      swap2\n      pop\n      pop\n      swap1\n      pop\n    tag_145:\n      pop\n        /* \"VotingTheory/polls.sol\":2936:2996  uint256[] memory counts = new uint256[](poll.options.length) */\n      swap1\n      pop\n        /* \"VotingTheory/polls.sol\":3010:3016  uint i */\n      0x00\n        /* \"VotingTheory/polls.sol\":3006:3116  for(uint i = 0; i < poll.options.length; i++) {... */\n    tag_146:\n        /* \"VotingTheory/polls.sol\":3026:3030  poll */\n      dup3\n        /* \"VotingTheory/polls.sol\":3026:3038  poll.options */\n      0x01\n      add\n        /* \"VotingTheory/polls.sol\":3026:3045  poll.options.length */\n      dup1\n      sload\n      swap1\n      pop\n        /* \"VotingTheory/polls.sol\":3022:3023  i */\n      dup2\n        /* \"VotingTheory/polls.sol\":3022:3045  i < poll.options.length */\n      lt\n        /* \"VotingTheory/polls.sol\":3006:3116  for(uint i = 0; i < poll.options.length; i++) {... */\n      iszero\n      tag_147\n      jumpi\n        /* \"VotingTheory/polls.sol\":3078:3082  poll */\n      dup3\n        /* \"VotingTheory/polls.sol\":3078:3088  poll.votes */\n      0x03\n      add\n        /* \"VotingTheory/polls.sol\":3089:3093  poll */\n      dup4\n        /* \"VotingTheory/polls.sol\":3089:3101  poll.options */\n      0x01\n      add\n        /* \"VotingTheory/polls.sol\":3102:3103  i */\n      dup3\n        /* \"VotingTheory/polls.sol\":3089:3104  poll.options[i] */\n      dup2\n      sload\n      dup2\n      lt\n      tag_149\n      jumpi\n      tag_150\n      tag_42\n      jump\t// in\n    tag_150:\n    tag_149:\n      swap1\n      0x00\n      mstore\n      keccak256(0x00, 0x20)\n      add\n        /* \"VotingTheory/polls.sol\":3078:3105  poll.votes[poll.options[i]] */\n      mload(0x40)\n      tag_152\n      swap2\n      swap1\n      tag_153\n      jump\t// in\n    tag_152:\n      swap1\n      dup2\n      mstore\n      0x20\n      add\n      mload(0x40)\n      dup1\n      swap2\n      sub\n      swap1\n      keccak256\n      sload\n        /* \"VotingTheory/polls.sol\":3066:3072  counts */\n      dup3\n        /* \"VotingTheory/polls.sol\":3073:3074  i */\n      dup3\n        /* \"VotingTheory/polls.sol\":3066:3075  counts[i] */\n      dup2\n      mload\n      dup2\n      lt\n      tag_154\n      jumpi\n      tag_155\n      tag_42\n      jump\t// in\n    tag_155:\n    tag_154:\n      0x20\n      mul\n      0x20\n      add\n      add\n        /* \"VotingTheory/polls.sol\":3066:3105  counts[i] = poll.votes[poll.options[i]] */\n      dup2\n      dup2\n      mstore\n      pop\n      pop\n        /* \"VotingTheory/polls.sol\":3047:3050  i++ */\n      dup1\n      dup1\n      0x01\n      add\n      swap2\n      pop\n      pop\n        /* \"VotingTheory/polls.sol\":3006:3116  for(uint i = 0; i < poll.options.length; i++) {... */\n      jump(tag_146)\n    tag_147:\n      pop\n        /* \"VotingTheory/polls.sol\":3133:3137  poll */\n      dup2\n        /* \"VotingTheory/polls.sol\":3133:3145  poll.options */\n      0x01\n      add\n        /* \"VotingTheory/polls.sol\":3147:3153  counts */\n      dup2\n        /* \"VotingTheory/polls.sol\":3125:3154  return (poll.options, counts) */\n      dup2\n      dup1\n      sload\n      dup1\n      0x20\n      mul\n      0x20\n      add\n      mload(0x40)\n      swap1\n      dup2\n      add\n      0x40\n      mstore\n      dup1\n      swap3\n      swap2\n      swap1\n      dup2\n      dup2\n      mstore\n      0x20\n      add\n      0x00\n      swap1\n    tag_156:\n      dup3\n      dup3\n      lt\n      iszero\n      tag_157\n      jumpi\n      dup4\n      dup3\n      swap1\n      0x00\n      mstore\n      keccak256(0x00, 0x20)\n      add\n      dup1\n      sload\n      tag_159\n      swap1\n      tag_74\n      jump\t// in\n    tag_159:\n      dup1\n      0x1f\n      add\n      0x20\n      dup1\n      swap2\n      div\n      mul\n      0x20\n      add\n      mload(0x40)\n      swap1\n      dup2\n      add\n      0x40\n      mstore\n      dup1\n      swap3\n      swap2\n      swap1\n      dup2\n      dup2\n      mstore\n      0x20\n      add\n      dup3\n      dup1\n      sload\n      tag_160\n      swap1\n      tag_74\n      jump\t// in\n    tag_160:\n      dup1\n      iszero\n      tag_161\n      jumpi\n      dup1\n      0x1f\n      lt\n      tag_162\n      jumpi\n      0x0100\n      dup1\n      dup4\n      sload\n      div\n      mul\n      dup4\n      mstore\n      swap2\n      0x20\n      add\n      swap2\n      jump(tag_161)\n    tag_162:\n      dup3\n      add\n      swap2\n      swap1\n      0x00\n      mstore\n      keccak256(0x00, 0x20)\n      swap1\n    tag_163:\n      dup2\n      sload\n      dup2\n      mstore\n      swap1\n      0x01\n      add\n      swap1\n      0x20\n      add\n      dup1\n      dup4\n      gt\n      tag_163\n      jumpi\n      dup3\n      swap1\n      sub\n      0x1f\n      and\n      dup3\n      add\n      swap2\n    tag_161:\n      pop\n      pop\n      pop\n      pop\n      pop\n      dup2\n      mstore\n      0x20\n      add\n      swap1\n      0x01\n      add\n      swap1\n      jump(tag_156)\n    tag_157:\n      pop\n      pop\n      pop\n      pop\n      swap2\n      pop\n      swap4\n      pop\n      swap4\n      pop\n      pop\n      pop\n        /* \"VotingTheory/polls.sol\":2787:3161  function getResults(uint256 _pollId) external view returns (string[] memory, uint256[] memory) {... */\n      swap2\n      pop\n      swap2\n      jump\t// out\n        /* \"VotingTheory/polls.sol\":803:822  Poll[] public polls */\n    tag_30:\n      0x00\n      dup2\n      dup2\n      sload\n      dup2\n      lt\n      tag_164\n      jumpi\n      0x00\n      dup1\n      revert\n    tag_164:\n      swap1\n      0x00\n      mstore\n      keccak256(0x00, 0x20)\n      swap1\n      0x05\n      mul\n      add\n      0x00\n      swap2\n      pop\n      swap1\n      pop\n      dup1\n      0x00\n      add\n      dup1\n      sload\n      tag_166\n      swap1\n      tag_74\n      jump\t// in\n    tag_166:\n      dup1\n      0x1f\n      add\n      0x20\n      dup1\n      swap2\n      div\n      mul\n      0x20\n      add\n      mload(0x40)\n      swap1\n      dup2\n      add\n      0x40\n      mstore\n      dup1\n      swap3\n      swap2\n      swap1\n      dup2\n      dup2\n      mstore\n      0x20\n      add\n      dup3\n      dup1\n      sload\n      tag_167\n      swap1\n      tag_74\n      jump\t// in\n    tag_167:\n      dup1\n      iszero\n      tag_168\n      jumpi\n      dup1\n      0x1f\n      lt\n      tag_169\n      jumpi\n      0x0100\n      dup1\n      dup4\n      sload\n      div\n      mul\n      dup4\n      mstore\n      swap2\n      0x20\n      add\n      swap2\n      jump(tag_168)\n    tag_169:\n      dup3\n      add\n      swap2\n      swap1\n      0x00\n      mstore\n      keccak256(0x00, 0x20)\n      swap1\n    tag_170:\n      dup2\n      sload\n      dup2\n      mstore\n      swap1\n      0x01\n      add\n      swap1\n      0x20\n      add\n      dup1\n      dup4\n      gt\n      tag_170\n      jumpi\n      dup3\n      swap1\n      sub\n      0x1f\n      and\n      dup3\n      add\n      swap2\n    tag_168:\n      pop\n      pop\n      pop\n      pop\n      pop\n      swap1\n      dup1\n      0x02\n      add\n      0x00\n      swap1\n      sload\n      swap1\n      0x0100\n      exp\n      swap1\n      div\n      0xffffffff\n      and\n      swap1\n      pop\n      dup3\n      jump\t// out\n        /* \"VotingTheory/polls.sol\":2382:2735  function isValidOption(string[] memory _options, string memory _option) internal pure returns (bool) {... */\n    tag_79:\n        /* \"VotingTheory/polls.sol\":2477:2481  bool */\n      0x00\n        /* \"VotingTheory/polls.sol\":2493:2511  bytes32 optionHash */\n      dup1\n        /* \"VotingTheory/polls.sol\":2530:2537  _option */\n      dup3\n        /* \"VotingTheory/polls.sol\":2514:2539  keccak256(bytes(_option)) */\n      dup1\n      mload\n      swap1\n      0x20\n      add\n      keccak256\n        /* \"VotingTheory/polls.sol\":2493:2539  bytes32 optionHash = keccak256(bytes(_option)) */\n      swap1\n      pop\n        /* \"VotingTheory/polls.sol\":2553:2559  uint i */\n      0x00\n        /* \"VotingTheory/polls.sol\":2549:2707  for(uint i = 0; i < _options.length; i++) {... */\n    tag_172:\n        /* \"VotingTheory/polls.sol\":2569:2577  _options */\n      dup5\n        /* \"VotingTheory/polls.sol\":2569:2584  _options.length */\n      mload\n        /* \"VotingTheory/polls.sol\":2565:2566  i */\n      dup2\n        /* \"VotingTheory/polls.sol\":2565:2584  i < _options.length */\n      lt\n        /* \"VotingTheory/polls.sol\":2549:2707  for(uint i = 0; i < _options.length; i++) {... */\n      iszero\n      tag_173\n      jumpi\n        /* \"VotingTheory/polls.sol\":2641:2651  optionHash */\n      dup2\n        /* \"VotingTheory/polls.sol\":2624:2632  _options */\n      dup6\n        /* \"VotingTheory/polls.sol\":2633:2634  i */\n      dup3\n        /* \"VotingTheory/polls.sol\":2624:2635  _options[i] */\n      dup2\n      mload\n      dup2\n      lt\n      tag_175\n      jumpi\n      tag_176\n      tag_42\n      jump\t// in\n    tag_176:\n    tag_175:\n      0x20\n      mul\n      0x20\n      add\n      add\n      mload\n        /* \"VotingTheory/polls.sol\":2608:2637  keccak256(bytes(_options[i])) */\n      dup1\n      mload\n      swap1\n      0x20\n      add\n      keccak256\n        /* \"VotingTheory/polls.sol\":2608:2651  keccak256(bytes(_options[i])) == optionHash */\n      sub\n        /* \"VotingTheory/polls.sol\":2605:2697  if(keccak256(bytes(_options[i])) == optionHash) {... */\n      tag_177\n      jumpi\n        /* \"VotingTheory/polls.sol\":2678:2682  true */\n      0x01\n        /* \"VotingTheory/polls.sol\":2671:2682  return true */\n      swap3\n      pop\n      pop\n      pop\n      jump(tag_171)\n        /* \"VotingTheory/polls.sol\":2605:2697  if(keccak256(bytes(_options[i])) == optionHash) {... */\n    tag_177:\n        /* \"VotingTheory/polls.sol\":2586:2589  i++ */\n      dup1\n      dup1\n      0x01\n      add\n      swap2\n      pop\n      pop\n        /* \"VotingTheory/polls.sol\":2549:2707  for(uint i = 0; i < _options.length; i++) {... */\n      jump(tag_172)\n    tag_173:\n      pop\n        /* \"VotingTheory/polls.sol\":2723:2728  false */\n      0x00\n        /* \"VotingTheory/polls.sol\":2716:2728  return false */\n      swap2\n      pop\n      pop\n        /* \"VotingTheory/polls.sol\":2382:2735  function isValidOption(string[] memory _options, string memory _option) internal pure returns (bool) {... */\n    tag_171:\n      swap3\n      swap2\n      pop\n      pop\n      jump\t// out\n    tag_47:\n      dup3\n      dup1\n      sload\n      dup3\n      dup3\n      sstore\n      swap1\n      0x00\n      mstore\n      keccak256(0x00, 0x20)\n      swap1\n      dup2\n      add\n      swap3\n      dup3\n      iszero\n      tag_178\n      jumpi\n      swap2\n      0x20\n      mul\n      dup3\n      add\n    tag_179:\n      dup3\n      dup2\n      gt\n      iszero\n      tag_180\n      jumpi\n      dup3\n      mload\n      dup3\n      swap1\n      dup2\n      tag_181\n      swap2\n      swap1\n      tag_45\n      jump\t// in\n    tag_181:\n      pop\n      swap2\n      0x20\n      add\n      swap2\n      swap1\n      0x01\n      add\n      swap1\n      jump(tag_179)\n    tag_180:\n    tag_178:\n      pop\n      swap1\n      pop\n      tag_182\n      swap2\n      swap1\n      tag_183\n      jump\t// in\n    tag_182:\n      pop\n      swap1\n      jump\t// out\n    tag_106:\n      mload(0x40)\n      dup1\n      0x80\n      add\n      0x40\n      mstore\n      dup1\n      0x60\n      dup2\n      mstore\n      0x20\n      add\n      0x60\n      dup2\n      mstore\n      0x20\n      add\n      and(0xffffffff, 0x00)\n      dup2\n      mstore\n      0x20\n      add\n      0x00\n      dup2\n      mstore\n      pop\n      swap1\n      jump\t// out\n    tag_183:\n    tag_184:\n      dup1\n      dup3\n      gt\n      iszero\n      tag_185\n      jumpi\n      0x00\n      dup2\n      dup2\n      tag_186\n      swap2\n      swap1\n      tag_187\n      jump\t// in\n    tag_186:\n      pop\n      0x01\n      add\n      jump(tag_184)\n    tag_185:\n      pop\n      swap1\n      jump\t// out\n    tag_187:\n      pop\n      dup1\n      sload\n      tag_188\n      swap1\n      tag_74\n      jump\t// in\n    tag_188:\n      0x00\n      dup3\n      sstore\n      dup1\n      0x1f\n      lt\n      tag_190\n      jumpi\n      pop\n      jump(tag_189)\n    tag_190:\n      0x1f\n      add\n      0x20\n      swap1\n      div\n      swap1\n      0x00\n      mstore\n      keccak256(0x00, 0x20)\n      swap1\n      dup2\n      add\n      swap1\n      tag_191\n      swap2\n      swap1\n      tag_192\n      jump\t// in\n    tag_191:\n    tag_189:\n      pop\n      jump\t// out\n    tag_192:\n    tag_193:\n      dup1\n      dup3\n      gt\n      iszero\n      tag_194\n      jumpi\n      0x00\n      dup2\n      0x00\n      swap1\n      sstore\n      pop\n      0x01\n      add\n      jump(tag_193)\n    tag_194:\n      pop\n      swap1\n      jump\t// out\n        /* \"#utility.yul\":7:82   */\n    tag_195:\n        /* \"#utility.yul\":40:46   */\n      0x00\n        /* \"#utility.yul\":73:75   */\n      0x40\n        /* \"#utility.yul\":67:76   */\n      mload\n        /* \"#utility.yul\":57:76   */\n      swap1\n      pop\n        /* \"#utility.yul\":7:82   */\n      swap1\n      jump\t// out\n        /* \"#utility.yul\":88:205   */\n    tag_196:\n        /* \"#utility.yul\":197:198   */\n      0x00\n        /* \"#utility.yul\":194:195   */\n      dup1\n        /* \"#utility.yul\":187:199   */\n      revert\n        /* \"#utility.yul\":211:328   */\n    tag_197:\n        /* \"#utility.yul\":320:321   */\n      0x00\n        /* \"#utility.yul\":317:318   */\n      dup1\n        /* \"#utility.yul\":310:322   */\n      revert\n        /* \"#utility.yul\":334:451   */\n    tag_198:\n        /* \"#utility.yul\":443:444   */\n      0x00\n        /* \"#utility.yul\":440:441   */\n      dup1\n        /* \"#utility.yul\":433:445   */\n      revert\n        /* \"#utility.yul\":457:574   */\n    tag_199:\n        /* \"#utility.yul\":566:567   */\n      0x00\n        /* \"#utility.yul\":563:564   */\n      dup1\n        /* \"#utility.yul\":556:568   */\n      revert\n        /* \"#utility.yul\":580:682   */\n    tag_200:\n        /* \"#utility.yul\":621:627   */\n      0x00\n        /* \"#utility.yul\":672:674   */\n      0x1f\n        /* \"#utility.yul\":668:675   */\n      not\n        /* \"#utility.yul\":663:665   */\n      0x1f\n        /* \"#utility.yul\":656:661   */\n      dup4\n        /* \"#utility.yul\":652:666   */\n      add\n        /* \"#utility.yul\":648:676   */\n      and\n        /* \"#utility.yul\":638:676   */\n      swap1\n      pop\n        /* \"#utility.yul\":580:682   */\n      swap2\n      swap1\n      pop\n      jump\t// out\n        /* \"#utility.yul\":688:868   */\n    tag_102:\n        /* \"#utility.yul\":736:813   */\n      0x4e487b7100000000000000000000000000000000000000000000000000000000\n        /* \"#utility.yul\":733:734   */\n      0x00\n        /* \"#utility.yul\":726:814   */\n      mstore\n        /* \"#utility.yul\":833:837   */\n      0x41\n        /* \"#utility.yul\":830:831   */\n      0x04\n        /* \"#utility.yul\":823:838   */\n      mstore\n        /* \"#utility.yul\":857:861   */\n      0x24\n        /* \"#utility.yul\":854:855   */\n      0x00\n        /* \"#utility.yul\":847:862   */\n      revert\n        /* \"#utility.yul\":874:1155   */\n    tag_201:\n        /* \"#utility.yul\":957:984   */\n      tag_300\n        /* \"#utility.yul\":979:983   */\n      dup3\n        /* \"#utility.yul\":957:984   */\n      tag_200\n      jump\t// in\n    tag_300:\n        /* \"#utility.yul\":949:955   */\n      dup2\n        /* \"#utility.yul\":945:985   */\n      add\n        /* \"#utility.yul\":1087:1093   */\n      dup2\n        /* \"#utility.yul\":1075:1085   */\n      dup2\n        /* \"#utility.yul\":1072:1094   */\n      lt\n        /* \"#utility.yul\":1051:1069   */\n      0xffffffffffffffff\n        /* \"#utility.yul\":1039:1049   */\n      dup3\n        /* \"#utility.yul\":1036:1070   */\n      gt\n        /* \"#utility.yul\":1033:1095   */\n      or\n        /* \"#utility.yul\":1030:1118   */\n      iszero\n      tag_301\n      jumpi\n        /* \"#utility.yul\":1098:1116   */\n      tag_302\n      tag_102\n      jump\t// in\n    tag_302:\n        /* \"#utility.yul\":1030:1118   */\n    tag_301:\n        /* \"#utility.yul\":1138:1148   */\n      dup1\n        /* \"#utility.yul\":1134:1136   */\n      0x40\n        /* \"#utility.yul\":1127:1149   */\n      mstore\n        /* \"#utility.yul\":917:1155   */\n      pop\n        /* \"#utility.yul\":874:1155   */\n      pop\n      pop\n      jump\t// out\n        /* \"#utility.yul\":1161:1290   */\n    tag_202:\n        /* \"#utility.yul\":1195:1201   */\n      0x00\n        /* \"#utility.yul\":1222:1242   */\n      tag_304\n      tag_195\n      jump\t// in\n    tag_304:\n        /* \"#utility.yul\":1212:1242   */\n      swap1\n      pop\n        /* \"#utility.yul\":1251:1284   */\n      tag_305\n        /* \"#utility.yul\":1279:1283   */\n      dup3\n        /* \"#utility.yul\":1271:1277   */\n      dup3\n        /* \"#utility.yul\":1251:1284   */\n      tag_201\n      jump\t// in\n    tag_305:\n        /* \"#utility.yul\":1161:1290   */\n      swap2\n      swap1\n      pop\n      jump\t// out\n        /* \"#utility.yul\":1296:1604   */\n    tag_203:\n        /* \"#utility.yul\":1358:1362   */\n      0x00\n        /* \"#utility.yul\":1448:1466   */\n      0xffffffffffffffff\n        /* \"#utility.yul\":1440:1446   */\n      dup3\n        /* \"#utility.yul\":1437:1467   */\n      gt\n        /* \"#utility.yul\":1434:1490   */\n      iszero\n      tag_307\n      jumpi\n        /* \"#utility.yul\":1470:1488   */\n      tag_308\n      tag_102\n      jump\t// in\n    tag_308:\n        /* \"#utility.yul\":1434:1490   */\n    tag_307:\n        /* \"#utility.yul\":1508:1537   */\n      tag_309\n        /* \"#utility.yul\":1530:1536   */\n      dup3\n        /* \"#utility.yul\":1508:1537   */\n      tag_200\n      jump\t// in\n    tag_309:\n        /* \"#utility.yul\":1500:1537   */\n      swap1\n      pop\n        /* \"#utility.yul\":1592:1596   */\n      0x20\n        /* \"#utility.yul\":1586:1590   */\n      dup2\n        /* \"#utility.yul\":1582:1597   */\n      add\n        /* \"#utility.yul\":1574:1597   */\n      swap1\n      pop\n        /* \"#utility.yul\":1296:1604   */\n      swap2\n      swap1\n      pop\n      jump\t// out\n        /* \"#utility.yul\":1610:1758   */\n    tag_204:\n        /* \"#utility.yul\":1708:1714   */\n      dup3\n        /* \"#utility.yul\":1703:1706   */\n      dup2\n        /* \"#utility.yul\":1698:1701   */\n      dup4\n        /* \"#utility.yul\":1685:1715   */\n      calldatacopy\n        /* \"#utility.yul\":1749:1750   */\n      0x00\n        /* \"#utility.yul\":1740:1746   */\n      dup4\n        /* \"#utility.yul\":1735:1738   */\n      dup4\n        /* \"#utility.yul\":1731:1747   */\n      add\n        /* \"#utility.yul\":1724:1751   */\n      mstore\n        /* \"#utility.yul\":1610:1758   */\n      pop\n      pop\n      pop\n      jump\t// out\n        /* \"#utility.yul\":1764:2189   */\n    tag_205:\n        /* \"#utility.yul\":1842:1847   */\n      0x00\n        /* \"#utility.yul\":1867:1933   */\n      tag_312\n        /* \"#utility.yul\":1883:1932   */\n      tag_313\n        /* \"#utility.yul\":1925:1931   */\n      dup5\n        /* \"#utility.yul\":1883:1932   */\n      tag_203\n      jump\t// in\n    tag_313:\n        /* \"#utility.yul\":1867:1933   */\n      tag_202\n      jump\t// in\n    tag_312:\n        /* \"#utility.yul\":1858:1933   */\n      swap1\n      pop\n        /* \"#utility.yul\":1956:1962   */\n      dup3\n        /* \"#utility.yul\":1949:1954   */\n      dup2\n        /* \"#utility.yul\":1942:1963   */\n      mstore\n        /* \"#utility.yul\":1994:1998   */\n      0x20\n        /* \"#utility.yul\":1987:1992   */\n      dup2\n        /* \"#utility.yul\":1983:1999   */\n      add\n        /* \"#utility.yul\":2032:2035   */\n      dup5\n        /* \"#utility.yul\":2023:2029   */\n      dup5\n        /* \"#utility.yul\":2018:2021   */\n      dup5\n        /* \"#utility.yul\":2014:2030   */\n      add\n        /* \"#utility.yul\":2011:2036   */\n      gt\n        /* \"#utility.yul\":2008:2120   */\n      iszero\n      tag_314\n      jumpi\n        /* \"#utility.yul\":2039:2118   */\n      tag_315\n      tag_199\n      jump\t// in\n    tag_315:\n        /* \"#utility.yul\":2008:2120   */\n    tag_314:\n        /* \"#utility.yul\":2129:2183   */\n      tag_316\n        /* \"#utility.yul\":2176:2182   */\n      dup5\n        /* \"#utility.yul\":2171:2174   */\n      dup3\n        /* \"#utility.yul\":2166:2169   */\n      dup6\n        /* \"#utility.yul\":2129:2183   */\n      tag_204\n      jump\t// in\n    tag_316:\n        /* \"#utility.yul\":1848:2189   */\n      pop\n        /* \"#utility.yul\":1764:2189   */\n      swap4\n      swap3\n      pop\n      pop\n      pop\n      jump\t// out\n        /* \"#utility.yul\":2209:2549   */\n    tag_206:\n        /* \"#utility.yul\":2265:2270   */\n      0x00\n        /* \"#utility.yul\":2314:2317   */\n      dup3\n        /* \"#utility.yul\":2307:2311   */\n      0x1f\n        /* \"#utility.yul\":2299:2305   */\n      dup4\n        /* \"#utility.yul\":2295:2312   */\n      add\n        /* \"#utility.yul\":2291:2318   */\n      slt\n        /* \"#utility.yul\":2281:2403   */\n      tag_318\n      jumpi\n        /* \"#utility.yul\":2322:2401   */\n      tag_319\n      tag_198\n      jump\t// in\n    tag_319:\n        /* \"#utility.yul\":2281:2403   */\n    tag_318:\n        /* \"#utility.yul\":2439:2445   */\n      dup2\n        /* \"#utility.yul\":2426:2446   */\n      calldataload\n        /* \"#utility.yul\":2464:2543   */\n      tag_320\n        /* \"#utility.yul\":2539:2542   */\n      dup5\n        /* \"#utility.yul\":2531:2537   */\n      dup3\n        /* \"#utility.yul\":2524:2528   */\n      0x20\n        /* \"#utility.yul\":2516:2522   */\n      dup7\n        /* \"#utility.yul\":2512:2529   */\n      add\n        /* \"#utility.yul\":2464:2543   */\n      tag_205\n      jump\t// in\n    tag_320:\n        /* \"#utility.yul\":2455:2543   */\n      swap2\n      pop\n        /* \"#utility.yul\":2271:2549   */\n      pop\n        /* \"#utility.yul\":2209:2549   */\n      swap3\n      swap2\n      pop\n      pop\n      jump\t// out\n        /* \"#utility.yul\":2555:2876   */\n    tag_207:\n        /* \"#utility.yul\":2642:2646   */\n      0x00\n        /* \"#utility.yul\":2732:2750   */\n      0xffffffffffffffff\n        /* \"#utility.yul\":2724:2730   */\n      dup3\n        /* \"#utility.yul\":2721:2751   */\n      gt\n        /* \"#utility.yul\":2718:2774   */\n      iszero\n      tag_322\n      jumpi\n        /* \"#utility.yul\":2754:2772   */\n      tag_323\n      tag_102\n      jump\t// in\n    tag_323:\n        /* \"#utility.yul\":2718:2774   */\n    tag_322:\n        /* \"#utility.yul\":2804:2808   */\n      0x20\n        /* \"#utility.yul\":2796:2802   */\n      dup3\n        /* \"#utility.yul\":2792:2809   */\n      mul\n        /* \"#utility.yul\":2784:2809   */\n      swap1\n      pop\n        /* \"#utility.yul\":2864:2868   */\n      0x20\n        /* \"#utility.yul\":2858:2862   */\n      dup2\n        /* \"#utility.yul\":2854:2869   */\n      add\n        /* \"#utility.yul\":2846:2869   */\n      swap1\n      pop\n        /* \"#utility.yul\":2555:2876   */\n      swap2\n      swap1\n      pop\n      jump\t// out\n        /* \"#utility.yul\":2882:2999   */\n    tag_208:\n        /* \"#utility.yul\":2991:2992   */\n      0x00\n        /* \"#utility.yul\":2988:2989   */\n      dup1\n        /* \"#utility.yul\":2981:2993   */\n      revert\n        /* \"#utility.yul\":3021:3966   */\n    tag_209:\n        /* \"#utility.yul\":3127:3132   */\n      0x00\n        /* \"#utility.yul\":3152:3243   */\n      tag_326\n        /* \"#utility.yul\":3168:3242   */\n      tag_327\n        /* \"#utility.yul\":3235:3241   */\n      dup5\n        /* \"#utility.yul\":3168:3242   */\n      tag_207\n      jump\t// in\n    tag_327:\n        /* \"#utility.yul\":3152:3243   */\n      tag_202\n      jump\t// in\n    tag_326:\n        /* \"#utility.yul\":3143:3243   */\n      swap1\n      pop\n        /* \"#utility.yul\":3263:3268   */\n      dup1\n        /* \"#utility.yul\":3292:3298   */\n      dup4\n        /* \"#utility.yul\":3285:3290   */\n      dup3\n        /* \"#utility.yul\":3278:3299   */\n      mstore\n        /* \"#utility.yul\":3326:3330   */\n      0x20\n        /* \"#utility.yul\":3319:3324   */\n      dup3\n        /* \"#utility.yul\":3315:3331   */\n      add\n        /* \"#utility.yul\":3308:3331   */\n      swap1\n      pop\n        /* \"#utility.yul\":3379:3383   */\n      0x20\n        /* \"#utility.yul\":3371:3377   */\n      dup5\n        /* \"#utility.yul\":3367:3384   */\n      mul\n        /* \"#utility.yul\":3359:3365   */\n      dup4\n        /* \"#utility.yul\":3355:3385   */\n      add\n        /* \"#utility.yul\":3408:3411   */\n      dup6\n        /* \"#utility.yul\":3400:3406   */\n      dup2\n        /* \"#utility.yul\":3397:3412   */\n      gt\n        /* \"#utility.yul\":3394:3516   */\n      iszero\n      tag_328\n      jumpi\n        /* \"#utility.yul\":3427:3506   */\n      tag_329\n      tag_208\n      jump\t// in\n    tag_329:\n        /* \"#utility.yul\":3394:3516   */\n    tag_328:\n        /* \"#utility.yul\":3542:3548   */\n      dup4\n        /* \"#utility.yul\":3525:3960   */\n    tag_330:\n        /* \"#utility.yul\":3559:3565   */\n      dup2\n        /* \"#utility.yul\":3554:3557   */\n      dup2\n        /* \"#utility.yul\":3551:3566   */\n      lt\n        /* \"#utility.yul\":3525:3960   */\n      iszero\n      tag_332\n      jumpi\n        /* \"#utility.yul\":3648:3651   */\n      dup1\n        /* \"#utility.yul\":3635:3652   */\n      calldataload\n        /* \"#utility.yul\":3684:3702   */\n      0xffffffffffffffff\n        /* \"#utility.yul\":3671:3682   */\n      dup2\n        /* \"#utility.yul\":3668:3703   */\n      gt\n        /* \"#utility.yul\":3665:3787   */\n      iszero\n      tag_333\n      jumpi\n        /* \"#utility.yul\":3706:3785   */\n      tag_334\n      tag_198\n      jump\t// in\n    tag_334:\n        /* \"#utility.yul\":3665:3787   */\n    tag_333:\n        /* \"#utility.yul\":3830:3841   */\n      dup1\n        /* \"#utility.yul\":3822:3828   */\n      dup7\n        /* \"#utility.yul\":3818:3842   */\n      add\n        /* \"#utility.yul\":3868:3915   */\n      tag_335\n        /* \"#utility.yul\":3911:3914   */\n      dup10\n        /* \"#utility.yul\":3899:3909   */\n      dup3\n        /* \"#utility.yul\":3868:3915   */\n      tag_206\n      jump\t// in\n    tag_335:\n        /* \"#utility.yul\":3863:3866   */\n      dup6\n        /* \"#utility.yul\":3856:3916   */\n      mstore\n        /* \"#utility.yul\":3945:3949   */\n      0x20\n        /* \"#utility.yul\":3940:3943   */\n      dup6\n        /* \"#utility.yul\":3936:3950   */\n      add\n        /* \"#utility.yul\":3929:3950   */\n      swap5\n      pop\n        /* \"#utility.yul\":3601:3960   */\n      pop\n      pop\n        /* \"#utility.yul\":3585:3589   */\n      0x20\n        /* \"#utility.yul\":3580:3583   */\n      dup2\n        /* \"#utility.yul\":3576:3590   */\n      add\n        /* \"#utility.yul\":3569:3590   */\n      swap1\n      pop\n        /* \"#utility.yul\":3525:3960   */\n      jump(tag_330)\n    tag_332:\n        /* \"#utility.yul\":3529:3550   */\n      pop\n        /* \"#utility.yul\":3133:3966   */\n      pop\n      pop\n        /* \"#utility.yul\":3021:3966   */\n      swap4\n      swap3\n      pop\n      pop\n      pop\n      jump\t// out\n        /* \"#utility.yul\":3988:4378   */\n    tag_210:\n        /* \"#utility.yul\":4069:4074   */\n      0x00\n        /* \"#utility.yul\":4118:4121   */\n      dup3\n        /* \"#utility.yul\":4111:4115   */\n      0x1f\n        /* \"#utility.yul\":4103:4109   */\n      dup4\n        /* \"#utility.yul\":4099:4116   */\n      add\n        /* \"#utility.yul\":4095:4122   */\n      slt\n        /* \"#utility.yul\":4085:4207   */\n      tag_337\n      jumpi\n        /* \"#utility.yul\":4126:4205   */\n      tag_338\n      tag_198\n      jump\t// in\n    tag_338:\n        /* \"#utility.yul\":4085:4207   */\n    tag_337:\n        /* \"#utility.yul\":4243:4249   */\n      dup2\n        /* \"#utility.yul\":4230:4250   */\n      calldataload\n        /* \"#utility.yul\":4268:4372   */\n      tag_339\n        /* \"#utility.yul\":4368:4371   */\n      dup5\n        /* \"#utility.yul\":4360:4366   */\n      dup3\n        /* \"#utility.yul\":4353:4357   */\n      0x20\n        /* \"#utility.yul\":4345:4351   */\n      dup7\n        /* \"#utility.yul\":4341:4358   */\n      add\n        /* \"#utility.yul\":4268:4372   */\n      tag_209\n      jump\t// in\n    tag_339:\n        /* \"#utility.yul\":4259:4372   */\n      swap2\n      pop\n        /* \"#utility.yul\":4075:4378   */\n      pop\n        /* \"#utility.yul\":3988:4378   */\n      swap3\n      swap2\n      pop\n      pop\n      jump\t// out\n        /* \"#utility.yul\":4384:4477   */\n    tag_211:\n        /* \"#utility.yul\":4420:4427   */\n      0x00\n        /* \"#utility.yul\":4460:4470   */\n      0xffffffff\n        /* \"#utility.yul\":4453:4458   */\n      dup3\n        /* \"#utility.yul\":4449:4471   */\n      and\n        /* \"#utility.yul\":4438:4471   */\n      swap1\n      pop\n        /* \"#utility.yul\":4384:4477   */\n      swap2\n      swap1\n      pop\n      jump\t// out\n        /* \"#utility.yul\":4483:4603   */\n    tag_212:\n        /* \"#utility.yul\":4555:4578   */\n      tag_342\n        /* \"#utility.yul\":4572:4577   */\n      dup2\n        /* \"#utility.yul\":4555:4578   */\n      tag_211\n      jump\t// in\n    tag_342:\n        /* \"#utility.yul\":4548:4553   */\n      dup2\n        /* \"#utility.yul\":4545:4579   */\n      eq\n        /* \"#utility.yul\":4535:4597   */\n      tag_343\n      jumpi\n        /* \"#utility.yul\":4593:4594   */\n      0x00\n        /* \"#utility.yul\":4590:4591   */\n      dup1\n        /* \"#utility.yul\":4583:4595   */\n      revert\n        /* \"#utility.yul\":4535:4597   */\n    tag_343:\n        /* \"#utility.yul\":4483:4603   */\n      pop\n      jump\t// out\n        /* \"#utility.yul\":4609:4746   */\n    tag_213:\n        /* \"#utility.yul\":4654:4659   */\n      0x00\n        /* \"#utility.yul\":4692:4698   */\n      dup2\n        /* \"#utility.yul\":4679:4699   */\n      calldataload\n        /* \"#utility.yul\":4670:4699   */\n      swap1\n      pop\n        /* \"#utility.yul\":4708:4740   */\n      tag_345\n        /* \"#utility.yul\":4734:4739   */\n      dup2\n        /* \"#utility.yul\":4708:4740   */\n      tag_212\n      jump\t// in\n    tag_345:\n        /* \"#utility.yul\":4609:4746   */\n      swap3\n      swap2\n      pop\n      pop\n      jump\t// out\n        /* \"#utility.yul\":4752:5779   */\n    tag_10:\n        /* \"#utility.yul\":4873:4879   */\n      0x00\n        /* \"#utility.yul\":4881:4887   */\n      dup1\n        /* \"#utility.yul\":4889:4895   */\n      0x00\n        /* \"#utility.yul\":4938:4940   */\n      0x60\n        /* \"#utility.yul\":4926:4935   */\n      dup5\n        /* \"#utility.yul\":4917:4924   */\n      dup7\n        /* \"#utility.yul\":4913:4936   */\n      sub\n        /* \"#utility.yul\":4909:4941   */\n      slt\n        /* \"#utility.yul\":4906:5025   */\n      iszero\n      tag_347\n      jumpi\n        /* \"#utility.yul\":4944:5023   */\n      tag_348\n      tag_196\n      jump\t// in\n    tag_348:\n        /* \"#utility.yul\":4906:5025   */\n    tag_347:\n        /* \"#utility.yul\":5092:5093   */\n      0x00\n        /* \"#utility.yul\":5081:5090   */\n      dup5\n        /* \"#utility.yul\":5077:5094   */\n      add\n        /* \"#utility.yul\":5064:5095   */\n      calldataload\n        /* \"#utility.yul\":5122:5140   */\n      0xffffffffffffffff\n        /* \"#utility.yul\":5114:5120   */\n      dup2\n        /* \"#utility.yul\":5111:5141   */\n      gt\n        /* \"#utility.yul\":5108:5225   */\n      iszero\n      tag_349\n      jumpi\n        /* \"#utility.yul\":5144:5223   */\n      tag_350\n      tag_197\n      jump\t// in\n    tag_350:\n        /* \"#utility.yul\":5108:5225   */\n    tag_349:\n        /* \"#utility.yul\":5249:5312   */\n      tag_351\n        /* \"#utility.yul\":5304:5311   */\n      dup7\n        /* \"#utility.yul\":5295:5301   */\n      dup3\n        /* \"#utility.yul\":5284:5293   */\n      dup8\n        /* \"#utility.yul\":5280:5302   */\n      add\n        /* \"#utility.yul\":5249:5312   */\n      tag_206\n      jump\t// in\n    tag_351:\n        /* \"#utility.yul\":5239:5312   */\n      swap4\n      pop\n        /* \"#utility.yul\":5035:5322   */\n      pop\n        /* \"#utility.yul\":5389:5391   */\n      0x20\n        /* \"#utility.yul\":5378:5387   */\n      dup5\n        /* \"#utility.yul\":5374:5392   */\n      add\n        /* \"#utility.yul\":5361:5393   */\n      calldataload\n        /* \"#utility.yul\":5420:5438   */\n      0xffffffffffffffff\n        /* \"#utility.yul\":5412:5418   */\n      dup2\n        /* \"#utility.yul\":5409:5439   */\n      gt\n        /* \"#utility.yul\":5406:5523   */\n      iszero\n      tag_352\n      jumpi\n        /* \"#utility.yul\":5442:5521   */\n      tag_353\n      tag_197\n      jump\t// in\n    tag_353:\n        /* \"#utility.yul\":5406:5523   */\n    tag_352:\n        /* \"#utility.yul\":5547:5635   */\n      tag_354\n        /* \"#utility.yul\":5627:5634   */\n      dup7\n        /* \"#utility.yul\":5618:5624   */\n      dup3\n        /* \"#utility.yul\":5607:5616   */\n      dup8\n        /* \"#utility.yul\":5603:5625   */\n      add\n        /* \"#utility.yul\":5547:5635   */\n      tag_210\n      jump\t// in\n    tag_354:\n        /* \"#utility.yul\":5537:5635   */\n      swap3\n      pop\n        /* \"#utility.yul\":5332:5645   */\n      pop\n        /* \"#utility.yul\":5684:5686   */\n      0x40\n        /* \"#utility.yul\":5710:5762   */\n      tag_355\n        /* \"#utility.yul\":5754:5761   */\n      dup7\n        /* \"#utility.yul\":5745:5751   */\n      dup3\n        /* \"#utility.yul\":5734:5743   */\n      dup8\n        /* \"#utility.yul\":5730:5752   */\n      add\n        /* \"#utility.yul\":5710:5762   */\n      tag_213\n      jump\t// in\n    tag_355:\n        /* \"#utility.yul\":5700:5762   */\n      swap2\n      pop\n        /* \"#utility.yul\":5655:5772   */\n      pop\n        /* \"#utility.yul\":4752:5779   */\n      swap3\n      pop\n      swap3\n      pop\n      swap3\n      jump\t// out\n        /* \"#utility.yul\":5785:5862   */\n    tag_214:\n        /* \"#utility.yul\":5822:5829   */\n      0x00\n        /* \"#utility.yul\":5851:5856   */\n      dup2\n        /* \"#utility.yul\":5840:5856   */\n      swap1\n      pop\n        /* \"#utility.yul\":5785:5862   */\n      swap2\n      swap1\n      pop\n      jump\t// out\n        /* \"#utility.yul\":5868:5986   */\n    tag_215:\n        /* \"#utility.yul\":5955:5979   */\n      tag_358\n        /* \"#utility.yul\":5973:5978   */\n      dup2\n        /* \"#utility.yul\":5955:5979   */\n      tag_214\n      jump\t// in\n    tag_358:\n        /* \"#utility.yul\":5950:5953   */\n      dup3\n        /* \"#utility.yul\":5943:5980   */\n      mstore\n        /* \"#utility.yul\":5868:5986   */\n      pop\n      pop\n      jump\t// out\n        /* \"#utility.yul\":5992:6214   */\n    tag_13:\n        /* \"#utility.yul\":6085:6089   */\n      0x00\n        /* \"#utility.yul\":6123:6125   */\n      0x20\n        /* \"#utility.yul\":6112:6121   */\n      dup3\n        /* \"#utility.yul\":6108:6126   */\n      add\n        /* \"#utility.yul\":6100:6126   */\n      swap1\n      pop\n        /* \"#utility.yul\":6136:6207   */\n      tag_360\n        /* \"#utility.yul\":6204:6205   */\n      0x00\n        /* \"#utility.yul\":6193:6202   */\n      dup4\n        /* \"#utility.yul\":6189:6206   */\n      add\n        /* \"#utility.yul\":6180:6186   */\n      dup5\n        /* \"#utility.yul\":6136:6207   */\n      tag_215\n      jump\t// in\n    tag_360:\n        /* \"#utility.yul\":5992:6214   */\n      swap3\n      swap2\n      pop\n      pop\n      jump\t// out\n        /* \"#utility.yul\":6220:6342   */\n    tag_216:\n        /* \"#utility.yul\":6293:6317   */\n      tag_362\n        /* \"#utility.yul\":6311:6316   */\n      dup2\n        /* \"#utility.yul\":6293:6317   */\n      tag_214\n      jump\t// in\n    tag_362:\n        /* \"#utility.yul\":6286:6291   */\n      dup2\n        /* \"#utility.yul\":6283:6318   */\n      eq\n        /* \"#utility.yul\":6273:6336   */\n      tag_363\n      jumpi\n        /* \"#utility.yul\":6332:6333   */\n      0x00\n        /* \"#utility.yul\":6329:6330   */\n      dup1\n        /* \"#utility.yul\":6322:6334   */\n      revert\n        /* \"#utility.yul\":6273:6336   */\n    tag_363:\n        /* \"#utility.yul\":6220:6342   */\n      pop\n      jump\t// out\n        /* \"#utility.yul\":6348:6487   */\n    tag_217:\n        /* \"#utility.yul\":6394:6399   */\n      0x00\n        /* \"#utility.yul\":6432:6438   */\n      dup2\n        /* \"#utility.yul\":6419:6439   */\n      calldataload\n        /* \"#utility.yul\":6410:6439   */\n      swap1\n      pop\n        /* \"#utility.yul\":6448:6481   */\n      tag_365\n        /* \"#utility.yul\":6475:6480   */\n      dup2\n        /* \"#utility.yul\":6448:6481   */\n      tag_216\n      jump\t// in\n    tag_365:\n        /* \"#utility.yul\":6348:6487   */\n      swap3\n      swap2\n      pop\n      pop\n      jump\t// out\n        /* \"#utility.yul\":6493:7147   */\n    tag_16:\n        /* \"#utility.yul\":6571:6577   */\n      0x00\n        /* \"#utility.yul\":6579:6585   */\n      dup1\n        /* \"#utility.yul\":6628:6630   */\n      0x40\n        /* \"#utility.yul\":6616:6625   */\n      dup4\n        /* \"#utility.yul\":6607:6614   */\n      dup6\n        /* \"#utility.yul\":6603:6626   */\n      sub\n        /* \"#utility.yul\":6599:6631   */\n      slt\n        /* \"#utility.yul\":6596:6715   */\n      iszero\n      tag_367\n      jumpi\n        /* \"#utility.yul\":6634:6713   */\n      tag_368\n      tag_196\n      jump\t// in\n    tag_368:\n        /* \"#utility.yul\":6596:6715   */\n    tag_367:\n        /* \"#utility.yul\":6754:6755   */\n      0x00\n        /* \"#utility.yul\":6779:6832   */\n      tag_369\n        /* \"#utility.yul\":6824:6831   */\n      dup6\n        /* \"#utility.yul\":6815:6821   */\n      dup3\n        /* \"#utility.yul\":6804:6813   */\n      dup7\n        /* \"#utility.yul\":6800:6822   */\n      add\n        /* \"#utility.yul\":6779:6832   */\n      tag_217\n      jump\t// in\n    tag_369:\n        /* \"#utility.yul\":6769:6832   */\n      swap3\n      pop\n        /* \"#utility.yul\":6725:6842   */\n      pop\n        /* \"#utility.yul\":6909:6911   */\n      0x20\n        /* \"#utility.yul\":6898:6907   */\n      dup4\n        /* \"#utility.yul\":6894:6912   */\n      add\n        /* \"#utility.yul\":6881:6913   */\n      calldataload\n        /* \"#utility.yul\":6940:6958   */\n      0xffffffffffffffff\n        /* \"#utility.yul\":6932:6938   */\n      dup2\n        /* \"#utility.yul\":6929:6959   */\n      gt\n        /* \"#utility.yul\":6926:7043   */\n      iszero\n      tag_370\n      jumpi\n        /* \"#utility.yul\":6962:7041   */\n      tag_371\n      tag_197\n      jump\t// in\n    tag_371:\n        /* \"#utility.yul\":6926:7043   */\n    tag_370:\n        /* \"#utility.yul\":7067:7130   */\n      tag_372\n        /* \"#utility.yul\":7122:7129   */\n      dup6\n        /* \"#utility.yul\":7113:7119   */\n      dup3\n        /* \"#utility.yul\":7102:7111   */\n      dup7\n        /* \"#utility.yul\":7098:7120   */\n      add\n        /* \"#utility.yul\":7067:7130   */\n      tag_206\n      jump\t// in\n    tag_372:\n        /* \"#utility.yul\":7057:7130   */\n      swap2\n      pop\n        /* \"#utility.yul\":6852:7140   */\n      pop\n        /* \"#utility.yul\":6493:7147   */\n      swap3\n      pop\n      swap3\n      swap1\n      pop\n      jump\t// out\n        /* \"#utility.yul\":7153:7294   */\n    tag_218:\n        /* \"#utility.yul\":7247:7253   */\n      0x00\n        /* \"#utility.yul\":7281:7286   */\n      dup2\n        /* \"#utility.yul\":7275:7287   */\n      mload\n        /* \"#utility.yul\":7265:7287   */\n      swap1\n      pop\n        /* \"#utility.yul\":7153:7294   */\n      swap2\n      swap1\n      pop\n      jump\t// out\n        /* \"#utility.yul\":7300:7511   */\n    tag_219:\n        /* \"#utility.yul\":7426:7437   */\n      0x00\n        /* \"#utility.yul\":7460:7466   */\n      dup3\n        /* \"#utility.yul\":7455:7458   */\n      dup3\n        /* \"#utility.yul\":7448:7467   */\n      mstore\n        /* \"#utility.yul\":7500:7504   */\n      0x20\n        /* \"#utility.yul\":7495:7498   */\n      dup3\n        /* \"#utility.yul\":7491:7505   */\n      add\n        /* \"#utility.yul\":7476:7505   */\n      swap1\n      pop\n        /* \"#utility.yul\":7300:7511   */\n      swap3\n      swap2\n      pop\n      pop\n      jump\t// out\n        /* \"#utility.yul\":7517:7676   */\n    tag_220:\n        /* \"#utility.yul\":7611:7615   */\n      0x00\n        /* \"#utility.yul\":7634:7637   */\n      dup2\n        /* \"#utility.yul\":7626:7637   */\n      swap1\n      pop\n        /* \"#utility.yul\":7664:7668   */\n      0x20\n        /* \"#utility.yul\":7659:7662   */\n      dup3\n        /* \"#utility.yul\":7655:7669   */\n      add\n        /* \"#utility.yul\":7647:7669   */\n      swap1\n      pop\n        /* \"#utility.yul\":7517:7676   */\n      swap2\n      swap1\n      pop\n      jump\t// out\n        /* \"#utility.yul\":7682:7781   */\n    tag_221:\n        /* \"#utility.yul\":7734:7740   */\n      0x00\n        /* \"#utility.yul\":7768:7773   */\n      dup2\n        /* \"#utility.yul\":7762:7774   */\n      mload\n        /* \"#utility.yul\":7752:7774   */\n      swap1\n      pop\n        /* \"#utility.yul\":7682:7781   */\n      swap2\n      swap1\n      pop\n      jump\t// out\n        /* \"#utility.yul\":7787:7946   */\n    tag_222:\n        /* \"#utility.yul\":7861:7872   */\n      0x00\n        /* \"#utility.yul\":7895:7901   */\n      dup3\n        /* \"#utility.yul\":7890:7893   */\n      dup3\n        /* \"#utility.yul\":7883:7902   */\n      mstore\n        /* \"#utility.yul\":7935:7939   */\n      0x20\n        /* \"#utility.yul\":7930:7933   */\n      dup3\n        /* \"#utility.yul\":7926:7940   */\n      add\n        /* \"#utility.yul\":7911:7940   */\n      swap1\n      pop\n        /* \"#utility.yul\":7787:7946   */\n      swap3\n      swap2\n      pop\n      pop\n      jump\t// out\n        /* \"#utility.yul\":7952:8091   */\n    tag_223:\n        /* \"#utility.yul\":8041:8047   */\n      dup3\n        /* \"#utility.yul\":8036:8039   */\n      dup2\n        /* \"#utility.yul\":8031:8034   */\n      dup4\n        /* \"#utility.yul\":8025:8048   */\n      mcopy\n        /* \"#utility.yul\":8082:8083   */\n      0x00\n        /* \"#utility.yul\":8073:8079   */\n      dup4\n        /* \"#utility.yul\":8068:8071   */\n      dup4\n        /* \"#utility.yul\":8064:8080   */\n      add\n        /* \"#utility.yul\":8057:8084   */\n      mstore\n        /* \"#utility.yul\":7952:8091   */\n      pop\n      pop\n      pop\n      jump\t// out\n        /* \"#utility.yul\":8097:8454   */\n    tag_224:\n        /* \"#utility.yul\":8175:8178   */\n      0x00\n        /* \"#utility.yul\":8203:8242   */\n      tag_380\n        /* \"#utility.yul\":8236:8241   */\n      dup3\n        /* \"#utility.yul\":8203:8242   */\n      tag_221\n      jump\t// in\n    tag_380:\n        /* \"#utility.yul\":8258:8319   */\n      tag_381\n        /* \"#utility.yul\":8312:8318   */\n      dup2\n        /* \"#utility.yul\":8307:8310   */\n      dup6\n        /* \"#utility.yul\":8258:8319   */\n      tag_222\n      jump\t// in\n    tag_381:\n        /* \"#utility.yul\":8251:8319   */\n      swap4\n      pop\n        /* \"#utility.yul\":8328:8393   */\n      tag_382\n        /* \"#utility.yul\":8386:8392   */\n      dup2\n        /* \"#utility.yul\":8381:8384   */\n      dup6\n        /* \"#utility.yul\":8374:8378   */\n      0x20\n        /* \"#utility.yul\":8367:8372   */\n      dup7\n        /* \"#utility.yul\":8363:8379   */\n      add\n        /* \"#utility.yul\":8328:8393   */\n      tag_223\n      jump\t// in\n    tag_382:\n        /* \"#utility.yul\":8418:8447   */\n      tag_383\n        /* \"#utility.yul\":8440:8446   */\n      dup2\n        /* \"#utility.yul\":8418:8447   */\n      tag_200\n      jump\t// in\n    tag_383:\n        /* \"#utility.yul\":8413:8416   */\n      dup5\n        /* \"#utility.yul\":8409:8448   */\n      add\n        /* \"#utility.yul\":8402:8448   */\n      swap2\n      pop\n        /* \"#utility.yul\":8179:8454   */\n      pop\n        /* \"#utility.yul\":8097:8454   */\n      swap3\n      swap2\n      pop\n      pop\n      jump\t// out\n        /* \"#utility.yul\":8460:8584   */\n    tag_225:\n        /* \"#utility.yul\":8537:8543   */\n      0x00\n        /* \"#utility.yul\":8571:8576   */\n      dup2\n        /* \"#utility.yul\":8565:8577   */\n      mload\n        /* \"#utility.yul\":8555:8577   */\n      swap1\n      pop\n        /* \"#utility.yul\":8460:8584   */\n      swap2\n      swap1\n      pop\n      jump\t// out\n        /* \"#utility.yul\":8590:8774   */\n    tag_226:\n        /* \"#utility.yul\":8689:8700   */\n      0x00\n        /* \"#utility.yul\":8723:8729   */\n      dup3\n        /* \"#utility.yul\":8718:8721   */\n      dup3\n        /* \"#utility.yul\":8711:8730   */\n      mstore\n        /* \"#utility.yul\":8763:8767   */\n      0x20\n        /* \"#utility.yul\":8758:8761   */\n      dup3\n        /* \"#utility.yul\":8754:8768   */\n      add\n        /* \"#utility.yul\":8739:8768   */\n      swap1\n      pop\n        /* \"#utility.yul\":8590:8774   */\n      swap3\n      swap2\n      pop\n      pop\n      jump\t// out\n        /* \"#utility.yul\":8780:8922   */\n    tag_227:\n        /* \"#utility.yul\":8857:8861   */\n      0x00\n        /* \"#utility.yul\":8880:8883   */\n      dup2\n        /* \"#utility.yul\":8872:8883   */\n      swap1\n      pop\n        /* \"#utility.yul\":8910:8914   */\n      0x20\n        /* \"#utility.yul\":8905:8908   */\n      dup3\n        /* \"#utility.yul\":8901:8915   */\n      add\n        /* \"#utility.yul\":8893:8915   */\n      swap1\n      pop\n        /* \"#utility.yul\":8780:8922   */\n      swap2\n      swap1\n      pop\n      jump\t// out\n        /* \"#utility.yul\":8928:9124   */\n    tag_228:\n        /* \"#utility.yul\":9017:9027   */\n      0x00\n        /* \"#utility.yul\":9052:9118   */\n      tag_388\n        /* \"#utility.yul\":9114:9117   */\n      dup4\n        /* \"#utility.yul\":9106:9112   */\n      dup4\n        /* \"#utility.yul\":9052:9118   */\n      tag_224\n      jump\t// in\n    tag_388:\n        /* \"#utility.yul\":9038:9118   */\n      swap1\n      pop\n        /* \"#utility.yul\":8928:9124   */\n      swap3\n      swap2\n      pop\n      pop\n      jump\t// out\n        /* \"#utility.yul\":9130:9253   */\n    tag_229:\n        /* \"#utility.yul\":9210:9214   */\n      0x00\n        /* \"#utility.yul\":9242:9246   */\n      0x20\n        /* \"#utility.yul\":9237:9240   */\n      dup3\n        /* \"#utility.yul\":9233:9247   */\n      add\n        /* \"#utility.yul\":9225:9247   */\n      swap1\n      pop\n        /* \"#utility.yul\":9130:9253   */\n      swap2\n      swap1\n      pop\n      jump\t// out\n        /* \"#utility.yul\":9287:10258   */\n    tag_230:\n        /* \"#utility.yul\":9416:9419   */\n      0x00\n        /* \"#utility.yul\":9445:9509   */\n      tag_391\n        /* \"#utility.yul\":9503:9508   */\n      dup3\n        /* \"#utility.yul\":9445:9509   */\n      tag_225\n      jump\t// in\n    tag_391:\n        /* \"#utility.yul\":9525:9611   */\n      tag_392\n        /* \"#utility.yul\":9604:9610   */\n      dup2\n        /* \"#utility.yul\":9599:9602   */\n      dup6\n        /* \"#utility.yul\":9525:9611   */\n      tag_226\n      jump\t// in\n    tag_392:\n        /* \"#utility.yul\":9518:9611   */\n      swap4\n      pop\n        /* \"#utility.yul\":9637:9640   */\n      dup4\n        /* \"#utility.yul\":9682:9686   */\n      0x20\n        /* \"#utility.yul\":9674:9680   */\n      dup3\n        /* \"#utility.yul\":9670:9687   */\n      mul\n        /* \"#utility.yul\":9665:9668   */\n      dup6\n        /* \"#utility.yul\":9661:9688   */\n      add\n        /* \"#utility.yul\":9712:9778   */\n      tag_393\n        /* \"#utility.yul\":9772:9777   */\n      dup6\n        /* \"#utility.yul\":9712:9778   */\n      tag_227\n      jump\t// in\n    tag_393:\n        /* \"#utility.yul\":9801:9808   */\n      dup1\n        /* \"#utility.yul\":9832:9833   */\n      0x00\n        /* \"#utility.yul\":9817:10213   */\n    tag_394:\n        /* \"#utility.yul\":9842:9848   */\n      dup6\n        /* \"#utility.yul\":9839:9840   */\n      dup2\n        /* \"#utility.yul\":9836:9849   */\n      lt\n        /* \"#utility.yul\":9817:10213   */\n      iszero\n      tag_396\n      jumpi\n        /* \"#utility.yul\":9913:9922   */\n      dup5\n        /* \"#utility.yul\":9907:9911   */\n      dup5\n        /* \"#utility.yul\":9903:9923   */\n      sub\n        /* \"#utility.yul\":9898:9901   */\n      dup10\n        /* \"#utility.yul\":9891:9924   */\n      mstore\n        /* \"#utility.yul\":9964:9970   */\n      dup2\n        /* \"#utility.yul\":9958:9971   */\n      mload\n        /* \"#utility.yul\":9992:10076   */\n      tag_397\n        /* \"#utility.yul\":10071:10075   */\n      dup6\n        /* \"#utility.yul\":10056:10069   */\n      dup3\n        /* \"#utility.yul\":9992:10076   */\n      tag_228\n      jump\t// in\n    tag_397:\n        /* \"#utility.yul\":9984:10076   */\n      swap5\n      pop\n        /* \"#utility.yul\":10099:10169   */\n      tag_398\n        /* \"#utility.yul\":10162:10168   */\n      dup4\n        /* \"#utility.yul\":10099:10169   */\n      tag_229\n      jump\t// in\n    tag_398:\n        /* \"#utility.yul\":10089:10169   */\n      swap3\n      pop\n        /* \"#utility.yul\":10198:10202   */\n      0x20\n        /* \"#utility.yul\":10193:10196   */\n      dup11\n        /* \"#utility.yul\":10189:10203   */\n      add\n        /* \"#utility.yul\":10182:10203   */\n      swap10\n      pop\n        /* \"#utility.yul\":9877:10213   */\n      pop\n        /* \"#utility.yul\":9864:9865   */\n      0x01\n        /* \"#utility.yul\":9861:9862   */\n      dup2\n        /* \"#utility.yul\":9857:9866   */\n      add\n        /* \"#utility.yul\":9852:9866   */\n      swap1\n      pop\n        /* \"#utility.yul\":9817:10213   */\n      jump(tag_394)\n    tag_396:\n        /* \"#utility.yul\":9821:9835   */\n      pop\n        /* \"#utility.yul\":10229:10233   */\n      dup3\n        /* \"#utility.yul\":10222:10233   */\n      swap8\n      pop\n        /* \"#utility.yul\":10249:10252   */\n      dup8\n        /* \"#utility.yul\":10242:10252   */\n      swap6\n      pop\n        /* \"#utility.yul\":9421:10258   */\n      pop\n      pop\n      pop\n      pop\n      pop\n        /* \"#utility.yul\":9287:10258   */\n      swap3\n      swap2\n      pop\n      pop\n      jump\t// out\n        /* \"#utility.yul\":10264:10369   */\n    tag_231:\n        /* \"#utility.yul\":10339:10362   */\n      tag_400\n        /* \"#utility.yul\":10356:10361   */\n      dup2\n        /* \"#utility.yul\":10339:10362   */\n      tag_211\n      jump\t// in\n    tag_400:\n        /* \"#utility.yul\":10334:10337   */\n      dup3\n        /* \"#utility.yul\":10327:10363   */\n      mstore\n        /* \"#utility.yul\":10264:10369   */\n      pop\n      pop\n      jump\t// out\n        /* \"#utility.yul\":10375:10483   */\n    tag_232:\n        /* \"#utility.yul\":10452:10476   */\n      tag_402\n        /* \"#utility.yul\":10470:10475   */\n      dup2\n        /* \"#utility.yul\":10452:10476   */\n      tag_214\n      jump\t// in\n    tag_402:\n        /* \"#utility.yul\":10447:10450   */\n      dup3\n        /* \"#utility.yul\":10440:10477   */\n      mstore\n        /* \"#utility.yul\":10375:10483   */\n      pop\n      pop\n      jump\t// out\n        /* \"#utility.yul\":10549:11625   */\n    tag_233:\n        /* \"#utility.yul\":10662:10665   */\n      0x00\n        /* \"#utility.yul\":10698:10702   */\n      0x80\n        /* \"#utility.yul\":10693:10696   */\n      dup4\n        /* \"#utility.yul\":10689:10703   */\n      add\n        /* \"#utility.yul\":10786:10790   */\n      0x00\n        /* \"#utility.yul\":10779:10784   */\n      dup4\n        /* \"#utility.yul\":10775:10791   */\n      add\n        /* \"#utility.yul\":10769:10792   */\n      mload\n        /* \"#utility.yul\":10839:10842   */\n      dup5\n        /* \"#utility.yul\":10833:10837   */\n      dup3\n        /* \"#utility.yul\":10829:10843   */\n      sub\n        /* \"#utility.yul\":10822:10826   */\n      0x00\n        /* \"#utility.yul\":10817:10820   */\n      dup7\n        /* \"#utility.yul\":10813:10827   */\n      add\n        /* \"#utility.yul\":10806:10844   */\n      mstore\n        /* \"#utility.yul\":10865:10938   */\n      tag_404\n        /* \"#utility.yul\":10933:10937   */\n      dup3\n        /* \"#utility.yul\":10919:10931   */\n      dup3\n        /* \"#utility.yul\":10865:10938   */\n      tag_224\n      jump\t// in\n    tag_404:\n        /* \"#utility.yul\":10857:10938   */\n      swap2\n      pop\n        /* \"#utility.yul\":10713:10949   */\n      pop\n        /* \"#utility.yul\":11034:11038   */\n      0x20\n        /* \"#utility.yul\":11027:11032   */\n      dup4\n        /* \"#utility.yul\":11023:11039   */\n      add\n        /* \"#utility.yul\":11017:11040   */\n      mload\n        /* \"#utility.yul\":11087:11090   */\n      dup5\n        /* \"#utility.yul\":11081:11085   */\n      dup3\n        /* \"#utility.yul\":11077:11091   */\n      sub\n        /* \"#utility.yul\":11070:11074   */\n      0x20\n        /* \"#utility.yul\":11065:11068   */\n      dup7\n        /* \"#utility.yul\":11061:11075   */\n      add\n        /* \"#utility.yul\":11054:11092   */\n      mstore\n        /* \"#utility.yul\":11113:11236   */\n      tag_405\n        /* \"#utility.yul\":11231:11235   */\n      dup3\n        /* \"#utility.yul\":11217:11229   */\n      dup3\n        /* \"#utility.yul\":11113:11236   */\n      tag_230\n      jump\t// in\n    tag_405:\n        /* \"#utility.yul\":11105:11236   */\n      swap2\n      pop\n        /* \"#utility.yul\":10959:11247   */\n      pop\n        /* \"#utility.yul\":11332:11336   */\n      0x40\n        /* \"#utility.yul\":11325:11330   */\n      dup4\n        /* \"#utility.yul\":11321:11337   */\n      add\n        /* \"#utility.yul\":11315:11338   */\n      mload\n        /* \"#utility.yul\":11351:11412   */\n      tag_406\n        /* \"#utility.yul\":11406:11410   */\n      0x40\n        /* \"#utility.yul\":11401:11404   */\n      dup7\n        /* \"#utility.yul\":11397:11411   */\n      add\n        /* \"#utility.yul\":11383:11395   */\n      dup3\n        /* \"#utility.yul\":11351:11412   */\n      tag_231\n      jump\t// in\n    tag_406:\n        /* \"#utility.yul\":11257:11422   */\n      pop\n        /* \"#utility.yul\":11506:11510   */\n      0x60\n        /* \"#utility.yul\":11499:11504   */\n      dup4\n        /* \"#utility.yul\":11495:11511   */\n      add\n        /* \"#utility.yul\":11489:11512   */\n      mload\n        /* \"#utility.yul\":11525:11588   */\n      tag_407\n        /* \"#utility.yul\":11582:11586   */\n      0x60\n        /* \"#utility.yul\":11577:11580   */\n      dup7\n        /* \"#utility.yul\":11573:11587   */\n      add\n        /* \"#utility.yul\":11559:11571   */\n      dup3\n        /* \"#utility.yul\":11525:11588   */\n      tag_232\n      jump\t// in\n    tag_407:\n        /* \"#utility.yul\":11432:11598   */\n      pop\n        /* \"#utility.yul\":11615:11619   */\n      dup1\n        /* \"#utility.yul\":11608:11619   */\n      swap2\n      pop\n        /* \"#utility.yul\":10667:11625   */\n      pop\n        /* \"#utility.yul\":10549:11625   */\n      swap3\n      swap2\n      pop\n      pop\n      jump\t// out\n        /* \"#utility.yul\":11631:11895   */\n    tag_234:\n        /* \"#utility.yul\":11754:11764   */\n      0x00\n        /* \"#utility.yul\":11789:11889   */\n      tag_409\n        /* \"#utility.yul\":11885:11888   */\n      dup4\n        /* \"#utility.yul\":11877:11883   */\n      dup4\n        /* \"#utility.yul\":11789:11889   */\n      tag_233\n      jump\t// in\n    tag_409:\n        /* \"#utility.yul\":11775:11889   */\n      swap1\n      pop\n        /* \"#utility.yul\":11631:11895   */\n      swap3\n      swap2\n      pop\n      pop\n      jump\t// out\n        /* \"#utility.yul\":11901:12041   */\n    tag_235:\n        /* \"#utility.yul\":11998:12002   */\n      0x00\n        /* \"#utility.yul\":12030:12034   */\n      0x20\n        /* \"#utility.yul\":12025:12028   */\n      dup3\n        /* \"#utility.yul\":12021:12035   */\n      add\n        /* \"#utility.yul\":12013:12035   */\n      swap1\n      pop\n        /* \"#utility.yul\":11901:12041   */\n      swap2\n      swap1\n      pop\n      jump\t// out\n        /* \"#utility.yul\":12111:13238   */\n    tag_236:\n        /* \"#utility.yul\":12284:12287   */\n      0x00\n        /* \"#utility.yul\":12313:12394   */\n      tag_412\n        /* \"#utility.yul\":12388:12393   */\n      dup3\n        /* \"#utility.yul\":12313:12394   */\n      tag_218\n      jump\t// in\n    tag_412:\n        /* \"#utility.yul\":12410:12523   */\n      tag_413\n        /* \"#utility.yul\":12516:12522   */\n      dup2\n        /* \"#utility.yul\":12511:12514   */\n      dup6\n        /* \"#utility.yul\":12410:12523   */\n      tag_219\n      jump\t// in\n    tag_413:\n        /* \"#utility.yul\":12403:12523   */\n      swap4\n      pop\n        /* \"#utility.yul\":12549:12552   */\n      dup4\n        /* \"#utility.yul\":12594:12598   */\n      0x20\n        /* \"#utility.yul\":12586:12592   */\n      dup3\n        /* \"#utility.yul\":12582:12599   */\n      mul\n        /* \"#utility.yul\":12577:12580   */\n      dup6\n        /* \"#utility.yul\":12573:12600   */\n      add\n        /* \"#utility.yul\":12624:12707   */\n      tag_414\n        /* \"#utility.yul\":12701:12706   */\n      dup6\n        /* \"#utility.yul\":12624:12707   */\n      tag_220\n      jump\t// in\n    tag_414:\n        /* \"#utility.yul\":12730:12737   */\n      dup1\n        /* \"#utility.yul\":12761:12762   */\n      0x00\n        /* \"#utility.yul\":12746:13193   */\n    tag_415:\n        /* \"#utility.yul\":12771:12777   */\n      dup6\n        /* \"#utility.yul\":12768:12769   */\n      dup2\n        /* \"#utility.yul\":12765:12778   */\n      lt\n        /* \"#utility.yul\":12746:13193   */\n      iszero\n      tag_417\n      jumpi\n        /* \"#utility.yul\":12842:12851   */\n      dup5\n        /* \"#utility.yul\":12836:12840   */\n      dup5\n        /* \"#utility.yul\":12832:12852   */\n      sub\n        /* \"#utility.yul\":12827:12830   */\n      dup10\n        /* \"#utility.yul\":12820:12853   */\n      mstore\n        /* \"#utility.yul\":12893:12899   */\n      dup2\n        /* \"#utility.yul\":12887:12900   */\n      mload\n        /* \"#utility.yul\":12921:13039   */\n      tag_418\n        /* \"#utility.yul\":13034:13038   */\n      dup6\n        /* \"#utility.yul\":13019:13032   */\n      dup3\n        /* \"#utility.yul\":12921:13039   */\n      tag_234\n      jump\t// in\n    tag_418:\n        /* \"#utility.yul\":12913:13039   */\n      swap5\n      pop\n        /* \"#utility.yul\":13062:13149   */\n      tag_419\n        /* \"#utility.yul\":13142:13148   */\n      dup4\n        /* \"#utility.yul\":13062:13149   */\n      tag_235\n      jump\t// in\n    tag_419:\n        /* \"#utility.yul\":13052:13149   */\n      swap3\n      pop\n        /* \"#utility.yul\":13178:13182   */\n      0x20\n        /* \"#utility.yul\":13173:13176   */\n      dup11\n        /* \"#utility.yul\":13169:13183   */\n      add\n        /* \"#utility.yul\":13162:13183   */\n      swap10\n      pop\n        /* \"#utility.yul\":12806:13193   */\n      pop\n        /* \"#utility.yul\":12793:12794   */\n      0x01\n        /* \"#utility.yul\":12790:12791   */\n      dup2\n        /* \"#utility.yul\":12786:12795   */\n      add\n        /* \"#utility.yul\":12781:12795   */\n      swap1\n      pop\n        /* \"#utility.yul\":12746:13193   */\n      jump(tag_415)\n    tag_417:\n        /* \"#utility.yul\":12750:12764   */\n      pop\n        /* \"#utility.yul\":13209:13213   */\n      dup3\n        /* \"#utility.yul\":13202:13213   */\n      swap8\n      pop\n        /* \"#utility.yul\":13229:13232   */\n      dup8\n        /* \"#utility.yul\":13222:13232   */\n      swap6\n      pop\n        /* \"#utility.yul\":12289:13238   */\n      pop\n      pop\n      pop\n      pop\n      pop\n        /* \"#utility.yul\":12111:13238   */\n      swap3\n      swap2\n      pop\n      pop\n      jump\t// out\n        /* \"#utility.yul\":13244:13725   */\n    tag_21:\n        /* \"#utility.yul\":13441:13445   */\n      0x00\n        /* \"#utility.yul\":13479:13481   */\n      0x20\n        /* \"#utility.yul\":13468:13477   */\n      dup3\n        /* \"#utility.yul\":13464:13482   */\n      add\n        /* \"#utility.yul\":13456:13482   */\n      swap1\n      pop\n        /* \"#utility.yul\":13528:13537   */\n      dup2\n        /* \"#utility.yul\":13522:13526   */\n      dup2\n        /* \"#utility.yul\":13518:13538   */\n      sub\n        /* \"#utility.yul\":13514:13515   */\n      0x00\n        /* \"#utility.yul\":13503:13512   */\n      dup4\n        /* \"#utility.yul\":13499:13516   */\n      add\n        /* \"#utility.yul\":13492:13539   */\n      mstore\n        /* \"#utility.yul\":13556:13718   */\n      tag_421\n        /* \"#utility.yul\":13713:13717   */\n      dup2\n        /* \"#utility.yul\":13704:13710   */\n      dup5\n        /* \"#utility.yul\":13556:13718   */\n      tag_236\n      jump\t// in\n    tag_421:\n        /* \"#utility.yul\":13548:13718   */\n      swap1\n      pop\n        /* \"#utility.yul\":13244:13725   */\n      swap3\n      swap2\n      pop\n      pop\n      jump\t// out\n        /* \"#utility.yul\":13731:14060   */\n    tag_24:\n        /* \"#utility.yul\":13790:13796   */\n      0x00\n        /* \"#utility.yul\":13839:13841   */\n      0x20\n        /* \"#utility.yul\":13827:13836   */\n      dup3\n        /* \"#utility.yul\":13818:13825   */\n      dup5\n        /* \"#utility.yul\":13814:13837   */\n      sub\n        /* \"#utility.yul\":13810:13842   */\n      slt\n        /* \"#utility.yul\":13807:13926   */\n      iszero\n      tag_423\n      jumpi\n        /* \"#utility.yul\":13845:13924   */\n      tag_424\n      tag_196\n      jump\t// in\n    tag_424:\n        /* \"#utility.yul\":13807:13926   */\n    tag_423:\n        /* \"#utility.yul\":13965:13966   */\n      0x00\n        /* \"#utility.yul\":13990:14043   */\n      tag_425\n        /* \"#utility.yul\":14035:14042   */\n      dup5\n        /* \"#utility.yul\":14026:14032   */\n      dup3\n        /* \"#utility.yul\":14015:14024   */\n      dup6\n        /* \"#utility.yul\":14011:14033   */\n      add\n        /* \"#utility.yul\":13990:14043   */\n      tag_217\n      jump\t// in\n    tag_425:\n        /* \"#utility.yul\":13980:14043   */\n      swap2\n      pop\n        /* \"#utility.yul\":13936:14053   */\n      pop\n        /* \"#utility.yul\":13731:14060   */\n      swap3\n      swap2\n      pop\n      pop\n      jump\t// out\n        /* \"#utility.yul\":14066:14260   */\n    tag_237:\n        /* \"#utility.yul\":14175:14186   */\n      0x00\n        /* \"#utility.yul\":14209:14215   */\n      dup3\n        /* \"#utility.yul\":14204:14207   */\n      dup3\n        /* \"#utility.yul\":14197:14216   */\n      mstore\n        /* \"#utility.yul\":14249:14253   */\n      0x20\n        /* \"#utility.yul\":14244:14247   */\n      dup3\n        /* \"#utility.yul\":14240:14254   */\n      add\n        /* \"#utility.yul\":14225:14254   */\n      swap1\n      pop\n        /* \"#utility.yul\":14066:14260   */\n      swap3\n      swap2\n      pop\n      pop\n      jump\t// out\n        /* \"#utility.yul\":14294:15285   */\n    tag_238:\n        /* \"#utility.yul\":14433:14436   */\n      0x00\n        /* \"#utility.yul\":14462:14526   */\n      tag_428\n        /* \"#utility.yul\":14520:14525   */\n      dup3\n        /* \"#utility.yul\":14462:14526   */\n      tag_225\n      jump\t// in\n    tag_428:\n        /* \"#utility.yul\":14542:14638   */\n      tag_429\n        /* \"#utility.yul\":14631:14637   */\n      dup2\n        /* \"#utility.yul\":14626:14629   */\n      dup6\n        /* \"#utility.yul\":14542:14638   */\n      tag_237\n      jump\t// in\n    tag_429:\n        /* \"#utility.yul\":14535:14638   */\n      swap4\n      pop\n        /* \"#utility.yul\":14664:14667   */\n      dup4\n        /* \"#utility.yul\":14709:14713   */\n      0x20\n        /* \"#utility.yul\":14701:14707   */\n      dup3\n        /* \"#utility.yul\":14697:14714   */\n      mul\n        /* \"#utility.yul\":14692:14695   */\n      dup6\n        /* \"#utility.yul\":14688:14715   */\n      add\n        /* \"#utility.yul\":14739:14805   */\n      tag_430\n        /* \"#utility.yul\":14799:14804   */\n      dup6\n        /* \"#utility.yul\":14739:14805   */\n      tag_227\n      jump\t// in\n    tag_430:\n        /* \"#utility.yul\":14828:14835   */\n      dup1\n        /* \"#utility.yul\":14859:14860   */\n      0x00\n        /* \"#utility.yul\":14844:15240   */\n    tag_431:\n        /* \"#utility.yul\":14869:14875   */\n      dup6\n        /* \"#utility.yul\":14866:14867   */\n      dup2\n        /* \"#utility.yul\":14863:14876   */\n      lt\n        /* \"#utility.yul\":14844:15240   */\n      iszero\n      tag_433\n      jumpi\n        /* \"#utility.yul\":14940:14949   */\n      dup5\n        /* \"#utility.yul\":14934:14938   */\n      dup5\n        /* \"#utility.yul\":14930:14950   */\n      sub\n        /* \"#utility.yul\":14925:14928   */\n      dup10\n        /* \"#utility.yul\":14918:14951   */\n      mstore\n        /* \"#utility.yul\":14991:14997   */\n      dup2\n        /* \"#utility.yul\":14985:14998   */\n      mload\n        /* \"#utility.yul\":15019:15103   */\n      tag_434\n        /* \"#utility.yul\":15098:15102   */\n      dup6\n        /* \"#utility.yul\":15083:15096   */\n      dup3\n        /* \"#utility.yul\":15019:15103   */\n      tag_228\n      jump\t// in\n    tag_434:\n        /* \"#utility.yul\":15011:15103   */\n      swap5\n      pop\n        /* \"#utility.yul\":15126:15196   */\n      tag_435\n        /* \"#utility.yul\":15189:15195   */\n      dup4\n        /* \"#utility.yul\":15126:15196   */\n      tag_229\n      jump\t// in\n    tag_435:\n        /* \"#utility.yul\":15116:15196   */\n      swap3\n      pop\n        /* \"#utility.yul\":15225:15229   */\n      0x20\n        /* \"#utility.yul\":15220:15223   */\n      dup11\n        /* \"#utility.yul\":15216:15230   */\n      add\n        /* \"#utility.yul\":15209:15230   */\n      swap10\n      pop\n        /* \"#utility.yul\":14904:15240   */\n      pop\n        /* \"#utility.yul\":14891:14892   */\n      0x01\n        /* \"#utility.yul\":14888:14889   */\n      dup2\n        /* \"#utility.yul\":14884:14893   */\n      add\n        /* \"#utility.yul\":14879:14893   */\n      swap1\n      pop\n        /* \"#utility.yul\":14844:15240   */\n      jump(tag_431)\n    tag_433:\n        /* \"#utility.yul\":14848:14862   */\n      pop\n        /* \"#utility.yul\":15256:15260   */\n      dup3\n        /* \"#utility.yul\":15249:15260   */\n      swap8\n      pop\n        /* \"#utility.yul\":15276:15279   */\n      dup8\n        /* \"#utility.yul\":15269:15279   */\n      swap6\n      pop\n        /* \"#utility.yul\":14438:15285   */\n      pop\n      pop\n      pop\n      pop\n      pop\n        /* \"#utility.yul\":14294:15285   */\n      swap3\n      swap2\n      pop\n      pop\n      jump\t// out\n        /* \"#utility.yul\":15291:15405   */\n    tag_239:\n        /* \"#utility.yul\":15358:15364   */\n      0x00\n        /* \"#utility.yul\":15392:15397   */\n      dup2\n        /* \"#utility.yul\":15386:15398   */\n      mload\n        /* \"#utility.yul\":15376:15398   */\n      swap1\n      pop\n        /* \"#utility.yul\":15291:15405   */\n      swap2\n      swap1\n      pop\n      jump\t// out\n        /* \"#utility.yul\":15411:15595   */\n    tag_240:\n        /* \"#utility.yul\":15510:15521   */\n      0x00\n        /* \"#utility.yul\":15544:15550   */\n      dup3\n        /* \"#utility.yul\":15539:15542   */\n      dup3\n        /* \"#utility.yul\":15532:15551   */\n      mstore\n        /* \"#utility.yul\":15584:15588   */\n      0x20\n        /* \"#utility.yul\":15579:15582   */\n      dup3\n        /* \"#utility.yul\":15575:15589   */\n      add\n        /* \"#utility.yul\":15560:15589   */\n      swap1\n      pop\n        /* \"#utility.yul\":15411:15595   */\n      swap3\n      swap2\n      pop\n      pop\n      jump\t// out\n        /* \"#utility.yul\":15601:15733   */\n    tag_241:\n        /* \"#utility.yul\":15668:15672   */\n      0x00\n        /* \"#utility.yul\":15691:15694   */\n      dup2\n        /* \"#utility.yul\":15683:15694   */\n      swap1\n      pop\n        /* \"#utility.yul\":15721:15725   */\n      0x20\n        /* \"#utility.yul\":15716:15719   */\n      dup3\n        /* \"#utility.yul\":15712:15726   */\n      add\n        /* \"#utility.yul\":15704:15726   */\n      swap1\n      pop\n        /* \"#utility.yul\":15601:15733   */\n      swap2\n      swap1\n      pop\n      jump\t// out\n        /* \"#utility.yul\":15739:15918   */\n    tag_242:\n        /* \"#utility.yul\":15808:15818   */\n      0x00\n        /* \"#utility.yul\":15829:15875   */\n      tag_440\n        /* \"#utility.yul\":15871:15874   */\n      dup4\n        /* \"#utility.yul\":15863:15869   */\n      dup4\n        /* \"#utility.yul\":15829:15875   */\n      tag_232\n      jump\t// in\n    tag_440:\n        /* \"#utility.yul\":15907:15911   */\n      0x20\n        /* \"#utility.yul\":15902:15905   */\n      dup4\n        /* \"#utility.yul\":15898:15912   */\n      add\n        /* \"#utility.yul\":15884:15912   */\n      swap1\n      pop\n        /* \"#utility.yul\":15739:15918   */\n      swap3\n      swap2\n      pop\n      pop\n      jump\t// out\n        /* \"#utility.yul\":15924:16037   */\n    tag_243:\n        /* \"#utility.yul\":15994:15998   */\n      0x00\n        /* \"#utility.yul\":16026:16030   */\n      0x20\n        /* \"#utility.yul\":16021:16024   */\n      dup3\n        /* \"#utility.yul\":16017:16031   */\n      add\n        /* \"#utility.yul\":16009:16031   */\n      swap1\n      pop\n        /* \"#utility.yul\":15924:16037   */\n      swap2\n      swap1\n      pop\n      jump\t// out\n        /* \"#utility.yul\":16073:16805   */\n    tag_244:\n        /* \"#utility.yul\":16192:16195   */\n      0x00\n        /* \"#utility.yul\":16221:16275   */\n      tag_443\n        /* \"#utility.yul\":16269:16274   */\n      dup3\n        /* \"#utility.yul\":16221:16275   */\n      tag_239\n      jump\t// in\n    tag_443:\n        /* \"#utility.yul\":16291:16377   */\n      tag_444\n        /* \"#utility.yul\":16370:16376   */\n      dup2\n        /* \"#utility.yul\":16365:16368   */\n      dup6\n        /* \"#utility.yul\":16291:16377   */\n      tag_240\n      jump\t// in\n    tag_444:\n        /* \"#utility.yul\":16284:16377   */\n      swap4\n      pop\n        /* \"#utility.yul\":16401:16457   */\n      tag_445\n        /* \"#utility.yul\":16451:16456   */\n      dup4\n        /* \"#utility.yul\":16401:16457   */\n      tag_241\n      jump\t// in\n    tag_445:\n        /* \"#utility.yul\":16480:16487   */\n      dup1\n        /* \"#utility.yul\":16511:16512   */\n      0x00\n        /* \"#utility.yul\":16496:16780   */\n    tag_446:\n        /* \"#utility.yul\":16521:16527   */\n      dup4\n        /* \"#utility.yul\":16518:16519   */\n      dup2\n        /* \"#utility.yul\":16515:16528   */\n      lt\n        /* \"#utility.yul\":16496:16780   */\n      iszero\n      tag_448\n      jumpi\n        /* \"#utility.yul\":16597:16603   */\n      dup2\n        /* \"#utility.yul\":16591:16604   */\n      mload\n        /* \"#utility.yul\":16624:16687   */\n      tag_449\n        /* \"#utility.yul\":16683:16686   */\n      dup9\n        /* \"#utility.yul\":16668:16681   */\n      dup3\n        /* \"#utility.yul\":16624:16687   */\n      tag_242\n      jump\t// in\n    tag_449:\n        /* \"#utility.yul\":16617:16687   */\n      swap8\n      pop\n        /* \"#utility.yul\":16710:16770   */\n      tag_450\n        /* \"#utility.yul\":16763:16769   */\n      dup4\n        /* \"#utility.yul\":16710:16770   */\n      tag_243\n      jump\t// in\n    tag_450:\n        /* \"#utility.yul\":16700:16770   */\n      swap3\n      pop\n        /* \"#utility.yul\":16556:16780   */\n      pop\n        /* \"#utility.yul\":16543:16544   */\n      0x01\n        /* \"#utility.yul\":16540:16541   */\n      dup2\n        /* \"#utility.yul\":16536:16545   */\n      add\n        /* \"#utility.yul\":16531:16545   */\n      swap1\n      pop\n        /* \"#utility.yul\":16496:16780   */\n      jump(tag_446)\n    tag_448:\n        /* \"#utility.yul\":16500:16514   */\n      pop\n        /* \"#utility.yul\":16796:16799   */\n      dup6\n        /* \"#utility.yul\":16789:16799   */\n      swap4\n      pop\n        /* \"#utility.yul\":16197:16805   */\n      pop\n      pop\n      pop\n        /* \"#utility.yul\":16073:16805   */\n      swap3\n      swap2\n      pop\n      pop\n      jump\t// out\n        /* \"#utility.yul\":16811:17485   */\n    tag_27:\n        /* \"#utility.yul\":17052:17056   */\n      0x00\n        /* \"#utility.yul\":17090:17092   */\n      0x40\n        /* \"#utility.yul\":17079:17088   */\n      dup3\n        /* \"#utility.yul\":17075:17093   */\n      add\n        /* \"#utility.yul\":17067:17093   */\n      swap1\n      pop\n        /* \"#utility.yul\":17139:17148   */\n      dup2\n        /* \"#utility.yul\":17133:17137   */\n      dup2\n        /* \"#utility.yul\":17129:17149   */\n      sub\n        /* \"#utility.yul\":17125:17126   */\n      0x00\n        /* \"#utility.yul\":17114:17123   */\n      dup4\n        /* \"#utility.yul\":17110:17127   */\n      add\n        /* \"#utility.yul\":17103:17150   */\n      mstore\n        /* \"#utility.yul\":17167:17295   */\n      tag_452\n        /* \"#utility.yul\":17290:17294   */\n      dup2\n        /* \"#utility.yul\":17281:17287   */\n      dup6\n        /* \"#utility.yul\":17167:17295   */\n      tag_238\n      jump\t// in\n    tag_452:\n        /* \"#utility.yul\":17159:17295   */\n      swap1\n      pop\n        /* \"#utility.yul\":17342:17351   */\n      dup2\n        /* \"#utility.yul\":17336:17340   */\n      dup2\n        /* \"#utility.yul\":17332:17352   */\n      sub\n        /* \"#utility.yul\":17327:17329   */\n      0x20\n        /* \"#utility.yul\":17316:17325   */\n      dup4\n        /* \"#utility.yul\":17312:17330   */\n      add\n        /* \"#utility.yul\":17305:17353   */\n      mstore\n        /* \"#utility.yul\":17370:17478   */\n      tag_453\n        /* \"#utility.yul\":17473:17477   */\n      dup2\n        /* \"#utility.yul\":17464:17470   */\n      dup5\n        /* \"#utility.yul\":17370:17478   */\n      tag_244\n      jump\t// in\n    tag_453:\n        /* \"#utility.yul\":17362:17478   */\n      swap1\n      pop\n        /* \"#utility.yul\":16811:17485   */\n      swap4\n      swap3\n      pop\n      pop\n      pop\n      jump\t// out\n        /* \"#utility.yul\":17491:17660   */\n    tag_245:\n        /* \"#utility.yul\":17575:17586   */\n      0x00\n        /* \"#utility.yul\":17609:17615   */\n      dup3\n        /* \"#utility.yul\":17604:17607   */\n      dup3\n        /* \"#utility.yul\":17597:17616   */\n      mstore\n        /* \"#utility.yul\":17649:17653   */\n      0x20\n        /* \"#utility.yul\":17644:17647   */\n      dup3\n        /* \"#utility.yul\":17640:17654   */\n      add\n        /* \"#utility.yul\":17625:17654   */\n      swap1\n      pop\n        /* \"#utility.yul\":17491:17660   */\n      swap3\n      swap2\n      pop\n      pop\n      jump\t// out\n        /* \"#utility.yul\":17666:18043   */\n    tag_246:\n        /* \"#utility.yul\":17754:17757   */\n      0x00\n        /* \"#utility.yul\":17782:17821   */\n      tag_456\n        /* \"#utility.yul\":17815:17820   */\n      dup3\n        /* \"#utility.yul\":17782:17821   */\n      tag_221\n      jump\t// in\n    tag_456:\n        /* \"#utility.yul\":17837:17908   */\n      tag_457\n        /* \"#utility.yul\":17901:17907   */\n      dup2\n        /* \"#utility.yul\":17896:17899   */\n      dup6\n        /* \"#utility.yul\":17837:17908   */\n      tag_245\n      jump\t// in\n    tag_457:\n        /* \"#utility.yul\":17830:17908   */\n      swap4\n      pop\n        /* \"#utility.yul\":17917:17982   */\n      tag_458\n        /* \"#utility.yul\":17975:17981   */\n      dup2\n        /* \"#utility.yul\":17970:17973   */\n      dup6\n        /* \"#utility.yul\":17963:17967   */\n      0x20\n        /* \"#utility.yul\":17956:17961   */\n      dup7\n        /* \"#utility.yul\":17952:17968   */\n      add\n        /* \"#utility.yul\":17917:17982   */\n      tag_223\n      jump\t// in\n    tag_458:\n        /* \"#utility.yul\":18007:18036   */\n      tag_459\n        /* \"#utility.yul\":18029:18035   */\n      dup2\n        /* \"#utility.yul\":18007:18036   */\n      tag_200\n      jump\t// in\n    tag_459:\n        /* \"#utility.yul\":18002:18005   */\n      dup5\n        /* \"#utility.yul\":17998:18037   */\n      add\n        /* \"#utility.yul\":17991:18037   */\n      swap2\n      pop\n        /* \"#utility.yul\":17758:18043   */\n      pop\n        /* \"#utility.yul\":17666:18043   */\n      swap3\n      swap2\n      pop\n      pop\n      jump\t// out\n        /* \"#utility.yul\":18049:18164   */\n    tag_247:\n        /* \"#utility.yul\":18134:18157   */\n      tag_461\n        /* \"#utility.yul\":18151:18156   */\n      dup2\n        /* \"#utility.yul\":18134:18157   */\n      tag_211\n      jump\t// in\n    tag_461:\n        /* \"#utility.yul\":18129:18132   */\n      dup3\n        /* \"#utility.yul\":18122:18158   */\n      mstore\n        /* \"#utility.yul\":18049:18164   */\n      pop\n      pop\n      jump\t// out\n        /* \"#utility.yul\":18170:18589   */\n    tag_32:\n        /* \"#utility.yul\":18309:18313   */\n      0x00\n        /* \"#utility.yul\":18347:18349   */\n      0x40\n        /* \"#utility.yul\":18336:18345   */\n      dup3\n        /* \"#utility.yul\":18332:18350   */\n      add\n        /* \"#utility.yul\":18324:18350   */\n      swap1\n      pop\n        /* \"#utility.yul\":18396:18405   */\n      dup2\n        /* \"#utility.yul\":18390:18394   */\n      dup2\n        /* \"#utility.yul\":18386:18406   */\n      sub\n        /* \"#utility.yul\":18382:18383   */\n      0x00\n        /* \"#utility.yul\":18371:18380   */\n      dup4\n        /* \"#utility.yul\":18367:18384   */\n      add\n        /* \"#utility.yul\":18360:18407   */\n      mstore\n        /* \"#utility.yul\":18424:18502   */\n      tag_463\n        /* \"#utility.yul\":18497:18501   */\n      dup2\n        /* \"#utility.yul\":18488:18494   */\n      dup6\n        /* \"#utility.yul\":18424:18502   */\n      tag_246\n      jump\t// in\n    tag_463:\n        /* \"#utility.yul\":18416:18502   */\n      swap1\n      pop\n        /* \"#utility.yul\":18512:18582   */\n      tag_464\n        /* \"#utility.yul\":18578:18580   */\n      0x20\n        /* \"#utility.yul\":18567:18576   */\n      dup4\n        /* \"#utility.yul\":18563:18581   */\n      add\n        /* \"#utility.yul\":18554:18560   */\n      dup5\n        /* \"#utility.yul\":18512:18582   */\n      tag_247\n      jump\t// in\n    tag_464:\n        /* \"#utility.yul\":18170:18589   */\n      swap4\n      swap3\n      pop\n      pop\n      pop\n      jump\t// out\n        /* \"#utility.yul\":18595:18764   */\n    tag_248:\n        /* \"#utility.yul\":18735:18756   */\n      0x4e6f206f7074696f6e732070726f766964656400000000000000000000000000\n        /* \"#utility.yul\":18731:18732   */\n      0x00\n        /* \"#utility.yul\":18723:18729   */\n      dup3\n        /* \"#utility.yul\":18719:18733   */\n      add\n        /* \"#utility.yul\":18712:18757   */\n      mstore\n        /* \"#utility.yul\":18595:18764   */\n      pop\n      jump\t// out\n        /* \"#utility.yul\":18770:19136   */\n    tag_249:\n        /* \"#utility.yul\":18912:18915   */\n      0x00\n        /* \"#utility.yul\":18933:19000   */\n      tag_467\n        /* \"#utility.yul\":18997:18999   */\n      0x13\n        /* \"#utility.yul\":18992:18995   */\n      dup4\n        /* \"#utility.yul\":18933:19000   */\n      tag_245\n      jump\t// in\n    tag_467:\n        /* \"#utility.yul\":18926:19000   */\n      swap2\n      pop\n        /* \"#utility.yul\":19009:19102   */\n      tag_468\n        /* \"#utility.yul\":19098:19101   */\n      dup3\n        /* \"#utility.yul\":19009:19102   */\n      tag_248\n      jump\t// in\n    tag_468:\n        /* \"#utility.yul\":19127:19129   */\n      0x20\n        /* \"#utility.yul\":19122:19125   */\n      dup3\n        /* \"#utility.yul\":19118:19130   */\n      add\n        /* \"#utility.yul\":19111:19130   */\n      swap1\n      pop\n        /* \"#utility.yul\":18770:19136   */\n      swap2\n      swap1\n      pop\n      jump\t// out\n        /* \"#utility.yul\":19142:19561   */\n    tag_36:\n        /* \"#utility.yul\":19308:19312   */\n      0x00\n        /* \"#utility.yul\":19346:19348   */\n      0x20\n        /* \"#utility.yul\":19335:19344   */\n      dup3\n        /* \"#utility.yul\":19331:19349   */\n      add\n        /* \"#utility.yul\":19323:19349   */\n      swap1\n      pop\n        /* \"#utility.yul\":19395:19404   */\n      dup2\n        /* \"#utility.yul\":19389:19393   */\n      dup2\n        /* \"#utility.yul\":19385:19405   */\n      sub\n        /* \"#utility.yul\":19381:19382   */\n      0x00\n        /* \"#utility.yul\":19370:19379   */\n      dup4\n        /* \"#utility.yul\":19366:19383   */\n      add\n        /* \"#utility.yul\":19359:19406   */\n      mstore\n        /* \"#utility.yul\":19423:19554   */\n      tag_470\n        /* \"#utility.yul\":19549:19553   */\n      dup2\n        /* \"#utility.yul\":19423:19554   */\n      tag_249\n      jump\t// in\n    tag_470:\n        /* \"#utility.yul\":19415:19554   */\n      swap1\n      pop\n        /* \"#utility.yul\":19142:19561   */\n      swap2\n      swap1\n      pop\n      jump\t// out\n        /* \"#utility.yul\":19567:19747   */\n    tag_250:\n        /* \"#utility.yul\":19615:19692   */\n      0x4e487b7100000000000000000000000000000000000000000000000000000000\n        /* \"#utility.yul\":19612:19613   */\n      0x00\n        /* \"#utility.yul\":19605:19693   */\n      mstore\n        /* \"#utility.yul\":19712:19716   */\n      0x11\n        /* \"#utility.yul\":19709:19710   */\n      0x04\n        /* \"#utility.yul\":19702:19717   */\n      mstore\n        /* \"#utility.yul\":19736:19740   */\n      0x24\n        /* \"#utility.yul\":19733:19734   */\n      0x00\n        /* \"#utility.yul\":19726:19741   */\n      revert\n        /* \"#utility.yul\":19753:19947   */\n    tag_39:\n        /* \"#utility.yul\":19793:19797   */\n      0x00\n        /* \"#utility.yul\":19813:19833   */\n      tag_473\n        /* \"#utility.yul\":19831:19832   */\n      dup3\n        /* \"#utility.yul\":19813:19833   */\n      tag_214\n      jump\t// in\n    tag_473:\n        /* \"#utility.yul\":19808:19833   */\n      swap2\n      pop\n        /* \"#utility.yul\":19847:19867   */\n      tag_474\n        /* \"#utility.yul\":19865:19866   */\n      dup4\n        /* \"#utility.yul\":19847:19867   */\n      tag_214\n      jump\t// in\n    tag_474:\n        /* \"#utility.yul\":19842:19867   */\n      swap3\n      pop\n        /* \"#utility.yul\":19891:19892   */\n      dup3\n        /* \"#utility.yul\":19888:19889   */\n      dup3\n        /* \"#utility.yul\":19884:19893   */\n      sub\n        /* \"#utility.yul\":19876:19893   */\n      swap1\n      pop\n        /* \"#utility.yul\":19915:19916   */\n      dup2\n        /* \"#utility.yul\":19909:19913   */\n      dup2\n        /* \"#utility.yul\":19906:19917   */\n      gt\n        /* \"#utility.yul\":19903:19940   */\n      iszero\n      tag_475\n      jumpi\n        /* \"#utility.yul\":19920:19938   */\n      tag_476\n      tag_250\n      jump\t// in\n    tag_476:\n        /* \"#utility.yul\":19903:19940   */\n    tag_475:\n        /* \"#utility.yul\":19753:19947   */\n      swap3\n      swap2\n      pop\n      pop\n      jump\t// out\n        /* \"#utility.yul\":19953:20133   */\n    tag_42:\n        /* \"#utility.yul\":20001:20078   */\n      0x4e487b7100000000000000000000000000000000000000000000000000000000\n        /* \"#utility.yul\":19998:19999   */\n      0x00\n        /* \"#utility.yul\":19991:20079   */\n      mstore\n        /* \"#utility.yul\":20098:20102   */\n      0x32\n        /* \"#utility.yul\":20095:20096   */\n      0x04\n        /* \"#utility.yul\":20088:20103   */\n      mstore\n        /* \"#utility.yul\":20122:20126   */\n      0x24\n        /* \"#utility.yul\":20119:20120   */\n      0x00\n        /* \"#utility.yul\":20112:20127   */\n      revert\n        /* \"#utility.yul\":20139:20319   */\n    tag_251:\n        /* \"#utility.yul\":20187:20264   */\n      0x4e487b7100000000000000000000000000000000000000000000000000000000\n        /* \"#utility.yul\":20184:20185   */\n      0x00\n        /* \"#utility.yul\":20177:20265   */\n      mstore\n        /* \"#utility.yul\":20284:20288   */\n      0x22\n        /* \"#utility.yul\":20281:20282   */\n      0x04\n        /* \"#utility.yul\":20274:20289   */\n      mstore\n        /* \"#utility.yul\":20308:20312   */\n      0x24\n        /* \"#utility.yul\":20305:20306   */\n      0x00\n        /* \"#utility.yul\":20298:20313   */\n      revert\n        /* \"#utility.yul\":20325:20645   */\n    tag_74:\n        /* \"#utility.yul\":20369:20375   */\n      0x00\n        /* \"#utility.yul\":20406:20407   */\n      0x02\n        /* \"#utility.yul\":20400:20404   */\n      dup3\n        /* \"#utility.yul\":20396:20408   */\n      div\n        /* \"#utility.yul\":20386:20408   */\n      swap1\n      pop\n        /* \"#utility.yul\":20453:20454   */\n      0x01\n        /* \"#utility.yul\":20447:20451   */\n      dup3\n        /* \"#utility.yul\":20443:20455   */\n      and\n        /* \"#utility.yul\":20474:20492   */\n      dup1\n        /* \"#utility.yul\":20464:20545   */\n      tag_480\n      jumpi\n        /* \"#utility.yul\":20530:20534   */\n      0x7f\n        /* \"#utility.yul\":20522:20528   */\n      dup3\n        /* \"#utility.yul\":20518:20535   */\n      and\n        /* \"#utility.yul\":20508:20535   */\n      swap2\n      pop\n        /* \"#utility.yul\":20464:20545   */\n    tag_480:\n        /* \"#utility.yul\":20592:20594   */\n      0x20\n        /* \"#utility.yul\":20584:20590   */\n      dup3\n        /* \"#utility.yul\":20581:20595   */\n      lt\n        /* \"#utility.yul\":20561:20579   */\n      dup2\n        /* \"#utility.yul\":20558:20596   */\n      sub\n        /* \"#utility.yul\":20555:20639   */\n      tag_481\n      jumpi\n        /* \"#utility.yul\":20611:20629   */\n      tag_482\n      tag_251\n      jump\t// in\n    tag_482:\n        /* \"#utility.yul\":20555:20639   */\n    tag_481:\n        /* \"#utility.yul\":20376:20645   */\n      pop\n        /* \"#utility.yul\":20325:20645   */\n      swap2\n      swap1\n      pop\n      jump\t// out\n        /* \"#utility.yul\":20651:20792   */\n    tag_252:\n        /* \"#utility.yul\":20700:20704   */\n      0x00\n        /* \"#utility.yul\":20723:20726   */\n      dup2\n        /* \"#utility.yul\":20715:20726   */\n      swap1\n      pop\n        /* \"#utility.yul\":20746:20749   */\n      dup2\n        /* \"#utility.yul\":20743:20744   */\n      0x00\n        /* \"#utility.yul\":20736:20750   */\n      mstore\n        /* \"#utility.yul\":20780:20784   */\n      0x20\n        /* \"#utility.yul\":20777:20778   */\n      0x00\n        /* \"#utility.yul\":20767:20785   */\n      keccak256\n        /* \"#utility.yul\":20759:20785   */\n      swap1\n      pop\n        /* \"#utility.yul\":20651:20792   */\n      swap2\n      swap1\n      pop\n      jump\t// out\n        /* \"#utility.yul\":20798:20891   */\n    tag_253:\n        /* \"#utility.yul\":20835:20841   */\n      0x00\n        /* \"#utility.yul\":20882:20884   */\n      0x20\n        /* \"#utility.yul\":20877:20879   */\n      0x1f\n        /* \"#utility.yul\":20870:20875   */\n      dup4\n        /* \"#utility.yul\":20866:20880   */\n      add\n        /* \"#utility.yul\":20862:20885   */\n      div\n        /* \"#utility.yul\":20852:20885   */\n      swap1\n      pop\n        /* \"#utility.yul\":20798:20891   */\n      swap2\n      swap1\n      pop\n      jump\t// out\n        /* \"#utility.yul\":20897:21004   */\n    tag_254:\n        /* \"#utility.yul\":20941:20949   */\n      0x00\n        /* \"#utility.yul\":20991:20996   */\n      dup3\n        /* \"#utility.yul\":20985:20989   */\n      dup3\n        /* \"#utility.yul\":20981:20997   */\n      shl\n        /* \"#utility.yul\":20960:20997   */\n      swap1\n      pop\n        /* \"#utility.yul\":20897:21004   */\n      swap3\n      swap2\n      pop\n      pop\n      jump\t// out\n        /* \"#utility.yul\":21010:21403   */\n    tag_255:\n        /* \"#utility.yul\":21079:21085   */\n      0x00\n        /* \"#utility.yul\":21129:21130   */\n      0x08\n        /* \"#utility.yul\":21117:21127   */\n      dup4\n        /* \"#utility.yul\":21113:21131   */\n      mul\n        /* \"#utility.yul\":21152:21249   */\n      tag_487\n        /* \"#utility.yul\":21182:21248   */\n      0xffffffffffffffffffffffffffffffffffffffffffffffffffffffffffffffff\n        /* \"#utility.yul\":21171:21180   */\n      dup3\n        /* \"#utility.yul\":21152:21249   */\n      tag_254\n      jump\t// in\n    tag_487:\n        /* \"#utility.yul\":21270:21309   */\n      tag_488\n        /* \"#utility.yul\":21300:21308   */\n      dup7\n        /* \"#utility.yul\":21289:21298   */\n      dup4\n        /* \"#utility.yul\":21270:21309   */\n      tag_254\n      jump\t// in\n    tag_488:\n        /* \"#utility.yul\":21258:21309   */\n      swap6\n      pop\n        /* \"#utility.yul\":21342:21346   */\n      dup1\n        /* \"#utility.yul\":21338:21347   */\n      not\n        /* \"#utility.yul\":21331:21336   */\n      dup5\n        /* \"#utility.yul\":21327:21348   */\n      and\n        /* \"#utility.yul\":21318:21348   */\n      swap4\n      pop\n        /* \"#utility.yul\":21391:21395   */\n      dup1\n        /* \"#utility.yul\":21381:21389   */\n      dup7\n        /* \"#utility.yul\":21377:21396   */\n      and\n        /* \"#utility.yul\":21370:21375   */\n      dup5\n        /* \"#utility.yul\":21367:21397   */\n      or\n        /* \"#utility.yul\":21357:21397   */\n      swap3\n      pop\n        /* \"#utility.yul\":21086:21403   */\n      pop\n      pop\n        /* \"#utility.yul\":21010:21403   */\n      swap4\n      swap3\n      pop\n      pop\n      pop\n      jump\t// out\n        /* \"#utility.yul\":21409:21469   */\n    tag_256:\n        /* \"#utility.yul\":21437:21440   */\n      0x00\n        /* \"#utility.yul\":21458:21463   */\n      dup2\n        /* \"#utility.yul\":21451:21463   */\n      swap1\n      pop\n        /* \"#utility.yul\":21409:21469   */\n      swap2\n      swap1\n      pop\n      jump\t// out\n        /* \"#utility.yul\":21475:21617   */\n    tag_257:\n        /* \"#utility.yul\":21525:21534   */\n      0x00\n        /* \"#utility.yul\":21558:21611   */\n      tag_491\n        /* \"#utility.yul\":21576:21610   */\n      tag_492\n        /* \"#utility.yul\":21585:21609   */\n      tag_493\n        /* \"#utility.yul\":21603:21608   */\n      dup5\n        /* \"#utility.yul\":21585:21609   */\n      tag_214\n      jump\t// in\n    tag_493:\n        /* \"#utility.yul\":21576:21610   */\n      tag_256\n      jump\t// in\n    tag_492:\n        /* \"#utility.yul\":21558:21611   */\n      tag_214\n      jump\t// in\n    tag_491:\n        /* \"#utility.yul\":21545:21611   */\n      swap1\n      pop\n        /* \"#utility.yul\":21475:21617   */\n      swap2\n      swap1\n      pop\n      jump\t// out\n        /* \"#utility.yul\":21623:21698   */\n    tag_258:\n        /* \"#utility.yul\":21666:21669   */\n      0x00\n        /* \"#utility.yul\":21687:21692   */\n      dup2\n        /* \"#utility.yul\":21680:21692   */\n      swap1\n      pop\n        /* \"#utility.yul\":21623:21698   */\n      swap2\n      swap1\n      pop\n      jump\t// out\n        /* \"#utility.yul\":21704:21973   */\n    tag_259:\n        /* \"#utility.yul\":21814:21853   */\n      tag_496\n        /* \"#utility.yul\":21845:21852   */\n      dup4\n        /* \"#utility.yul\":21814:21853   */\n      tag_257\n      jump\t// in\n    tag_496:\n        /* \"#utility.yul\":21875:21966   */\n      tag_497\n        /* \"#utility.yul\":21924:21965   */\n      tag_498\n        /* \"#utility.yul\":21948:21964   */\n      dup3\n        /* \"#utility.yul\":21924:21965   */\n      tag_258\n      jump\t// in\n    tag_498:\n        /* \"#utility.yul\":21916:21922   */\n      dup5\n        /* \"#utility.yul\":21909:21913   */\n      dup5\n        /* \"#utility.yul\":21903:21914   */\n      sload\n        /* \"#utility.yul\":21875:21966   */\n      tag_255\n      jump\t// in\n    tag_497:\n        /* \"#utility.yul\":21869:21873   */\n      dup3\n        /* \"#utility.yul\":21862:21967   */\n      sstore\n        /* \"#utility.yul\":21780:21973   */\n      pop\n        /* \"#utility.yul\":21704:21973   */\n      pop\n      pop\n      pop\n      jump\t// out\n        /* \"#utility.yul\":21979:22052   */\n    tag_260:\n        /* \"#utility.yul\":22024:22027   */\n      0x00\n        /* \"#utility.yul\":21979:22052   */\n      swap1\n      jump\t// out\n        /* \"#utility.yul\":22058:22247   */\n    tag_261:\n        /* \"#utility.yul\":22135:22167   */\n      tag_501\n      tag_260\n      jump\t// in\n    tag_501:\n        /* \"#utility.yul\":22176:22241   */\n      tag_502\n        /* \"#utility.yul\":22234:22240   */\n      dup2\n        /* \"#utility.yul\":22226:22232   */\n      dup5\n        /* \"#utility.yul\":22220:22224   */\n      dup5\n        /* \"#utility.yul\":22176:22241   */\n      tag_259\n      jump\t// in\n    tag_502:\n        /* \"#utility.yul\":22111:22247   */\n      pop\n        /* \"#utility.yul\":22058:22247   */\n      pop\n      pop\n      jump\t// out\n        /* \"#utility.yul\":22253:22439   */\n    tag_262:\n        /* \"#utility.yul\":22313:22433   */\n    tag_504:\n        /* \"#utility.yul\":22330:22333   */\n      dup2\n        /* \"#utility.yul\":22323:22328   */\n      dup2\n        /* \"#utility.yul\":22320:22334   */\n      lt\n        /* \"#utility.yul\":22313:22433   */\n      iszero\n      tag_506\n      jumpi\n        /* \"#utility.yul\":22384:22423   */\n      tag_507\n        /* \"#utility.yul\":22421:22422   */\n      0x00\n        /* \"#utility.yul\":22414:22419   */\n      dup3\n        /* \"#utility.yul\":22384:22423   */\n      tag_261\n      jump\t// in\n    tag_507:\n        /* \"#utility.yul\":22357:22358   */\n      0x01\n        /* \"#utility.yul\":22350:22355   */\n      dup2\n        /* \"#utility.yul\":22346:22359   */\n      add\n        /* \"#utility.yul\":22337:22359   */\n      swap1\n      pop\n        /* \"#utility.yul\":22313:22433   */\n      jump(tag_504)\n    tag_506:\n        /* \"#utility.yul\":22253:22439   */\n      pop\n      pop\n      jump\t// out\n        /* \"#utility.yul\":22445:22988   */\n    tag_263:\n        /* \"#utility.yul\":22546:22548   */\n      0x1f\n        /* \"#utility.yul\":22541:22544   */\n      dup3\n        /* \"#utility.yul\":22538:22549   */\n      gt\n        /* \"#utility.yul\":22535:22981   */\n      iszero\n      tag_509\n      jumpi\n        /* \"#utility.yul\":22580:22618   */\n      tag_510\n        /* \"#utility.yul\":22612:22617   */\n      dup2\n        /* \"#utility.yul\":22580:22618   */\n      tag_252\n      jump\t// in\n    tag_510:\n        /* \"#utility.yul\":22664:22693   */\n      tag_511\n        /* \"#utility.yul\":22682:22692   */\n      dup5\n        /* \"#utility.yul\":22664:22693   */\n      tag_253\n      jump\t// in\n    tag_511:\n        /* \"#utility.yul\":22654:22662   */\n      dup2\n        /* \"#utility.yul\":22650:22694   */\n      add\n        /* \"#utility.yul\":22847:22849   */\n      0x20\n        /* \"#utility.yul\":22835:22845   */\n      dup6\n        /* \"#utility.yul\":22832:22850   */\n      lt\n        /* \"#utility.yul\":22829:22878   */\n      iszero\n      tag_512\n      jumpi\n        /* \"#utility.yul\":22868:22876   */\n      dup2\n        /* \"#utility.yul\":22853:22876   */\n      swap1\n      pop\n        /* \"#utility.yul\":22829:22878   */\n    tag_512:\n        /* \"#utility.yul\":22891:22971   */\n      tag_513\n        /* \"#utility.yul\":22947:22969   */\n      tag_514\n        /* \"#utility.yul\":22965:22968   */\n      dup6\n        /* \"#utility.yul\":22947:22969   */\n      tag_253\n      jump\t// in\n    tag_514:\n        /* \"#utility.yul\":22937:22945   */\n      dup4\n        /* \"#utility.yul\":22933:22970   */\n      add\n        /* \"#utility.yul\":22920:22931   */\n      dup3\n        /* \"#utility.yul\":22891:22971   */\n      tag_262\n      jump\t// in\n    tag_513:\n        /* \"#utility.yul\":22550:22981   */\n      pop\n      pop\n        /* \"#utility.yul\":22535:22981   */\n    tag_509:\n        /* \"#utility.yul\":22445:22988   */\n      pop\n      pop\n      pop\n      jump\t// out\n        /* \"#utility.yul\":22994:23111   */\n    tag_264:\n        /* \"#utility.yul\":23048:23056   */\n      0x00\n        /* \"#utility.yul\":23098:23103   */\n      dup3\n        /* \"#utility.yul\":23092:23096   */\n      dup3\n        /* \"#utility.yul\":23088:23104   */\n      shr\n        /* \"#utility.yul\":23067:23104   */\n      swap1\n      pop\n        /* \"#utility.yul\":22994:23111   */\n      swap3\n      swap2\n      pop\n      pop\n      jump\t// out\n        /* \"#utility.yul\":23117:23286   */\n    tag_265:\n        /* \"#utility.yul\":23161:23167   */\n      0x00\n        /* \"#utility.yul\":23194:23245   */\n      tag_517\n        /* \"#utility.yul\":23242:23243   */\n      0x00\n        /* \"#utility.yul\":23238:23244   */\n      not\n        /* \"#utility.yul\":23230:23235   */\n      dup5\n        /* \"#utility.yul\":23227:23228   */\n      0x08\n        /* \"#utility.yul\":23223:23236   */\n      mul\n        /* \"#utility.yul\":23194:23245   */\n      tag_264\n      jump\t// in\n    tag_517:\n        /* \"#utility.yul\":23190:23246   */\n      not\n        /* \"#utility.yul\":23275:23279   */\n      dup1\n        /* \"#utility.yul\":23269:23273   */\n      dup4\n        /* \"#utility.yul\":23265:23280   */\n      and\n        /* \"#utility.yul\":23255:23280   */\n      swap2\n      pop\n        /* \"#utility.yul\":23168:23286   */\n      pop\n        /* \"#utility.yul\":23117:23286   */\n      swap3\n      swap2\n      pop\n      pop\n      jump\t// out\n        /* \"#utility.yul\":23291:23586   */\n    tag_266:\n        /* \"#utility.yul\":23367:23371   */\n      0x00\n        /* \"#utility.yul\":23513:23542   */\n      tag_519\n        /* \"#utility.yul\":23538:23541   */\n      dup4\n        /* \"#utility.yul\":23532:23536   */\n      dup4\n        /* \"#utility.yul\":23513:23542   */\n      tag_265\n      jump\t// in\n    tag_519:\n        /* \"#utility.yul\":23505:23542   */\n      swap2\n      pop\n        /* \"#utility.yul\":23575:23578   */\n      dup3\n        /* \"#utility.yul\":23572:23573   */\n      0x02\n        /* \"#utility.yul\":23568:23579   */\n      mul\n        /* \"#utility.yul\":23562:23566   */\n      dup3\n        /* \"#utility.yul\":23559:23580   */\n      or\n        /* \"#utility.yul\":23551:23580   */\n      swap1\n      pop\n        /* \"#utility.yul\":23291:23586   */\n      swap3\n      swap2\n      pop\n      pop\n      jump\t// out\n        /* \"#utility.yul\":23591:24986   */\n    tag_45:\n        /* \"#utility.yul\":23708:23745   */\n      tag_521\n        /* \"#utility.yul\":23741:23744   */\n      dup3\n        /* \"#utility.yul\":23708:23745   */\n      tag_221\n      jump\t// in\n    tag_521:\n        /* \"#utility.yul\":23810:23828   */\n      0xffffffffffffffff\n        /* \"#utility.yul\":23802:23808   */\n      dup2\n        /* \"#utility.yul\":23799:23829   */\n      gt\n        /* \"#utility.yul\":23796:23852   */\n      iszero\n      tag_522\n      jumpi\n        /* \"#utility.yul\":23832:23850   */\n      tag_523\n      tag_102\n      jump\t// in\n    tag_523:\n        /* \"#utility.yul\":23796:23852   */\n    tag_522:\n        /* \"#utility.yul\":23876:23914   */\n      tag_524\n        /* \"#utility.yul\":23908:23912   */\n      dup3\n        /* \"#utility.yul\":23902:23913   */\n      sload\n        /* \"#utility.yul\":23876:23914   */\n      tag_74\n      jump\t// in\n    tag_524:\n        /* \"#utility.yul\":23961:24028   */\n      tag_525\n        /* \"#utility.yul\":24021:24027   */\n      dup3\n        /* \"#utility.yul\":24013:24019   */\n      dup3\n        /* \"#utility.yul\":24007:24011   */\n      dup6\n        /* \"#utility.yul\":23961:24028   */\n      tag_263\n      jump\t// in\n    tag_525:\n        /* \"#utility.yul\":24055:24056   */\n      0x00\n        /* \"#utility.yul\":24079:24083   */\n      0x20\n        /* \"#utility.yul\":24066:24083   */\n      swap1\n      pop\n        /* \"#utility.yul\":24111:24113   */\n      0x1f\n        /* \"#utility.yul\":24103:24109   */\n      dup4\n        /* \"#utility.yul\":24100:24114   */\n      gt\n        /* \"#utility.yul\":24128:24129   */\n      0x01\n        /* \"#utility.yul\":24123:24741   */\n      dup2\n      eq\n      tag_527\n      jumpi\n        /* \"#utility.yul\":24785:24786   */\n      0x00\n        /* \"#utility.yul\":24802:24808   */\n      dup5\n        /* \"#utility.yul\":24799:24876   */\n      iszero\n      tag_528\n      jumpi\n        /* \"#utility.yul\":24851:24860   */\n      dup3\n        /* \"#utility.yul\":24846:24849   */\n      dup8\n        /* \"#utility.yul\":24842:24861   */\n      add\n        /* \"#utility.yul\":24836:24862   */\n      mload\n        /* \"#utility.yul\":24827:24862   */\n      swap1\n      pop\n        /* \"#utility.yul\":24799:24876   */\n    tag_528:\n        /* \"#utility.yul\":24902:24969   */\n      tag_529\n        /* \"#utility.yul\":24962:24968   */\n      dup6\n        /* \"#utility.yul\":24955:24960   */\n      dup3\n        /* \"#utility.yul\":24902:24969   */\n      tag_266\n      jump\t// in\n    tag_529:\n        /* \"#utility.yul\":24896:24900   */\n      dup7\n        /* \"#utility.yul\":24889:24970   */\n      sstore\n        /* \"#utility.yul\":24758:24980   */\n      pop\n        /* \"#utility.yul\":24093:24980   */\n      jump(tag_526)\n        /* \"#utility.yul\":24123:24741   */\n    tag_527:\n        /* \"#utility.yul\":24175:24179   */\n      0x1f\n        /* \"#utility.yul\":24171:24180   */\n      not\n        /* \"#utility.yul\":24163:24169   */\n      dup5\n        /* \"#utility.yul\":24159:24181   */\n      and\n        /* \"#utility.yul\":24209:24246   */\n      tag_530\n        /* \"#utility.yul\":24241:24245   */\n      dup7\n        /* \"#utility.yul\":24209:24246   */\n      tag_252\n      jump\t// in\n    tag_530:\n        /* \"#utility.yul\":24268:24269   */\n      0x00\n        /* \"#utility.yul\":24282:24490   */\n    tag_531:\n        /* \"#utility.yul\":24296:24303   */\n      dup3\n        /* \"#utility.yul\":24293:24294   */\n      dup2\n        /* \"#utility.yul\":24290:24304   */\n      lt\n        /* \"#utility.yul\":24282:24490   */\n      iszero\n      tag_533\n      jumpi\n        /* \"#utility.yul\":24375:24384   */\n      dup5\n        /* \"#utility.yul\":24370:24373   */\n      dup10\n        /* \"#utility.yul\":24366:24385   */\n      add\n        /* \"#utility.yul\":24360:24386   */\n      mload\n        /* \"#utility.yul\":24352:24358   */\n      dup3\n        /* \"#utility.yul\":24345:24387   */\n      sstore\n        /* \"#utility.yul\":24426:24427   */\n      0x01\n        /* \"#utility.yul\":24418:24424   */\n      dup3\n        /* \"#utility.yul\":24414:24428   */\n      add\n        /* \"#utility.yul\":24404:24428   */\n      swap2\n      pop\n        /* \"#utility.yul\":24473:24475   */\n      0x20\n        /* \"#utility.yul\":24462:24471   */\n      dup6\n        /* \"#utility.yul\":24458:24476   */\n      add\n        /* \"#utility.yul\":24445:24476   */\n      swap5\n      pop\n        /* \"#utility.yul\":24319:24323   */\n      0x20\n        /* \"#utility.yul\":24316:24317   */\n      dup2\n        /* \"#utility.yul\":24312:24324   */\n      add\n        /* \"#utility.yul\":24307:24324   */\n      swap1\n      pop\n        /* \"#utility.yul\":24282:24490   */\n      jump(tag_531)\n    tag_533:\n        /* \"#utility.yul\":24518:24524   */\n      dup7\n        /* \"#utility.yul\":24509:24516   */\n      dup4\n        /* \"#utility.yul\":24506:24525   */\n      lt\n        /* \"#utility.yul\":24503:24682   */\n      iszero\n      tag_534\n      jumpi\n        /* \"#utility.yul\":24576:24585   */\n      dup5\n        /* \"#utility.yul\":24571:24574   */\n      dup10\n        /* \"#utility.yul\":24567:24586   */\n      add\n        /* \"#utility.yul\":24561:24587   */\n      mload\n        /* \"#utility.yul\":24619:24667   */\n      tag_535\n        /* \"#utility.yul\":24661:24665   */\n      0x1f\n        /* \"#utility.yul\":24653:24659   */\n      dup10\n        /* \"#utility.yul\":24649:24666   */\n      and\n        /* \"#utility.yul\":24638:24647   */\n      dup3\n        /* \"#utility.yul\":24619:24667   */\n      tag_265\n      jump\t// in\n    tag_535:\n        /* \"#utility.yul\":24611:24617   */\n      dup4\n        /* \"#utility.yul\":24604:24668   */\n      sstore\n        /* \"#utility.yul\":24526:24682   */\n      pop\n        /* \"#utility.yul\":24503:24682   */\n    tag_534:\n        /* \"#utility.yul\":24728:24729   */\n      0x01\n        /* \"#utility.yul\":24724:24725   */\n      0x02\n        /* \"#utility.yul\":24716:24722   */\n      dup9\n        /* \"#utility.yul\":24712:24726   */\n      mul\n        /* \"#utility.yul\":24708:24730   */\n      add\n        /* \"#utility.yul\":24702:24706   */\n      dup9\n        /* \"#utility.yul\":24695:24731   */\n      sstore\n        /* \"#utility.yul\":24130:24741   */\n      pop\n      pop\n      pop\n        /* \"#utility.yul\":24093:24980   */\n    tag_526:\n      pop\n        /* \"#utility.yul\":23683:24986   */\n      pop\n      pop\n      pop\n        /* \"#utility.yul\":23591:24986   */\n      pop\n      pop\n      jump\t// out\n        /* \"#utility.yul\":24992:25189   */\n    tag_49:\n        /* \"#utility.yul\":25031:25034   */\n      0x00\n        /* \"#utility.yul\":25050:25069   */\n      tag_537\n        /* \"#utility.yul\":25067:25068   */\n      dup3\n        /* \"#utility.yul\":25050:25069   */\n      tag_211\n      jump\t// in\n    tag_537:\n        /* \"#utility.yul\":25045:25069   */\n      swap2\n      pop\n        /* \"#utility.yul\":25083:25102   */\n      tag_538\n        /* \"#utility.yul\":25100:25101   */\n      dup4\n        /* \"#utility.yul\":25083:25102   */\n      tag_211\n      jump\t// in\n    tag_538:\n        /* \"#utility.yul\":25078:25102   */\n      swap3\n      pop\n        /* \"#utility.yul\":25125:25126   */\n      dup3\n        /* \"#utility.yul\":25122:25123   */\n      dup3\n        /* \"#utility.yul\":25118:25127   */\n      add\n        /* \"#utility.yul\":25111:25127   */\n      swap1\n      pop\n        /* \"#utility.yul\":25148:25158   */\n      0xffffffff\n        /* \"#utility.yul\":25143:25146   */\n      dup2\n        /* \"#utility.yul\":25140:25159   */\n      gt\n        /* \"#utility.yul\":25137:25182   */\n      iszero\n      tag_539\n      jumpi\n        /* \"#utility.yul\":25162:25180   */\n      tag_540\n      tag_250\n      jump\t// in\n    tag_540:\n        /* \"#utility.yul\":25137:25182   */\n    tag_539:\n        /* \"#utility.yul\":24992:25189   */\n      swap3\n      swap2\n      pop\n      pop\n      jump\t// out\n        /* \"#utility.yul\":25195:25335   */\n    tag_267:\n        /* \"#utility.yul\":25244:25253   */\n      0x00\n        /* \"#utility.yul\":25277:25329   */\n      tag_542\n        /* \"#utility.yul\":25295:25328   */\n      tag_543\n        /* \"#utility.yul\":25304:25327   */\n      tag_544\n        /* \"#utility.yul\":25321:25326   */\n      dup5\n        /* \"#utility.yul\":25304:25327   */\n      tag_211\n      jump\t// in\n    tag_544:\n        /* \"#utility.yul\":25295:25328   */\n      tag_256\n      jump\t// in\n    tag_543:\n        /* \"#utility.yul\":25277:25329   */\n      tag_214\n      jump\t// in\n    tag_542:\n        /* \"#utility.yul\":25264:25329   */\n      swap1\n      pop\n        /* \"#utility.yul\":25195:25335   */\n      swap2\n      swap1\n      pop\n      jump\t// out\n        /* \"#utility.yul\":25341:25470   */\n    tag_268:\n        /* \"#utility.yul\":25427:25463   */\n      tag_546\n        /* \"#utility.yul\":25457:25462   */\n      dup2\n        /* \"#utility.yul\":25427:25463   */\n      tag_267\n      jump\t// in\n    tag_546:\n        /* \"#utility.yul\":25422:25425   */\n      dup3\n        /* \"#utility.yul\":25415:25464   */\n      mstore\n        /* \"#utility.yul\":25341:25470   */\n      pop\n      pop\n      jump\t// out\n        /* \"#utility.yul\":25476:26198   */\n    tag_51:\n        /* \"#utility.yul\":25714:25718   */\n      0x00\n        /* \"#utility.yul\":25752:25754   */\n      0x60\n        /* \"#utility.yul\":25741:25750   */\n      dup3\n        /* \"#utility.yul\":25737:25755   */\n      add\n        /* \"#utility.yul\":25729:25755   */\n      swap1\n      pop\n        /* \"#utility.yul\":25801:25810   */\n      dup2\n        /* \"#utility.yul\":25795:25799   */\n      dup2\n        /* \"#utility.yul\":25791:25811   */\n      sub\n        /* \"#utility.yul\":25787:25788   */\n      0x00\n        /* \"#utility.yul\":25776:25785   */\n      dup4\n        /* \"#utility.yul\":25772:25789   */\n      add\n        /* \"#utility.yul\":25765:25812   */\n      mstore\n        /* \"#utility.yul\":25829:25907   */\n      tag_548\n        /* \"#utility.yul\":25902:25906   */\n      dup2\n        /* \"#utility.yul\":25893:25899   */\n      dup7\n        /* \"#utility.yul\":25829:25907   */\n      tag_246\n      jump\t// in\n    tag_548:\n        /* \"#utility.yul\":25821:25907   */\n      swap1\n      pop\n        /* \"#utility.yul\":25954:25963   */\n      dup2\n        /* \"#utility.yul\":25948:25952   */\n      dup2\n        /* \"#utility.yul\":25944:25964   */\n      sub\n        /* \"#utility.yul\":25939:25941   */\n      0x20\n        /* \"#utility.yul\":25928:25937   */\n      dup4\n        /* \"#utility.yul\":25924:25942   */\n      add\n        /* \"#utility.yul\":25917:25965   */\n      mstore\n        /* \"#utility.yul\":25982:26110   */\n      tag_549\n        /* \"#utility.yul\":26105:26109   */\n      dup2\n        /* \"#utility.yul\":26096:26102   */\n      dup6\n        /* \"#utility.yul\":25982:26110   */\n      tag_238\n      jump\t// in\n    tag_549:\n        /* \"#utility.yul\":25974:26110   */\n      swap1\n      pop\n        /* \"#utility.yul\":26120:26191   */\n      tag_550\n        /* \"#utility.yul\":26187:26189   */\n      0x40\n        /* \"#utility.yul\":26176:26185   */\n      dup4\n        /* \"#utility.yul\":26172:26190   */\n      add\n        /* \"#utility.yul\":26163:26169   */\n      dup5\n        /* \"#utility.yul\":26120:26191   */\n      tag_268\n      jump\t// in\n    tag_550:\n        /* \"#utility.yul\":25476:26198   */\n      swap5\n      swap4\n      pop\n      pop\n      pop\n      pop\n      jump\t// out\n        /* \"#utility.yul\":26204:26365   */\n    tag_269:\n        /* \"#utility.yul\":26344:26357   */\n      0x506f6c6c20636c6f736564000000000000000000000000000000000000000000\n        /* \"#utility.yul\":26340:26341   */\n      0x00\n        /* \"#utility.yul\":26332:26338   */\n      dup3\n        /* \"#utility.yul\":26328:26342   */\n      add\n        /* \"#utility.yul\":26321:26358   */\n      mstore\n        /* \"#utility.yul\":26204:26365   */\n      pop\n      jump\t// out\n        /* \"#utility.yul\":26371:26737   */\n    tag_270:\n        /* \"#utility.yul\":26513:26516   */\n      0x00\n        /* \"#utility.yul\":26534:26601   */\n      tag_553\n        /* \"#utility.yul\":26598:26600   */\n      0x0b\n        /* \"#utility.yul\":26593:26596   */\n      dup4\n        /* \"#utility.yul\":26534:26601   */\n      tag_245\n      jump\t// in\n    tag_553:\n        /* \"#utility.yul\":26527:26601   */\n      swap2\n      pop\n        /* \"#utility.yul\":26610:26703   */\n      tag_554\n        /* \"#utility.yul\":26699:26702   */\n      dup3\n        /* \"#utility.yul\":26610:26703   */\n      tag_269\n      jump\t// in\n    tag_554:\n        /* \"#utility.yul\":26728:26730   */\n      0x20\n        /* \"#utility.yul\":26723:26726   */\n      dup3\n        /* \"#utility.yul\":26719:26731   */\n      add\n        /* \"#utility.yul\":26712:26731   */\n      swap1\n      pop\n        /* \"#utility.yul\":26371:26737   */\n      swap2\n      swap1\n      pop\n      jump\t// out\n        /* \"#utility.yul\":26743:27162   */\n    tag_58:\n        /* \"#utility.yul\":26909:26913   */\n      0x00\n        /* \"#utility.yul\":26947:26949   */\n      0x20\n        /* \"#utility.yul\":26936:26945   */\n      dup3\n        /* \"#utility.yul\":26932:26950   */\n      add\n        /* \"#utility.yul\":26924:26950   */\n      swap1\n      pop\n        /* \"#utility.yul\":26996:27005   */\n      dup2\n        /* \"#utility.yul\":26990:26994   */\n      dup2\n        /* \"#utility.yul\":26986:27006   */\n      sub\n        /* \"#utility.yul\":26982:26983   */\n      0x00\n        /* \"#utility.yul\":26971:26980   */\n      dup4\n        /* \"#utility.yul\":26967:26984   */\n      add\n        /* \"#utility.yul\":26960:27007   */\n      mstore\n        /* \"#utility.yul\":27024:27155   */\n      tag_556\n        /* \"#utility.yul\":27150:27154   */\n      dup2\n        /* \"#utility.yul\":27024:27155   */\n      tag_270\n      jump\t// in\n    tag_556:\n        /* \"#utility.yul\":27016:27155   */\n      swap1\n      pop\n        /* \"#utility.yul\":26743:27162   */\n      swap2\n      swap1\n      pop\n      jump\t// out\n        /* \"#utility.yul\":27168:27333   */\n    tag_271:\n        /* \"#utility.yul\":27308:27325   */\n      0x496e76616c696420506f6c6c2049440000000000000000000000000000000000\n        /* \"#utility.yul\":27304:27305   */\n      0x00\n        /* \"#utility.yul\":27296:27302   */\n      dup3\n        /* \"#utility.yul\":27292:27306   */\n      add\n        /* \"#utility.yul\":27285:27326   */\n      mstore\n        /* \"#utility.yul\":27168:27333   */\n      pop\n      jump\t// out\n        /* \"#utility.yul\":27339:27705   */\n    tag_272:\n        /* \"#utility.yul\":27481:27484   */\n      0x00\n        /* \"#utility.yul\":27502:27569   */\n      tag_559\n        /* \"#utility.yul\":27566:27568   */\n      0x0f\n        /* \"#utility.yul\":27561:27564   */\n      dup4\n        /* \"#utility.yul\":27502:27569   */\n      tag_245\n      jump\t// in\n    tag_559:\n        /* \"#utility.yul\":27495:27569   */\n      swap2\n      pop\n        /* \"#utility.yul\":27578:27671   */\n      tag_560\n        /* \"#utility.yul\":27667:27670   */\n      dup3\n        /* \"#utility.yul\":27578:27671   */\n      tag_271\n      jump\t// in\n    tag_560:\n        /* \"#utility.yul\":27696:27698   */\n      0x20\n        /* \"#utility.yul\":27691:27694   */\n      dup3\n        /* \"#utility.yul\":27687:27699   */\n      add\n        /* \"#utility.yul\":27680:27699   */\n      swap1\n      pop\n        /* \"#utility.yul\":27339:27705   */\n      swap2\n      swap1\n      pop\n      jump\t// out\n        /* \"#utility.yul\":27711:28130   */\n    tag_62:\n        /* \"#utility.yul\":27877:27881   */\n      0x00\n        /* \"#utility.yul\":27915:27917   */\n      0x20\n        /* \"#utility.yul\":27904:27913   */\n      dup3\n        /* \"#utility.yul\":27900:27918   */\n      add\n        /* \"#utility.yul\":27892:27918   */\n      swap1\n      pop\n        /* \"#utility.yul\":27964:27973   */\n      dup2\n        /* \"#utility.yul\":27958:27962   */\n      dup2\n        /* \"#utility.yul\":27954:27974   */\n      sub\n        /* \"#utility.yul\":27950:27951   */\n      0x00\n        /* \"#utility.yul\":27939:27948   */\n      dup4\n        /* \"#utility.yul\":27935:27952   */\n      add\n        /* \"#utility.yul\":27928:27975   */\n      mstore\n        /* \"#utility.yul\":27992:28123   */\n      tag_562\n        /* \"#utility.yul\":28118:28122   */\n      dup2\n        /* \"#utility.yul\":27992:28123   */\n      tag_272\n      jump\t// in\n    tag_562:\n        /* \"#utility.yul\":27984:28123   */\n      swap1\n      pop\n        /* \"#utility.yul\":27711:28130   */\n      swap2\n      swap1\n      pop\n      jump\t// out\n        /* \"#utility.yul\":28136:28299   */\n    tag_273:\n        /* \"#utility.yul\":28276:28291   */\n      0x416c726561647920766f74656400000000000000000000000000000000000000\n        /* \"#utility.yul\":28272:28273   */\n      0x00\n        /* \"#utility.yul\":28264:28270   */\n      dup3\n        /* \"#utility.yul\":28260:28274   */\n      add\n        /* \"#utility.yul\":28253:28292   */\n      mstore\n        /* \"#utility.yul\":28136:28299   */\n      pop\n      jump\t// out\n        /* \"#utility.yul\":28305:28671   */\n    tag_274:\n        /* \"#utility.yul\":28447:28450   */\n      0x00\n        /* \"#utility.yul\":28468:28535   */\n      tag_565\n        /* \"#utility.yul\":28532:28534   */\n      0x0d\n        /* \"#utility.yul\":28527:28530   */\n      dup4\n        /* \"#utility.yul\":28468:28535   */\n      tag_245\n      jump\t// in\n    tag_565:\n        /* \"#utility.yul\":28461:28535   */\n      swap2\n      pop\n        /* \"#utility.yul\":28544:28637   */\n      tag_566\n        /* \"#utility.yul\":28633:28636   */\n      dup3\n        /* \"#utility.yul\":28544:28637   */\n      tag_273\n      jump\t// in\n    tag_566:\n        /* \"#utility.yul\":28662:28664   */\n      0x20\n        /* \"#utility.yul\":28657:28660   */\n      dup3\n        /* \"#utility.yul\":28653:28665   */\n      add\n        /* \"#utility.yul\":28646:28665   */\n      swap1\n      pop\n        /* \"#utility.yul\":28305:28671   */\n      swap2\n      swap1\n      pop\n      jump\t// out\n        /* \"#utility.yul\":28677:29096   */\n    tag_68:\n        /* \"#utility.yul\":28843:28847   */\n      0x00\n        /* \"#utility.yul\":28881:28883   */\n      0x20\n        /* \"#utility.yul\":28870:28879   */\n      dup3\n        /* \"#utility.yul\":28866:28884   */\n      add\n        /* \"#utility.yul\":28858:28884   */\n      swap1\n      pop\n        /* \"#utility.yul\":28930:28939   */\n      dup2\n        /* \"#utility.yul\":28924:28928   */\n      dup2\n        /* \"#utility.yul\":28920:28940   */\n      sub\n        /* \"#utility.yul\":28916:28917   */\n      0x00\n        /* \"#utility.yul\":28905:28914   */\n      dup4\n        /* \"#utility.yul\":28901:28918   */\n      add\n        /* \"#utility.yul\":28894:28941   */\n      mstore\n        /* \"#utility.yul\":28958:29089   */\n      tag_568\n        /* \"#utility.yul\":29084:29088   */\n      dup2\n        /* \"#utility.yul\":28958:29089   */\n      tag_274\n      jump\t// in\n    tag_568:\n        /* \"#utility.yul\":28950:29089   */\n      swap1\n      pop\n        /* \"#utility.yul\":28677:29096   */\n      swap2\n      swap1\n      pop\n      jump\t// out\n        /* \"#utility.yul\":29102:29266   */\n    tag_275:\n        /* \"#utility.yul\":29242:29258   */\n      0x496e76616c6964206f7074696f6e000000000000000000000000000000000000\n        /* \"#utility.yul\":29238:29239   */\n      0x00\n        /* \"#utility.yul\":29230:29236   */\n      dup3\n        /* \"#utility.yul\":29226:29240   */\n      add\n        /* \"#utility.yul\":29219:29259   */\n      mstore\n        /* \"#utility.yul\":29102:29266   */\n      pop\n      jump\t// out\n        /* \"#utility.yul\":29272:29638   */\n    tag_276:\n        /* \"#utility.yul\":29414:29417   */\n      0x00\n        /* \"#utility.yul\":29435:29502   */\n      tag_571\n        /* \"#utility.yul\":29499:29501   */\n      0x0e\n        /* \"#utility.yul\":29494:29497   */\n      dup4\n        /* \"#utility.yul\":29435:29502   */\n      tag_245\n      jump\t// in\n    tag_571:\n        /* \"#utility.yul\":29428:29502   */\n      swap2\n      pop\n        /* \"#utility.yul\":29511:29604   */\n      tag_572\n        /* \"#utility.yul\":29600:29603   */\n      dup3\n        /* \"#utility.yul\":29511:29604   */\n      tag_275\n      jump\t// in\n    tag_572:\n        /* \"#utility.yul\":29629:29631   */\n      0x20\n        /* \"#utility.yul\":29624:29627   */\n      dup3\n        /* \"#utility.yul\":29620:29632   */\n      add\n        /* \"#utility.yul\":29613:29632   */\n      swap1\n      pop\n        /* \"#utility.yul\":29272:29638   */\n      swap2\n      swap1\n      pop\n      jump\t// out\n        /* \"#utility.yul\":29644:30063   */\n    tag_82:\n        /* \"#utility.yul\":29810:29814   */\n      0x00\n        /* \"#utility.yul\":29848:29850   */\n      0x20\n        /* \"#utility.yul\":29837:29846   */\n      dup3\n        /* \"#utility.yul\":29833:29851   */\n      add\n        /* \"#utility.yul\":29825:29851   */\n      swap1\n      pop\n        /* \"#utility.yul\":29897:29906   */\n      dup2\n        /* \"#utility.yul\":29891:29895   */\n      dup2\n        /* \"#utility.yul\":29887:29907   */\n      sub\n        /* \"#utility.yul\":29883:29884   */\n      0x00\n        /* \"#utility.yul\":29872:29881   */\n      dup4\n        /* \"#utility.yul\":29868:29885   */\n      add\n        /* \"#utility.yul\":29861:29908   */\n      mstore\n        /* \"#utility.yul\":29925:30056   */\n      tag_574\n        /* \"#utility.yul\":30051:30055   */\n      dup2\n        /* \"#utility.yul\":29925:30056   */\n      tag_276\n      jump\t// in\n    tag_574:\n        /* \"#utility.yul\":29917:30056   */\n      swap1\n      pop\n        /* \"#utility.yul\":29644:30063   */\n      swap2\n      swap1\n      pop\n      jump\t// out\n        /* \"#utility.yul\":30069:30217   */\n    tag_277:\n        /* \"#utility.yul\":30171:30182   */\n      0x00\n        /* \"#utility.yul\":30208:30211   */\n      dup2\n        /* \"#utility.yul\":30193:30211   */\n      swap1\n      pop\n        /* \"#utility.yul\":30069:30217   */\n      swap3\n      swap2\n      pop\n      pop\n      jump\t// out\n        /* \"#utility.yul\":30223:30613   */\n    tag_278:\n        /* \"#utility.yul\":30329:30332   */\n      0x00\n        /* \"#utility.yul\":30357:30396   */\n      tag_577\n        /* \"#utility.yul\":30390:30395   */\n      dup3\n        /* \"#utility.yul\":30357:30396   */\n      tag_221\n      jump\t// in\n    tag_577:\n        /* \"#utility.yul\":30412:30501   */\n      tag_578\n        /* \"#utility.yul\":30494:30500   */\n      dup2\n        /* \"#utility.yul\":30489:30492   */\n      dup6\n        /* \"#utility.yul\":30412:30501   */\n      tag_277\n      jump\t// in\n    tag_578:\n        /* \"#utility.yul\":30405:30501   */\n      swap4\n      pop\n        /* \"#utility.yul\":30510:30575   */\n      tag_579\n        /* \"#utility.yul\":30568:30574   */\n      dup2\n        /* \"#utility.yul\":30563:30566   */\n      dup6\n        /* \"#utility.yul\":30556:30560   */\n      0x20\n        /* \"#utility.yul\":30549:30554   */\n      dup7\n        /* \"#utility.yul\":30545:30561   */\n      add\n        /* \"#utility.yul\":30510:30575   */\n      tag_223\n      jump\t// in\n    tag_579:\n        /* \"#utility.yul\":30600:30606   */\n      dup1\n        /* \"#utility.yul\":30595:30598   */\n      dup5\n        /* \"#utility.yul\":30591:30607   */\n      add\n        /* \"#utility.yul\":30584:30607   */\n      swap2\n      pop\n        /* \"#utility.yul\":30333:30613   */\n      pop\n        /* \"#utility.yul\":30223:30613   */\n      swap3\n      swap2\n      pop\n      pop\n      jump\t// out\n        /* \"#utility.yul\":30619:30894   */\n    tag_84:\n        /* \"#utility.yul\":30751:30754   */\n      0x00\n        /* \"#utility.yul\":30773:30868   */\n      tag_581\n        /* \"#utility.yul\":30864:30867   */\n      dup3\n        /* \"#utility.yul\":30855:30861   */\n      dup5\n        /* \"#utility.yul\":30773:30868   */\n      tag_278\n      jump\t// in\n    tag_581:\n        /* \"#utility.yul\":30766:30868   */\n      swap2\n      pop\n        /* \"#utility.yul\":30885:30888   */\n      dup2\n        /* \"#utility.yul\":30878:30888   */\n      swap1\n      pop\n        /* \"#utility.yul\":30619:30894   */\n      swap3\n      swap2\n      pop\n      pop\n      jump\t// out\n        /* \"#utility.yul\":30900:31133   */\n    tag_86:\n        /* \"#utility.yul\":30939:30942   */\n      0x00\n        /* \"#utility.yul\":30962:30986   */\n      tag_583\n        /* \"#utility.yul\":30980:30985   */\n      dup3\n        /* \"#utility.yul\":30962:30986   */\n      tag_214\n      jump\t// in\n    tag_583:\n        /* \"#utility.yul\":30953:30986   */\n      swap2\n      pop\n        /* \"#utility.yul\":31008:31074   */\n      0xffffffffffffffffffffffffffffffffffffffffffffffffffffffffffffffff\n        /* \"#utility.yul\":31001:31006   */\n      dup3\n        /* \"#utility.yul\":30998:31075   */\n      sub\n        /* \"#utility.yul\":30995:31098   */\n      tag_584\n      jumpi\n        /* \"#utility.yul\":31078:31096   */\n      tag_585\n      tag_250\n      jump\t// in\n    tag_585:\n        /* \"#utility.yul\":30995:31098   */\n    tag_584:\n        /* \"#utility.yul\":31125:31126   */\n      0x01\n        /* \"#utility.yul\":31118:31123   */\n      dup3\n        /* \"#utility.yul\":31114:31127   */\n      add\n        /* \"#utility.yul\":31107:31127   */\n      swap1\n      pop\n        /* \"#utility.yul\":30900:31133   */\n      swap2\n      swap1\n      pop\n      jump\t// out\n        /* \"#utility.yul\":31139:31265   */\n    tag_279:\n        /* \"#utility.yul\":31176:31183   */\n      0x00\n        /* \"#utility.yul\":31216:31258   */\n      0xffffffffffffffffffffffffffffffffffffffff\n        /* \"#utility.yul\":31209:31214   */\n      dup3\n        /* \"#utility.yul\":31205:31259   */\n      and\n        /* \"#utility.yul\":31194:31259   */\n      swap1\n      pop\n        /* \"#utility.yul\":31139:31265   */\n      swap2\n      swap1\n      pop\n      jump\t// out\n        /* \"#utility.yul\":31271:31367   */\n    tag_280:\n        /* \"#utility.yul\":31308:31315   */\n      0x00\n        /* \"#utility.yul\":31337:31361   */\n      tag_588\n        /* \"#utility.yul\":31355:31360   */\n      dup3\n        /* \"#utility.yul\":31337:31361   */\n      tag_279\n      jump\t// in\n    tag_588:\n        /* \"#utility.yul\":31326:31361   */\n      swap1\n      pop\n        /* \"#utility.yul\":31271:31367   */\n      swap2\n      swap1\n      pop\n      jump\t// out\n        /* \"#utility.yul\":31373:31467   */\n    tag_281:\n        /* \"#utility.yul\":31406:31414   */\n      0x00\n        /* \"#utility.yul\":31454:31459   */\n      dup2\n        /* \"#utility.yul\":31450:31452   */\n      0x60\n        /* \"#utility.yul\":31446:31460   */\n      shl\n        /* \"#utility.yul\":31425:31460   */\n      swap1\n      pop\n        /* \"#utility.yul\":31373:31467   */\n      swap2\n      swap1\n      pop\n      jump\t// out\n        /* \"#utility.yul\":31473:31567   */\n    tag_282:\n        /* \"#utility.yul\":31512:31519   */\n      0x00\n        /* \"#utility.yul\":31541:31561   */\n      tag_591\n        /* \"#utility.yul\":31555:31560   */\n      dup3\n        /* \"#utility.yul\":31541:31561   */\n      tag_281\n      jump\t// in\n    tag_591:\n        /* \"#utility.yul\":31530:31561   */\n      swap1\n      pop\n        /* \"#utility.yul\":31473:31567   */\n      swap2\n      swap1\n      pop\n      jump\t// out\n        /* \"#utility.yul\":31573:31673   */\n    tag_283:\n        /* \"#utility.yul\":31612:31619   */\n      0x00\n        /* \"#utility.yul\":31641:31667   */\n      tag_593\n        /* \"#utility.yul\":31661:31666   */\n      dup3\n        /* \"#utility.yul\":31641:31667   */\n      tag_282\n      jump\t// in\n    tag_593:\n        /* \"#utility.yul\":31630:31667   */\n      swap1\n      pop\n        /* \"#utility.yul\":31573:31673   */\n      swap2\n      swap1\n      pop\n      jump\t// out\n        /* \"#utility.yul\":31679:31836   */\n    tag_284:\n        /* \"#utility.yul\":31784:31829   */\n      tag_595\n        /* \"#utility.yul\":31804:31828   */\n      tag_596\n        /* \"#utility.yul\":31822:31827   */\n      dup3\n        /* \"#utility.yul\":31804:31828   */\n      tag_280\n      jump\t// in\n    tag_596:\n        /* \"#utility.yul\":31784:31829   */\n      tag_283\n      jump\t// in\n    tag_595:\n        /* \"#utility.yul\":31779:31782   */\n      dup3\n        /* \"#utility.yul\":31772:31830   */\n      mstore\n        /* \"#utility.yul\":31679:31836   */\n      pop\n      pop\n      jump\t// out\n        /* \"#utility.yul\":31842:32003   */\n    tag_285:\n        /* \"#utility.yul\":31982:31995   */\n      0x2068617320766f7465642e000000000000000000000000000000000000000000\n        /* \"#utility.yul\":31978:31979   */\n      0x00\n        /* \"#utility.yul\":31970:31976   */\n      dup3\n        /* \"#utility.yul\":31966:31980   */\n      add\n        /* \"#utility.yul\":31959:31996   */\n      mstore\n        /* \"#utility.yul\":31842:32003   */\n      pop\n      jump\t// out\n        /* \"#utility.yul\":32009:32411   */\n    tag_286:\n        /* \"#utility.yul\":32169:32172   */\n      0x00\n        /* \"#utility.yul\":32190:32275   */\n      tag_599\n        /* \"#utility.yul\":32272:32274   */\n      0x0b\n        /* \"#utility.yul\":32267:32270   */\n      dup4\n        /* \"#utility.yul\":32190:32275   */\n      tag_277\n      jump\t// in\n    tag_599:\n        /* \"#utility.yul\":32183:32275   */\n      swap2\n      pop\n        /* \"#utility.yul\":32284:32377   */\n      tag_600\n        /* \"#utility.yul\":32373:32376   */\n      dup3\n        /* \"#utility.yul\":32284:32377   */\n      tag_285\n      jump\t// in\n    tag_600:\n        /* \"#utility.yul\":32402:32404   */\n      0x0b\n        /* \"#utility.yul\":32397:32400   */\n      dup3\n        /* \"#utility.yul\":32393:32405   */\n      add\n        /* \"#utility.yul\":32386:32405   */\n      swap1\n      pop\n        /* \"#utility.yul\":32009:32411   */\n      swap2\n      swap1\n      pop\n      jump\t// out\n        /* \"#utility.yul\":32417:32939   */\n    tag_88:\n        /* \"#utility.yul\":32630:32633   */\n      0x00\n        /* \"#utility.yul\":32645:32720   */\n      tag_602\n        /* \"#utility.yul\":32716:32719   */\n      dup3\n        /* \"#utility.yul\":32707:32713   */\n      dup5\n        /* \"#utility.yul\":32645:32720   */\n      tag_284\n      jump\t// in\n    tag_602:\n        /* \"#utility.yul\":32745:32747   */\n      0x14\n        /* \"#utility.yul\":32740:32743   */\n      dup3\n        /* \"#utility.yul\":32736:32748   */\n      add\n        /* \"#utility.yul\":32729:32748   */\n      swap2\n      pop\n        /* \"#utility.yul\":32765:32913   */\n      tag_603\n        /* \"#utility.yul\":32909:32912   */\n      dup3\n        /* \"#utility.yul\":32765:32913   */\n      tag_286\n      jump\t// in\n    tag_603:\n        /* \"#utility.yul\":32758:32913   */\n      swap2\n      pop\n        /* \"#utility.yul\":32930:32933   */\n      dup2\n        /* \"#utility.yul\":32923:32933   */\n      swap1\n      pop\n        /* \"#utility.yul\":32417:32939   */\n      swap3\n      swap2\n      pop\n      pop\n      jump\t// out\n        /* \"#utility.yul\":32945:33043   */\n    tag_287:\n        /* \"#utility.yul\":32996:33002   */\n      0x00\n        /* \"#utility.yul\":33030:33035   */\n      dup2\n        /* \"#utility.yul\":33024:33036   */\n      mload\n        /* \"#utility.yul\":33014:33036   */\n      swap1\n      pop\n        /* \"#utility.yul\":32945:33043   */\n      swap2\n      swap1\n      pop\n      jump\t// out\n        /* \"#utility.yul\":33049:33217   */\n    tag_288:\n        /* \"#utility.yul\":33132:33143   */\n      0x00\n        /* \"#utility.yul\":33166:33172   */\n      dup3\n        /* \"#utility.yul\":33161:33164   */\n      dup3\n        /* \"#utility.yul\":33154:33173   */\n      mstore\n        /* \"#utility.yul\":33206:33210   */\n      0x20\n        /* \"#utility.yul\":33201:33204   */\n      dup3\n        /* \"#utility.yul\":33197:33211   */\n      add\n        /* \"#utility.yul\":33182:33211   */\n      swap1\n      pop\n        /* \"#utility.yul\":33049:33217   */\n      swap3\n      swap2\n      pop\n      pop\n      jump\t// out\n        /* \"#utility.yul\":33223:33596   */\n    tag_289:\n        /* \"#utility.yul\":33309:33312   */\n      0x00\n        /* \"#utility.yul\":33337:33375   */\n      tag_607\n        /* \"#utility.yul\":33369:33374   */\n      dup3\n        /* \"#utility.yul\":33337:33375   */\n      tag_287\n      jump\t// in\n    tag_607:\n        /* \"#utility.yul\":33391:33461   */\n      tag_608\n        /* \"#utility.yul\":33454:33460   */\n      dup2\n        /* \"#utility.yul\":33449:33452   */\n      dup6\n        /* \"#utility.yul\":33391:33461   */\n      tag_288\n      jump\t// in\n    tag_608:\n        /* \"#utility.yul\":33384:33461   */\n      swap4\n      pop\n        /* \"#utility.yul\":33470:33535   */\n      tag_609\n        /* \"#utility.yul\":33528:33534   */\n      dup2\n        /* \"#utility.yul\":33523:33526   */\n      dup6\n        /* \"#utility.yul\":33516:33520   */\n      0x20\n        /* \"#utility.yul\":33509:33514   */\n      dup7\n        /* \"#utility.yul\":33505:33521   */\n      add\n        /* \"#utility.yul\":33470:33535   */\n      tag_223\n      jump\t// in\n    tag_609:\n        /* \"#utility.yul\":33560:33589   */\n      tag_610\n        /* \"#utility.yul\":33582:33588   */\n      dup2\n        /* \"#utility.yul\":33560:33589   */\n      tag_200\n      jump\t// in\n    tag_610:\n        /* \"#utility.yul\":33555:33558   */\n      dup5\n        /* \"#utility.yul\":33551:33590   */\n      add\n        /* \"#utility.yul\":33544:33590   */\n      swap2\n      pop\n        /* \"#utility.yul\":33313:33596   */\n      pop\n        /* \"#utility.yul\":33223:33596   */\n      swap3\n      swap2\n      pop\n      pop\n      jump\t// out\n        /* \"#utility.yul\":33602:33911   */\n    tag_90:\n        /* \"#utility.yul\":33713:33717   */\n      0x00\n        /* \"#utility.yul\":33751:33753   */\n      0x20\n        /* \"#utility.yul\":33740:33749   */\n      dup3\n        /* \"#utility.yul\":33736:33754   */\n      add\n        /* \"#utility.yul\":33728:33754   */\n      swap1\n      pop\n        /* \"#utility.yul\":33800:33809   */\n      dup2\n        /* \"#utility.yul\":33794:33798   */\n      dup2\n        /* \"#utility.yul\":33790:33810   */\n      sub\n        /* \"#utility.yul\":33786:33787   */\n      0x00\n        /* \"#utility.yul\":33775:33784   */\n      dup4\n        /* \"#utility.yul\":33771:33788   */\n      add\n        /* \"#utility.yul\":33764:33811   */\n      mstore\n        /* \"#utility.yul\":33828:33904   */\n      tag_612\n        /* \"#utility.yul\":33899:33903   */\n      dup2\n        /* \"#utility.yul\":33890:33896   */\n      dup5\n        /* \"#utility.yul\":33828:33904   */\n      tag_289\n      jump\t// in\n    tag_612:\n        /* \"#utility.yul\":33820:33904   */\n      swap1\n      pop\n        /* \"#utility.yul\":33602:33911   */\n      swap3\n      swap2\n      pop\n      pop\n      jump\t// out\n        /* \"#utility.yul\":33941:34815   */\n    tag_290:\n        /* \"#utility.yul\":34044:34047   */\n      0x00\n        /* \"#utility.yul\":34081:34086   */\n      dup2\n        /* \"#utility.yul\":34075:34087   */\n      sload\n        /* \"#utility.yul\":34110:34146   */\n      tag_614\n        /* \"#utility.yul\":34136:34145   */\n      dup2\n        /* \"#utility.yul\":34110:34146   */\n      tag_74\n      jump\t// in\n    tag_614:\n        /* \"#utility.yul\":34162:34251   */\n      tag_615\n        /* \"#utility.yul\":34244:34250   */\n      dup2\n        /* \"#utility.yul\":34239:34242   */\n      dup7\n        /* \"#utility.yul\":34162:34251   */\n      tag_277\n      jump\t// in\n    tag_615:\n        /* \"#utility.yul\":34155:34251   */\n      swap5\n      pop\n        /* \"#utility.yul\":34282:34283   */\n      0x01\n        /* \"#utility.yul\":34271:34280   */\n      dup3\n        /* \"#utility.yul\":34267:34284   */\n      and\n        /* \"#utility.yul\":34298:34299   */\n      0x00\n        /* \"#utility.yul\":34293:34459   */\n      dup2\n      eq\n      tag_617\n      jumpi\n        /* \"#utility.yul\":34473:34474   */\n      0x01\n        /* \"#utility.yul\":34468:34809   */\n      dup2\n      eq\n      tag_618\n      jumpi\n        /* \"#utility.yul\":34260:34809   */\n      jump(tag_616)\n        /* \"#utility.yul\":34293:34459   */\n    tag_617:\n        /* \"#utility.yul\":34377:34381   */\n      0xff\n        /* \"#utility.yul\":34373:34382   */\n      not\n        /* \"#utility.yul\":34362:34371   */\n      dup4\n        /* \"#utility.yul\":34358:34383   */\n      and\n        /* \"#utility.yul\":34353:34356   */\n      dup7\n        /* \"#utility.yul\":34346:34384   */\n      mstore\n        /* \"#utility.yul\":34439:34445   */\n      dup2\n        /* \"#utility.yul\":34432:34446   */\n      iszero\n        /* \"#utility.yul\":34425:34447   */\n      iszero\n        /* \"#utility.yul\":34417:34423   */\n      dup3\n        /* \"#utility.yul\":34413:34448   */\n      mul\n        /* \"#utility.yul\":34408:34411   */\n      dup7\n        /* \"#utility.yul\":34404:34449   */\n      add\n        /* \"#utility.yul\":34397:34449   */\n      swap4\n      pop\n        /* \"#utility.yul\":34293:34459   */\n      jump(tag_616)\n        /* \"#utility.yul\":34468:34809   */\n    tag_618:\n        /* \"#utility.yul\":34535:34573   */\n      tag_619\n        /* \"#utility.yul\":34567:34572   */\n      dup6\n        /* \"#utility.yul\":34535:34573   */\n      tag_252\n      jump\t// in\n    tag_619:\n        /* \"#utility.yul\":34595:34596   */\n      0x00\n        /* \"#utility.yul\":34609:34763   */\n    tag_620:\n        /* \"#utility.yul\":34623:34629   */\n      dup4\n        /* \"#utility.yul\":34620:34621   */\n      dup2\n        /* \"#utility.yul\":34617:34630   */\n      lt\n        /* \"#utility.yul\":34609:34763   */\n      iszero\n      tag_622\n      jumpi\n        /* \"#utility.yul\":34697:34704   */\n      dup2\n        /* \"#utility.yul\":34691:34705   */\n      sload\n        /* \"#utility.yul\":34687:34688   */\n      dup2\n        /* \"#utility.yul\":34682:34685   */\n      dup10\n        /* \"#utility.yul\":34678:34689   */\n      add\n        /* \"#utility.yul\":34671:34706   */\n      mstore\n        /* \"#utility.yul\":34747:34748   */\n      0x01\n        /* \"#utility.yul\":34738:34745   */\n      dup3\n        /* \"#utility.yul\":34734:34749   */\n      add\n        /* \"#utility.yul\":34723:34749   */\n      swap2\n      pop\n        /* \"#utility.yul\":34645:34649   */\n      0x20\n        /* \"#utility.yul\":34642:34643   */\n      dup2\n        /* \"#utility.yul\":34638:34650   */\n      add\n        /* \"#utility.yul\":34633:34650   */\n      swap1\n      pop\n        /* \"#utility.yul\":34609:34763   */\n      jump(tag_620)\n    tag_622:\n        /* \"#utility.yul\":34792:34798   */\n      dup4\n        /* \"#utility.yul\":34787:34790   */\n      dup9\n        /* \"#utility.yul\":34783:34799   */\n      add\n        /* \"#utility.yul\":34776:34799   */\n      swap6\n      pop\n        /* \"#utility.yul\":34475:34809   */\n      pop\n      pop\n        /* \"#utility.yul\":34260:34809   */\n    tag_616:\n      pop\n        /* \"#utility.yul\":34048:34815   */\n      pop\n      pop\n        /* \"#utility.yul\":33941:34815   */\n      swap3\n      swap2\n      pop\n      pop\n      jump\t// out\n        /* \"#utility.yul\":34821:35090   */\n    tag_153:\n        /* \"#utility.yul\":34950:34953   */\n      0x00\n        /* \"#utility.yul\":34972:35064   */\n      tag_624\n        /* \"#utility.yul\":35060:35063   */\n      dup3\n        /* \"#utility.yul\":35051:35057   */\n      dup5\n        /* \"#utility.yul\":34972:35064   */\n      tag_290\n      jump\t// in\n    tag_624:\n        /* \"#utility.yul\":34965:35064   */\n      swap2\n      pop\n        /* \"#utility.yul\":35081:35084   */\n      dup2\n        /* \"#utility.yul\":35074:35084   */\n      swap1\n      pop\n        /* \"#utility.yul\":34821:35090   */\n      swap3\n      swap2\n      pop\n      pop\n      jump\t// out\n\n    auxdata: 0xa2646970667358221220a4281a786640e51d822a61c51817befb1afc057487bf510cb4a2b47df2a6d29664736f6c634300081a0033\n}\n",
				"bytecode": {
					"linkReferences": {},
					"object": "6080604052348015600e575f80fd5b50611dec8061001c5f395ff3fe608060405234801561000f575f80fd5b5060043610610055575f3560e01c80631f252a8e14610059578063241084751461008957806363a9492f146100a557806381a60c0d146100c3578063ac2f0074146100f4575b5f80fd5b610073600480360381019061006e9190610f63565b610125565b6040516100809190611003565b60405180910390f35b6100a3600480360381019061009e9190611046565b610258565b005b6100ad6105c6565b6040516100ba91906112fb565b60405180910390f35b6100dd60048036038101906100d8919061131b565b610905565b6040516100eb929190611471565b60405180910390f35b61010e6004803603810190610109919061131b565b610ad7565b60405161011c9291906114fd565b60405180910390f35b5f80835111610169576040517f08c379a000000000000000000000000000000000000000000000000000000000815260040161016090611575565b60405180910390fd5b5f60018160018154018082558091505003905f5260205f209050505f60015f8054905061019691906115c0565b90505f8082815481106101ac576101ab6115f3565b5b905f5260205f209060050201905085815f0190816101ca919061181a565b50848160010190805190602001906101e3929190610bfd565b5083426101f091906118e9565b816002015f6101000a81548163ffffffff021916908363ffffffff1602179055507f1ededd90e900e0bd1754831e81e2f375c8a8fbc71eeeb8d6610ae6ec1afc880e86868660405161024493929190611950565b60405180910390a181925050509392505050565b815f818154811061026c5761026b6115f3565b5b905f5260205f2090600502016002015f9054906101000a900463ffffffff1663ffffffff1642106102d2576040517f08c379a00000000000000000000000000000000000000000000000000000000081526004016102c9906119dd565b60405180910390fd5b5f80549050831115610319576040517f08c379a000000000000000000000000000000000000000000000000000000000815260040161031090611a45565b60405180910390fd5b5f80848154811061032d5761032c6115f3565b5b905f5260205f2090600502019050806004015f3373ffffffffffffffffffffffffffffffffffffffff1673ffffffffffffffffffffffffffffffffffffffff1681526020019081526020015f205f9054906101000a900460ff16156103c7576040517f08c379a00000000000000000000000000000000000000000000000000000000081526004016103be90611aad565b60405180910390fd5b61049f81600101805480602002602001604051908101604052809291908181526020015f905b82821015610495578382905f5260205f2001805461040a9061164d565b80601f01602080910402602001604051908101604052809291908181526020018280546104369061164d565b80156104815780601f1061045857610100808354040283529160200191610481565b820191905f5260205f20905b81548152906001019060200180831161046457829003601f168201915b5050505050815260200190600101906103ed565b5050505084610b9a565b6104de576040517f08c379a00000000000000000000000000000000000000000000000000000000081526004016104d590611b15565b60405180910390fd5b80600301836040516104f09190611b6d565b90815260200160405180910390205f81548092919061050e90611b83565b91905055506001816004015f3373ffffffffffffffffffffffffffffffffffffffff1673ffffffffffffffffffffffffffffffffffffffff1681526020019081526020015f205f6101000a81548160ff0219169083151502179055507f038712374569e245b0d09fa173eb0b0392e784f9cc7895e53b879dc1f6ef9c2a3360405160200161059c9190611c89565b6040516020818303038152906040526040516105b89190611d00565b60405180910390a150505050565b60605f805b5f8054905081101561063157425f82815481106105eb576105ea6115f3565b5b905f5260205f2090600502016002015f9054906101000a900463ffffffff1663ffffffff161061062457818061062090611b83565b9250505b80806001019150506105cb565b505f8167ffffffffffffffff81111561064d5761064c610d24565b5b60405190808252806020026020018201604052801561068657816020015b610673610c54565b81526020019060019003908161066b5790505b5090505f805b5f805490508110156108fb57425f82815481106106ac576106ab6115f3565b5b905f5260205f2090600502016002015f9054906101000a900463ffffffff1663ffffffff16106108ee5760405180608001604052805f83815481106106f4576106f36115f3565b5b905f5260205f2090600502015f01805461070d9061164d565b80601f01602080910402602001604051908101604052809291908181526020018280546107399061164d565b80156107845780601f1061075b57610100808354040283529160200191610784565b820191905f5260205f20905b81548152906001019060200180831161076757829003601f168201915b505050505081526020015f83815481106107a1576107a06115f3565b5b905f5260205f209060050201600101805480602002602001604051908101604052809291908181526020015f905b82821015610877578382905f5260205f200180546107ec9061164d565b80601f01602080910402602001604051908101604052809291908181526020018280546108189061164d565b80156108635780601f1061083a57610100808354040283529160200191610863565b820191905f5260205f20905b81548152906001019060200180831161084657829003601f168201915b5050505050815260200190600101906107cf565b5050505081526020015f8381548110610893576108926115f3565b5b905f5260205f2090600502016002015f9054906101000a900463ffffffff1663ffffffff168152602001828152508383815181106108d4576108d36115f3565b5b602002602001018190525081806108ea90611b83565b9250505b808060010191505061068c565b5081935050505090565b6060805f80848154811061091c5761091b6115f3565b5b905f5260205f20906005020190505f816001018054905067ffffffffffffffff81111561094c5761094b610d24565b5b60405190808252806020026020018201604052801561097a5781602001602082028036833780820191505090505b5090505f5b82600101805490508110156109f857826003018360010182815481106109a8576109a76115f3565b5b905f5260205f20016040516109bd9190611da0565b9081526020016040518091039020548282815181106109df576109de6115f3565b5b602002602001018181525050808060010191505061097f565b50816001018181805480602002602001604051908101604052809291908181526020015f905b82821015610ac6578382905f5260205f20018054610a3b9061164d565b80601f0160208091040260200160405190810160405280929190818152602001828054610a679061164d565b8015610ab25780601f10610a8957610100808354040283529160200191610ab2565b820191905f5260205f20905b815481529060010190602001808311610a9557829003601f168201915b505050505081526020019060010190610a1e565b505050509150935093505050915091565b5f8181548110610ae5575f80fd5b905f5260205f2090600502015f91509050805f018054610b049061164d565b80601f0160208091040260200160405190810160405280929190818152602001828054610b309061164d565b8015610b7b5780601f10610b5257610100808354040283529160200191610b7b565b820191905f5260205f20905b815481529060010190602001808311610b5e57829003601f168201915b505050505090806002015f9054906101000a900463ffffffff16905082565b5f80828051906020012090505f5b8451811015610bf15781858281518110610bc557610bc46115f3565b5b60200260200101518051906020012003610be457600192505050610bf7565b8080600101915050610ba8565b505f9150505b92915050565b828054828255905f5260205f20908101928215610c43579160200282015b82811115610c42578251829081610c32919061181a565b5091602001919060010190610c1b565b5b509050610c509190610c80565b5090565b604051806080016040528060608152602001606081526020015f63ffffffff1681526020015f81525090565b5b80821115610c9f575f8181610c969190610ca3565b50600101610c81565b5090565b508054610caf9061164d565b5f825580601f10610cc05750610cdd565b601f0160209004905f5260205f2090810190610cdc9190610ce0565b5b50565b5b80821115610cf7575f815f905550600101610ce1565b5090565b5f604051905090565b5f80fd5b5f80fd5b5f80fd5b5f80fd5b5f601f19601f8301169050919050565b7f4e487b71000000000000000000000000000000000000000000000000000000005f52604160045260245ffd5b610d5a82610d14565b810181811067ffffffffffffffff82111715610d7957610d78610d24565b5b80604052505050565b5f610d8b610cfb565b9050610d978282610d51565b919050565b5f67ffffffffffffffff821115610db657610db5610d24565b5b610dbf82610d14565b9050602081019050919050565b828183375f83830152505050565b5f610dec610de784610d9c565b610d82565b905082815260208101848484011115610e0857610e07610d10565b5b610e13848285610dcc565b509392505050565b5f82601f830112610e2f57610e2e610d0c565b5b8135610e3f848260208601610dda565b91505092915050565b5f67ffffffffffffffff821115610e6257610e61610d24565b5b602082029050602081019050919050565b5f80fd5b5f610e89610e8484610e48565b610d82565b90508083825260208201905060208402830185811115610eac57610eab610e73565b5b835b81811015610ef357803567ffffffffffffffff811115610ed157610ed0610d0c565b5b808601610ede8982610e1b565b85526020850194505050602081019050610eae565b5050509392505050565b5f82601f830112610f1157610f10610d0c565b5b8135610f21848260208601610e77565b91505092915050565b5f63ffffffff82169050919050565b610f4281610f2a565b8114610f4c575f80fd5b50565b5f81359050610f5d81610f39565b92915050565b5f805f60608486031215610f7a57610f79610d04565b5b5f84013567ffffffffffffffff811115610f9757610f96610d08565b5b610fa386828701610e1b565b935050602084013567ffffffffffffffff811115610fc457610fc3610d08565b5b610fd086828701610efd565b9250506040610fe186828701610f4f565b9150509250925092565b5f819050919050565b610ffd81610feb565b82525050565b5f6020820190506110165f830184610ff4565b92915050565b61102581610feb565b811461102f575f80fd5b50565b5f813590506110408161101c565b92915050565b5f806040838503121561105c5761105b610d04565b5b5f61106985828601611032565b925050602083013567ffffffffffffffff81111561108a57611089610d08565b5b61109685828601610e1b565b9150509250929050565b5f81519050919050565b5f82825260208201905092915050565b5f819050602082019050919050565b5f81519050919050565b5f82825260208201905092915050565b8281835e5f83830152505050565b5f6110fb826110c9565b61110581856110d3565b93506111158185602086016110e3565b61111e81610d14565b840191505092915050565b5f81519050919050565b5f82825260208201905092915050565b5f819050602082019050919050565b5f61115d83836110f1565b905092915050565b5f602082019050919050565b5f61117b82611129565b6111858185611133565b93508360208202850161119785611143565b805f5b858110156111d257848403895281516111b38582611152565b94506111be83611165565b925060208a0199505060018101905061119a565b50829750879550505050505092915050565b6111ed81610f2a565b82525050565b6111fc81610feb565b82525050565b5f608083015f8301518482035f86015261121c82826110f1565b915050602083015184820360208601526112368282611171565b915050604083015161124b60408601826111e4565b50606083015161125e60608601826111f3565b508091505092915050565b5f6112748383611202565b905092915050565b5f602082019050919050565b5f611292826110a0565b61129c81856110aa565b9350836020820285016112ae856110ba565b805f5b858110156112e957848403895281516112ca8582611269565b94506112d58361127c565b925060208a019950506001810190506112b1565b50829750879550505050505092915050565b5f6020820190508181035f8301526113138184611288565b905092915050565b5f602082840312156113305761132f610d04565b5b5f61133d84828501611032565b91505092915050565b5f82825260208201905092915050565b5f61136082611129565b61136a8185611346565b93508360208202850161137c85611143565b805f5b858110156113b757848403895281516113988582611152565b94506113a383611165565b925060208a0199505060018101905061137f565b50829750879550505050505092915050565b5f81519050919050565b5f82825260208201905092915050565b5f819050602082019050919050565b5f6113fd83836111f3565b60208301905092915050565b5f602082019050919050565b5f61141f826113c9565b61142981856113d3565b9350611434836113e3565b805f5b8381101561146457815161144b88826113f2565b975061145683611409565b925050600181019050611437565b5085935050505092915050565b5f6040820190508181035f8301526114898185611356565b9050818103602083015261149d8184611415565b90509392505050565b5f82825260208201905092915050565b5f6114c0826110c9565b6114ca81856114a6565b93506114da8185602086016110e3565b6114e381610d14565b840191505092915050565b6114f781610f2a565b82525050565b5f6040820190508181035f83015261151581856114b6565b905061152460208301846114ee565b9392505050565b7f4e6f206f7074696f6e732070726f7669646564000000000000000000000000005f82015250565b5f61155f6013836114a6565b915061156a8261152b565b602082019050919050565b5f6020820190508181035f83015261158c81611553565b9050919050565b7f4e487b71000000000000000000000000000000000000000000000000000000005f52601160045260245ffd5b5f6115ca82610feb565b91506115d583610feb565b92508282039050818111156115ed576115ec611593565b5b92915050565b7f4e487b71000000000000000000000000000000000000000000000000000000005f52603260045260245ffd5b7f4e487b71000000000000000000000000000000000000000000000000000000005f52602260045260245ffd5b5f600282049050600182168061166457607f821691505b60208210810361167757611676611620565b5b50919050565b5f819050815f5260205f209050919050565b5f6020601f8301049050919050565b5f82821b905092915050565b5f600883026116d97fffffffffffffffffffffffffffffffffffffffffffffffffffffffffffffffff8261169e565b6116e3868361169e565b95508019841693508086168417925050509392505050565b5f819050919050565b5f61171e61171961171484610feb565b6116fb565b610feb565b9050919050565b5f819050919050565b61173783611704565b61174b61174382611725565b8484546116aa565b825550505050565b5f90565b61175f611753565b61176a81848461172e565b505050565b5b8181101561178d576117825f82611757565b600181019050611770565b5050565b601f8211156117d2576117a38161167d565b6117ac8461168f565b810160208510156117bb578190505b6117cf6117c78561168f565b83018261176f565b50505b505050565b5f82821c905092915050565b5f6117f25f19846008026117d7565b1980831691505092915050565b5f61180a83836117e3565b9150826002028217905092915050565b611823826110c9565b67ffffffffffffffff81111561183c5761183b610d24565b5b611846825461164d565b611851828285611791565b5f60209050601f831160018114611882575f8415611870578287015190505b61187a85826117ff565b8655506118e1565b601f1984166118908661167d565b5f5b828110156118b757848901518255600182019150602085019450602081019050611892565b868310156118d457848901516118d0601f8916826117e3565b8355505b6001600288020188555050505b505050505050565b5f6118f382610f2a565b91506118fe83610f2a565b9250828201905063ffffffff81111561191a57611919611593565b5b92915050565b5f61193a61193561193084610f2a565b6116fb565b610feb565b9050919050565b61194a81611920565b82525050565b5f6060820190508181035f83015261196881866114b6565b9050818103602083015261197c8185611356565b905061198b6040830184611941565b949350505050565b7f506f6c6c20636c6f7365640000000000000000000000000000000000000000005f82015250565b5f6119c7600b836114a6565b91506119d282611993565b602082019050919050565b5f6020820190508181035f8301526119f4816119bb565b9050919050565b7f496e76616c696420506f6c6c20494400000000000000000000000000000000005f82015250565b5f611a2f600f836114a6565b9150611a3a826119fb565b602082019050919050565b5f6020820190508181035f830152611a5c81611a23565b9050919050565b7f416c726561647920766f746564000000000000000000000000000000000000005f82015250565b5f611a97600d836114a6565b9150611aa282611a63565b602082019050919050565b5f6020820190508181035f830152611ac481611a8b565b9050919050565b7f496e76616c6964206f7074696f6e0000000000000000000000000000000000005f82015250565b5f611aff600e836114a6565b9150611b0a82611acb565b602082019050919050565b5f6020820190508181035f830152611b2c81611af3565b9050919050565b5f81905092915050565b5f611b47826110c9565b611b518185611b33565b9350611b618185602086016110e3565b80840191505092915050565b5f611b788284611b3d565b915081905092915050565b5f611b8d82610feb565b91507fffffffffffffffffffffffffffffffffffffffffffffffffffffffffffffffff8203611bbf57611bbe611593565b5b600182019050919050565b5f73ffffffffffffffffffffffffffffffffffffffff82169050919050565b5f611bf382611bca565b9050919050565b5f8160601b9050919050565b5f611c1082611bfa565b9050919050565b5f611c2182611c06565b9050919050565b611c39611c3482611be9565b611c17565b82525050565b7f2068617320766f7465642e0000000000000000000000000000000000000000005f82015250565b5f611c73600b83611b33565b9150611c7e82611c3f565b600b82019050919050565b5f611c948284611c28565b601482019150611ca382611c67565b915081905092915050565b5f81519050919050565b5f82825260208201905092915050565b5f611cd282611cae565b611cdc8185611cb8565b9350611cec8185602086016110e3565b611cf581610d14565b840191505092915050565b5f6020820190508181035f830152611d188184611cc8565b905092915050565b5f8154611d2c8161164d565b611d368186611b33565b9450600182165f8114611d505760018114611d6557611d97565b60ff1983168652811515820286019350611d97565b611d6e8561167d565b5f5b83811015611d8f57815481890152600182019150602081019050611d70565b838801955050505b50505092915050565b5f611dab8284611d20565b91508190509291505056fea2646970667358221220a4281a786640e51d822a61c51817befb1afc057487bf510cb4a2b47df2a6d29664736f6c634300081a0033",
					"opcodes": "PUSH1 0x80 PUSH1 0x40 MSTORE CALLVALUE DUP1 ISZERO PUSH1 0xE JUMPI PUSH0 DUP1 REVERT JUMPDEST POP PUSH2 0x1DEC DUP1 PUSH2 0x1C PUSH0 CODECOPY PUSH0 RETURN INVALID PUSH1 0x80 PUSH1 0x40 MSTORE CALLVALUE DUP1 ISZERO PUSH2 0xF JUMPI PUSH0 DUP1 REVERT JUMPDEST POP PUSH1 0x4 CALLDATASIZE LT PUSH2 0x55 JUMPI PUSH0 CALLDATALOAD PUSH1 0xE0 SHR DUP1 PUSH4 0x1F252A8E EQ PUSH2 0x59 JUMPI DUP1 PUSH4 0x24108475 EQ PUSH2 0x89 JUMPI DUP1 PUSH4 0x63A9492F EQ PUSH2 0xA5 JUMPI DUP1 PUSH4 0x81A60C0D EQ PUSH2 0xC3 JUMPI DUP1 PUSH4 0xAC2F0074 EQ PUSH2 0xF4 JUMPI JUMPDEST PUSH0 DUP1 REVERT JUMPDEST PUSH2 0x73 PUSH1 0x4 DUP1 CALLDATASIZE SUB DUP2 ADD SWAP1 PUSH2 0x6E SWAP2 SWAP1 PUSH2 0xF63 JUMP JUMPDEST PUSH2 0x125 JUMP JUMPDEST PUSH1 0x40 MLOAD PUSH2 0x80 SWAP2 SWAP1 PUSH2 0x1003 JUMP JUMPDEST PUSH1 0x40 MLOAD DUP1 SWAP2 SUB SWAP1 RETURN JUMPDEST PUSH2 0xA3 PUSH1 0x4 DUP1 CALLDATASIZE SUB DUP2 ADD SWAP1 PUSH2 0x9E SWAP2 SWAP1 PUSH2 0x1046 JUMP JUMPDEST PUSH2 0x258 JUMP JUMPDEST STOP JUMPDEST PUSH2 0xAD PUSH2 0x5C6 JUMP JUMPDEST PUSH1 0x40 MLOAD PUSH2 0xBA SWAP2 SWAP1 PUSH2 0x12FB JUMP JUMPDEST PUSH1 0x40 MLOAD DUP1 SWAP2 SUB SWAP1 RETURN JUMPDEST PUSH2 0xDD PUSH1 0x4 DUP1 CALLDATASIZE SUB DUP2 ADD SWAP1 PUSH2 0xD8 SWAP2 SWAP1 PUSH2 0x131B JUMP JUMPDEST PUSH2 0x905 JUMP JUMPDEST PUSH1 0x40 MLOAD PUSH2 0xEB SWAP3 SWAP2 SWAP1 PUSH2 0x1471 JUMP JUMPDEST PUSH1 0x40 MLOAD DUP1 SWAP2 SUB SWAP1 RETURN JUMPDEST PUSH2 0x10E PUSH1 0x4 DUP1 CALLDATASIZE SUB DUP2 ADD SWAP1 PUSH2 0x109 SWAP2 SWAP1 PUSH2 0x131B JUMP JUMPDEST PUSH2 0xAD7 JUMP JUMPDEST PUSH1 0x40 MLOAD PUSH2 0x11C SWAP3 SWAP2 SWAP1 PUSH2 0x14FD JUMP JUMPDEST PUSH1 0x40 MLOAD DUP1 SWAP2 SUB SWAP1 RETURN JUMPDEST PUSH0 DUP1 DUP4 MLOAD GT PUSH2 0x169 JUMPI PUSH1 0x40 MLOAD PUSH32 0x8C379A000000000000000000000000000000000000000000000000000000000 DUP2 MSTORE PUSH1 0x4 ADD PUSH2 0x160 SWAP1 PUSH2 0x1575 JUMP JUMPDEST PUSH1 0x40 MLOAD DUP1 SWAP2 SUB SWAP1 REVERT JUMPDEST PUSH0 PUSH1 0x1 DUP2 PUSH1 0x1 DUP2 SLOAD ADD DUP1 DUP3 SSTORE DUP1 SWAP2 POP POP SUB SWAP1 PUSH0 MSTORE PUSH1 0x20 PUSH0 KECCAK256 SWAP1 POP POP PUSH0 PUSH1 0x1 PUSH0 DUP1 SLOAD SWAP1 POP PUSH2 0x196 SWAP2 SWAP1 PUSH2 0x15C0 JUMP JUMPDEST SWAP1 POP PUSH0 DUP1 DUP3 DUP2 SLOAD DUP2 LT PUSH2 0x1AC JUMPI PUSH2 0x1AB PUSH2 0x15F3 JUMP JUMPDEST JUMPDEST SWAP1 PUSH0 MSTORE PUSH1 0x20 PUSH0 KECCAK256 SWAP1 PUSH1 0x5 MUL ADD SWAP1 POP DUP6 DUP2 PUSH0 ADD SWAP1 DUP2 PUSH2 0x1CA SWAP2 SWAP1 PUSH2 0x181A JUMP JUMPDEST POP DUP5 DUP2 PUSH1 0x1 ADD SWAP1 DUP1 MLOAD SWAP1 PUSH1 0x20 ADD SWAP1 PUSH2 0x1E3 SWAP3 SWAP2 SWAP1 PUSH2 0xBFD JUMP JUMPDEST POP DUP4 TIMESTAMP PUSH2 0x1F0 SWAP2 SWAP1 PUSH2 0x18E9 JUMP JUMPDEST DUP2 PUSH1 0x2 ADD PUSH0 PUSH2 0x100 EXP DUP2 SLOAD DUP2 PUSH4 0xFFFFFFFF MUL NOT AND SWAP1 DUP4 PUSH4 0xFFFFFFFF AND MUL OR SWAP1 SSTORE POP PUSH32 0x1EDEDD90E900E0BD1754831E81E2F375C8A8FBC71EEEB8D6610AE6EC1AFC880E DUP7 DUP7 DUP7 PUSH1 0x40 MLOAD PUSH2 0x244 SWAP4 SWAP3 SWAP2 SWAP1 PUSH2 0x1950 JUMP JUMPDEST PUSH1 0x40 MLOAD DUP1 SWAP2 SUB SWAP1 LOG1 DUP2 SWAP3 POP POP POP SWAP4 SWAP3 POP POP POP JUMP JUMPDEST DUP2 PUSH0 DUP2 DUP2 SLOAD DUP2 LT PUSH2 0x26C JUMPI PUSH2 0x26B PUSH2 0x15F3 JUMP JUMPDEST JUMPDEST SWAP1 PUSH0 MSTORE PUSH1 0x20 PUSH0 KECCAK256 SWAP1 PUSH1 0x5 MUL ADD PUSH1 0x2 ADD PUSH0 SWAP1 SLOAD SWAP1 PUSH2 0x100 EXP SWAP1 DIV PUSH4 0xFFFFFFFF AND PUSH4 0xFFFFFFFF AND TIMESTAMP LT PUSH2 0x2D2 JUMPI PUSH1 0x40 MLOAD PUSH32 0x8C379A000000000000000000000000000000000000000000000000000000000 DUP2 MSTORE PUSH1 0x4 ADD PUSH2 0x2C9 SWAP1 PUSH2 0x19DD JUMP JUMPDEST PUSH1 0x40 MLOAD DUP1 SWAP2 SUB SWAP1 REVERT JUMPDEST PUSH0 DUP1 SLOAD SWAP1 POP DUP4 GT ISZERO PUSH2 0x319 JUMPI PUSH1 0x40 MLOAD PUSH32 0x8C379A000000000000000000000000000000000000000000000000000000000 DUP2 MSTORE PUSH1 0x4 ADD PUSH2 0x310 SWAP1 PUSH2 0x1A45 JUMP JUMPDEST PUSH1 0x40 MLOAD DUP1 SWAP2 SUB SWAP1 REVERT JUMPDEST PUSH0 DUP1 DUP5 DUP2 SLOAD DUP2 LT PUSH2 0x32D JUMPI PUSH2 0x32C PUSH2 0x15F3 JUMP JUMPDEST JUMPDEST SWAP1 PUSH0 MSTORE PUSH1 0x20 PUSH0 KECCAK256 SWAP1 PUSH1 0x5 MUL ADD SWAP1 POP DUP1 PUSH1 0x4 ADD PUSH0 CALLER PUSH20 0xFFFFFFFFFFFFFFFFFFFFFFFFFFFFFFFFFFFFFFFF AND PUSH20 0xFFFFFFFFFFFFFFFFFFFFFFFFFFFFFFFFFFFFFFFF AND DUP2 MSTORE PUSH1 0x20 ADD SWAP1 DUP2 MSTORE PUSH1 0x20 ADD PUSH0 KECCAK256 PUSH0 SWAP1 SLOAD SWAP1 PUSH2 0x100 EXP SWAP1 DIV PUSH1 0xFF AND ISZERO PUSH2 0x3C7 JUMPI PUSH1 0x40 MLOAD PUSH32 0x8C379A000000000000000000000000000000000000000000000000000000000 DUP2 MSTORE PUSH1 0x4 ADD PUSH2 0x3BE SWAP1 PUSH2 0x1AAD JUMP JUMPDEST PUSH1 0x40 MLOAD DUP1 SWAP2 SUB SWAP1 REVERT JUMPDEST PUSH2 0x49F DUP2 PUSH1 0x1 ADD DUP1 SLOAD DUP1 PUSH1 0x20 MUL PUSH1 0x20 ADD PUSH1 0x40 MLOAD SWAP1 DUP2 ADD PUSH1 0x40 MSTORE DUP1 SWAP3 SWAP2 SWAP1 DUP2 DUP2 MSTORE PUSH1 0x20 ADD PUSH0 SWAP1 JUMPDEST DUP3 DUP3 LT ISZERO PUSH2 0x495 JUMPI DUP4 DUP3 SWAP1 PUSH0 MSTORE PUSH1 0x20 PUSH0 KECCAK256 ADD DUP1 SLOAD PUSH2 0x40A SWAP1 PUSH2 0x164D JUMP JUMPDEST DUP1 PUSH1 0x1F ADD PUSH1 0x20 DUP1 SWAP2 DIV MUL PUSH1 0x20 ADD PUSH1 0x40 MLOAD SWAP1 DUP2 ADD PUSH1 0x40 MSTORE DUP1 SWAP3 SWAP2 SWAP1 DUP2 DUP2 MSTORE PUSH1 0x20 ADD DUP3 DUP1 SLOAD PUSH2 0x436 SWAP1 PUSH2 0x164D JUMP JUMPDEST DUP1 ISZERO PUSH2 0x481 JUMPI DUP1 PUSH1 0x1F LT PUSH2 0x458 JUMPI PUSH2 0x100 DUP1 DUP4 SLOAD DIV MUL DUP4 MSTORE SWAP2 PUSH1 0x20 ADD SWAP2 PUSH2 0x481 JUMP JUMPDEST DUP3 ADD SWAP2 SWAP1 PUSH0 MSTORE PUSH1 0x20 PUSH0 KECCAK256 SWAP1 JUMPDEST DUP2 SLOAD DUP2 MSTORE SWAP1 PUSH1 0x1 ADD SWAP1 PUSH1 0x20 ADD DUP1 DUP4 GT PUSH2 0x464 JUMPI DUP3 SWAP1 SUB PUSH1 0x1F AND DUP3 ADD SWAP2 JUMPDEST POP POP POP POP POP DUP2 MSTORE PUSH1 0x20 ADD SWAP1 PUSH1 0x1 ADD SWAP1 PUSH2 0x3ED JUMP JUMPDEST POP POP POP POP DUP5 PUSH2 0xB9A JUMP JUMPDEST PUSH2 0x4DE JUMPI PUSH1 0x40 MLOAD PUSH32 0x8C379A000000000000000000000000000000000000000000000000000000000 DUP2 MSTORE PUSH1 0x4 ADD PUSH2 0x4D5 SWAP1 PUSH2 0x1B15 JUMP JUMPDEST PUSH1 0x40 MLOAD DUP1 SWAP2 SUB SWAP1 REVERT JUMPDEST DUP1 PUSH1 0x3 ADD DUP4 PUSH1 0x40 MLOAD PUSH2 0x4F0 SWAP2 SWAP1 PUSH2 0x1B6D JUMP JUMPDEST SWAP1 DUP2 MSTORE PUSH1 0x20 ADD PUSH1 0x40 MLOAD DUP1 SWAP2 SUB SWAP1 KECCAK256 PUSH0 DUP2 SLOAD DUP1 SWAP3 SWAP2 SWAP1 PUSH2 0x50E SWAP1 PUSH2 0x1B83 JUMP JUMPDEST SWAP2 SWAP1 POP SSTORE POP PUSH1 0x1 DUP2 PUSH1 0x4 ADD PUSH0 CALLER PUSH20 0xFFFFFFFFFFFFFFFFFFFFFFFFFFFFFFFFFFFFFFFF AND PUSH20 0xFFFFFFFFFFFFFFFFFFFFFFFFFFFFFFFFFFFFFFFF AND DUP2 MSTORE PUSH1 0x20 ADD SWAP1 DUP2 MSTORE PUSH1 0x20 ADD PUSH0 KECCAK256 PUSH0 PUSH2 0x100 EXP DUP2 SLOAD DUP2 PUSH1 0xFF MUL NOT AND SWAP1 DUP4 ISZERO ISZERO MUL OR SWAP1 SSTORE POP PUSH32 0x38712374569E245B0D09FA173EB0B0392E784F9CC7895E53B879DC1F6EF9C2A CALLER PUSH1 0x40 MLOAD PUSH1 0x20 ADD PUSH2 0x59C SWAP2 SWAP1 PUSH2 0x1C89 JUMP JUMPDEST PUSH1 0x40 MLOAD PUSH1 0x20 DUP2 DUP4 SUB SUB DUP2 MSTORE SWAP1 PUSH1 0x40 MSTORE PUSH1 0x40 MLOAD PUSH2 0x5B8 SWAP2 SWAP1 PUSH2 0x1D00 JUMP JUMPDEST PUSH1 0x40 MLOAD DUP1 SWAP2 SUB SWAP1 LOG1 POP POP POP POP JUMP JUMPDEST PUSH1 0x60 PUSH0 DUP1 JUMPDEST PUSH0 DUP1 SLOAD SWAP1 POP DUP2 LT ISZERO PUSH2 0x631 JUMPI TIMESTAMP PUSH0 DUP3 DUP2 SLOAD DUP2 LT PUSH2 0x5EB JUMPI PUSH2 0x5EA PUSH2 0x15F3 JUMP JUMPDEST JUMPDEST SWAP1 PUSH0 MSTORE PUSH1 0x20 PUSH0 KECCAK256 SWAP1 PUSH1 0x5 MUL ADD PUSH1 0x2 ADD PUSH0 SWAP1 SLOAD SWAP1 PUSH2 0x100 EXP SWAP1 DIV PUSH4 0xFFFFFFFF AND PUSH4 0xFFFFFFFF AND LT PUSH2 0x624 JUMPI DUP2 DUP1 PUSH2 0x620 SWAP1 PUSH2 0x1B83 JUMP JUMPDEST SWAP3 POP POP JUMPDEST DUP1 DUP1 PUSH1 0x1 ADD SWAP2 POP POP PUSH2 0x5CB JUMP JUMPDEST POP PUSH0 DUP2 PUSH8 0xFFFFFFFFFFFFFFFF DUP2 GT ISZERO PUSH2 0x64D JUMPI PUSH2 0x64C PUSH2 0xD24 JUMP JUMPDEST JUMPDEST PUSH1 0x40 MLOAD SWAP1 DUP1 DUP3 MSTORE DUP1 PUSH1 0x20 MUL PUSH1 0x20 ADD DUP3 ADD PUSH1 0x40 MSTORE DUP1 ISZERO PUSH2 0x686 JUMPI DUP2 PUSH1 0x20 ADD JUMPDEST PUSH2 0x673 PUSH2 0xC54 JUMP JUMPDEST DUP2 MSTORE PUSH1 0x20 ADD SWAP1 PUSH1 0x1 SWAP1 SUB SWAP1 DUP2 PUSH2 0x66B JUMPI SWAP1 POP JUMPDEST POP SWAP1 POP PUSH0 DUP1 JUMPDEST PUSH0 DUP1 SLOAD SWAP1 POP DUP2 LT ISZERO PUSH2 0x8FB JUMPI TIMESTAMP PUSH0 DUP3 DUP2 SLOAD DUP2 LT PUSH2 0x6AC JUMPI PUSH2 0x6AB PUSH2 0x15F3 JUMP JUMPDEST JUMPDEST SWAP1 PUSH0 MSTORE PUSH1 0x20 PUSH0 KECCAK256 SWAP1 PUSH1 0x5 MUL ADD PUSH1 0x2 ADD PUSH0 SWAP1 SLOAD SWAP1 PUSH2 0x100 EXP SWAP1 DIV PUSH4 0xFFFFFFFF AND PUSH4 0xFFFFFFFF AND LT PUSH2 0x8EE JUMPI PUSH1 0x40 MLOAD DUP1 PUSH1 0x80 ADD PUSH1 0x40 MSTORE DUP1 PUSH0 DUP4 DUP2 SLOAD DUP2 LT PUSH2 0x6F4 JUMPI PUSH2 0x6F3 PUSH2 0x15F3 JUMP JUMPDEST JUMPDEST SWAP1 PUSH0 MSTORE PUSH1 0x20 PUSH0 KECCAK256 SWAP1 PUSH1 0x5 MUL ADD PUSH0 ADD DUP1 SLOAD PUSH2 0x70D SWAP1 PUSH2 0x164D JUMP JUMPDEST DUP1 PUSH1 0x1F ADD PUSH1 0x20 DUP1 SWAP2 DIV MUL PUSH1 0x20 ADD PUSH1 0x40 MLOAD SWAP1 DUP2 ADD PUSH1 0x40 MSTORE DUP1 SWAP3 SWAP2 SWAP1 DUP2 DUP2 MSTORE PUSH1 0x20 ADD DUP3 DUP1 SLOAD PUSH2 0x739 SWAP1 PUSH2 0x164D JUMP JUMPDEST DUP1 ISZERO PUSH2 0x784 JUMPI DUP1 PUSH1 0x1F LT PUSH2 0x75B JUMPI PUSH2 0x100 DUP1 DUP4 SLOAD DIV MUL DUP4 MSTORE SWAP2 PUSH1 0x20 ADD SWAP2 PUSH2 0x784 JUMP JUMPDEST DUP3 ADD SWAP2 SWAP1 PUSH0 MSTORE PUSH1 0x20 PUSH0 KECCAK256 SWAP1 JUMPDEST DUP2 SLOAD DUP2 MSTORE SWAP1 PUSH1 0x1 ADD SWAP1 PUSH1 0x20 ADD DUP1 DUP4 GT PUSH2 0x767 JUMPI DUP3 SWAP1 SUB PUSH1 0x1F AND DUP3 ADD SWAP2 JUMPDEST POP POP POP POP POP DUP2 MSTORE PUSH1 0x20 ADD PUSH0 DUP4 DUP2 SLOAD DUP2 LT PUSH2 0x7A1 JUMPI PUSH2 0x7A0 PUSH2 0x15F3 JUMP JUMPDEST JUMPDEST SWAP1 PUSH0 MSTORE PUSH1 0x20 PUSH0 KECCAK256 SWAP1 PUSH1 0x5 MUL ADD PUSH1 0x1 ADD DUP1 SLOAD DUP1 PUSH1 0x20 MUL PUSH1 0x20 ADD PUSH1 0x40 MLOAD SWAP1 DUP2 ADD PUSH1 0x40 MSTORE DUP1 SWAP3 SWAP2 SWAP1 DUP2 DUP2 MSTORE PUSH1 0x20 ADD PUSH0 SWAP1 JUMPDEST DUP3 DUP3 LT ISZERO PUSH2 0x877 JUMPI DUP4 DUP3 SWAP1 PUSH0 MSTORE PUSH1 0x20 PUSH0 KECCAK256 ADD DUP1 SLOAD PUSH2 0x7EC SWAP1 PUSH2 0x164D JUMP JUMPDEST DUP1 PUSH1 0x1F ADD PUSH1 0x20 DUP1 SWAP2 DIV MUL PUSH1 0x20 ADD PUSH1 0x40 MLOAD SWAP1 DUP2 ADD PUSH1 0x40 MSTORE DUP1 SWAP3 SWAP2 SWAP1 DUP2 DUP2 MSTORE PUSH1 0x20 ADD DUP3 DUP1 SLOAD PUSH2 0x818 SWAP1 PUSH2 0x164D JUMP JUMPDEST DUP1 ISZERO PUSH2 0x863 JUMPI DUP1 PUSH1 0x1F LT PUSH2 0x83A JUMPI PUSH2 0x100 DUP1 DUP4 SLOAD DIV MUL DUP4 MSTORE SWAP2 PUSH1 0x20 ADD SWAP2 PUSH2 0x863 JUMP JUMPDEST DUP3 ADD SWAP2 SWAP1 PUSH0 MSTORE PUSH1 0x20 PUSH0 KECCAK256 SWAP1 JUMPDEST DUP2 SLOAD DUP2 MSTORE SWAP1 PUSH1 0x1 ADD SWAP1 PUSH1 0x20 ADD DUP1 DUP4 GT PUSH2 0x846 JUMPI DUP3 SWAP1 SUB PUSH1 0x1F AND DUP3 ADD SWAP2 JUMPDEST POP POP POP POP POP DUP2 MSTORE PUSH1 0x20 ADD SWAP1 PUSH1 0x1 ADD SWAP1 PUSH2 0x7CF JUMP JUMPDEST POP POP POP POP DUP2 MSTORE PUSH1 0x20 ADD PUSH0 DUP4 DUP2 SLOAD DUP2 LT PUSH2 0x893 JUMPI PUSH2 0x892 PUSH2 0x15F3 JUMP JUMPDEST JUMPDEST SWAP1 PUSH0 MSTORE PUSH1 0x20 PUSH0 KECCAK256 SWAP1 PUSH1 0x5 MUL ADD PUSH1 0x2 ADD PUSH0 SWAP1 SLOAD SWAP1 PUSH2 0x100 EXP SWAP1 DIV PUSH4 0xFFFFFFFF AND PUSH4 0xFFFFFFFF AND DUP2 MSTORE PUSH1 0x20 ADD DUP3 DUP2 MSTORE POP DUP4 DUP4 DUP2 MLOAD DUP2 LT PUSH2 0x8D4 JUMPI PUSH2 0x8D3 PUSH2 0x15F3 JUMP JUMPDEST JUMPDEST PUSH1 0x20 MUL PUSH1 0x20 ADD ADD DUP2 SWAP1 MSTORE POP DUP2 DUP1 PUSH2 0x8EA SWAP1 PUSH2 0x1B83 JUMP JUMPDEST SWAP3 POP POP JUMPDEST DUP1 DUP1 PUSH1 0x1 ADD SWAP2 POP POP PUSH2 0x68C JUMP JUMPDEST POP DUP2 SWAP4 POP POP POP POP SWAP1 JUMP JUMPDEST PUSH1 0x60 DUP1 PUSH0 DUP1 DUP5 DUP2 SLOAD DUP2 LT PUSH2 0x91C JUMPI PUSH2 0x91B PUSH2 0x15F3 JUMP JUMPDEST JUMPDEST SWAP1 PUSH0 MSTORE PUSH1 0x20 PUSH0 KECCAK256 SWAP1 PUSH1 0x5 MUL ADD SWAP1 POP PUSH0 DUP2 PUSH1 0x1 ADD DUP1 SLOAD SWAP1 POP PUSH8 0xFFFFFFFFFFFFFFFF DUP2 GT ISZERO PUSH2 0x94C JUMPI PUSH2 0x94B PUSH2 0xD24 JUMP JUMPDEST JUMPDEST PUSH1 0x40 MLOAD SWAP1 DUP1 DUP3 MSTORE DUP1 PUSH1 0x20 MUL PUSH1 0x20 ADD DUP3 ADD PUSH1 0x40 MSTORE DUP1 ISZERO PUSH2 0x97A JUMPI DUP2 PUSH1 0x20 ADD PUSH1 0x20 DUP3 MUL DUP1 CALLDATASIZE DUP4 CALLDATACOPY DUP1 DUP3 ADD SWAP2 POP POP SWAP1 POP JUMPDEST POP SWAP1 POP PUSH0 JUMPDEST DUP3 PUSH1 0x1 ADD DUP1 SLOAD SWAP1 POP DUP2 LT ISZERO PUSH2 0x9F8 JUMPI DUP3 PUSH1 0x3 ADD DUP4 PUSH1 0x1 ADD DUP3 DUP2 SLOAD DUP2 LT PUSH2 0x9A8 JUMPI PUSH2 0x9A7 PUSH2 0x15F3 JUMP JUMPDEST JUMPDEST SWAP1 PUSH0 MSTORE PUSH1 0x20 PUSH0 KECCAK256 ADD PUSH1 0x40 MLOAD PUSH2 0x9BD SWAP2 SWAP1 PUSH2 0x1DA0 JUMP JUMPDEST SWAP1 DUP2 MSTORE PUSH1 0x20 ADD PUSH1 0x40 MLOAD DUP1 SWAP2 SUB SWAP1 KECCAK256 SLOAD DUP3 DUP3 DUP2 MLOAD DUP2 LT PUSH2 0x9DF JUMPI PUSH2 0x9DE PUSH2 0x15F3 JUMP JUMPDEST JUMPDEST PUSH1 0x20 MUL PUSH1 0x20 ADD ADD DUP2 DUP2 MSTORE POP POP DUP1 DUP1 PUSH1 0x1 ADD SWAP2 POP POP PUSH2 0x97F JUMP JUMPDEST POP DUP2 PUSH1 0x1 ADD DUP2 DUP2 DUP1 SLOAD DUP1 PUSH1 0x20 MUL PUSH1 0x20 ADD PUSH1 0x40 MLOAD SWAP1 DUP2 ADD PUSH1 0x40 MSTORE DUP1 SWAP3 SWAP2 SWAP1 DUP2 DUP2 MSTORE PUSH1 0x20 ADD PUSH0 SWAP1 JUMPDEST DUP3 DUP3 LT ISZERO PUSH2 0xAC6 JUMPI DUP4 DUP3 SWAP1 PUSH0 MSTORE PUSH1 0x20 PUSH0 KECCAK256 ADD DUP1 SLOAD PUSH2 0xA3B SWAP1 PUSH2 0x164D JUMP JUMPDEST DUP1 PUSH1 0x1F ADD PUSH1 0x20 DUP1 SWAP2 DIV MUL PUSH1 0x20 ADD PUSH1 0x40 MLOAD SWAP1 DUP2 ADD PUSH1 0x40 MSTORE DUP1 SWAP3 SWAP2 SWAP1 DUP2 DUP2 MSTORE PUSH1 0x20 ADD DUP3 DUP1 SLOAD PUSH2 0xA67 SWAP1 PUSH2 0x164D JUMP JUMPDEST DUP1 ISZERO PUSH2 0xAB2 JUMPI DUP1 PUSH1 0x1F LT PUSH2 0xA89 JUMPI PUSH2 0x100 DUP1 DUP4 SLOAD DIV MUL DUP4 MSTORE SWAP2 PUSH1 0x20 ADD SWAP2 PUSH2 0xAB2 JUMP JUMPDEST DUP3 ADD SWAP2 SWAP1 PUSH0 MSTORE PUSH1 0x20 PUSH0 KECCAK256 SWAP1 JUMPDEST DUP2 SLOAD DUP2 MSTORE SWAP1 PUSH1 0x1 ADD SWAP1 PUSH1 0x20 ADD DUP1 DUP4 GT PUSH2 0xA95 JUMPI DUP3 SWAP1 SUB PUSH1 0x1F AND DUP3 ADD SWAP2 JUMPDEST POP POP POP POP POP DUP2 MSTORE PUSH1 0x20 ADD SWAP1 PUSH1 0x1 ADD SWAP1 PUSH2 0xA1E JUMP JUMPDEST POP POP POP POP SWAP2 POP SWAP4 POP SWAP4 POP POP POP SWAP2 POP SWAP2 JUMP JUMPDEST PUSH0 DUP2 DUP2 SLOAD DUP2 LT PUSH2 0xAE5 JUMPI PUSH0 DUP1 REVERT JUMPDEST SWAP1 PUSH0 MSTORE PUSH1 0x20 PUSH0 KECCAK256 SWAP1 PUSH1 0x5 MUL ADD PUSH0 SWAP2 POP SWAP1 POP DUP1 PUSH0 ADD DUP1 SLOAD PUSH2 0xB04 SWAP1 PUSH2 0x164D JUMP JUMPDEST DUP1 PUSH1 0x1F ADD PUSH1 0x20 DUP1 SWAP2 DIV MUL PUSH1 0x20 ADD PUSH1 0x40 MLOAD SWAP1 DUP2 ADD PUSH1 0x40 MSTORE DUP1 SWAP3 SWAP2 SWAP1 DUP2 DUP2 MSTORE PUSH1 0x20 ADD DUP3 DUP1 SLOAD PUSH2 0xB30 SWAP1 PUSH2 0x164D JUMP JUMPDEST DUP1 ISZERO PUSH2 0xB7B JUMPI DUP1 PUSH1 0x1F LT PUSH2 0xB52 JUMPI PUSH2 0x100 DUP1 DUP4 SLOAD DIV MUL DUP4 MSTORE SWAP2 PUSH1 0x20 ADD SWAP2 PUSH2 0xB7B JUMP JUMPDEST DUP3 ADD SWAP2 SWAP1 PUSH0 MSTORE PUSH1 0x20 PUSH0 KECCAK256 SWAP1 JUMPDEST DUP2 SLOAD DUP2 MSTORE SWAP1 PUSH1 0x1 ADD SWAP1 PUSH1 0x20 ADD DUP1 DUP4 GT PUSH2 0xB5E JUMPI DUP3 SWAP1 SUB PUSH1 0x1F AND DUP3 ADD SWAP2 JUMPDEST POP POP POP POP POP SWAP1 DUP1 PUSH1 0x2 ADD PUSH0 SWAP1 SLOAD SWAP1 PUSH2 0x100 EXP SWAP1 DIV PUSH4 0xFFFFFFFF AND SWAP1 POP DUP3 JUMP JUMPDEST PUSH0 DUP1 DUP3 DUP1 MLOAD SWAP1 PUSH1 0x20 ADD KECCAK256 SWAP1 POP PUSH0 JUMPDEST DUP5 MLOAD DUP2 LT ISZERO PUSH2 0xBF1 JUMPI DUP2 DUP6 DUP3 DUP2 MLOAD DUP2 LT PUSH2 0xBC5 JUMPI PUSH2 0xBC4 PUSH2 0x15F3 JUMP JUMPDEST JUMPDEST PUSH1 0x20 MUL PUSH1 0x20 ADD ADD MLOAD DUP1 MLOAD SWAP1 PUSH1 0x20 ADD KECCAK256 SUB PUSH2 0xBE4 JUMPI PUSH1 0x1 SWAP3 POP POP POP PUSH2 0xBF7 JUMP JUMPDEST DUP1 DUP1 PUSH1 0x1 ADD SWAP2 POP POP PUSH2 0xBA8 JUMP JUMPDEST POP PUSH0 SWAP2 POP POP JUMPDEST SWAP3 SWAP2 POP POP JUMP JUMPDEST DUP3 DUP1 SLOAD DUP3 DUP3 SSTORE SWAP1 PUSH0 MSTORE PUSH1 0x20 PUSH0 KECCAK256 SWAP1 DUP2 ADD SWAP3 DUP3 ISZERO PUSH2 0xC43 JUMPI SWAP2 PUSH1 0x20 MUL DUP3 ADD JUMPDEST DUP3 DUP2 GT ISZERO PUSH2 0xC42 JUMPI DUP3 MLOAD DUP3 SWAP1 DUP2 PUSH2 0xC32 SWAP2 SWAP1 PUSH2 0x181A JUMP JUMPDEST POP SWAP2 PUSH1 0x20 ADD SWAP2 SWAP1 PUSH1 0x1 ADD SWAP1 PUSH2 0xC1B JUMP JUMPDEST JUMPDEST POP SWAP1 POP PUSH2 0xC50 SWAP2 SWAP1 PUSH2 0xC80 JUMP JUMPDEST POP SWAP1 JUMP JUMPDEST PUSH1 0x40 MLOAD DUP1 PUSH1 0x80 ADD PUSH1 0x40 MSTORE DUP1 PUSH1 0x60 DUP2 MSTORE PUSH1 0x20 ADD PUSH1 0x60 DUP2 MSTORE PUSH1 0x20 ADD PUSH0 PUSH4 0xFFFFFFFF AND DUP2 MSTORE PUSH1 0x20 ADD PUSH0 DUP2 MSTORE POP SWAP1 JUMP JUMPDEST JUMPDEST DUP1 DUP3 GT ISZERO PUSH2 0xC9F JUMPI PUSH0 DUP2 DUP2 PUSH2 0xC96 SWAP2 SWAP1 PUSH2 0xCA3 JUMP JUMPDEST POP PUSH1 0x1 ADD PUSH2 0xC81 JUMP JUMPDEST POP SWAP1 JUMP JUMPDEST POP DUP1 SLOAD PUSH2 0xCAF SWAP1 PUSH2 0x164D JUMP JUMPDEST PUSH0 DUP3 SSTORE DUP1 PUSH1 0x1F LT PUSH2 0xCC0 JUMPI POP PUSH2 0xCDD JUMP JUMPDEST PUSH1 0x1F ADD PUSH1 0x20 SWAP1 DIV SWAP1 PUSH0 MSTORE PUSH1 0x20 PUSH0 KECCAK256 SWAP1 DUP2 ADD SWAP1 PUSH2 0xCDC SWAP2 SWAP1 PUSH2 0xCE0 JUMP JUMPDEST JUMPDEST POP JUMP JUMPDEST JUMPDEST DUP1 DUP3 GT ISZERO PUSH2 0xCF7 JUMPI PUSH0 DUP2 PUSH0 SWAP1 SSTORE POP PUSH1 0x1 ADD PUSH2 0xCE1 JUMP JUMPDEST POP SWAP1 JUMP JUMPDEST PUSH0 PUSH1 0x40 MLOAD SWAP1 POP SWAP1 JUMP JUMPDEST PUSH0 DUP1 REVERT JUMPDEST PUSH0 DUP1 REVERT JUMPDEST PUSH0 DUP1 REVERT JUMPDEST PUSH0 DUP1 REVERT JUMPDEST PUSH0 PUSH1 0x1F NOT PUSH1 0x1F DUP4 ADD AND SWAP1 POP SWAP2 SWAP1 POP JUMP JUMPDEST PUSH32 0x4E487B7100000000000000000000000000000000000000000000000000000000 PUSH0 MSTORE PUSH1 0x41 PUSH1 0x4 MSTORE PUSH1 0x24 PUSH0 REVERT JUMPDEST PUSH2 0xD5A DUP3 PUSH2 0xD14 JUMP JUMPDEST DUP2 ADD DUP2 DUP2 LT PUSH8 0xFFFFFFFFFFFFFFFF DUP3 GT OR ISZERO PUSH2 0xD79 JUMPI PUSH2 0xD78 PUSH2 0xD24 JUMP JUMPDEST JUMPDEST DUP1 PUSH1 0x40 MSTORE POP POP POP JUMP JUMPDEST PUSH0 PUSH2 0xD8B PUSH2 0xCFB JUMP JUMPDEST SWAP1 POP PUSH2 0xD97 DUP3 DUP3 PUSH2 0xD51 JUMP JUMPDEST SWAP2 SWAP1 POP JUMP JUMPDEST PUSH0 PUSH8 0xFFFFFFFFFFFFFFFF DUP3 GT ISZERO PUSH2 0xDB6 JUMPI PUSH2 0xDB5 PUSH2 0xD24 JUMP JUMPDEST JUMPDEST PUSH2 0xDBF DUP3 PUSH2 0xD14 JUMP JUMPDEST SWAP1 POP PUSH1 0x20 DUP2 ADD SWAP1 POP SWAP2 SWAP1 POP JUMP JUMPDEST DUP3 DUP2 DUP4 CALLDATACOPY PUSH0 DUP4 DUP4 ADD MSTORE POP POP POP JUMP JUMPDEST PUSH0 PUSH2 0xDEC PUSH2 0xDE7 DUP5 PUSH2 0xD9C JUMP JUMPDEST PUSH2 0xD82 JUMP JUMPDEST SWAP1 POP DUP3 DUP2 MSTORE PUSH1 0x20 DUP2 ADD DUP5 DUP5 DUP5 ADD GT ISZERO PUSH2 0xE08 JUMPI PUSH2 0xE07 PUSH2 0xD10 JUMP JUMPDEST JUMPDEST PUSH2 0xE13 DUP5 DUP3 DUP6 PUSH2 0xDCC JUMP JUMPDEST POP SWAP4 SWAP3 POP POP POP JUMP JUMPDEST PUSH0 DUP3 PUSH1 0x1F DUP4 ADD SLT PUSH2 0xE2F JUMPI PUSH2 0xE2E PUSH2 0xD0C JUMP JUMPDEST JUMPDEST DUP2 CALLDATALOAD PUSH2 0xE3F DUP5 DUP3 PUSH1 0x20 DUP7 ADD PUSH2 0xDDA JUMP JUMPDEST SWAP2 POP POP SWAP3 SWAP2 POP POP JUMP JUMPDEST PUSH0 PUSH8 0xFFFFFFFFFFFFFFFF DUP3 GT ISZERO PUSH2 0xE62 JUMPI PUSH2 0xE61 PUSH2 0xD24 JUMP JUMPDEST JUMPDEST PUSH1 0x20 DUP3 MUL SWAP1 POP PUSH1 0x20 DUP2 ADD SWAP1 POP SWAP2 SWAP1 POP JUMP JUMPDEST PUSH0 DUP1 REVERT JUMPDEST PUSH0 PUSH2 0xE89 PUSH2 0xE84 DUP5 PUSH2 0xE48 JUMP JUMPDEST PUSH2 0xD82 JUMP JUMPDEST SWAP1 POP DUP1 DUP4 DUP3 MSTORE PUSH1 0x20 DUP3 ADD SWAP1 POP PUSH1 0x20 DUP5 MUL DUP4 ADD DUP6 DUP2 GT ISZERO PUSH2 0xEAC JUMPI PUSH2 0xEAB PUSH2 0xE73 JUMP JUMPDEST JUMPDEST DUP4 JUMPDEST DUP2 DUP2 LT ISZERO PUSH2 0xEF3 JUMPI DUP1 CALLDATALOAD PUSH8 0xFFFFFFFFFFFFFFFF DUP2 GT ISZERO PUSH2 0xED1 JUMPI PUSH2 0xED0 PUSH2 0xD0C JUMP JUMPDEST JUMPDEST DUP1 DUP7 ADD PUSH2 0xEDE DUP10 DUP3 PUSH2 0xE1B JUMP JUMPDEST DUP6 MSTORE PUSH1 0x20 DUP6 ADD SWAP5 POP POP POP PUSH1 0x20 DUP2 ADD SWAP1 POP PUSH2 0xEAE JUMP JUMPDEST POP POP POP SWAP4 SWAP3 POP POP POP JUMP JUMPDEST PUSH0 DUP3 PUSH1 0x1F DUP4 ADD SLT PUSH2 0xF11 JUMPI PUSH2 0xF10 PUSH2 0xD0C JUMP JUMPDEST JUMPDEST DUP2 CALLDATALOAD PUSH2 0xF21 DUP5 DUP3 PUSH1 0x20 DUP7 ADD PUSH2 0xE77 JUMP JUMPDEST SWAP2 POP POP SWAP3 SWAP2 POP POP JUMP JUMPDEST PUSH0 PUSH4 0xFFFFFFFF DUP3 AND SWAP1 POP SWAP2 SWAP1 POP JUMP JUMPDEST PUSH2 0xF42 DUP2 PUSH2 0xF2A JUMP JUMPDEST DUP2 EQ PUSH2 0xF4C JUMPI PUSH0 DUP1 REVERT JUMPDEST POP JUMP JUMPDEST PUSH0 DUP2 CALLDATALOAD SWAP1 POP PUSH2 0xF5D DUP2 PUSH2 0xF39 JUMP JUMPDEST SWAP3 SWAP2 POP POP JUMP JUMPDEST PUSH0 DUP1 PUSH0 PUSH1 0x60 DUP5 DUP7 SUB SLT ISZERO PUSH2 0xF7A JUMPI PUSH2 0xF79 PUSH2 0xD04 JUMP JUMPDEST JUMPDEST PUSH0 DUP5 ADD CALLDATALOAD PUSH8 0xFFFFFFFFFFFFFFFF DUP2 GT ISZERO PUSH2 0xF97 JUMPI PUSH2 0xF96 PUSH2 0xD08 JUMP JUMPDEST JUMPDEST PUSH2 0xFA3 DUP7 DUP3 DUP8 ADD PUSH2 0xE1B JUMP JUMPDEST SWAP4 POP POP PUSH1 0x20 DUP5 ADD CALLDATALOAD PUSH8 0xFFFFFFFFFFFFFFFF DUP2 GT ISZERO PUSH2 0xFC4 JUMPI PUSH2 0xFC3 PUSH2 0xD08 JUMP JUMPDEST JUMPDEST PUSH2 0xFD0 DUP7 DUP3 DUP8 ADD PUSH2 0xEFD JUMP JUMPDEST SWAP3 POP POP PUSH1 0x40 PUSH2 0xFE1 DUP7 DUP3 DUP8 ADD PUSH2 0xF4F JUMP JUMPDEST SWAP2 POP POP SWAP3 POP SWAP3 POP SWAP3 JUMP JUMPDEST PUSH0 DUP2 SWAP1 POP SWAP2 SWAP1 POP JUMP JUMPDEST PUSH2 0xFFD DUP2 PUSH2 0xFEB JUMP JUMPDEST DUP3 MSTORE POP POP JUMP JUMPDEST PUSH0 PUSH1 0x20 DUP3 ADD SWAP1 POP PUSH2 0x1016 PUSH0 DUP4 ADD DUP5 PUSH2 0xFF4 JUMP JUMPDEST SWAP3 SWAP2 POP POP JUMP JUMPDEST PUSH2 0x1025 DUP2 PUSH2 0xFEB JUMP JUMPDEST DUP2 EQ PUSH2 0x102F JUMPI PUSH0 DUP1 REVERT JUMPDEST POP JUMP JUMPDEST PUSH0 DUP2 CALLDATALOAD SWAP1 POP PUSH2 0x1040 DUP2 PUSH2 0x101C JUMP JUMPDEST SWAP3 SWAP2 POP POP JUMP JUMPDEST PUSH0 DUP1 PUSH1 0x40 DUP4 DUP6 SUB SLT ISZERO PUSH2 0x105C JUMPI PUSH2 0x105B PUSH2 0xD04 JUMP JUMPDEST JUMPDEST PUSH0 PUSH2 0x1069 DUP6 DUP3 DUP7 ADD PUSH2 0x1032 JUMP JUMPDEST SWAP3 POP POP PUSH1 0x20 DUP4 ADD CALLDATALOAD PUSH8 0xFFFFFFFFFFFFFFFF DUP2 GT ISZERO PUSH2 0x108A JUMPI PUSH2 0x1089 PUSH2 0xD08 JUMP JUMPDEST JUMPDEST PUSH2 0x1096 DUP6 DUP3 DUP7 ADD PUSH2 0xE1B JUMP JUMPDEST SWAP2 POP POP SWAP3 POP SWAP3 SWAP1 POP JUMP JUMPDEST PUSH0 DUP2 MLOAD SWAP1 POP SWAP2 SWAP1 POP JUMP JUMPDEST PUSH0 DUP3 DUP3 MSTORE PUSH1 0x20 DUP3 ADD SWAP1 POP SWAP3 SWAP2 POP POP JUMP JUMPDEST PUSH0 DUP2 SWAP1 POP PUSH1 0x20 DUP3 ADD SWAP1 POP SWAP2 SWAP1 POP JUMP JUMPDEST PUSH0 DUP2 MLOAD SWAP1 POP SWAP2 SWAP1 POP JUMP JUMPDEST PUSH0 DUP3 DUP3 MSTORE PUSH1 0x20 DUP3 ADD SWAP1 POP SWAP3 SWAP2 POP POP JUMP JUMPDEST DUP3 DUP2 DUP4 MCOPY PUSH0 DUP4 DUP4 ADD MSTORE POP POP POP JUMP JUMPDEST PUSH0 PUSH2 0x10FB DUP3 PUSH2 0x10C9 JUMP JUMPDEST PUSH2 0x1105 DUP2 DUP6 PUSH2 0x10D3 JUMP JUMPDEST SWAP4 POP PUSH2 0x1115 DUP2 DUP6 PUSH1 0x20 DUP7 ADD PUSH2 0x10E3 JUMP JUMPDEST PUSH2 0x111E DUP2 PUSH2 0xD14 JUMP JUMPDEST DUP5 ADD SWAP2 POP POP SWAP3 SWAP2 POP POP JUMP JUMPDEST PUSH0 DUP2 MLOAD SWAP1 POP SWAP2 SWAP1 POP JUMP JUMPDEST PUSH0 DUP3 DUP3 MSTORE PUSH1 0x20 DUP3 ADD SWAP1 POP SWAP3 SWAP2 POP POP JUMP JUMPDEST PUSH0 DUP2 SWAP1 POP PUSH1 0x20 DUP3 ADD SWAP1 POP SWAP2 SWAP1 POP JUMP JUMPDEST PUSH0 PUSH2 0x115D DUP4 DUP4 PUSH2 0x10F1 JUMP JUMPDEST SWAP1 POP SWAP3 SWAP2 POP POP JUMP JUMPDEST PUSH0 PUSH1 0x20 DUP3 ADD SWAP1 POP SWAP2 SWAP1 POP JUMP JUMPDEST PUSH0 PUSH2 0x117B DUP3 PUSH2 0x1129 JUMP JUMPDEST PUSH2 0x1185 DUP2 DUP6 PUSH2 0x1133 JUMP JUMPDEST SWAP4 POP DUP4 PUSH1 0x20 DUP3 MUL DUP6 ADD PUSH2 0x1197 DUP6 PUSH2 0x1143 JUMP JUMPDEST DUP1 PUSH0 JUMPDEST DUP6 DUP2 LT ISZERO PUSH2 0x11D2 JUMPI DUP5 DUP5 SUB DUP10 MSTORE DUP2 MLOAD PUSH2 0x11B3 DUP6 DUP3 PUSH2 0x1152 JUMP JUMPDEST SWAP5 POP PUSH2 0x11BE DUP4 PUSH2 0x1165 JUMP JUMPDEST SWAP3 POP PUSH1 0x20 DUP11 ADD SWAP10 POP POP PUSH1 0x1 DUP2 ADD SWAP1 POP PUSH2 0x119A JUMP JUMPDEST POP DUP3 SWAP8 POP DUP8 SWAP6 POP POP POP POP POP POP SWAP3 SWAP2 POP POP JUMP JUMPDEST PUSH2 0x11ED DUP2 PUSH2 0xF2A JUMP JUMPDEST DUP3 MSTORE POP POP JUMP JUMPDEST PUSH2 0x11FC DUP2 PUSH2 0xFEB JUMP JUMPDEST DUP3 MSTORE POP POP JUMP JUMPDEST PUSH0 PUSH1 0x80 DUP4 ADD PUSH0 DUP4 ADD MLOAD DUP5 DUP3 SUB PUSH0 DUP7 ADD MSTORE PUSH2 0x121C DUP3 DUP3 PUSH2 0x10F1 JUMP JUMPDEST SWAP2 POP POP PUSH1 0x20 DUP4 ADD MLOAD DUP5 DUP3 SUB PUSH1 0x20 DUP7 ADD MSTORE PUSH2 0x1236 DUP3 DUP3 PUSH2 0x1171 JUMP JUMPDEST SWAP2 POP POP PUSH1 0x40 DUP4 ADD MLOAD PUSH2 0x124B PUSH1 0x40 DUP7 ADD DUP3 PUSH2 0x11E4 JUMP JUMPDEST POP PUSH1 0x60 DUP4 ADD MLOAD PUSH2 0x125E PUSH1 0x60 DUP7 ADD DUP3 PUSH2 0x11F3 JUMP JUMPDEST POP DUP1 SWAP2 POP POP SWAP3 SWAP2 POP POP JUMP JUMPDEST PUSH0 PUSH2 0x1274 DUP4 DUP4 PUSH2 0x1202 JUMP JUMPDEST SWAP1 POP SWAP3 SWAP2 POP POP JUMP JUMPDEST PUSH0 PUSH1 0x20 DUP3 ADD SWAP1 POP SWAP2 SWAP1 POP JUMP JUMPDEST PUSH0 PUSH2 0x1292 DUP3 PUSH2 0x10A0 JUMP JUMPDEST PUSH2 0x129C DUP2 DUP6 PUSH2 0x10AA JUMP JUMPDEST SWAP4 POP DUP4 PUSH1 0x20 DUP3 MUL DUP6 ADD PUSH2 0x12AE DUP6 PUSH2 0x10BA JUMP JUMPDEST DUP1 PUSH0 JUMPDEST DUP6 DUP2 LT ISZERO PUSH2 0x12E9 JUMPI DUP5 DUP5 SUB DUP10 MSTORE DUP2 MLOAD PUSH2 0x12CA DUP6 DUP3 PUSH2 0x1269 JUMP JUMPDEST SWAP5 POP PUSH2 0x12D5 DUP4 PUSH2 0x127C JUMP JUMPDEST SWAP3 POP PUSH1 0x20 DUP11 ADD SWAP10 POP POP PUSH1 0x1 DUP2 ADD SWAP1 POP PUSH2 0x12B1 JUMP JUMPDEST POP DUP3 SWAP8 POP DUP8 SWAP6 POP POP POP POP POP POP SWAP3 SWAP2 POP POP JUMP JUMPDEST PUSH0 PUSH1 0x20 DUP3 ADD SWAP1 POP DUP2 DUP2 SUB PUSH0 DUP4 ADD MSTORE PUSH2 0x1313 DUP2 DUP5 PUSH2 0x1288 JUMP JUMPDEST SWAP1 POP SWAP3 SWAP2 POP POP JUMP JUMPDEST PUSH0 PUSH1 0x20 DUP3 DUP5 SUB SLT ISZERO PUSH2 0x1330 JUMPI PUSH2 0x132F PUSH2 0xD04 JUMP JUMPDEST JUMPDEST PUSH0 PUSH2 0x133D DUP5 DUP3 DUP6 ADD PUSH2 0x1032 JUMP JUMPDEST SWAP2 POP POP SWAP3 SWAP2 POP POP JUMP JUMPDEST PUSH0 DUP3 DUP3 MSTORE PUSH1 0x20 DUP3 ADD SWAP1 POP SWAP3 SWAP2 POP POP JUMP JUMPDEST PUSH0 PUSH2 0x1360 DUP3 PUSH2 0x1129 JUMP JUMPDEST PUSH2 0x136A DUP2 DUP6 PUSH2 0x1346 JUMP JUMPDEST SWAP4 POP DUP4 PUSH1 0x20 DUP3 MUL DUP6 ADD PUSH2 0x137C DUP6 PUSH2 0x1143 JUMP JUMPDEST DUP1 PUSH0 JUMPDEST DUP6 DUP2 LT ISZERO PUSH2 0x13B7 JUMPI DUP5 DUP5 SUB DUP10 MSTORE DUP2 MLOAD PUSH2 0x1398 DUP6 DUP3 PUSH2 0x1152 JUMP JUMPDEST SWAP5 POP PUSH2 0x13A3 DUP4 PUSH2 0x1165 JUMP JUMPDEST SWAP3 POP PUSH1 0x20 DUP11 ADD SWAP10 POP POP PUSH1 0x1 DUP2 ADD SWAP1 POP PUSH2 0x137F JUMP JUMPDEST POP DUP3 SWAP8 POP DUP8 SWAP6 POP POP POP POP POP POP SWAP3 SWAP2 POP POP JUMP JUMPDEST PUSH0 DUP2 MLOAD SWAP1 POP SWAP2 SWAP1 POP JUMP JUMPDEST PUSH0 DUP3 DUP3 MSTORE PUSH1 0x20 DUP3 ADD SWAP1 POP SWAP3 SWAP2 POP POP JUMP JUMPDEST PUSH0 DUP2 SWAP1 POP PUSH1 0x20 DUP3 ADD SWAP1 POP SWAP2 SWAP1 POP JUMP JUMPDEST PUSH0 PUSH2 0x13FD DUP4 DUP4 PUSH2 0x11F3 JUMP JUMPDEST PUSH1 0x20 DUP4 ADD SWAP1 POP SWAP3 SWAP2 POP POP JUMP JUMPDEST PUSH0 PUSH1 0x20 DUP3 ADD SWAP1 POP SWAP2 SWAP1 POP JUMP JUMPDEST PUSH0 PUSH2 0x141F DUP3 PUSH2 0x13C9 JUMP JUMPDEST PUSH2 0x1429 DUP2 DUP6 PUSH2 0x13D3 JUMP JUMPDEST SWAP4 POP PUSH2 0x1434 DUP4 PUSH2 0x13E3 JUMP JUMPDEST DUP1 PUSH0 JUMPDEST DUP4 DUP2 LT ISZERO PUSH2 0x1464 JUMPI DUP2 MLOAD PUSH2 0x144B DUP9 DUP3 PUSH2 0x13F2 JUMP JUMPDEST SWAP8 POP PUSH2 0x1456 DUP4 PUSH2 0x1409 JUMP JUMPDEST SWAP3 POP POP PUSH1 0x1 DUP2 ADD SWAP1 POP PUSH2 0x1437 JUMP JUMPDEST POP DUP6 SWAP4 POP POP POP POP SWAP3 SWAP2 POP POP JUMP JUMPDEST PUSH0 PUSH1 0x40 DUP3 ADD SWAP1 POP DUP2 DUP2 SUB PUSH0 DUP4 ADD MSTORE PUSH2 0x1489 DUP2 DUP6 PUSH2 0x1356 JUMP JUMPDEST SWAP1 POP DUP2 DUP2 SUB PUSH1 0x20 DUP4 ADD MSTORE PUSH2 0x149D DUP2 DUP5 PUSH2 0x1415 JUMP JUMPDEST SWAP1 POP SWAP4 SWAP3 POP POP POP JUMP JUMPDEST PUSH0 DUP3 DUP3 MSTORE PUSH1 0x20 DUP3 ADD SWAP1 POP SWAP3 SWAP2 POP POP JUMP JUMPDEST PUSH0 PUSH2 0x14C0 DUP3 PUSH2 0x10C9 JUMP JUMPDEST PUSH2 0x14CA DUP2 DUP6 PUSH2 0x14A6 JUMP JUMPDEST SWAP4 POP PUSH2 0x14DA DUP2 DUP6 PUSH1 0x20 DUP7 ADD PUSH2 0x10E3 JUMP JUMPDEST PUSH2 0x14E3 DUP2 PUSH2 0xD14 JUMP JUMPDEST DUP5 ADD SWAP2 POP POP SWAP3 SWAP2 POP POP JUMP JUMPDEST PUSH2 0x14F7 DUP2 PUSH2 0xF2A JUMP JUMPDEST DUP3 MSTORE POP POP JUMP JUMPDEST PUSH0 PUSH1 0x40 DUP3 ADD SWAP1 POP DUP2 DUP2 SUB PUSH0 DUP4 ADD MSTORE PUSH2 0x1515 DUP2 DUP6 PUSH2 0x14B6 JUMP JUMPDEST SWAP1 POP PUSH2 0x1524 PUSH1 0x20 DUP4 ADD DUP5 PUSH2 0x14EE JUMP JUMPDEST SWAP4 SWAP3 POP POP POP JUMP JUMPDEST PUSH32 0x4E6F206F7074696F6E732070726F766964656400000000000000000000000000 PUSH0 DUP3 ADD MSTORE POP JUMP JUMPDEST PUSH0 PUSH2 0x155F PUSH1 0x13 DUP4 PUSH2 0x14A6 JUMP JUMPDEST SWAP2 POP PUSH2 0x156A DUP3 PUSH2 0x152B JUMP JUMPDEST PUSH1 0x20 DUP3 ADD SWAP1 POP SWAP2 SWAP1 POP JUMP JUMPDEST PUSH0 PUSH1 0x20 DUP3 ADD SWAP1 POP DUP2 DUP2 SUB PUSH0 DUP4 ADD MSTORE PUSH2 0x158C DUP2 PUSH2 0x1553 JUMP JUMPDEST SWAP1 POP SWAP2 SWAP1 POP JUMP JUMPDEST PUSH32 0x4E487B7100000000000000000000000000000000000000000000000000000000 PUSH0 MSTORE PUSH1 0x11 PUSH1 0x4 MSTORE PUSH1 0x24 PUSH0 REVERT JUMPDEST PUSH0 PUSH2 0x15CA DUP3 PUSH2 0xFEB JUMP JUMPDEST SWAP2 POP PUSH2 0x15D5 DUP4 PUSH2 0xFEB JUMP JUMPDEST SWAP3 POP DUP3 DUP3 SUB SWAP1 POP DUP2 DUP2 GT ISZERO PUSH2 0x15ED JUMPI PUSH2 0x15EC PUSH2 0x1593 JUMP JUMPDEST JUMPDEST SWAP3 SWAP2 POP POP JUMP JUMPDEST PUSH32 0x4E487B7100000000000000000000000000000000000000000000000000000000 PUSH0 MSTORE PUSH1 0x32 PUSH1 0x4 MSTORE PUSH1 0x24 PUSH0 REVERT JUMPDEST PUSH32 0x4E487B7100000000000000000000000000000000000000000000000000000000 PUSH0 MSTORE PUSH1 0x22 PUSH1 0x4 MSTORE PUSH1 0x24 PUSH0 REVERT JUMPDEST PUSH0 PUSH1 0x2 DUP3 DIV SWAP1 POP PUSH1 0x1 DUP3 AND DUP1 PUSH2 0x1664 JUMPI PUSH1 0x7F DUP3 AND SWAP2 POP JUMPDEST PUSH1 0x20 DUP3 LT DUP2 SUB PUSH2 0x1677 JUMPI PUSH2 0x1676 PUSH2 0x1620 JUMP JUMPDEST JUMPDEST POP SWAP2 SWAP1 POP JUMP JUMPDEST PUSH0 DUP2 SWAP1 POP DUP2 PUSH0 MSTORE PUSH1 0x20 PUSH0 KECCAK256 SWAP1 POP SWAP2 SWAP1 POP JUMP JUMPDEST PUSH0 PUSH1 0x20 PUSH1 0x1F DUP4 ADD DIV SWAP1 POP SWAP2 SWAP1 POP JUMP JUMPDEST PUSH0 DUP3 DUP3 SHL SWAP1 POP SWAP3 SWAP2 POP POP JUMP JUMPDEST PUSH0 PUSH1 0x8 DUP4 MUL PUSH2 0x16D9 PUSH32 0xFFFFFFFFFFFFFFFFFFFFFFFFFFFFFFFFFFFFFFFFFFFFFFFFFFFFFFFFFFFFFFFF DUP3 PUSH2 0x169E JUMP JUMPDEST PUSH2 0x16E3 DUP7 DUP4 PUSH2 0x169E JUMP JUMPDEST SWAP6 POP DUP1 NOT DUP5 AND SWAP4 POP DUP1 DUP7 AND DUP5 OR SWAP3 POP POP POP SWAP4 SWAP3 POP POP POP JUMP JUMPDEST PUSH0 DUP2 SWAP1 POP SWAP2 SWAP1 POP JUMP JUMPDEST PUSH0 PUSH2 0x171E PUSH2 0x1719 PUSH2 0x1714 DUP5 PUSH2 0xFEB JUMP JUMPDEST PUSH2 0x16FB JUMP JUMPDEST PUSH2 0xFEB JUMP JUMPDEST SWAP1 POP SWAP2 SWAP1 POP JUMP JUMPDEST PUSH0 DUP2 SWAP1 POP SWAP2 SWAP1 POP JUMP JUMPDEST PUSH2 0x1737 DUP4 PUSH2 0x1704 JUMP JUMPDEST PUSH2 0x174B PUSH2 0x1743 DUP3 PUSH2 0x1725 JUMP JUMPDEST DUP5 DUP5 SLOAD PUSH2 0x16AA JUMP JUMPDEST DUP3 SSTORE POP POP POP POP JUMP JUMPDEST PUSH0 SWAP1 JUMP JUMPDEST PUSH2 0x175F PUSH2 0x1753 JUMP JUMPDEST PUSH2 0x176A DUP2 DUP5 DUP5 PUSH2 0x172E JUMP JUMPDEST POP POP POP JUMP JUMPDEST JUMPDEST DUP2 DUP2 LT ISZERO PUSH2 0x178D JUMPI PUSH2 0x1782 PUSH0 DUP3 PUSH2 0x1757 JUMP JUMPDEST PUSH1 0x1 DUP2 ADD SWAP1 POP PUSH2 0x1770 JUMP JUMPDEST POP POP JUMP JUMPDEST PUSH1 0x1F DUP3 GT ISZERO PUSH2 0x17D2 JUMPI PUSH2 0x17A3 DUP2 PUSH2 0x167D JUMP JUMPDEST PUSH2 0x17AC DUP5 PUSH2 0x168F JUMP JUMPDEST DUP2 ADD PUSH1 0x20 DUP6 LT ISZERO PUSH2 0x17BB JUMPI DUP2 SWAP1 POP JUMPDEST PUSH2 0x17CF PUSH2 0x17C7 DUP6 PUSH2 0x168F JUMP JUMPDEST DUP4 ADD DUP3 PUSH2 0x176F JUMP JUMPDEST POP POP JUMPDEST POP POP POP JUMP JUMPDEST PUSH0 DUP3 DUP3 SHR SWAP1 POP SWAP3 SWAP2 POP POP JUMP JUMPDEST PUSH0 PUSH2 0x17F2 PUSH0 NOT DUP5 PUSH1 0x8 MUL PUSH2 0x17D7 JUMP JUMPDEST NOT DUP1 DUP4 AND SWAP2 POP POP SWAP3 SWAP2 POP POP JUMP JUMPDEST PUSH0 PUSH2 0x180A DUP4 DUP4 PUSH2 0x17E3 JUMP JUMPDEST SWAP2 POP DUP3 PUSH1 0x2 MUL DUP3 OR SWAP1 POP SWAP3 SWAP2 POP POP JUMP JUMPDEST PUSH2 0x1823 DUP3 PUSH2 0x10C9 JUMP JUMPDEST PUSH8 0xFFFFFFFFFFFFFFFF DUP2 GT ISZERO PUSH2 0x183C JUMPI PUSH2 0x183B PUSH2 0xD24 JUMP JUMPDEST JUMPDEST PUSH2 0x1846 DUP3 SLOAD PUSH2 0x164D JUMP JUMPDEST PUSH2 0x1851 DUP3 DUP3 DUP6 PUSH2 0x1791 JUMP JUMPDEST PUSH0 PUSH1 0x20 SWAP1 POP PUSH1 0x1F DUP4 GT PUSH1 0x1 DUP2 EQ PUSH2 0x1882 JUMPI PUSH0 DUP5 ISZERO PUSH2 0x1870 JUMPI DUP3 DUP8 ADD MLOAD SWAP1 POP JUMPDEST PUSH2 0x187A DUP6 DUP3 PUSH2 0x17FF JUMP JUMPDEST DUP7 SSTORE POP PUSH2 0x18E1 JUMP JUMPDEST PUSH1 0x1F NOT DUP5 AND PUSH2 0x1890 DUP7 PUSH2 0x167D JUMP JUMPDEST PUSH0 JUMPDEST DUP3 DUP2 LT ISZERO PUSH2 0x18B7 JUMPI DUP5 DUP10 ADD MLOAD DUP3 SSTORE PUSH1 0x1 DUP3 ADD SWAP2 POP PUSH1 0x20 DUP6 ADD SWAP5 POP PUSH1 0x20 DUP2 ADD SWAP1 POP PUSH2 0x1892 JUMP JUMPDEST DUP7 DUP4 LT ISZERO PUSH2 0x18D4 JUMPI DUP5 DUP10 ADD MLOAD PUSH2 0x18D0 PUSH1 0x1F DUP10 AND DUP3 PUSH2 0x17E3 JUMP JUMPDEST DUP4 SSTORE POP JUMPDEST PUSH1 0x1 PUSH1 0x2 DUP9 MUL ADD DUP9 SSTORE POP POP POP JUMPDEST POP POP POP POP POP POP JUMP JUMPDEST PUSH0 PUSH2 0x18F3 DUP3 PUSH2 0xF2A JUMP JUMPDEST SWAP2 POP PUSH2 0x18FE DUP4 PUSH2 0xF2A JUMP JUMPDEST SWAP3 POP DUP3 DUP3 ADD SWAP1 POP PUSH4 0xFFFFFFFF DUP2 GT ISZERO PUSH2 0x191A JUMPI PUSH2 0x1919 PUSH2 0x1593 JUMP JUMPDEST JUMPDEST SWAP3 SWAP2 POP POP JUMP JUMPDEST PUSH0 PUSH2 0x193A PUSH2 0x1935 PUSH2 0x1930 DUP5 PUSH2 0xF2A JUMP JUMPDEST PUSH2 0x16FB JUMP JUMPDEST PUSH2 0xFEB JUMP JUMPDEST SWAP1 POP SWAP2 SWAP1 POP JUMP JUMPDEST PUSH2 0x194A DUP2 PUSH2 0x1920 JUMP JUMPDEST DUP3 MSTORE POP POP JUMP JUMPDEST PUSH0 PUSH1 0x60 DUP3 ADD SWAP1 POP DUP2 DUP2 SUB PUSH0 DUP4 ADD MSTORE PUSH2 0x1968 DUP2 DUP7 PUSH2 0x14B6 JUMP JUMPDEST SWAP1 POP DUP2 DUP2 SUB PUSH1 0x20 DUP4 ADD MSTORE PUSH2 0x197C DUP2 DUP6 PUSH2 0x1356 JUMP JUMPDEST SWAP1 POP PUSH2 0x198B PUSH1 0x40 DUP4 ADD DUP5 PUSH2 0x1941 JUMP JUMPDEST SWAP5 SWAP4 POP POP POP POP JUMP JUMPDEST PUSH32 0x506F6C6C20636C6F736564000000000000000000000000000000000000000000 PUSH0 DUP3 ADD MSTORE POP JUMP JUMPDEST PUSH0 PUSH2 0x19C7 PUSH1 0xB DUP4 PUSH2 0x14A6 JUMP JUMPDEST SWAP2 POP PUSH2 0x19D2 DUP3 PUSH2 0x1993 JUMP JUMPDEST PUSH1 0x20 DUP3 ADD SWAP1 POP SWAP2 SWAP1 POP JUMP JUMPDEST PUSH0 PUSH1 0x20 DUP3 ADD SWAP1 POP DUP2 DUP2 SUB PUSH0 DUP4 ADD MSTORE PUSH2 0x19F4 DUP2 PUSH2 0x19BB JUMP JUMPDEST SWAP1 POP SWAP2 SWAP1 POP JUMP JUMPDEST PUSH32 0x496E76616C696420506F6C6C2049440000000000000000000000000000000000 PUSH0 DUP3 ADD MSTORE POP JUMP JUMPDEST PUSH0 PUSH2 0x1A2F PUSH1 0xF DUP4 PUSH2 0x14A6 JUMP JUMPDEST SWAP2 POP PUSH2 0x1A3A DUP3 PUSH2 0x19FB JUMP JUMPDEST PUSH1 0x20 DUP3 ADD SWAP1 POP SWAP2 SWAP1 POP JUMP JUMPDEST PUSH0 PUSH1 0x20 DUP3 ADD SWAP1 POP DUP2 DUP2 SUB PUSH0 DUP4 ADD MSTORE PUSH2 0x1A5C DUP2 PUSH2 0x1A23 JUMP JUMPDEST SWAP1 POP SWAP2 SWAP1 POP JUMP JUMPDEST PUSH32 0x416C726561647920766F74656400000000000000000000000000000000000000 PUSH0 DUP3 ADD MSTORE POP JUMP JUMPDEST PUSH0 PUSH2 0x1A97 PUSH1 0xD DUP4 PUSH2 0x14A6 JUMP JUMPDEST SWAP2 POP PUSH2 0x1AA2 DUP3 PUSH2 0x1A63 JUMP JUMPDEST PUSH1 0x20 DUP3 ADD SWAP1 POP SWAP2 SWAP1 POP JUMP JUMPDEST PUSH0 PUSH1 0x20 DUP3 ADD SWAP1 POP DUP2 DUP2 SUB PUSH0 DUP4 ADD MSTORE PUSH2 0x1AC4 DUP2 PUSH2 0x1A8B JUMP JUMPDEST SWAP1 POP SWAP2 SWAP1 POP JUMP JUMPDEST PUSH32 0x496E76616C6964206F7074696F6E000000000000000000000000000000000000 PUSH0 DUP3 ADD MSTORE POP JUMP JUMPDEST PUSH0 PUSH2 0x1AFF PUSH1 0xE DUP4 PUSH2 0x14A6 JUMP JUMPDEST SWAP2 POP PUSH2 0x1B0A DUP3 PUSH2 0x1ACB JUMP JUMPDEST PUSH1 0x20 DUP3 ADD SWAP1 POP SWAP2 SWAP1 POP JUMP JUMPDEST PUSH0 PUSH1 0x20 DUP3 ADD SWAP1 POP DUP2 DUP2 SUB PUSH0 DUP4 ADD MSTORE PUSH2 0x1B2C DUP2 PUSH2 0x1AF3 JUMP JUMPDEST SWAP1 POP SWAP2 SWAP1 POP JUMP JUMPDEST PUSH0 DUP2 SWAP1 POP SWAP3 SWAP2 POP POP JUMP JUMPDEST PUSH0 PUSH2 0x1B47 DUP3 PUSH2 0x10C9 JUMP JUMPDEST PUSH2 0x1B51 DUP2 DUP6 PUSH2 0x1B33 JUMP JUMPDEST SWAP4 POP PUSH2 0x1B61 DUP2 DUP6 PUSH1 0x20 DUP7 ADD PUSH2 0x10E3 JUMP JUMPDEST DUP1 DUP5 ADD SWAP2 POP POP SWAP3 SWAP2 POP POP JUMP JUMPDEST PUSH0 PUSH2 0x1B78 DUP3 DUP5 PUSH2 0x1B3D JUMP JUMPDEST SWAP2 POP DUP2 SWAP1 POP SWAP3 SWAP2 POP POP JUMP JUMPDEST PUSH0 PUSH2 0x1B8D DUP3 PUSH2 0xFEB JUMP JUMPDEST SWAP2 POP PUSH32 0xFFFFFFFFFFFFFFFFFFFFFFFFFFFFFFFFFFFFFFFFFFFFFFFFFFFFFFFFFFFFFFFF DUP3 SUB PUSH2 0x1BBF JUMPI PUSH2 0x1BBE PUSH2 0x1593 JUMP JUMPDEST JUMPDEST PUSH1 0x1 DUP3 ADD SWAP1 POP SWAP2 SWAP1 POP JUMP JUMPDEST PUSH0 PUSH20 0xFFFFFFFFFFFFFFFFFFFFFFFFFFFFFFFFFFFFFFFF DUP3 AND SWAP1 POP SWAP2 SWAP1 POP JUMP JUMPDEST PUSH0 PUSH2 0x1BF3 DUP3 PUSH2 0x1BCA JUMP JUMPDEST SWAP1 POP SWAP2 SWAP1 POP JUMP JUMPDEST PUSH0 DUP2 PUSH1 0x60 SHL SWAP1 POP SWAP2 SWAP1 POP JUMP JUMPDEST PUSH0 PUSH2 0x1C10 DUP3 PUSH2 0x1BFA JUMP JUMPDEST SWAP1 POP SWAP2 SWAP1 POP JUMP JUMPDEST PUSH0 PUSH2 0x1C21 DUP3 PUSH2 0x1C06 JUMP JUMPDEST SWAP1 POP SWAP2 SWAP1 POP JUMP JUMPDEST PUSH2 0x1C39 PUSH2 0x1C34 DUP3 PUSH2 0x1BE9 JUMP JUMPDEST PUSH2 0x1C17 JUMP JUMPDEST DUP3 MSTORE POP POP JUMP JUMPDEST PUSH32 0x2068617320766F7465642E000000000000000000000000000000000000000000 PUSH0 DUP3 ADD MSTORE POP JUMP JUMPDEST PUSH0 PUSH2 0x1C73 PUSH1 0xB DUP4 PUSH2 0x1B33 JUMP JUMPDEST SWAP2 POP PUSH2 0x1C7E DUP3 PUSH2 0x1C3F JUMP JUMPDEST PUSH1 0xB DUP3 ADD SWAP1 POP SWAP2 SWAP1 POP JUMP JUMPDEST PUSH0 PUSH2 0x1C94 DUP3 DUP5 PUSH2 0x1C28 JUMP JUMPDEST PUSH1 0x14 DUP3 ADD SWAP2 POP PUSH2 0x1CA3 DUP3 PUSH2 0x1C67 JUMP JUMPDEST SWAP2 POP DUP2 SWAP1 POP SWAP3 SWAP2 POP POP JUMP JUMPDEST PUSH0 DUP2 MLOAD SWAP1 POP SWAP2 SWAP1 POP JUMP JUMPDEST PUSH0 DUP3 DUP3 MSTORE PUSH1 0x20 DUP3 ADD SWAP1 POP SWAP3 SWAP2 POP POP JUMP JUMPDEST PUSH0 PUSH2 0x1CD2 DUP3 PUSH2 0x1CAE JUMP JUMPDEST PUSH2 0x1CDC DUP2 DUP6 PUSH2 0x1CB8 JUMP JUMPDEST SWAP4 POP PUSH2 0x1CEC DUP2 DUP6 PUSH1 0x20 DUP7 ADD PUSH2 0x10E3 JUMP JUMPDEST PUSH2 0x1CF5 DUP2 PUSH2 0xD14 JUMP JUMPDEST DUP5 ADD SWAP2 POP POP SWAP3 SWAP2 POP POP JUMP JUMPDEST PUSH0 PUSH1 0x20 DUP3 ADD SWAP1 POP DUP2 DUP2 SUB PUSH0 DUP4 ADD MSTORE PUSH2 0x1D18 DUP2 DUP5 PUSH2 0x1CC8 JUMP JUMPDEST SWAP1 POP SWAP3 SWAP2 POP POP JUMP JUMPDEST PUSH0 DUP2 SLOAD PUSH2 0x1D2C DUP2 PUSH2 0x164D JUMP JUMPDEST PUSH2 0x1D36 DUP2 DUP7 PUSH2 0x1B33 JUMP JUMPDEST SWAP5 POP PUSH1 0x1 DUP3 AND PUSH0 DUP2 EQ PUSH2 0x1D50 JUMPI PUSH1 0x1 DUP2 EQ PUSH2 0x1D65 JUMPI PUSH2 0x1D97 JUMP JUMPDEST PUSH1 0xFF NOT DUP4 AND DUP7 MSTORE DUP2 ISZERO ISZERO DUP3 MUL DUP7 ADD SWAP4 POP PUSH2 0x1D97 JUMP JUMPDEST PUSH2 0x1D6E DUP6 PUSH2 0x167D JUMP JUMPDEST PUSH0 JUMPDEST DUP4 DUP2 LT ISZERO PUSH2 0x1D8F JUMPI DUP2 SLOAD DUP2 DUP10 ADD MSTORE PUSH1 0x1 DUP3 ADD SWAP2 POP PUSH1 0x20 DUP2 ADD SWAP1 POP PUSH2 0x1D70 JUMP JUMPDEST DUP4 DUP9 ADD SWAP6 POP POP POP JUMPDEST POP POP POP SWAP3 SWAP2 POP POP JUMP JUMPDEST PUSH0 PUSH2 0x1DAB DUP3 DUP5 PUSH2 0x1D20 JUMP JUMPDEST SWAP2 POP DUP2 SWAP1 POP SWAP3 SWAP2 POP POP JUMP INVALID LOG2 PUSH5 0x6970667358 0x22 SLT KECCAK256 LOG4 0x28 BYTE PUSH25 0x6640E51D822A61C51817BEFB1AFC057487BF510CB4A2B47DF2 0xA6 0xD2 SWAP7 PUSH5 0x736F6C6343 STOP ADDMOD BYTE STOP CALLER "
				},
				"gasEstimates": {
					"creation": {
						"codeDepositCost": "1532000",
						"executionCost": "1601",
						"totalCost": "1533601"
					},
					"external": {
						"createPoll(string,string[],uint32)": "infinite",
						"getActivePolls()": "infinite",
						"getResults(uint256)": "infinite",
						"polls(uint256)": "infinite",
						"vote(uint256,string)": "infinite"
					},
					"internal": {
						"isValidOption(string memory[] memory,string memory)": "infinite"
					}
				},
				"methodIdentifiers": {
					"createPoll(string,string[],uint32)": "1f252a8e",
					"getActivePolls()": "63a9492f",
					"getResults(uint256)": "81a60c0d",
					"polls(uint256)": "ac2f0074",
					"vote(uint256,string)": "24108475"
				}
			},
			"storageLayout": {
				"storage": [
					{
						"astId": 32,
						"contract": "VotingTheory/polls.sol:Polls",
						"label": "polls",
						"offset": 0,
						"slot": "0",
						"type": "t_array(t_struct(Poll)18_storage)dyn_storage"
					}
				],
				"types": {
					"t_address": {
						"encoding": "inplace",
						"label": "address",
						"numberOfBytes": "20"
					},
					"t_array(t_string_storage)dyn_storage": {
						"base": "t_string_storage",
						"encoding": "dynamic_array",
						"label": "string[]",
						"numberOfBytes": "32"
					},
					"t_array(t_struct(Poll)18_storage)dyn_storage": {
						"base": "t_struct(Poll)18_storage",
						"encoding": "dynamic_array",
						"label": "struct Polls.Poll[]",
						"numberOfBytes": "32"
					},
					"t_bool": {
						"encoding": "inplace",
						"label": "bool",
						"numberOfBytes": "1"
					},
					"t_mapping(t_address,t_bool)": {
						"encoding": "mapping",
						"key": "t_address",
						"label": "mapping(address => bool)",
						"numberOfBytes": "32",
						"value": "t_bool"
					},
					"t_mapping(t_string_memory_ptr,t_uint256)": {
						"encoding": "mapping",
						"key": "t_string_memory_ptr",
						"label": "mapping(string => uint256)",
						"numberOfBytes": "32",
						"value": "t_uint256"
					},
					"t_string_memory_ptr": {
						"encoding": "bytes",
						"label": "string",
						"numberOfBytes": "32"
					},
					"t_string_storage": {
						"encoding": "bytes",
						"label": "string",
						"numberOfBytes": "32"
					},
					"t_struct(Poll)18_storage": {
						"encoding": "inplace",
						"label": "struct Polls.Poll",
						"members": [
							{
								"astId": 4,
								"contract": "VotingTheory/polls.sol:Polls",
								"label": "title",
								"offset": 0,
								"slot": "0",
								"type": "t_string_storage"
							},
							{
								"astId": 7,
								"contract": "VotingTheory/polls.sol:Polls",
								"label": "options",
								"offset": 0,
								"slot": "1",
								"type": "t_array(t_string_storage)dyn_storage"
							},
							{
								"astId": 9,
								"contract": "VotingTheory/polls.sol:Polls",
								"label": "endTime",
								"offset": 0,
								"slot": "2",
								"type": "t_uint32"
							},
							{
								"astId": 13,
								"contract": "VotingTheory/polls.sol:Polls",
								"label": "votes",
								"offset": 0,
								"slot": "3",
								"type": "t_mapping(t_string_memory_ptr,t_uint256)"
							},
							{
								"astId": 17,
								"contract": "VotingTheory/polls.sol:Polls",
								"label": "voted",
								"offset": 0,
								"slot": "4",
								"type": "t_mapping(t_address,t_bool)"
							}
						],
						"numberOfBytes": "160"
					},
					"t_uint256": {
						"encoding": "inplace",
						"label": "uint256",
						"numberOfBytes": "32"
					},
					"t_uint32": {
						"encoding": "inplace",
						"label": "uint32",
						"numberOfBytes": "4"
					}
				}
			},
			"userdoc": {
				"kind": "user",
				"methods": {},
				"notice": "You can use this contract for only the most basic voting",
				"version": 1
			}
		}
	}
}